{
  "contractName": "ChainIdMixin",
  "abi": [
    {
      "constant": true,
      "inputs": [],
      "name": "CHAINID",
      "outputs": [
        {
          "internalType": "uint256",
          "name": "",
          "type": "uint256"
        }
      ],
      "payable": false,
      "stateMutability": "view",
      "type": "function"
    },
    {
      "constant": true,
      "inputs": [],
      "name": "networkId",
      "outputs": [
        {
          "internalType": "bytes",
          "name": "",
          "type": "bytes"
        }
      ],
      "payable": false,
      "stateMutability": "view",
      "type": "function"
    }
  ],
  "bytecode": "0x608060405234801561001057600080fd5b50610122806100206000396000f3fe6080604052348015600f57600080fd5b506004361060325760003560e01c80639025e64c146037578063cc79f97b1460af575b600080fd5b603d60c7565b6040805160208082528351818301528351919283929083019185019080838360005b838110156075578181015183820152602001605f565b50505050905090810190601f16801560a15780820380516001836020036101000a031916815260200191505b509250505060405180910390f35b60b560e6565b60408051918252519081900360200190f35b6040518060400160405280600381526020016201388160e81b81525081565b620138818156fea265627a7a723158200b71a806c03f9501790a811712622be0ec6f9972158fa6eaff17e7616fc53c9e64736f6c63430005110032",
  "source": "pragma solidity ^0.5.2;\n\ncontract ChainIdMixin {\n  bytes constant public networkId = hex\"013881\";\n  uint256 constant public CHAINID = 80001;\n}\n",
  "sourcePath": "/home/manjain/Documents/contracts/contracts/common/mixin/ChainIdMixin.sol",
  "compiler": {
    "name": "solc",
    "version": "0.5.17+commit.d19bba13.Linux.g++"
  },
  "schemaVersion": "3.0.14",
  "updatedAt": "2021-02-21T12:11:06.565Z",
  "devdoc": {
    "methods": {}
  },
  "userdoc": {
    "methods": {}
  }
}