{
  "contractName": "ContractWithFallback",
  "abi": [
    {
      "payable": true,
      "stateMutability": "payable",
      "type": "fallback"
    },
    {
      "constant": false,
      "inputs": [
        {
          "internalType": "address",
          "name": "depositManager",
          "type": "address"
        },
        {
          "internalType": "address",
          "name": "token",
          "type": "address"
        },
        {
          "internalType": "uint256",
          "name": "amount",
          "type": "uint256"
        }
      ],
      "name": "deposit",
      "outputs": [],
      "payable": false,
      "stateMutability": "nonpayable",
      "type": "function"
    },
    {
      "constant": false,
      "inputs": [
        {
          "internalType": "address payable",
          "name": "withdrawManager",
          "type": "address"
        },
        {
          "internalType": "uint256",
          "name": "depositId",
          "type": "uint256"
        },
        {
          "internalType": "address",
          "name": "token",
          "type": "address"
        },
        {
          "internalType": "uint256",
          "name": "amountOrToken",
          "type": "uint256"
        }
      ],
      "name": "startExitWithDepositedTokens",
      "outputs": [],
      "payable": true,
      "stateMutability": "payable",
      "type": "function"
    }
  ],
  "bytecode": "0x608060405234801561001057600080fd5b50610259806100206000396000f3fe6080604052600436106100295760003560e01c80631756baa01461002b5780638340f54914610065575b005b6100296004803603608081101561004157600080fd5b506001600160a01b03813581169160208101359160408201351690606001356100a8565b34801561007157600080fd5b506100296004803603606081101561008857600080fd5b506001600160a01b03813581169160208101359091169060400135610129565b6040805163144a03b360e01b8152600481018590526001600160a01b0384811660248301526044820184905291519186169163144a03b39167016345785d8a000091606480830192600092919082900301818588803b15801561010a57600080fd5b505af115801561011e573d6000803e3d6000fd5b505050505050505050565b816001600160a01b031663095ea7b384836040518363ffffffff1660e01b815260040180836001600160a01b03166001600160a01b0316815260200182815260200192505050602060405180830381600087803b15801561018957600080fd5b505af115801561019d573d6000803e3d6000fd5b505050506040513d60208110156101b357600080fd5b505060408051634bff5c9360e11b81526001600160a01b038481166004830152602482018490529151918516916397feb9269160448082019260009290919082900301818387803b15801561020757600080fd5b505af115801561021b573d6000803e3d6000fd5b5050505050505056fea265627a7a72315820241eb089835a8e76c826d06ff3bcb285d9d5a1698b9aa9c2e67337f1e4b8750f64736f6c63430005110032",
  "source": "pragma solidity ^0.5.2;\n\nimport {IERC20} from \"openzeppelin-solidity/contracts/token/ERC20/IERC20.sol\";\nimport \"../root/depositManager/IDepositManager.sol\";\nimport \"../root/withdrawManager/WithdrawManager.sol\";\n\ncontract ContractWithFallback {\n  function deposit(address depositManager, address token, uint256 amount) public {\n    IERC20(token).approve(depositManager, amount);\n    IDepositManager(depositManager).depositERC20(token, amount);\n  }\n\n  function startExitWithDepositedTokens(\n    address payable withdrawManager,\n    uint256 depositId,\n    address token,\n    uint256 amountOrToken) public payable {\n    WithdrawManager(withdrawManager).startExitWithDepositedTokens.value(10**17)(depositId, token, amountOrToken);\n  }\n\n  function() external payable {}\n}\n\ncontract ContractWithoutFallback {\n  function deposit(address depositManager, address token, uint256 amount) public {\n    IERC20(token).approve(depositManager, amount);\n    IDepositManager(depositManager).depositERC20(token, amount);\n  }\n\n  function startExitWithDepositedTokens(\n    address payable withdrawManager,\n    uint256 depositId,\n    address token,\n    uint256 amountOrToken) public payable {\n    WithdrawManager(withdrawManager).startExitWithDepositedTokens.value(10**17)(depositId, token, amountOrToken);\n  }\n}\n\ncontract ContractWitRevertingFallback {\n  function deposit(address depositManager, address token, uint256 amount) public {\n    IERC20(token).approve(depositManager, amount);\n    IDepositManager(depositManager).depositERC20(token, amount);\n  }\n\n  function startExitWithDepositedTokens(\n    address payable withdrawManager,\n    uint256 depositId,\n    address token,\n    uint256 amountOrToken) public payable {\n    WithdrawManager(withdrawManager).startExitWithDepositedTokens.value(10**17)(depositId, token, amountOrToken);\n  }\n\n  function() external payable {\n    revert(\"not implemented\");\n  }\n}\n",
  "sourcePath": "/home/manjain/Documents/contracts/contracts/test/ContractActor.sol",
  "compiler": {
    "name": "solc",
    "version": "0.5.17+commit.d19bba13.Linux.g++"
  },
  "schemaVersion": "3.3.4",
  "updatedAt": "2021-03-21T20:14:31.253Z",
  "devdoc": {
    "methods": {}
  },
  "userdoc": {
    "methods": {}
  }
}