{
  "contractName": "DepositManager",
  "abi": [
    {
      "inputs": [],
      "payable": false,
      "stateMutability": "nonpayable",
      "type": "constructor"
    },
    {
      "anonymous": false,
      "inputs": [
        {
          "indexed": true,
          "internalType": "uint256",
          "name": "oldLimit",
          "type": "uint256"
        },
        {
          "indexed": true,
          "internalType": "uint256",
          "name": "newLimit",
          "type": "uint256"
        }
      ],
      "name": "MaxErc20DepositUpdate",
      "type": "event"
    },
    {
      "anonymous": false,
      "inputs": [
        {
          "indexed": true,
          "internalType": "address",
          "name": "owner",
          "type": "address"
        },
        {
          "indexed": true,
          "internalType": "address",
          "name": "token",
          "type": "address"
        },
        {
          "indexed": false,
          "internalType": "uint256",
          "name": "amountOrNFTId",
          "type": "uint256"
        },
        {
          "indexed": false,
          "internalType": "uint256",
          "name": "depositBlockId",
          "type": "uint256"
        }
      ],
      "name": "NewDepositBlock",
      "type": "event"
    },
    {
      "anonymous": false,
      "inputs": [
        {
          "indexed": true,
          "internalType": "address",
          "name": "previousOwner",
          "type": "address"
        },
        {
          "indexed": true,
          "internalType": "address",
          "name": "newOwner",
          "type": "address"
        }
      ],
      "name": "OwnershipTransferred",
      "type": "event"
    },
    {
      "payable": true,
      "stateMutability": "payable",
      "type": "fallback"
    },
    {
      "constant": true,
      "inputs": [],
      "name": "childChain",
      "outputs": [
        {
          "internalType": "address",
          "name": "",
          "type": "address"
        }
      ],
      "payable": false,
      "stateMutability": "view",
      "type": "function"
    },
    {
      "constant": true,
      "inputs": [
        {
          "internalType": "uint256",
          "name": "",
          "type": "uint256"
        }
      ],
      "name": "deposits",
      "outputs": [
        {
          "internalType": "bytes32",
          "name": "depositHash",
          "type": "bytes32"
        },
        {
          "internalType": "uint256",
          "name": "createdAt",
          "type": "uint256"
        }
      ],
      "payable": false,
      "stateMutability": "view",
      "type": "function"
    },
    {
      "constant": true,
      "inputs": [],
      "name": "governance",
      "outputs": [
        {
          "internalType": "contract IGovernance",
          "name": "",
          "type": "address"
        }
      ],
      "payable": false,
      "stateMutability": "view",
      "type": "function"
    },
    {
      "constant": true,
      "inputs": [],
      "name": "isOwner",
      "outputs": [
        {
          "internalType": "bool",
          "name": "",
          "type": "bool"
        }
      ],
      "payable": false,
      "stateMutability": "view",
      "type": "function"
    },
    {
      "constant": false,
      "inputs": [],
      "name": "lock",
      "outputs": [],
      "payable": false,
      "stateMutability": "nonpayable",
      "type": "function"
    },
    {
      "constant": true,
      "inputs": [],
      "name": "locked",
      "outputs": [
        {
          "internalType": "bool",
          "name": "",
          "type": "bool"
        }
      ],
      "payable": false,
      "stateMutability": "view",
      "type": "function"
    },
    {
      "constant": true,
      "inputs": [],
      "name": "maxErc20Deposit",
      "outputs": [
        {
          "internalType": "uint256",
          "name": "",
          "type": "uint256"
        }
      ],
      "payable": false,
      "stateMutability": "view",
      "type": "function"
    },
    {
      "constant": true,
      "inputs": [],
      "name": "owner",
      "outputs": [
        {
          "internalType": "address",
          "name": "",
          "type": "address"
        }
      ],
      "payable": false,
      "stateMutability": "view",
      "type": "function"
    },
    {
      "constant": true,
      "inputs": [],
      "name": "registry",
      "outputs": [
        {
          "internalType": "contract Registry",
          "name": "",
          "type": "address"
        }
      ],
      "payable": false,
      "stateMutability": "view",
      "type": "function"
    },
    {
      "constant": false,
      "inputs": [],
      "name": "renounceOwnership",
      "outputs": [],
      "payable": false,
      "stateMutability": "nonpayable",
      "type": "function"
    },
    {
      "constant": true,
      "inputs": [],
      "name": "rootChain",
      "outputs": [
        {
          "internalType": "contract RootChain",
          "name": "",
          "type": "address"
        }
      ],
      "payable": false,
      "stateMutability": "view",
      "type": "function"
    },
    {
      "constant": true,
      "inputs": [],
      "name": "stateSender",
      "outputs": [
        {
          "internalType": "contract StateSender",
          "name": "",
          "type": "address"
        }
      ],
      "payable": false,
      "stateMutability": "view",
      "type": "function"
    },
    {
      "constant": false,
      "inputs": [
        {
          "internalType": "address",
          "name": "newOwner",
          "type": "address"
        }
      ],
      "name": "transferOwnership",
      "outputs": [],
      "payable": false,
      "stateMutability": "nonpayable",
      "type": "function"
    },
    {
      "constant": false,
      "inputs": [],
      "name": "unlock",
      "outputs": [],
      "payable": false,
      "stateMutability": "nonpayable",
      "type": "function"
    },
    {
      "constant": false,
      "inputs": [
        {
          "internalType": "uint256",
          "name": "maxDepositAmount",
          "type": "uint256"
        }
      ],
      "name": "updateMaxErc20Deposit",
      "outputs": [],
      "payable": false,
      "stateMutability": "nonpayable",
      "type": "function"
    },
    {
      "constant": false,
      "inputs": [
        {
          "internalType": "address",
          "name": "_token",
          "type": "address"
        },
        {
          "internalType": "address",
          "name": "_user",
          "type": "address"
        },
        {
          "internalType": "uint256",
          "name": "_amountOrNFTId",
          "type": "uint256"
        }
      ],
      "name": "transferAssets",
      "outputs": [],
      "payable": false,
      "stateMutability": "nonpayable",
      "type": "function"
    },
    {
      "constant": false,
      "inputs": [
        {
          "internalType": "address",
          "name": "_token",
          "type": "address"
        },
        {
          "internalType": "uint256",
          "name": "_amount",
          "type": "uint256"
        }
      ],
      "name": "depositERC20",
      "outputs": [],
      "payable": false,
      "stateMutability": "nonpayable",
      "type": "function"
    },
    {
      "constant": false,
      "inputs": [
        {
          "internalType": "address",
          "name": "_token",
          "type": "address"
        },
        {
          "internalType": "uint256",
          "name": "_tokenId",
          "type": "uint256"
        }
      ],
      "name": "depositERC721",
      "outputs": [],
      "payable": false,
      "stateMutability": "nonpayable",
      "type": "function"
    },
    {
      "constant": false,
      "inputs": [
        {
          "internalType": "address[]",
          "name": "_tokens",
          "type": "address[]"
        },
        {
          "internalType": "uint256[]",
          "name": "_amountOrTokens",
          "type": "uint256[]"
        },
        {
          "internalType": "address",
          "name": "_user",
          "type": "address"
        }
      ],
      "name": "depositBulk",
      "outputs": [],
      "payable": false,
      "stateMutability": "nonpayable",
      "type": "function"
    },
    {
      "constant": false,
      "inputs": [],
      "name": "updateChildChainAndStateSender",
      "outputs": [],
      "payable": false,
      "stateMutability": "nonpayable",
      "type": "function"
    },
    {
      "constant": false,
      "inputs": [
        {
          "internalType": "address",
          "name": "_token",
          "type": "address"
        },
        {
          "internalType": "address",
          "name": "_user",
          "type": "address"
        },
        {
          "internalType": "uint256",
          "name": "_amount",
          "type": "uint256"
        }
      ],
      "name": "depositERC20ForUser",
      "outputs": [],
      "payable": false,
      "stateMutability": "nonpayable",
      "type": "function"
    },
    {
      "constant": false,
      "inputs": [
        {
          "internalType": "address",
          "name": "_token",
          "type": "address"
        },
        {
          "internalType": "address",
          "name": "_user",
          "type": "address"
        },
        {
          "internalType": "uint256",
          "name": "_tokenId",
          "type": "uint256"
        }
      ],
      "name": "depositERC721ForUser",
      "outputs": [],
      "payable": false,
      "stateMutability": "nonpayable",
      "type": "function"
    },
    {
      "constant": false,
      "inputs": [],
      "name": "depositEther",
      "outputs": [],
      "payable": true,
      "stateMutability": "payable",
      "type": "function"
    },
    {
      "constant": false,
      "inputs": [
        {
          "internalType": "address",
          "name": "",
          "type": "address"
        },
        {
          "internalType": "address",
          "name": "_user",
          "type": "address"
        },
        {
          "internalType": "uint256",
          "name": "_tokenId",
          "type": "uint256"
        },
        {
          "internalType": "bytes",
          "name": "",
          "type": "bytes"
        }
      ],
      "name": "onERC721Received",
      "outputs": [
        {
          "internalType": "bytes4",
          "name": "",
          "type": "bytes4"
        }
      ],
      "payable": false,
      "stateMutability": "nonpayable",
      "type": "function"
    },
    {
      "constant": false,
      "inputs": [
        {
          "internalType": "address",
          "name": "_user",
          "type": "address"
        },
        {
          "internalType": "uint256",
          "name": "_amount",
          "type": "uint256"
        },
        {
          "internalType": "bytes",
          "name": "",
          "type": "bytes"
        }
      ],
      "name": "tokenFallback",
      "outputs": [],
      "payable": false,
      "stateMutability": "nonpayable",
      "type": "function"
    },
    {
      "constant": false,
      "inputs": [
        {
          "internalType": "address",
          "name": "_rootChain",
          "type": "address"
        }
      ],
      "name": "updateRootChain",
      "outputs": [],
      "payable": false,
      "stateMutability": "nonpayable",
      "type": "function"
    }
  ],
  "bytecode": "0x608060405268056bc75e2d6310000060085534801561001d57600080fd5b50600080546001600160a01b031916331780825560405182916001600160a01b03169082907f8be0079c531659141344cd1fd0a4f28419497f9722a3daafe3b4186f6b6457e0908290a3600280546001600160a01b0319166001600160a01b0392909216919091179055506119c3806100976000396000f3fe6080604052600436106101815760003560e01c806397feb926116100d1578063cb10f94c1161008a578063e7af7ba111610064578063e7af7ba1146106d2578063f2203711146106f9578063f2fde38b1461072c578063f83d08ba1461075f57610181565b8063cb10f94c1461066f578063cf30901214610684578063d29a4bf61461069957610181565b806397feb92614610503578063987ab9db1461053c57806398ea5fca14610181578063a69df4b514610551578063b02c43d014610566578063c0ee0b8a146105a957610181565b80635aa6e6751161013e5780637b1f7117116101185780637b1f7117146103ae5780638b9e4f93146104825780638da5cb5b146104c55780638f32d59b146104da57610181565b80635aa6e6751461036f578063715018a6146103845780637b1039991461039957610181565b8063072b15351461018b578063150b7a02146101ce57806342be8379146102bc57806342fc47fb146102d157806349f4cc17146103025780634b56c07114610345575b610189610774565b005b34801561019757600080fd5b50610189600480360360608110156101ae57600080fd5b506001600160a01b03813581169160208101359091169060400135610856565b3480156101da57600080fd5b5061029f600480360360808110156101f157600080fd5b6001600160a01b03823581169260208101359091169160408201359190810190608081016060820135600160201b81111561022b57600080fd5b82018360208201111561023d57600080fd5b803590602001918460018302840111600160201b8311171561025e57600080fd5b91908080601f0160208091040260200160405190810160405280939291908181526020018383808284376000920191909152509295506108d2945050505050565b604080516001600160e01b03199092168252519081900360200190f35b3480156102c857600080fd5b506101896108f0565b3480156102dd57600080fd5b506102e6610a01565b604080516001600160a01b039092168252519081900360200190f35b34801561030e57600080fd5b506101896004803603606081101561032557600080fd5b506001600160a01b03813581169160208101359091169060400135610a10565b34801561035157600080fd5b506101896004803603602081101561036857600080fd5b5035610da1565b34801561037b57600080fd5b506102e6610e28565b34801561039057600080fd5b50610189610e37565b3480156103a557600080fd5b506102e6610e92565b3480156103ba57600080fd5b50610189600480360360608110156103d157600080fd5b810190602081018135600160201b8111156103eb57600080fd5b8201836020820111156103fd57600080fd5b803590602001918460208302840111600160201b8311171561041e57600080fd5b919390929091602081019035600160201b81111561043b57600080fd5b82018360208201111561044d57600080fd5b803590602001918460208302840111600160201b8311171561046e57600080fd5b9193509150356001600160a01b0316610ea1565b34801561048e57600080fd5b50610189600480360360608110156104a557600080fd5b506001600160a01b03813581169160208101359091169060400135611261565b3480156104d157600080fd5b506102e661138d565b3480156104e657600080fd5b506104ef61139c565b604080519115158252519081900360200190f35b34801561050f57600080fd5b506101896004803603604081101561052657600080fd5b506001600160a01b0381351690602001356113ad565b34801561054857600080fd5b506102e66113b8565b34801561055d57600080fd5b506101896113c7565b34801561057257600080fd5b506105906004803603602081101561058957600080fd5b503561141a565b6040805192835260208301919091528051918290030190f35b3480156105b557600080fd5b50610189600480360360608110156105cc57600080fd5b6001600160a01b0382351691602081013591810190606081016040820135600160201b8111156105fb57600080fd5b82018360208201111561060d57600080fd5b803590602001918460018302840111600160201b8311171561062e57600080fd5b91908080601f016020809104026020016040519081016040528093929190818152602001838380828437600092019190915250929550611433945050505050565b34801561067b57600080fd5b506102e661143e565b34801561069057600080fd5b506104ef61144d565b3480156106a557600080fd5b50610189600480360360408110156106bc57600080fd5b506001600160a01b03813516906020013561145d565b3480156106de57600080fd5b506106e7611468565b60408051918252519081900360200190f35b34801561070557600080fd5b506101896004803603602081101561071c57600080fd5b50356001600160a01b031661146e565b34801561073857600080fd5b506101896004803603602081101561074f57600080fd5b50356001600160a01b03166114a1565b34801561076b57600080fd5b506101896114be565b60035460408051638b9c948960e01b815290516000926001600160a01b031691638b9c9489916004808301926020929190829003018186803b1580156107b957600080fd5b505afa1580156107cd573d6000803e3d6000fd5b505050506040513d60208110156107e357600080fd5b505160408051630d0e30db60e41b8152905191925082916001600160a01b0383169163d0e30db091349160048082019260009290919082900301818588803b15801561082e57600080fd5b505af1158015610842573d6000803e3d6000fd5b505050505061085233833461150f565b5050565b604080516323b872dd60e01b81523360048201523060248201526044810183905290516001600160a01b038516916323b872dd91606480830192600092919082900301818387803b1580156108aa57600080fd5b505af11580156108be573d6000803e3d6000fd5b505050506108cd82848361150f565b505050565b60006108df84338561150f565b50630a85bd0160e11b949350505050565b60035460408051630c91702f60e31b8152815160009384936001600160a01b039091169263648b81789260048083019392829003018186803b15801561093557600080fd5b505afa158015610949573d6000803e3d6000fd5b505050506040513d604081101561095f57600080fd5b50805160209091015160055491935091506001600160a01b03808316911614158061099857506007546001600160a01b03838116911614155b6109d35760405162461bcd60e51b815260040180806020018281038252603e81526020018061192b603e913960400191505060405180910390fd5b600780546001600160a01b039384166001600160a01b03199182161790915560058054929093169116179055565b6007546001600160a01b031681565b600354604080516337b1d58560e01b815233600482015290516001600160a01b03909216916337b1d58591602480820192602092909190829003018186803b158015610a5b57600080fd5b505afa158015610a6f573d6000803e3d6000fd5b505050506040513d6020811015610a8557600080fd5b50516003811115610a9257fe5b60ff16610ade576040805162461bcd60e51b81526020600482015260156024820152744e6f7420612076616c69642070726564696361746560581b604482015290519081900360640190fd5b60035460408051638b9c948960e01b815290516000926001600160a01b031691638b9c9489916004808301926020929190829003018186803b158015610b2357600080fd5b505afa158015610b37573d6000803e3d6000fd5b505050506040513d6020811015610b4d57600080fd5b5051600354604080516336a8279560e21b81526001600160a01b038881166004830152915193945091169163daa09e5491602480820192602092909190829003018186803b158015610b9e57600080fd5b505afa158015610bb2573d6000803e3d6000fd5b505050506040513d6020811015610bc857600080fd5b505115610c4457604080516323b872dd60e01b81523060048201526001600160a01b038581166024830152604482018590529151918616916323b872dd9160648082019260009290919082900301818387803b158015610c2757600080fd5b505af1158015610c3b573d6000803e3d6000fd5b50505050610d9b565b806001600160a01b0316846001600160a01b03161415610ccc5760408051627b8a6760e11b8152600481018490526001600160a01b0385811660248301529151869283169162f714ce91604480830192600092919082900301818387803b158015610cae57600080fd5b505af1158015610cc2573d6000803e3d6000fd5b5050505050610d9b565b836001600160a01b031663a9059cbb84846040518363ffffffff1660e01b815260040180836001600160a01b03166001600160a01b0316815260200182815260200192505050602060405180830381600087803b158015610d2c57600080fd5b505af1158015610d40573d6000803e3d6000fd5b505050506040513d6020811015610d5657600080fd5b5051610d9b576040805162461bcd60e51b815260206004820152600f60248201526e1514905394d1915497d19052531151608a1b604482015290519081900360640190fd5b50505050565b6002546001600160a01b03163314610dea5760405162461bcd60e51b81526004018080602001828103825260268152602001806119696026913960400191505060405180910390fd5b80610df457600080fd5b6008546040518291907f010c0265813c273963aa5e8683cf5c45a3b744ba6369c22af0958ec5fcf16b2090600090a3600855565b6002546001600160a01b031681565b610e3f61139c565b610e4857600080fd5b600080546040516001600160a01b03909116907f8be0079c531659141344cd1fd0a4f28419497f9722a3daafe3b4186f6b6457e0908390a3600080546001600160a01b0319169055565b6003546001600160a01b031681565b610ea961166d565b838214610eed576040805162461bcd60e51b815260206004820152600d60248201526c125b9d985b1a5908125b9c1d5d609a1b604482015290519081900360640190fd5b6004805460408051635391f48360e01b8152928301879052516000926001600160a01b0390921691635391f48391602480830192602092919082900301818787803b158015610f3b57600080fd5b505af1158015610f4f573d6000803e3d6000fd5b505050506040513d6020811015610f6557600080fd5b50516003549091506001600160a01b031660005b8681101561125757816001600160a01b03166301f07db5898984818110610f9c57fe5b905060200201356001600160a01b03166040518263ffffffff1660e01b815260040180826001600160a01b03166001600160a01b0316815260200191505060206040518083038186803b158015610ff257600080fd5b505afa158015611006573d6000803e3d6000fd5b505050506040513d602081101561101c57600080fd5b5051156110e75787878281811061102f57fe5b905060200201356001600160a01b03166001600160a01b03166323b872dd333089898681811061105b57fe5b905060200201356040518463ffffffff1660e01b815260040180846001600160a01b03166001600160a01b03168152602001836001600160a01b03166001600160a01b031681526020018281526020019350505050600060405180830381600087803b1580156110ca57600080fd5b505af11580156110de573d6000803e3d6000fd5b50505050611203565b8787828181106110f357fe5b905060200201356001600160a01b03166001600160a01b03166323b872dd333089898681811061111f57fe5b905060200201356040518463ffffffff1660e01b815260040180846001600160a01b03166001600160a01b03168152602001836001600160a01b03166001600160a01b031681526020018281526020019350505050602060405180830381600087803b15801561118e57600080fd5b505af11580156111a2573d6000803e3d6000fd5b505050506040513d60208110156111b857600080fd5b5051611203576040805162461bcd60e51b81526020600482015260156024820152741513d2d15397d514905394d1915497d19052531151605a1b604482015290519081900360640190fd5b61123c8489898481811061121357fe5b905060200201356001600160a01b031688888581811061122f57fe5b90506020020135866116b5565b61124d83600163ffffffff61187f16565b9250600101610f79565b5050505050505050565b6008548111156112b8576040805162461bcd60e51b815260206004820152601d60248201527f657863656564206d6178696d756d206465706f73697420616d6f756e74000000604482015290519081900360640190fd5b604080516323b872dd60e01b81523360048201523060248201526044810183905290516001600160a01b038516916323b872dd9160648083019260209291908290030181600087803b15801561130d57600080fd5b505af1158015611321573d6000803e3d6000fd5b505050506040513d602081101561133757600080fd5b5051611382576040805162461bcd60e51b81526020600482015260156024820152741513d2d15397d514905394d1915497d19052531151605a1b604482015290519081900360640190fd5b6108cd82848361150f565b6000546001600160a01b031690565b6000546001600160a01b0316331490565b610852823383611261565b6004546001600160a01b031681565b6002546001600160a01b031633146114105760405162461bcd60e51b81526004018080602001828103825260268152602001806119696026913960400191505060405180910390fd5b611418611898565b565b6006602052600090815260409020805460019091015482565b6108cd83338461150f565b6005546001600160a01b031681565b600154600160a01b900460ff1681565b610852823383610856565b60085481565b61147661139c565b61147f57600080fd5b600480546001600160a01b0319166001600160a01b0392909216919091179055565b6114a961139c565b6114b257600080fd5b6114bb816118a7565b50565b6002546001600160a01b031633146115075760405162461bcd60e51b81526004018080602001828103825260268152602001806119696026913960400191505060405180910390fd5b611418611915565b61151761166d565b60035460408051636416c18360e01b81526001600160a01b038086166004830152915185939290921691636416c18391602480820192602092909190829003018186803b15801561156757600080fd5b505afa15801561157b573d6000803e3d6000fd5b505050506040513d602081101561159157600080fd5b50516115da576040805162461bcd60e51b81526020600482015260136024820152721513d2d15397d393d517d4d5541413d4951151606a1b604482015290519081900360640190fd5b610d9b848484600460009054906101000a90046001600160a01b03166001600160a01b0316635391f48360016040518263ffffffff1660e01b815260040180828152602001915050602060405180830381600087803b15801561163c57600080fd5b505af1158015611650573d6000803e3d6000fd5b505050506040513d602081101561166657600080fd5b50516116b5565b600154600160a01b900460ff1615611418576040805162461bcd60e51b81526020600482015260066024820152651b1bd8dad95960d21b604482015290519081900360640190fd5b604080518082018252606086811b6bffffffffffffffffffffffff199081168284015286821b16607483015260888083018690528351808403909101815260a883018452805160209182012083524281840190815260008681526006835285812094518555905160019094019390935560055460075485516001600160a01b03808c1682860152808b168289015294810189905260808082018990528751808303909101815260a082018089526316f1983160e01b905291851660a4820181815260c48301988952835160e4840152835196909416976316f198319791969395909361010490930192908601918190849084905b838110156117c15781810151838201526020016117a9565b50505050905090810190601f1680156117ee5780820380516001836020036101000a031916815260200191505b509350505050600060405180830381600087803b15801561180e57600080fd5b505af1158015611822573d6000803e3d6000fd5b50505050826001600160a01b0316846001600160a01b03167f1dadc8d0683c6f9824e885935c1bec6f76816730dcec148dda8cf25a7b9f797b8484604051808381526020018281526020019250505060405180910390a350505050565b60008282018381101561189157600080fd5b9392505050565b6001805460ff60a01b19169055565b6001600160a01b0381166118ba57600080fd5b600080546040516001600160a01b03808516939216917f8be0079c531659141344cd1fd0a4f28419497f9722a3daafe3b4186f6b6457e091a3600080546001600160a01b0319166001600160a01b0392909216919091179055565b6001805460ff60a01b1916600160a01b17905556fe41746c65617374206f6e65206f6620737461746553656e646572206f72206368696c64436861696e20616464726573732073686f756c64206368616e67654f6e6c7920676f7665726e616e636520636f6e747261637420697320617574686f72697a6564a265627a7a72315820bcde8fb8ee2083545600ce9709c9f2e281d555a462424ce60b712d3db59dfeb764736f6c63430005110032",
  "source": "pragma solidity ^0.5.2;\n\nimport {IERC721Receiver} from \"openzeppelin-solidity/contracts/token/ERC721/IERC721Receiver.sol\";\nimport {IERC20} from \"openzeppelin-solidity/contracts/token/ERC20/IERC20.sol\";\nimport {IERC721} from \"openzeppelin-solidity/contracts/token/ERC721/IERC721.sol\";\nimport {SafeMath} from \"openzeppelin-solidity/contracts/math/SafeMath.sol\";\n\nimport {ContractReceiver} from \"../../common/misc/ContractReceiver.sol\";\nimport {Registry} from \"../../common/Registry.sol\";\nimport {WETH} from \"../../common/tokens/WETH.sol\";\nimport {IDepositManager} from \"./IDepositManager.sol\";\nimport {DepositManagerStorage} from \"./DepositManagerStorage.sol\";\nimport {StateSender} from \"../stateSyncer/StateSender.sol\";\nimport {GovernanceLockable} from \"../../common/mixin/GovernanceLockable.sol\";\nimport {RootChain} from \"../RootChain.sol\";\n\n\ncontract DepositManager is DepositManagerStorage, IDepositManager, IERC721Receiver, ContractReceiver {\n    using SafeMath for uint256;\n\n    modifier isTokenMapped(address _token) {\n        require(registry.isTokenMapped(_token), \"TOKEN_NOT_SUPPORTED\");\n        _;\n    }\n\n    modifier isPredicateAuthorized() {\n        require(uint8(registry.predicates(msg.sender)) != 0, \"Not a valid predicate\");\n        _;\n    }\n\n    constructor() public GovernanceLockable(address(0x0)) {}\n\n    // deposit ETH by sending to this contract\n    function() external payable {\n        depositEther();\n    }\n\n    function updateMaxErc20Deposit(uint256 maxDepositAmount) public onlyGovernance {\n        require(maxDepositAmount != 0);\n        emit MaxErc20DepositUpdate(maxErc20Deposit, maxDepositAmount);\n        maxErc20Deposit = maxDepositAmount;\n    }\n\n    function transferAssets(\n        address _token,\n        address _user,\n        uint256 _amountOrNFTId\n    ) external isPredicateAuthorized {\n        address wethToken = registry.getWethTokenAddress();\n        if (registry.isERC721(_token)) {\n            IERC721(_token).transferFrom(address(this), _user, _amountOrNFTId);\n        } else if (_token == wethToken) {\n            WETH t = WETH(_token);\n            t.withdraw(_amountOrNFTId, _user);\n        } else {\n            require(IERC20(_token).transfer(_user, _amountOrNFTId), \"TRANSFER_FAILED\");\n        }\n    }\n\n    function depositERC20(address _token, uint256 _amount) external {\n        depositERC20ForUser(_token, msg.sender, _amount);\n    }\n\n    function depositERC721(address _token, uint256 _tokenId) external {\n        depositERC721ForUser(_token, msg.sender, _tokenId);\n    }\n\n    function depositBulk(\n        address[] calldata _tokens,\n        uint256[] calldata _amountOrTokens,\n        address _user\n    )\n        external\n        onlyWhenUnlocked // unlike other deposit functions, depositBulk doesn't invoke _safeCreateDepositBlock\n    {\n        require(_tokens.length == _amountOrTokens.length, \"Invalid Input\");\n        uint256 depositId = rootChain.updateDepositId(_tokens.length);\n        Registry _registry = registry;\n\n        for (uint256 i = 0; i < _tokens.length; i++) {\n            // will revert if token is not mapped\n            if (_registry.isTokenMappedAndIsErc721(_tokens[i])) {\n                IERC721(_tokens[i]).transferFrom(msg.sender, address(this), _amountOrTokens[i]);\n            } else {\n                require(\n                    IERC20(_tokens[i]).transferFrom(msg.sender, address(this), _amountOrTokens[i]),\n                    \"TOKEN_TRANSFER_FAILED\"\n                );\n            }\n            _createDepositBlock(_user, _tokens[i], _amountOrTokens[i], depositId);\n            depositId = depositId.add(1);\n        }\n    }\n\n    /**\n     * @dev Caches childChain and stateSender (frequently used variables) from registry\n     */\n    function updateChildChainAndStateSender() public {\n        (address _childChain, address _stateSender) = registry.getChildChainAndStateSender();\n        require(\n            _stateSender != address(stateSender) || _childChain != childChain,\n            \"Atleast one of stateSender or childChain address should change\"\n        );\n        childChain = _childChain;\n        stateSender = StateSender(_stateSender);\n    }\n\n    function depositERC20ForUser(\n        address _token,\n        address _user,\n        uint256 _amount\n    ) public {\n        require(_amount <= maxErc20Deposit, \"exceed maximum deposit amount\");\n        require(IERC20(_token).transferFrom(msg.sender, address(this), _amount), \"TOKEN_TRANSFER_FAILED\");\n        _safeCreateDepositBlock(_user, _token, _amount);\n    }\n\n    function depositERC721ForUser(\n        address _token,\n        address _user,\n        uint256 _tokenId\n    ) public {\n        IERC721(_token).transferFrom(msg.sender, address(this), _tokenId);\n        _safeCreateDepositBlock(_user, _token, _tokenId);\n    }\n\n    // @todo: write depositEtherForUser\n    function depositEther() public payable {\n        address wethToken = registry.getWethTokenAddress();\n        WETH t = WETH(wethToken);\n        t.deposit.value(msg.value)();\n        _safeCreateDepositBlock(msg.sender, wethToken, msg.value);\n    }\n\n    /**\n   * @notice This will be invoked when safeTransferFrom is called on the token contract to deposit tokens to this contract\n     without directly interacting with it\n   * @dev msg.sender is the token contract\n   * _operator The address which called `safeTransferFrom` function on the token contract\n   * @param _user The address which previously owned the token\n   * @param _tokenId The NFT identifier which is being transferred\n   * _data Additional data with no specified format\n   * @return `bytes4(keccak256(\"onERC721Received(address,address,uint256,bytes)\"))`\n   */\n    function onERC721Received(\n        address, /* _operator */\n        address _user,\n        uint256 _tokenId,\n        bytes memory /* _data */\n    ) public returns (bytes4) {\n        // the ERC721 contract address is the message sender\n        _safeCreateDepositBlock(\n            _user,\n            msg.sender,\n            /* token */\n            _tokenId\n        );\n        return 0x150b7a02;\n    }\n\n    // See https://github.com/ethereum/EIPs/issues/223\n    function tokenFallback(\n        address _user,\n        uint256 _amount,\n        bytes memory /* _data */\n    ) public {\n        _safeCreateDepositBlock(\n            _user,\n            msg.sender,\n            /* token */\n            _amount\n        );\n    }\n\n    function _safeCreateDepositBlock(\n        address _user,\n        address _token,\n        uint256 _amountOrToken\n    ) internal onlyWhenUnlocked isTokenMapped(_token) {\n        _createDepositBlock(\n            _user,\n            _token,\n            _amountOrToken,\n            rootChain.updateDepositId(1) /* returns _depositId */\n        );\n    }\n\n    function _createDepositBlock(\n        address _user,\n        address _token,\n        uint256 _amountOrToken,\n        uint256 _depositId\n    ) internal {\n        deposits[_depositId] = DepositBlock(keccak256(abi.encodePacked(_user, _token, _amountOrToken)), now);\n        stateSender.syncState(childChain, abi.encode(_user, _token, _amountOrToken, _depositId));\n        emit NewDepositBlock(_user, _token, _amountOrToken, _depositId);\n    }\n\n    // Housekeeping function. @todo remove later\n    function updateRootChain(address _rootChain) public onlyOwner {\n        rootChain = RootChain(_rootChain);\n    }\n}\n",
  "sourcePath": "/home/manjain/Documents/contracts/contracts/root/depositManager/DepositManager.sol",
  "compiler": {
    "name": "solc",
    "version": "0.5.17+commit.d19bba13.Linux.g++"
  },
  "schemaVersion": "3.0.14",
  "updatedAt": "2021-02-21T12:11:06.598Z",
  "devdoc": {
    "methods": {
      "isOwner()": {
        "return": "true if `msg.sender` is the owner of the contract."
      },
      "onERC721Received(address,address,uint256,bytes)": {
        "details": "msg.sender is the token contract _operator The address which called `safeTransferFrom` function on the token contract",
        "params": {
          "_tokenId": "The NFT identifier which is being transferred _data Additional data with no specified format",
          "_user": "The address which previously owned the token"
        },
        "return": "`bytes4(keccak256(\"onERC721Received(address,address,uint256,bytes)\"))`"
      },
      "owner()": {
        "return": "the address of the owner."
      },
      "renounceOwnership()": {
        "details": "Allows the current owner to relinquish control of the contract. It will not be possible to call the functions with the `onlyOwner` modifier anymore."
      },
      "transferOwnership(address)": {
        "details": "Allows the current owner to transfer control of the contract to a newOwner.",
        "params": {
          "newOwner": "The address to transfer ownership to."
        }
      },
      "updateChildChainAndStateSender()": {
        "details": "Caches childChain and stateSender (frequently used variables) from registry"
      }
    }
  },
  "userdoc": {
    "methods": {
      "onERC721Received(address,address,uint256,bytes)": {
        "notice": "This will be invoked when safeTransferFrom is called on the token contract to deposit tokens to this contract without directly interacting with it"
      },
      "renounceOwnership()": {
        "notice": "Renouncing ownership will leave the contract without an owner, thereby removing any functionality that is only available to the owner."
      }
    }
  }
}