{
  "contractName": "DrainStakeManager",
  "abi": [
    {
      "inputs": [],
      "payable": false,
      "stateMutability": "nonpayable",
      "type": "constructor"
    },
    {
      "anonymous": false,
      "inputs": [
        {
          "indexed": true,
          "internalType": "address",
          "name": "previousOwner",
          "type": "address"
        },
        {
          "indexed": true,
          "internalType": "address",
          "name": "newOwner",
          "type": "address"
        }
      ],
      "name": "OwnershipTransferred",
      "type": "event"
    },
    {
      "anonymous": false,
      "inputs": [
        {
          "indexed": true,
          "internalType": "address",
          "name": "previousRootChain",
          "type": "address"
        },
        {
          "indexed": true,
          "internalType": "address",
          "name": "newRootChain",
          "type": "address"
        }
      ],
      "name": "RootChainChanged",
      "type": "event"
    },
    {
      "constant": true,
      "inputs": [],
      "name": "CHECKPOINT_REWARD",
      "outputs": [
        {
          "internalType": "uint256",
          "name": "",
          "type": "uint256"
        }
      ],
      "payable": false,
      "stateMutability": "view",
      "type": "function"
    },
    {
      "constant": true,
      "inputs": [],
      "name": "NFTContract",
      "outputs": [
        {
          "internalType": "contract StakingNFT",
          "name": "",
          "type": "address"
        }
      ],
      "payable": false,
      "stateMutability": "view",
      "type": "function"
    },
    {
      "constant": true,
      "inputs": [],
      "name": "NFTCounter",
      "outputs": [
        {
          "internalType": "uint256",
          "name": "",
          "type": "uint256"
        }
      ],
      "payable": false,
      "stateMutability": "view",
      "type": "function"
    },
    {
      "constant": true,
      "inputs": [],
      "name": "WITHDRAWAL_DELAY",
      "outputs": [
        {
          "internalType": "uint256",
          "name": "",
          "type": "uint256"
        }
      ],
      "payable": false,
      "stateMutability": "view",
      "type": "function"
    },
    {
      "constant": true,
      "inputs": [],
      "name": "accountStateRoot",
      "outputs": [
        {
          "internalType": "bytes32",
          "name": "",
          "type": "bytes32"
        }
      ],
      "payable": false,
      "stateMutability": "view",
      "type": "function"
    },
    {
      "constant": true,
      "inputs": [],
      "name": "auctionPeriod",
      "outputs": [
        {
          "internalType": "uint256",
          "name": "",
          "type": "uint256"
        }
      ],
      "payable": false,
      "stateMutability": "view",
      "type": "function"
    },
    {
      "constant": false,
      "inputs": [
        {
          "internalType": "address",
          "name": "newRootChain",
          "type": "address"
        }
      ],
      "name": "changeRootChain",
      "outputs": [],
      "payable": false,
      "stateMutability": "nonpayable",
      "type": "function"
    },
    {
      "constant": true,
      "inputs": [],
      "name": "checkPointBlockInterval",
      "outputs": [
        {
          "internalType": "uint256",
          "name": "",
          "type": "uint256"
        }
      ],
      "payable": false,
      "stateMutability": "view",
      "type": "function"
    },
    {
      "constant": true,
      "inputs": [],
      "name": "currentEpoch",
      "outputs": [
        {
          "internalType": "uint256",
          "name": "",
          "type": "uint256"
        }
      ],
      "payable": false,
      "stateMutability": "view",
      "type": "function"
    },
    {
      "constant": true,
      "inputs": [],
      "name": "delegationEnabled",
      "outputs": [
        {
          "internalType": "bool",
          "name": "",
          "type": "bool"
        }
      ],
      "payable": false,
      "stateMutability": "view",
      "type": "function"
    },
    {
      "constant": true,
      "inputs": [],
      "name": "dynasty",
      "outputs": [
        {
          "internalType": "uint256",
          "name": "",
          "type": "uint256"
        }
      ],
      "payable": false,
      "stateMutability": "view",
      "type": "function"
    },
    {
      "constant": true,
      "inputs": [],
      "name": "factory",
      "outputs": [
        {
          "internalType": "contract ValidatorShareFactory",
          "name": "",
          "type": "address"
        }
      ],
      "payable": false,
      "stateMutability": "view",
      "type": "function"
    },
    {
      "constant": true,
      "inputs": [],
      "name": "governance",
      "outputs": [
        {
          "internalType": "contract IGovernance",
          "name": "",
          "type": "address"
        }
      ],
      "payable": false,
      "stateMutability": "view",
      "type": "function"
    },
    {
      "constant": true,
      "inputs": [
        {
          "internalType": "uint256",
          "name": "",
          "type": "uint256"
        }
      ],
      "name": "latestSignerUpdateEpoch",
      "outputs": [
        {
          "internalType": "uint256",
          "name": "",
          "type": "uint256"
        }
      ],
      "payable": false,
      "stateMutability": "view",
      "type": "function"
    },
    {
      "constant": false,
      "inputs": [],
      "name": "lock",
      "outputs": [],
      "payable": false,
      "stateMutability": "nonpayable",
      "type": "function"
    },
    {
      "constant": true,
      "inputs": [],
      "name": "locked",
      "outputs": [
        {
          "internalType": "bool",
          "name": "",
          "type": "bool"
        }
      ],
      "payable": false,
      "stateMutability": "view",
      "type": "function"
    },
    {
      "constant": true,
      "inputs": [],
      "name": "logger",
      "outputs": [
        {
          "internalType": "contract StakingInfo",
          "name": "",
          "type": "address"
        }
      ],
      "payable": false,
      "stateMutability": "view",
      "type": "function"
    },
    {
      "constant": true,
      "inputs": [],
      "name": "minDeposit",
      "outputs": [
        {
          "internalType": "uint256",
          "name": "",
          "type": "uint256"
        }
      ],
      "payable": false,
      "stateMutability": "view",
      "type": "function"
    },
    {
      "constant": true,
      "inputs": [],
      "name": "minHeimdallFee",
      "outputs": [
        {
          "internalType": "uint256",
          "name": "",
          "type": "uint256"
        }
      ],
      "payable": false,
      "stateMutability": "view",
      "type": "function"
    },
    {
      "constant": true,
      "inputs": [],
      "name": "owner",
      "outputs": [
        {
          "internalType": "address",
          "name": "",
          "type": "address"
        }
      ],
      "payable": false,
      "stateMutability": "view",
      "type": "function"
    },
    {
      "constant": true,
      "inputs": [],
      "name": "proposerBonus",
      "outputs": [
        {
          "internalType": "uint256",
          "name": "",
          "type": "uint256"
        }
      ],
      "payable": false,
      "stateMutability": "view",
      "type": "function"
    },
    {
      "constant": true,
      "inputs": [],
      "name": "registry",
      "outputs": [
        {
          "internalType": "address",
          "name": "",
          "type": "address"
        }
      ],
      "payable": false,
      "stateMutability": "view",
      "type": "function"
    },
    {
      "constant": false,
      "inputs": [],
      "name": "renounceOwnership",
      "outputs": [],
      "payable": false,
      "stateMutability": "nonpayable",
      "type": "function"
    },
    {
      "constant": true,
      "inputs": [],
      "name": "replacementCoolDown",
      "outputs": [
        {
          "internalType": "uint256",
          "name": "",
          "type": "uint256"
        }
      ],
      "payable": false,
      "stateMutability": "view",
      "type": "function"
    },
    {
      "constant": true,
      "inputs": [],
      "name": "rootChain",
      "outputs": [
        {
          "internalType": "address",
          "name": "",
          "type": "address"
        }
      ],
      "payable": false,
      "stateMutability": "view",
      "type": "function"
    },
    {
      "constant": true,
      "inputs": [
        {
          "internalType": "address",
          "name": "",
          "type": "address"
        }
      ],
      "name": "signerToValidator",
      "outputs": [
        {
          "internalType": "uint256",
          "name": "",
          "type": "uint256"
        }
      ],
      "payable": false,
      "stateMutability": "view",
      "type": "function"
    },
    {
      "constant": true,
      "inputs": [],
      "name": "signerUpdateLimit",
      "outputs": [
        {
          "internalType": "uint256",
          "name": "",
          "type": "uint256"
        }
      ],
      "payable": false,
      "stateMutability": "view",
      "type": "function"
    },
    {
      "constant": true,
      "inputs": [],
      "name": "token",
      "outputs": [
        {
          "internalType": "contract IERC20",
          "name": "",
          "type": "address"
        }
      ],
      "payable": false,
      "stateMutability": "view",
      "type": "function"
    },
    {
      "constant": true,
      "inputs": [],
      "name": "totalHeimdallFee",
      "outputs": [
        {
          "internalType": "uint256",
          "name": "",
          "type": "uint256"
        }
      ],
      "payable": false,
      "stateMutability": "view",
      "type": "function"
    },
    {
      "constant": true,
      "inputs": [],
      "name": "totalRewards",
      "outputs": [
        {
          "internalType": "uint256",
          "name": "",
          "type": "uint256"
        }
      ],
      "payable": false,
      "stateMutability": "view",
      "type": "function"
    },
    {
      "constant": true,
      "inputs": [],
      "name": "totalRewardsLiquidated",
      "outputs": [
        {
          "internalType": "uint256",
          "name": "",
          "type": "uint256"
        }
      ],
      "payable": false,
      "stateMutability": "view",
      "type": "function"
    },
    {
      "constant": true,
      "inputs": [],
      "name": "totalStaked",
      "outputs": [
        {
          "internalType": "uint256",
          "name": "",
          "type": "uint256"
        }
      ],
      "payable": false,
      "stateMutability": "view",
      "type": "function"
    },
    {
      "constant": false,
      "inputs": [
        {
          "internalType": "address",
          "name": "newOwner",
          "type": "address"
        }
      ],
      "name": "transferOwnership",
      "outputs": [],
      "payable": false,
      "stateMutability": "nonpayable",
      "type": "function"
    },
    {
      "constant": false,
      "inputs": [],
      "name": "unlock",
      "outputs": [],
      "payable": false,
      "stateMutability": "nonpayable",
      "type": "function"
    },
    {
      "constant": true,
      "inputs": [
        {
          "internalType": "address",
          "name": "",
          "type": "address"
        }
      ],
      "name": "userFeeExit",
      "outputs": [
        {
          "internalType": "uint256",
          "name": "",
          "type": "uint256"
        }
      ],
      "payable": false,
      "stateMutability": "view",
      "type": "function"
    },
    {
      "constant": true,
      "inputs": [
        {
          "internalType": "uint256",
          "name": "",
          "type": "uint256"
        }
      ],
      "name": "validatorAuction",
      "outputs": [
        {
          "internalType": "uint256",
          "name": "amount",
          "type": "uint256"
        },
        {
          "internalType": "uint256",
          "name": "startEpoch",
          "type": "uint256"
        },
        {
          "internalType": "address",
          "name": "user",
          "type": "address"
        },
        {
          "internalType": "bool",
          "name": "acceptDelegation",
          "type": "bool"
        },
        {
          "internalType": "bytes",
          "name": "signerPubkey",
          "type": "bytes"
        }
      ],
      "payable": false,
      "stateMutability": "view",
      "type": "function"
    },
    {
      "constant": true,
      "inputs": [],
      "name": "validatorState",
      "outputs": [
        {
          "internalType": "uint256",
          "name": "amount",
          "type": "uint256"
        },
        {
          "internalType": "uint256",
          "name": "stakerCount",
          "type": "uint256"
        }
      ],
      "payable": false,
      "stateMutability": "view",
      "type": "function"
    },
    {
      "constant": true,
      "inputs": [
        {
          "internalType": "uint256",
          "name": "",
          "type": "uint256"
        }
      ],
      "name": "validatorStateChanges",
      "outputs": [
        {
          "internalType": "int256",
          "name": "amount",
          "type": "int256"
        },
        {
          "internalType": "int256",
          "name": "stakerCount",
          "type": "int256"
        }
      ],
      "payable": false,
      "stateMutability": "view",
      "type": "function"
    },
    {
      "constant": true,
      "inputs": [],
      "name": "validatorThreshold",
      "outputs": [
        {
          "internalType": "uint256",
          "name": "",
          "type": "uint256"
        }
      ],
      "payable": false,
      "stateMutability": "view",
      "type": "function"
    },
    {
      "constant": true,
      "inputs": [
        {
          "internalType": "uint256",
          "name": "",
          "type": "uint256"
        }
      ],
      "name": "validators",
      "outputs": [
        {
          "internalType": "uint256",
          "name": "amount",
          "type": "uint256"
        },
        {
          "internalType": "uint256",
          "name": "reward",
          "type": "uint256"
        },
        {
          "internalType": "uint256",
          "name": "activationEpoch",
          "type": "uint256"
        },
        {
          "internalType": "uint256",
          "name": "deactivationEpoch",
          "type": "uint256"
        },
        {
          "internalType": "uint256",
          "name": "jailTime",
          "type": "uint256"
        },
        {
          "internalType": "address",
          "name": "signer",
          "type": "address"
        },
        {
          "internalType": "address",
          "name": "contractAddress",
          "type": "address"
        },
        {
          "internalType": "enum StakeManagerStorage.Status",
          "name": "status",
          "type": "uint8"
        }
      ],
      "payable": false,
      "stateMutability": "view",
      "type": "function"
    },
    {
      "constant": false,
      "inputs": [
        {
          "internalType": "address",
          "name": "destination",
          "type": "address"
        },
        {
          "internalType": "uint256",
          "name": "amount",
          "type": "uint256"
        }
      ],
      "name": "drain",
      "outputs": [],
      "payable": false,
      "stateMutability": "nonpayable",
      "type": "function"
    },
    {
      "constant": false,
      "inputs": [
        {
          "internalType": "uint256",
          "name": "validatorId",
          "type": "uint256"
        },
        {
          "internalType": "address",
          "name": "_token",
          "type": "address"
        },
        {
          "internalType": "address payable",
          "name": "destination",
          "type": "address"
        },
        {
          "internalType": "uint256",
          "name": "amount",
          "type": "uint256"
        }
      ],
      "name": "drainValidatorShares",
      "outputs": [],
      "payable": false,
      "stateMutability": "nonpayable",
      "type": "function"
    },
    {
      "constant": true,
      "inputs": [],
      "name": "isOwner",
      "outputs": [
        {
          "internalType": "bool",
          "name": "",
          "type": "bool"
        }
      ],
      "payable": false,
      "stateMutability": "view",
      "type": "function"
    }
  ],
  "bytecode": "0x60806040526023805460ff1916905534801561001a57600080fd5b5060008054610100600160a81b0319168155600180546001600160a01b0319163317908190556040516001600160a01b039190911691907f8be0079c531659141344cd1fd0a4f28419497f9722a3daafe3b4186f6b6457e0908290a3610d8a806100856000396000f3fe608060405234801561001057600080fd5b50600436106102695760003560e01c806377939d1011610151578063c45a0155116100c3578063e8afa8e811610087578063e8afa8e8146105fe578063f24ccbfe14610624578063f2fde38b1461062c578063f83d08ba14610652578063fba58f341461065a578063fc0c546a1461066257610269565b8063c45a0155146105c1578063cd6b8388146105c9578063cf309012146105d1578063d7f5549d146105d9578063e59ee0c6146105f657610269565b80638da5cb5b116101155780638da5cb5b1461056d5780638f32d59b14610575578063987ab9db1461057d5780639a8a624314610585578063a69df4b51461058d578063b184be811461059557610269565b806377939d101461052757806378f84a441461052f5780637b103999146105555780637d6697521461055d578063817b1cd21461056557610269565b806341b3d185116101ea57806354b8c601116101ae57806354b8c601146104e35780635508d8e1146104ff5780635aa6e675146105075780637060054d1461050f578063715018a614610517578063766718081461051f57610269565b806341b3d185146103c657806348ab8b2a146103ce5780634e3c83f11461040c5780634fd101d7146104145780635325e1441461041c57610269565b806325726df21161023157806325726df2146102a857806331c2273b146102de578063342745861461030257806335aa2e441461030a5780633862da0b146103a057610269565b80630cccfc581461026e5780630e15561a146102885780630ebb172a1461029057806317c2b9101461029857806325316411146102a0575b600080fd5b61027661066a565b60408051918252519081900360200190f35b610276610670565b610276610676565b61027661067c565b610276610682565b6102c5600480360360208110156102be57600080fd5b5035610688565b6040805192835260208301919091528051918290030190f35b6102e66106a1565b604080516001600160a01b039092168252519081900360200190f35b6102766106b0565b6103276004803603602081101561032057600080fd5b50356106b6565b60405180898152602001888152602001878152602001868152602001858152602001846001600160a01b03166001600160a01b03168152602001836001600160a01b03166001600160a01b0316815260200182600381111561038557fe5b60ff1681526020019850505050505050505060405180910390f35b610276600480360360208110156103b657600080fd5b50356001600160a01b031661070c565b61027661071e565b61040a600480360360808110156103e457600080fd5b508035906001600160a01b03602082013581169160408101359091169060600135610724565b005b610276610806565b61027661080c565b6104396004803603602081101561043257600080fd5b5035610812565b60405180868152602001858152602001846001600160a01b03166001600160a01b031681526020018315151515815260200180602001828103825283818151815260200191508051906020019080838360005b838110156104a457818101518382015260200161048c565b50505050905090810190601f1680156104d15780820380516001836020036101000a031916815260200191505b50965050505050505060405180910390f35b6104eb6108d8565b604080519115158252519081900360200190f35b6102766108e1565b6102e66108e7565b6102766108fb565b61040a610901565b61027661095c565b610276610962565b6102766004803603602081101561054557600080fd5b50356001600160a01b0316610968565b6102e661097a565b610276610989565b61027661098f565b6102e6610995565b6104eb6109a4565b6102e66109e7565b6102766109f6565b61040a6109fc565b61040a600480360360408110156105ab57600080fd5b506001600160a01b038135169060200135610a54565b6102e6610b2b565b610276610b3a565b6104eb610b40565b610276600480360360208110156105ef57600080fd5b5035610b49565b6102c5610b5b565b61040a6004803603602081101561061457600080fd5b50356001600160a01b0316610b64565b6102e6610be4565b61040a6004803603602081101561064257600080fd5b50356001600160a01b0316610bf3565b61040a610c10565b610276610c66565b6102e6610c6c565b60155481565b60135481565b60085481565b60175481565b600e5481565b601e602052600090815260409020805460019091015482565b6006546001600160a01b031681565b60165481565b601a602052600090815260409020805460018201546002830154600384015460048501546005860154600690960154949593949293919290916001600160a01b039081169190811690600160a01b900460ff1688565b601b6020526000908152604090205481565b600c5481565b61072c6109a4565b61073557600080fd5b6000848152601a60205260409020600601546001600160a01b03168061078c5760405162461bcd60e51b815260040180806020018281038252602a815260200180610d2c602a913960400191505060405180910390fd5b6040805163abf59fc960e01b81526001600160a01b0386811660048301528581166024830152604482018590529151839283169163abf59fc991606480830192600092919082900301818387803b1580156107e657600080fd5b505af11580156107fa573d6000803e3d6000fd5b50505050505050505050565b600f5481565b60105481565b60208080526000918252604091829020805460018083015460028085015460038601805489516101009682161596909602600019011692909204601f8101889004880285018801909852878452939691956001600160a01b03851695600160a01b90950460ff16949392908301828280156108ce5780601f106108a3576101008083540402835291602001916108ce565b820191906000526020600020905b8154815290600101906020018083116108b157829003601f168201915b5050505050905085565b60195460ff1681565b60125481565b60005461010090046001600160a01b031681565b600a5481565b6109096109a4565b61091257600080fd5b6001546040516000916001600160a01b0316907f8be0079c531659141344cd1fd0a4f28419497f9722a3daafe3b4186f6b6457e0908390a3600180546001600160a01b0319169055565b60095481565b60185481565b601f6020526000908152604090205481565b6004546001600160a01b031681565b600b5481565b60115481565b6001546001600160a01b031690565b604080517f6d617469632e6e6574776f726b2e70726f78792e6f776e6572000000000000008152905190819003601901902054336001600160a01b039091161490565b6002546001600160a01b031681565b60225481565b60005461010090046001600160a01b03163314610a4a5760405162461bcd60e51b8152600401808060200182810382526026815260200180610d066026913960400191505060405180910390fd5b610a52610c7b565b565b610a5c6109a4565b610a6557600080fd5b6003546040805163a9059cbb60e01b81526001600160a01b038581166004830152602482018590529151919092169163a9059cbb9160448083019260209291908290030181600087803b158015610abb57600080fd5b505af1158015610acf573d6000803e3d6000fd5b505050506040513d6020811015610ae557600080fd5b5051610b27576040805162461bcd60e51b815260206004820152600c60248201526b111c985a5b8819985a5b195960a21b604482015290519081900360640190fd5b5050565b6007546001600160a01b031681565b60145481565b60005460ff1681565b60216020526000908152604090205481565b601c54601d5482565b610b6c6109a4565b610b7557600080fd5b6001600160a01b038116610b8857600080fd5b6002546040516001600160a01b038084169216907f211c9015fc81c0dbd45bd99f0f29fc1c143bfd53442d5ffd722bbbef7a887fe990600090a3600280546001600160a01b0319166001600160a01b0392909216919091179055565b6005546001600160a01b031681565b610bfb6109a4565b610c0457600080fd5b610c0d81610c87565b50565b60005461010090046001600160a01b03163314610c5e5760405162461bcd60e51b8152600401808060200182810382526026815260200180610d066026913960400191505060405180910390fd5b610a52610cf6565b600d5481565b6003546001600160a01b031681565b6000805460ff19169055565b6001600160a01b038116610c9a57600080fd5b6001546040516001600160a01b038084169216907f8be0079c531659141344cd1fd0a4f28419497f9722a3daafe3b4186f6b6457e090600090a3600180546001600160a01b0319166001600160a01b0392909216919091179055565b6000805460ff1916600117905556fe4f6e6c7920676f7665726e616e636520636f6e747261637420697320617574686f72697a6564756e6b6e6f776e2076616c696461746f72206f72206e6f2064656c65676174696f6e20656e61626c6564a265627a7a723158202e5d5167fc4cc973e10426a3733315fc7d575268df6a941bab820faa9e19bd0964736f6c63430005110032",
  "source": "pragma solidity ^0.5.2;\r\n\r\nimport { StakeManagerStorage } from \"../../staking/stakeManager/StakeManagerStorage.sol\";\r\nimport { GovernanceLockable } from \"../mixin/GovernanceLockable.sol\";\r\nimport {IValidatorShare} from \"../../staking/validatorShare/IValidatorShare.sol\";\r\nimport {Initializable} from \"../../common/mixin/Initializable.sol\";\r\n\r\n// Inheriting from Initializable as well to keep the storage layout same\r\ncontract DrainStakeManager is StakeManagerStorage, Initializable {\r\n    constructor() public GovernanceLockable(address(0x0)) {}\r\n\r\n    function drain(address destination, uint amount) external onlyOwner {\r\n        require(token.transfer(destination, amount), \"Drain failed\");\r\n    }\r\n\r\n    function drainValidatorShares(\r\n        uint256 validatorId,\r\n        address _token,\r\n        address payable destination,\r\n        uint256 amount\r\n    ) external onlyOwner {\r\n        address contractAddr = validators[validatorId].contractAddress;\r\n        require(contractAddr != address(0x0), \"unknown validator or no delegation enabled\");\r\n        IValidatorShare validatorShare = IValidatorShare(contractAddr);\r\n        validatorShare.drain(_token, destination, amount);\r\n    }\r\n\r\n    // Overriding isOwner from Ownable.sol because owner() and transferOwnership() have been overridden by UpgradableProxy\r\n    function isOwner() public view returns (bool) {\r\n        address _owner;\r\n        bytes32 position = keccak256(\"matic.network.proxy.owner\");\r\n        assembly {\r\n            _owner := sload(position)\r\n        }\r\n        return msg.sender == _owner;\r\n    }\r\n}\r\n",
  "sourcePath": "/home/manjain/Documents/contracts/contracts/common/misc/DrainStakeManager.sol",
  "compiler": {
    "name": "solc",
    "version": "0.5.17+commit.d19bba13.Linux.g++"
  },
  "schemaVersion": "3.0.14",
  "updatedAt": "2021-02-21T12:11:06.551Z",
  "devdoc": {
    "methods": {
      "changeRootChain(address)": {
        "details": "Allows the current owner to change root chain address.",
        "params": {
          "newRootChain": "The address to new rootchain."
        }
      },
      "owner()": {
        "return": "the address of the owner."
      },
      "renounceOwnership()": {
        "details": "Allows the current owner to relinquish control of the contract. It will not be possible to call the functions with the `onlyOwner` modifier anymore."
      },
      "transferOwnership(address)": {
        "details": "Allows the current owner to transfer control of the contract to a newOwner.",
        "params": {
          "newOwner": "The address to transfer ownership to."
        }
      }
    }
  },
  "userdoc": {
    "methods": {
      "renounceOwnership()": {
        "notice": "Renouncing ownership will leave the contract without an owner, thereby removing any functionality that is only available to the owner."
      }
    }
  }
}