{
  "contractName": "GovernanceLockableTest",
  "abi": [
    {
      "inputs": [
        {
          "internalType": "address",
          "name": "governance",
          "type": "address"
        }
      ],
      "payable": false,
      "stateMutability": "nonpayable",
      "type": "constructor"
    },
    {
      "constant": true,
      "inputs": [],
      "name": "governance",
      "outputs": [
        {
          "internalType": "contract IGovernance",
          "name": "",
          "type": "address"
        }
      ],
      "payable": false,
      "stateMutability": "view",
      "type": "function"
    },
    {
      "constant": false,
      "inputs": [],
      "name": "lock",
      "outputs": [],
      "payable": false,
      "stateMutability": "nonpayable",
      "type": "function"
    },
    {
      "constant": true,
      "inputs": [],
      "name": "locked",
      "outputs": [
        {
          "internalType": "bool",
          "name": "",
          "type": "bool"
        }
      ],
      "payable": false,
      "stateMutability": "view",
      "type": "function"
    },
    {
      "constant": false,
      "inputs": [],
      "name": "unlock",
      "outputs": [],
      "payable": false,
      "stateMutability": "nonpayable",
      "type": "function"
    }
  ],
  "bytecode": "0x608060405234801561001057600080fd5b5060405161024e38038061024e8339818101604052602081101561003357600080fd5b5051600080546001600160a01b0390921661010002610100600160a81b03199092169190911790556101e48061006a6000396000f3fe608060405234801561001057600080fd5b506004361061004c5760003560e01c80635aa6e67514610051578063a69df4b514610075578063cf3090121461007f578063f83d08ba1461009b575b600080fd5b6100596100a3565b604080516001600160a01b039092168252519081900360200190f35b61007d6100b7565b005b61008761010f565b604080519115158252519081900360200190f35b61007d610118565b60005461010090046001600160a01b031681565b60005461010090046001600160a01b031633146101055760405162461bcd60e51b815260040180806020018281038252602681526020018061018a6026913960400191505060405180910390fd5b61010d61016e565b565b60005460ff1681565b60005461010090046001600160a01b031633146101665760405162461bcd60e51b815260040180806020018281038252602681526020018061018a6026913960400191505060405180910390fd5b61010d61017a565b6000805460ff19169055565b6000805460ff1916600117905556fe4f6e6c7920676f7665726e616e636520636f6e747261637420697320617574686f72697a6564a265627a7a72315820aeb9b66a43fd05c958dfe06e8e489b7e492880ca647b226d85f269116218e97164736f6c63430005110032",
  "source": "pragma solidity ^0.5.2;\n\nimport { GovernanceLockable } from \"../common/mixin/GovernanceLockable.sol\";\n\ncontract GovernanceLockableTest is GovernanceLockable {\n    constructor(address governance) public GovernanceLockable(governance) {}\n}\n",
  "sourcePath": "/home/manjain/Documents/contracts/contracts/test/GovernanceLockableTest.sol",
  "compiler": {
    "name": "solc",
    "version": "0.5.17+commit.d19bba13.Linux.g++"
  },
  "schemaVersion": "3.0.14",
  "updatedAt": "2021-02-21T12:11:07.005Z",
  "devdoc": {
    "methods": {}
  },
  "userdoc": {
    "methods": {}
  }
}