{
  "contractName": "Merkle",
  "abi": [
    {
      "constant": true,
      "inputs": [
        {
          "internalType": "bytes32",
          "name": "leaf",
          "type": "bytes32"
        },
        {
          "internalType": "uint256",
          "name": "index",
          "type": "uint256"
        },
        {
          "internalType": "bytes32",
          "name": "rootHash",
          "type": "bytes32"
        },
        {
          "internalType": "bytes",
          "name": "proof",
          "type": "bytes"
        }
      ],
      "name": "checkMembership",
      "outputs": [
        {
          "internalType": "bool",
          "name": "",
          "type": "bool"
        }
      ],
      "payable": false,
      "stateMutability": "pure",
      "type": "function"
    }
  ],
  "bytecode": "0x610292610026600b82828239805160001a60731461001957fe5b30600052607381538281f3fe73000000000000000000000000000000000000000030146080604052600436106100355760003560e01c80636c8f455c1461003a575b600080fd5b6100f36004803603608081101561005057600080fd5b8135916020810135916040820135919081019060808101606082013564010000000081111561007e57600080fd5b82018360208201111561009057600080fd5b803590602001918460018302840111640100000000831117156100b257600080fd5b91908080601f016020809104026020016040519081016040528093929190818152602001838380828437600092019190915250929550610107945050505050565b604080519115158252519081900360200190f35b6000602082518161011457fe5b061561015e576040805162461bcd60e51b8152602060048201526014602482015273092dcecc2d8d2c840e0e4dedecc40d8cadccee8d60631b604482015290519081900360640190fd5b6000602083518161016b57fe5b0490508060020a85106101bd576040805162461bcd60e51b81526020600482015260156024820152744c65616620696e64657820697320746f6f2062696760581b604482015290519081900360640190fd5b60008660205b8551811161024f578581015192506002880661020f5781836040516020018083815260200182815260200192505050604051602081830303815290604052805190602001209150610241565b828260405160200180838152602001828152602001925050506040516020818303038152906040528051906020012091505b6002880497506020016101c3565b50909414969550505050505056fea265627a7a723158204751a331ecb99f231b5adc43bca58f19edaf0d1f4109a381fbe4f13b9704a5d464736f6c63430005110032",
  "source": "pragma solidity ^0.5.2;\n\nlibrary Merkle {\n    function checkMembership(\n        bytes32 leaf,\n        uint256 index,\n        bytes32 rootHash,\n        bytes memory proof\n    ) public pure returns (bool) {\n        require(proof.length % 32 == 0, \"Invalid proof length\");\n        uint256 proofHeight = proof.length / 32;\n        // Proof of size n means, height of the tree is n+1.\n        // In a tree of height n+1, max #leafs possible is 2 ^ n\n        require(index < 2 ** proofHeight, \"Leaf index is too big\");\n\n        bytes32 proofElement;\n        bytes32 computedHash = leaf;\n        for (uint256 i = 32; i <= proof.length; i += 32) {\n            assembly {\n                proofElement := mload(add(proof, i))\n            }\n\n            if (index % 2 == 0) {\n                computedHash = keccak256(\n                    abi.encodePacked(computedHash, proofElement)\n                );\n            } else {\n                computedHash = keccak256(\n                    abi.encodePacked(proofElement, computedHash)\n                );\n            }\n\n            index = index / 2;\n        }\n        return computedHash == rootHash;\n    }\n}\n",
  "sourcePath": "/home/manjain/Documents/contracts/contracts/common/lib/Merkle.sol",
  "compiler": {
    "name": "solc",
    "version": "0.5.17+commit.d19bba13.Linux.g++"
  },
  "schemaVersion": "3.0.14",
  "updatedAt": "2021-02-21T12:11:06.524Z",
  "devdoc": {
    "methods": {}
  },
  "userdoc": {
    "methods": {}
  }
}