{
  "contractName": "RootChain",
  "abi": [
    {
      "anonymous": false,
      "inputs": [
        {
          "indexed": true,
          "internalType": "address",
          "name": "proposer",
          "type": "address"
        },
        {
          "indexed": true,
          "internalType": "uint256",
          "name": "headerBlockId",
          "type": "uint256"
        },
        {
          "indexed": true,
          "internalType": "uint256",
          "name": "reward",
          "type": "uint256"
        },
        {
          "indexed": false,
          "internalType": "uint256",
          "name": "start",
          "type": "uint256"
        },
        {
          "indexed": false,
          "internalType": "uint256",
          "name": "end",
          "type": "uint256"
        },
        {
          "indexed": false,
          "internalType": "bytes32",
          "name": "root",
          "type": "bytes32"
        }
      ],
      "name": "NewHeaderBlock",
      "type": "event"
    },
    {
      "anonymous": false,
      "inputs": [
        {
          "indexed": true,
          "internalType": "address",
          "name": "previousOwner",
          "type": "address"
        },
        {
          "indexed": true,
          "internalType": "address",
          "name": "newOwner",
          "type": "address"
        }
      ],
      "name": "OwnershipTransferred",
      "type": "event"
    },
    {
      "anonymous": false,
      "inputs": [
        {
          "indexed": true,
          "internalType": "address",
          "name": "proposer",
          "type": "address"
        },
        {
          "indexed": true,
          "internalType": "uint256",
          "name": "headerBlockId",
          "type": "uint256"
        }
      ],
      "name": "ResetHeaderBlock",
      "type": "event"
    },
    {
      "constant": true,
      "inputs": [],
      "name": "CHAINID",
      "outputs": [
        {
          "internalType": "uint256",
          "name": "",
          "type": "uint256"
        }
      ],
      "payable": false,
      "stateMutability": "view",
      "type": "function"
    },
    {
      "constant": true,
      "inputs": [],
      "name": "VOTE_TYPE",
      "outputs": [
        {
          "internalType": "uint8",
          "name": "",
          "type": "uint8"
        }
      ],
      "payable": false,
      "stateMutability": "view",
      "type": "function"
    },
    {
      "constant": true,
      "inputs": [],
      "name": "_nextHeaderBlock",
      "outputs": [
        {
          "internalType": "uint256",
          "name": "",
          "type": "uint256"
        }
      ],
      "payable": false,
      "stateMutability": "view",
      "type": "function"
    },
    {
      "constant": true,
      "inputs": [
        {
          "internalType": "uint256",
          "name": "",
          "type": "uint256"
        }
      ],
      "name": "headerBlocks",
      "outputs": [
        {
          "internalType": "bytes32",
          "name": "root",
          "type": "bytes32"
        },
        {
          "internalType": "uint256",
          "name": "start",
          "type": "uint256"
        },
        {
          "internalType": "uint256",
          "name": "end",
          "type": "uint256"
        },
        {
          "internalType": "uint256",
          "name": "createdAt",
          "type": "uint256"
        },
        {
          "internalType": "address",
          "name": "proposer",
          "type": "address"
        }
      ],
      "payable": false,
      "stateMutability": "view",
      "type": "function"
    },
    {
      "constant": true,
      "inputs": [],
      "name": "heimdallId",
      "outputs": [
        {
          "internalType": "bytes32",
          "name": "",
          "type": "bytes32"
        }
      ],
      "payable": false,
      "stateMutability": "view",
      "type": "function"
    },
    {
      "constant": true,
      "inputs": [],
      "name": "isOwner",
      "outputs": [
        {
          "internalType": "bool",
          "name": "",
          "type": "bool"
        }
      ],
      "payable": false,
      "stateMutability": "view",
      "type": "function"
    },
    {
      "constant": true,
      "inputs": [],
      "name": "networkId",
      "outputs": [
        {
          "internalType": "bytes",
          "name": "",
          "type": "bytes"
        }
      ],
      "payable": false,
      "stateMutability": "view",
      "type": "function"
    },
    {
      "constant": true,
      "inputs": [],
      "name": "owner",
      "outputs": [
        {
          "internalType": "address",
          "name": "",
          "type": "address"
        }
      ],
      "payable": false,
      "stateMutability": "view",
      "type": "function"
    },
    {
      "constant": false,
      "inputs": [],
      "name": "renounceOwnership",
      "outputs": [],
      "payable": false,
      "stateMutability": "nonpayable",
      "type": "function"
    },
    {
      "constant": false,
      "inputs": [
        {
          "internalType": "address",
          "name": "newOwner",
          "type": "address"
        }
      ],
      "name": "transferOwnership",
      "outputs": [],
      "payable": false,
      "stateMutability": "nonpayable",
      "type": "function"
    },
    {
      "constant": false,
      "inputs": [
        {
          "internalType": "bytes",
          "name": "data",
          "type": "bytes"
        },
        {
          "internalType": "bytes",
          "name": "sigs",
          "type": "bytes"
        }
      ],
      "name": "submitHeaderBlock",
      "outputs": [],
      "payable": false,
      "stateMutability": "nonpayable",
      "type": "function"
    },
    {
      "constant": false,
      "inputs": [
        {
          "internalType": "uint256",
          "name": "numDeposits",
          "type": "uint256"
        }
      ],
      "name": "updateDepositId",
      "outputs": [
        {
          "internalType": "uint256",
          "name": "depositId",
          "type": "uint256"
        }
      ],
      "payable": false,
      "stateMutability": "nonpayable",
      "type": "function"
    },
    {
      "constant": true,
      "inputs": [],
      "name": "getLastChildBlock",
      "outputs": [
        {
          "internalType": "uint256",
          "name": "",
          "type": "uint256"
        }
      ],
      "payable": false,
      "stateMutability": "view",
      "type": "function"
    },
    {
      "constant": false,
      "inputs": [],
      "name": "slash",
      "outputs": [],
      "payable": false,
      "stateMutability": "nonpayable",
      "type": "function"
    },
    {
      "constant": true,
      "inputs": [],
      "name": "currentHeaderBlock",
      "outputs": [
        {
          "internalType": "uint256",
          "name": "",
          "type": "uint256"
        }
      ],
      "payable": false,
      "stateMutability": "view",
      "type": "function"
    },
    {
      "constant": false,
      "inputs": [
        {
          "internalType": "uint256",
          "name": "_value",
          "type": "uint256"
        }
      ],
      "name": "setNextHeaderBlock",
      "outputs": [],
      "payable": false,
      "stateMutability": "nonpayable",
      "type": "function"
    },
    {
      "constant": false,
      "inputs": [
        {
          "internalType": "string",
          "name": "_heimdallId",
          "type": "string"
        }
      ],
      "name": "setHeimdallId",
      "outputs": [],
      "payable": false,
      "stateMutability": "nonpayable",
      "type": "function"
    }
  ],
  "bytecode": "0x608060408190526127106003556001600455600080546001600160a01b03191633178082556001600160a01b0316917f8be0079c531659141344cd1fd0a4f28419497f9722a3daafe3b4186f6b6457e0908290a3610de6806100626000396000f3fe608060405234801561001057600080fd5b506004361061010b5760003560e01c80639025e64c116100a2578063d5b844eb11610071578063d5b844eb14610356578063ea0688b314610374578063ec7e48551461041a578063f2fde38b14610422578063fbc3dd36146104485761010b565b80639025e64c146102ac578063b87e1b6614610329578063cc79f97b14610331578063cf24a0ea146103395761010b565b8063715018a6116100de578063715018a61461025c5780638d978d88146102645780638da5cb5b1461026c5780638f32d59b146102905761010b565b80632da25de31461011057806341539d4a1461011a5780635391f4831461016b5780636a791f111461019a575b600080fd5b610118610450565b005b6101376004803603602081101561013057600080fd5b5035610452565b6040805195865260208601949094528484019290925260608401526001600160a01b03166080830152519081900360a00190f35b6101886004803603602081101561018157600080fd5b503561048a565b60408051918252519081900360200190f35b610118600480360360408110156101b057600080fd5b8101906020810181356401000000008111156101cb57600080fd5b8201836020820111156101dd57600080fd5b803590602001918460018302840111640100000000831117156101ff57600080fd5b91939092909160208101903564010000000081111561021d57600080fd5b82018360208201111561022f57600080fd5b8035906020019184600183028401116401000000008311171561025157600080fd5b5090925090506105c4565b610118610965565b6101886109c0565b6102746109c6565b604080516001600160a01b039092168252519081900360200190f35b6102986109d5565b604080519115158252519081900360200190f35b6102b46109e6565b6040805160208082528351818301528351919283929083019185019080838360005b838110156102ee5781810151838201526020016102d6565b50505050905090810190601f16801561031b5780820380516001836020036101000a031916815260200191505b509250505060405180910390f35b610188610a05565b610188610a2a565b6101186004803603602081101561034f57600080fd5b5035610a31565b61035e610b11565b6040805160ff9092168252519081900360200190f35b6101186004803603602081101561038a57600080fd5b8101906020810181356401000000008111156103a557600080fd5b8201836020820111156103b757600080fd5b803590602001918460018302840111640100000000831117156103d957600080fd5b91908080601f016020809104026020016040519081016040528093929190818152602001838380828437600092019190915250929550610b16945050505050565b610188610b9e565b6101186004803603602081101561043857600080fd5b50356001600160a01b0316610bbb565b610188610bd8565b565b60056020526000908152604090208054600182015460028301546003840154600490940154929391929091906001600160a01b031685565b6006546040805162c9effd60e41b815290516000926001600160a01b031691630c9effd0916004808301926020929190829003018186803b1580156104ce57600080fd5b505afa1580156104e2573d6000803e3d6000fd5b505050506040513d60208110156104f857600080fd5b50516001600160a01b031633146105405760405162461bcd60e51b8152600401808060200182810382526021815260200180610d916021913960400191505060405180910390fd5b61055a60045461054e610b9e565b9063ffffffff610bde16565b600454909150610570908363ffffffff610bde16565b600481905561271010156105bf576040805162461bcd60e51b8152602060048201526011602482015270544f4f5f4d414e595f4445504f5349545360781b604482015290519081900360640190fd5b919050565b600080600080600080898960c08110156105dd57600080fd5b506001600160a01b0381351696506020810135955060408101359450606081013593506080810135925060a00135905062013881811461065b576040805162461bcd60e51b8152602060048201526014602482015273125b9d985b1a5908189bdc8818da185a5b881a5960621b604482015290519081900360640190fd5b61066786868686610bf7565b6106b0576040805162461bcd60e51b8152602060048201526015602482015274494e434f52524543545f4845414445525f4441544160581b604482015290519081900360640190fd5b60065460408051630a1ef8f960e21b815290516000926001600160a01b03169163287be3e4916004808301926020929190829003018186803b1580156106f557600080fd5b505afa158015610709573d6000803e3d6000fd5b505050506040513d602081101561071f57600080fd5b5051905060006001600160a01b03821663066647a0610749600161054e8a8c63ffffffff610cd216565b604051806040016040528060018152602001600160f81b8152508f8f6040516020018084805190602001908083835b602083106107975780518252601f199092019160209182019101610778565b6001836020036101000a03801982511681845116808217855250505050505090500183838082843780830192505050935050505060405160208183030381529060405280519060200120878c8f8f6040518763ffffffff1660e01b815260040180878152602001868152602001858152602001846001600160a01b03166001600160a01b03168152602001806020018281038252848482818152602001925080828437600081840152601f19601f820116905080830192505050975050505050505050602060405180830381600087803b15801561087457600080fd5b505af1158015610888573d6000803e3d6000fd5b505050506040513d602081101561089e57600080fd5b50519050806108e9576040805162461bcd60e51b8152602060048201526012602482015271125b9d985b1a590818da1958dadc1bda5b9d60721b604482015290519081900360640190fd5b600354604080518981526020810189905280820188905290518392916001600160a01b038c16917fba5de06d22af2685c6c7765f60067f7d2b08c2d29f53cdf14d67f6d1c9bfb5279181900360600190a460035461094f9061271063ffffffff610bde16565b6003555050600160045550505050505050505050565b61096d6109d5565b61097657600080fd5b600080546040516001600160a01b03909116907f8be0079c531659141344cd1fd0a4f28419497f9722a3daafe3b4186f6b6457e0908390a3600080546001600160a01b0319169055565b60035481565b6000546001600160a01b031690565b6000546001600160a01b0316331490565b6040518060400160405280600381526020016201388160e81b81525081565b600060056000610a13610b9e565b815260200190815260200160002060020154905090565b6201388181565b610a396109d5565b610a4257600080fd5b612710810615610a89576040805162461bcd60e51b815260206004820152600d60248201526c496e76616c69642076616c756560981b604482015290519081900360640190fd5b805b600354811015610ad65760008181526005602052604081208181556001810182905560028101829055600381019190915560040180546001600160a01b031916905561271001610a8b565b5060038190556001600455604051819033907fca1d8316287f938830e225956a7bb10fd5a1a1506dd2eb3a476751a48811720590600090a350565b600281565b610b1e6109d5565b610b2757600080fd5b806040516020018082805190602001908083835b60208310610b5a5780518252601f199092019160209182019101610b3b565b6001836020036101000a0380198251168184511680821785525050505050509050019150506040516020818303038152906040528051906020012060028190555050565b600354600090610bb69061271063ffffffff610cd216565b905090565b610bc36109d5565b610bcc57600080fd5b610bd581610ce7565b50565b60025481565b600082820183811015610bf057600080fd5b9392505050565b60008061271061ffff166003541115610c2e5760056000610c16610b9e565b81526020019081526020016000206002015460010190505b848114610c3f576000915050610cca565b610c47610d55565b506040805160a081018252848152602080820193845281830187815242606084019081526001600160a01b038b81166080860190815260038054600090815260059096529690942094518555955160018086019190915591516002850155519383019390935551600490910180546001600160a01b031916919093161790915590505b949350505050565b600082821115610ce157600080fd5b50900390565b6001600160a01b038116610cfa57600080fd5b600080546040516001600160a01b03808516939216917f8be0079c531659141344cd1fd0a4f28419497f9722a3daafe3b4186f6b6457e091a3600080546001600160a01b0319166001600160a01b0392909216919091179055565b6040518060a001604052806000801916815260200160008152602001600081526020016000815260200160006001600160a01b03168152509056fe554e415554484f52495a45445f4445504f5349545f4d414e414745525f4f4e4c59a265627a7a723158202b39d306c6c8f59575fe8c73ee3f6460f66295db819e9ea49fc4dca404a6be3564736f6c63430005110032",
  "source": "pragma solidity ^0.5.2;\n\nimport {RLPReader} from \"solidity-rlp/contracts/RLPReader.sol\";\nimport {SafeMath} from \"openzeppelin-solidity/contracts/math/SafeMath.sol\";\n\nimport {RootChainHeader, RootChainStorage} from \"./RootChainStorage.sol\";\n\nimport {IStakeManager} from \"../staking/stakeManager/IStakeManager.sol\";\nimport {IRootChain} from \"./IRootChain.sol\";\nimport {Registry} from \"../common/Registry.sol\";\n\n\ncontract RootChain is RootChainStorage, IRootChain {\n    using SafeMath for uint256;\n    using RLPReader for bytes;\n    using RLPReader for RLPReader.RLPItem;\n\n    modifier onlyDepositManager() {\n        require(msg.sender == registry.getDepositManagerAddress(), \"UNAUTHORIZED_DEPOSIT_MANAGER_ONLY\");\n        _;\n    }\n\n    function submitHeaderBlock(bytes calldata data, bytes calldata sigs) external {\n        (address proposer, uint256 start, uint256 end, bytes32 rootHash, bytes32 accountHash, uint256 _borChainID) = abi\n            .decode(data, (address, uint256, uint256, bytes32, bytes32, uint256));\n        require(CHAINID == _borChainID, \"Invalid bor chain id\");\n\n        require(_buildHeaderBlock(proposer, start, end, rootHash), \"INCORRECT_HEADER_DATA\");\n\n        // check if it is better to keep it in local storage instead\n        IStakeManager stakeManager = IStakeManager(registry.getStakeManagerAddress());\n        uint256 _reward = stakeManager.checkSignatures(\n            end.sub(start).add(1),\n            /**  \n                prefix 01 to data \n                01 represents positive vote on data and 00 is negative vote\n                malicious validator can try to send 2/3 on negative vote so 01 is appended\n             */\n            keccak256(abi.encodePacked(bytes(hex\"01\"), data)),\n            accountHash,\n            proposer,\n            sigs\n        );\n\n        require(_reward != 0, \"Invalid checkpoint\");\n        emit NewHeaderBlock(proposer, _nextHeaderBlock, _reward, start, end, rootHash);\n        _nextHeaderBlock = _nextHeaderBlock.add(MAX_DEPOSITS);\n        _blockDepositId = 1;\n    }\n\n    function updateDepositId(uint256 numDeposits) external onlyDepositManager returns (uint256 depositId) {\n        depositId = currentHeaderBlock().add(_blockDepositId);\n        // deposit ids will be (_blockDepositId, _blockDepositId + 1, .... _blockDepositId + numDeposits - 1)\n        _blockDepositId = _blockDepositId.add(numDeposits);\n        require(\n            // Since _blockDepositId is initialized to 1; only (MAX_DEPOSITS - 1) deposits per header block are allowed\n            _blockDepositId <= MAX_DEPOSITS,\n            \"TOO_MANY_DEPOSITS\"\n        );\n    }\n\n    function getLastChildBlock() external view returns (uint256) {\n        return headerBlocks[currentHeaderBlock()].end;\n    }\n\n    function slash() external {\n        //TODO: future implementation\n    }\n\n    function currentHeaderBlock() public view returns (uint256) {\n        return _nextHeaderBlock.sub(MAX_DEPOSITS);\n    }\n\n    function _buildHeaderBlock(\n        address proposer,\n        uint256 start,\n        uint256 end,\n        bytes32 rootHash\n    ) private returns (bool) {\n        uint256 nextChildBlock;\n        /*\n    The ID of the 1st header block is MAX_DEPOSITS.\n    if _nextHeaderBlock == MAX_DEPOSITS, then the first header block is yet to be submitted, hence nextChildBlock = 0\n    */\n        if (_nextHeaderBlock > MAX_DEPOSITS) {\n            nextChildBlock = headerBlocks[currentHeaderBlock()].end + 1;\n        }\n        if (nextChildBlock != start) {\n            return false;\n        }\n\n        HeaderBlock memory headerBlock = HeaderBlock({\n            root: rootHash,\n            start: nextChildBlock,\n            end: end,\n            createdAt: now,\n            proposer: proposer\n        });\n\n        headerBlocks[_nextHeaderBlock] = headerBlock;\n        return true;\n    }\n\n    // Housekeeping function. @todo remove later\n    function setNextHeaderBlock(uint256 _value) public onlyOwner {\n        require(_value % MAX_DEPOSITS == 0, \"Invalid value\");\n        for (uint256 i = _value; i < _nextHeaderBlock; i += MAX_DEPOSITS) {\n            delete headerBlocks[i];\n        }\n        _nextHeaderBlock = _value;\n        _blockDepositId = 1;\n        emit ResetHeaderBlock(msg.sender, _nextHeaderBlock);\n    }\n\n    // Housekeeping function. @todo remove later\n    function setHeimdallId(string memory _heimdallId) public onlyOwner {\n        heimdallId = keccak256(abi.encodePacked(_heimdallId));\n    }\n}\n",
  "sourcePath": "/home/manjain/Documents/contracts/contracts/root/RootChain.sol",
  "compiler": {
    "name": "solc",
    "version": "0.5.17+commit.d19bba13.Linux.g++"
  },
  "schemaVersion": "3.0.14",
  "updatedAt": "2021-02-21T12:11:06.584Z",
  "devdoc": {
    "methods": {
      "isOwner()": {
        "return": "true if `msg.sender` is the owner of the contract."
      },
      "owner()": {
        "return": "the address of the owner."
      },
      "renounceOwnership()": {
        "details": "Allows the current owner to relinquish control of the contract. It will not be possible to call the functions with the `onlyOwner` modifier anymore."
      },
      "transferOwnership(address)": {
        "details": "Allows the current owner to transfer control of the contract to a newOwner.",
        "params": {
          "newOwner": "The address to transfer ownership to."
        }
      }
    }
  },
  "userdoc": {
    "methods": {
      "renounceOwnership()": {
        "notice": "Renouncing ownership will leave the contract without an owner, thereby removing any functionality that is only available to the owner."
      }
    }
  }
}