{
  "contractName": "StakeManagerTestable",
  "abi": [
    {
      "anonymous": false,
      "inputs": [
        {
          "indexed": true,
          "internalType": "address",
          "name": "previousOwner",
          "type": "address"
        },
        {
          "indexed": true,
          "internalType": "address",
          "name": "newOwner",
          "type": "address"
        }
      ],
      "name": "OwnershipTransferred",
      "type": "event"
    },
    {
      "anonymous": false,
      "inputs": [
        {
          "indexed": true,
          "internalType": "address",
          "name": "previousRootChain",
          "type": "address"
        },
        {
          "indexed": true,
          "internalType": "address",
          "name": "newRootChain",
          "type": "address"
        }
      ],
      "name": "RootChainChanged",
      "type": "event"
    },
    {
      "constant": true,
      "inputs": [],
      "name": "CHECKPOINT_REWARD",
      "outputs": [
        {
          "internalType": "uint256",
          "name": "",
          "type": "uint256"
        }
      ],
      "payable": false,
      "stateMutability": "view",
      "type": "function"
    },
    {
      "constant": true,
      "inputs": [],
      "name": "NFTContract",
      "outputs": [
        {
          "internalType": "contract StakingNFT",
          "name": "",
          "type": "address"
        }
      ],
      "payable": false,
      "stateMutability": "view",
      "type": "function"
    },
    {
      "constant": true,
      "inputs": [],
      "name": "NFTCounter",
      "outputs": [
        {
          "internalType": "uint256",
          "name": "",
          "type": "uint256"
        }
      ],
      "payable": false,
      "stateMutability": "view",
      "type": "function"
    },
    {
      "constant": true,
      "inputs": [],
      "name": "WITHDRAWAL_DELAY",
      "outputs": [
        {
          "internalType": "uint256",
          "name": "",
          "type": "uint256"
        }
      ],
      "payable": false,
      "stateMutability": "view",
      "type": "function"
    },
    {
      "constant": true,
      "inputs": [],
      "name": "accountStateRoot",
      "outputs": [
        {
          "internalType": "bytes32",
          "name": "",
          "type": "bytes32"
        }
      ],
      "payable": false,
      "stateMutability": "view",
      "type": "function"
    },
    {
      "constant": true,
      "inputs": [],
      "name": "auctionPeriod",
      "outputs": [
        {
          "internalType": "uint256",
          "name": "",
          "type": "uint256"
        }
      ],
      "payable": false,
      "stateMutability": "view",
      "type": "function"
    },
    {
      "constant": false,
      "inputs": [
        {
          "internalType": "address",
          "name": "newRootChain",
          "type": "address"
        }
      ],
      "name": "changeRootChain",
      "outputs": [],
      "payable": false,
      "stateMutability": "nonpayable",
      "type": "function"
    },
    {
      "constant": true,
      "inputs": [],
      "name": "checkPointBlockInterval",
      "outputs": [
        {
          "internalType": "uint256",
          "name": "",
          "type": "uint256"
        }
      ],
      "payable": false,
      "stateMutability": "view",
      "type": "function"
    },
    {
      "constant": false,
      "inputs": [
        {
          "internalType": "uint256",
          "name": "blockInterval",
          "type": "uint256"
        },
        {
          "internalType": "bytes32",
          "name": "voteHash",
          "type": "bytes32"
        },
        {
          "internalType": "bytes32",
          "name": "stateRoot",
          "type": "bytes32"
        },
        {
          "internalType": "address",
          "name": "proposer",
          "type": "address"
        },
        {
          "internalType": "uint256[3][]",
          "name": "sigs",
          "type": "uint256[3][]"
        }
      ],
      "name": "checkSignatures",
      "outputs": [
        {
          "internalType": "uint256",
          "name": "",
          "type": "uint256"
        }
      ],
      "payable": false,
      "stateMutability": "nonpayable",
      "type": "function"
    },
    {
      "constant": true,
      "inputs": [],
      "name": "checkpointRewardDelta",
      "outputs": [
        {
          "internalType": "uint256",
          "name": "",
          "type": "uint256"
        }
      ],
      "payable": false,
      "stateMutability": "view",
      "type": "function"
    },
    {
      "constant": false,
      "inputs": [
        {
          "internalType": "uint256",
          "name": "accumFeeAmount",
          "type": "uint256"
        },
        {
          "internalType": "uint256",
          "name": "index",
          "type": "uint256"
        },
        {
          "internalType": "bytes",
          "name": "proof",
          "type": "bytes"
        }
      ],
      "name": "claimFee",
      "outputs": [],
      "payable": false,
      "stateMutability": "nonpayable",
      "type": "function"
    },
    {
      "constant": false,
      "inputs": [
        {
          "internalType": "uint256",
          "name": "validatorId",
          "type": "uint256"
        },
        {
          "internalType": "uint256",
          "name": "heimdallFee",
          "type": "uint256"
        }
      ],
      "name": "confirmAuctionBid",
      "outputs": [],
      "payable": false,
      "stateMutability": "nonpayable",
      "type": "function"
    },
    {
      "constant": true,
      "inputs": [],
      "name": "currentEpoch",
      "outputs": [
        {
          "internalType": "uint256",
          "name": "",
          "type": "uint256"
        }
      ],
      "payable": false,
      "stateMutability": "view",
      "type": "function"
    },
    {
      "constant": true,
      "inputs": [],
      "name": "currentValidatorSetSize",
      "outputs": [
        {
          "internalType": "uint256",
          "name": "",
          "type": "uint256"
        }
      ],
      "payable": false,
      "stateMutability": "view",
      "type": "function"
    },
    {
      "constant": true,
      "inputs": [],
      "name": "currentValidatorSetTotalStake",
      "outputs": [
        {
          "internalType": "uint256",
          "name": "",
          "type": "uint256"
        }
      ],
      "payable": false,
      "stateMutability": "view",
      "type": "function"
    },
    {
      "constant": false,
      "inputs": [
        {
          "internalType": "uint256",
          "name": "validatorId",
          "type": "uint256"
        },
        {
          "internalType": "uint256",
          "name": "amount",
          "type": "uint256"
        }
      ],
      "name": "decreaseValidatorDelegatedAmount",
      "outputs": [],
      "payable": false,
      "stateMutability": "nonpayable",
      "type": "function"
    },
    {
      "constant": true,
      "inputs": [
        {
          "internalType": "uint256",
          "name": "validatorId",
          "type": "uint256"
        }
      ],
      "name": "delegatedAmount",
      "outputs": [
        {
          "internalType": "uint256",
          "name": "",
          "type": "uint256"
        }
      ],
      "payable": false,
      "stateMutability": "view",
      "type": "function"
    },
    {
      "constant": false,
      "inputs": [
        {
          "internalType": "uint256",
          "name": "validatorId",
          "type": "uint256"
        },
        {
          "internalType": "uint256",
          "name": "amount",
          "type": "uint256"
        },
        {
          "internalType": "address",
          "name": "delegator",
          "type": "address"
        }
      ],
      "name": "delegationDeposit",
      "outputs": [
        {
          "internalType": "bool",
          "name": "",
          "type": "bool"
        }
      ],
      "payable": false,
      "stateMutability": "nonpayable",
      "type": "function"
    },
    {
      "constant": true,
      "inputs": [],
      "name": "delegationEnabled",
      "outputs": [
        {
          "internalType": "bool",
          "name": "",
          "type": "bool"
        }
      ],
      "payable": false,
      "stateMutability": "view",
      "type": "function"
    },
    {
      "constant": true,
      "inputs": [
        {
          "internalType": "uint256",
          "name": "validatorId",
          "type": "uint256"
        }
      ],
      "name": "delegatorsReward",
      "outputs": [
        {
          "internalType": "uint256",
          "name": "",
          "type": "uint256"
        }
      ],
      "payable": false,
      "stateMutability": "view",
      "type": "function"
    },
    {
      "constant": false,
      "inputs": [
        {
          "internalType": "address",
          "name": "auctionUser",
          "type": "address"
        },
        {
          "internalType": "uint256",
          "name": "heimdallFee",
          "type": "uint256"
        },
        {
          "internalType": "uint256",
          "name": "validatorId",
          "type": "uint256"
        },
        {
          "internalType": "uint256",
          "name": "auctionAmount",
          "type": "uint256"
        },
        {
          "internalType": "bool",
          "name": "acceptDelegation",
          "type": "bool"
        },
        {
          "internalType": "bytes",
          "name": "signerPubkey",
          "type": "bytes"
        }
      ],
      "name": "dethroneAndStake",
      "outputs": [],
      "payable": false,
      "stateMutability": "nonpayable",
      "type": "function"
    },
    {
      "constant": false,
      "inputs": [
        {
          "internalType": "address",
          "name": "destination",
          "type": "address"
        },
        {
          "internalType": "uint256",
          "name": "amount",
          "type": "uint256"
        }
      ],
      "name": "drain",
      "outputs": [],
      "payable": false,
      "stateMutability": "nonpayable",
      "type": "function"
    },
    {
      "constant": false,
      "inputs": [
        {
          "internalType": "uint256",
          "name": "validatorId",
          "type": "uint256"
        },
        {
          "internalType": "address",
          "name": "tokenAddr",
          "type": "address"
        },
        {
          "internalType": "address payable",
          "name": "destination",
          "type": "address"
        },
        {
          "internalType": "uint256",
          "name": "amount",
          "type": "uint256"
        }
      ],
      "name": "drainValidatorShares",
      "outputs": [],
      "payable": false,
      "stateMutability": "nonpayable",
      "type": "function"
    },
    {
      "constant": true,
      "inputs": [],
      "name": "dynasty",
      "outputs": [
        {
          "internalType": "uint256",
          "name": "",
          "type": "uint256"
        }
      ],
      "payable": false,
      "stateMutability": "view",
      "type": "function"
    },
    {
      "constant": true,
      "inputs": [],
      "name": "epoch",
      "outputs": [
        {
          "internalType": "uint256",
          "name": "",
          "type": "uint256"
        }
      ],
      "payable": false,
      "stateMutability": "view",
      "type": "function"
    },
    {
      "constant": true,
      "inputs": [],
      "name": "eventsHub",
      "outputs": [
        {
          "internalType": "address",
          "name": "",
          "type": "address"
        }
      ],
      "payable": false,
      "stateMutability": "view",
      "type": "function"
    },
    {
      "constant": true,
      "inputs": [],
      "name": "extensionCode",
      "outputs": [
        {
          "internalType": "address",
          "name": "",
          "type": "address"
        }
      ],
      "payable": false,
      "stateMutability": "view",
      "type": "function"
    },
    {
      "constant": false,
      "inputs": [
        {
          "internalType": "uint256",
          "name": "validatorId",
          "type": "uint256"
        }
      ],
      "name": "forceUnstake",
      "outputs": [],
      "payable": false,
      "stateMutability": "nonpayable",
      "type": "function"
    },
    {
      "constant": true,
      "inputs": [],
      "name": "getRegistry",
      "outputs": [
        {
          "internalType": "address",
          "name": "",
          "type": "address"
        }
      ],
      "payable": false,
      "stateMutability": "view",
      "type": "function"
    },
    {
      "constant": true,
      "inputs": [
        {
          "internalType": "uint256",
          "name": "validatorId",
          "type": "uint256"
        }
      ],
      "name": "getValidatorContract",
      "outputs": [
        {
          "internalType": "address",
          "name": "",
          "type": "address"
        }
      ],
      "payable": false,
      "stateMutability": "view",
      "type": "function"
    },
    {
      "constant": true,
      "inputs": [
        {
          "internalType": "address",
          "name": "user",
          "type": "address"
        }
      ],
      "name": "getValidatorId",
      "outputs": [
        {
          "internalType": "uint256",
          "name": "",
          "type": "uint256"
        }
      ],
      "payable": false,
      "stateMutability": "view",
      "type": "function"
    },
    {
      "constant": true,
      "inputs": [],
      "name": "governance",
      "outputs": [
        {
          "internalType": "contract IGovernance",
          "name": "",
          "type": "address"
        }
      ],
      "payable": false,
      "stateMutability": "view",
      "type": "function"
    },
    {
      "constant": false,
      "inputs": [
        {
          "internalType": "address",
          "name": "_registry",
          "type": "address"
        },
        {
          "internalType": "address",
          "name": "_rootchain",
          "type": "address"
        },
        {
          "internalType": "address",
          "name": "_token",
          "type": "address"
        },
        {
          "internalType": "address",
          "name": "_NFTContract",
          "type": "address"
        },
        {
          "internalType": "address",
          "name": "_stakingLogger",
          "type": "address"
        },
        {
          "internalType": "address",
          "name": "_validatorShareFactory",
          "type": "address"
        },
        {
          "internalType": "address",
          "name": "_governance",
          "type": "address"
        },
        {
          "internalType": "address",
          "name": "_owner",
          "type": "address"
        },
        {
          "internalType": "address",
          "name": "_extensionCode",
          "type": "address"
        }
      ],
      "name": "initialize",
      "outputs": [],
      "payable": false,
      "stateMutability": "nonpayable",
      "type": "function"
    },
    {
      "constant": false,
      "inputs": [
        {
          "internalType": "address[]",
          "name": "_signers",
          "type": "address[]"
        }
      ],
      "name": "insertSigners",
      "outputs": [],
      "payable": false,
      "stateMutability": "nonpayable",
      "type": "function"
    },
    {
      "constant": true,
      "inputs": [],
      "name": "isOwner",
      "outputs": [
        {
          "internalType": "bool",
          "name": "",
          "type": "bool"
        }
      ],
      "payable": false,
      "stateMutability": "view",
      "type": "function"
    },
    {
      "constant": true,
      "inputs": [
        {
          "internalType": "uint256",
          "name": "validatorId",
          "type": "uint256"
        }
      ],
      "name": "isValidator",
      "outputs": [
        {
          "internalType": "bool",
          "name": "",
          "type": "bool"
        }
      ],
      "payable": false,
      "stateMutability": "view",
      "type": "function"
    },
    {
      "constant": true,
      "inputs": [
        {
          "internalType": "uint256",
          "name": "",
          "type": "uint256"
        }
      ],
      "name": "latestSignerUpdateEpoch",
      "outputs": [
        {
          "internalType": "uint256",
          "name": "",
          "type": "uint256"
        }
      ],
      "payable": false,
      "stateMutability": "view",
      "type": "function"
    },
    {
      "constant": false,
      "inputs": [],
      "name": "lock",
      "outputs": [],
      "payable": false,
      "stateMutability": "nonpayable",
      "type": "function"
    },
    {
      "constant": true,
      "inputs": [],
      "name": "locked",
      "outputs": [
        {
          "internalType": "bool",
          "name": "",
          "type": "bool"
        }
      ],
      "payable": false,
      "stateMutability": "view",
      "type": "function"
    },
    {
      "constant": true,
      "inputs": [],
      "name": "logger",
      "outputs": [
        {
          "internalType": "contract StakingInfo",
          "name": "",
          "type": "address"
        }
      ],
      "payable": false,
      "stateMutability": "view",
      "type": "function"
    },
    {
      "constant": true,
      "inputs": [],
      "name": "maxRewardedCheckpoints",
      "outputs": [
        {
          "internalType": "uint256",
          "name": "",
          "type": "uint256"
        }
      ],
      "payable": false,
      "stateMutability": "view",
      "type": "function"
    },
    {
      "constant": false,
      "inputs": [
        {
          "internalType": "uint256",
          "name": "fromValidatorId",
          "type": "uint256"
        },
        {
          "internalType": "uint256",
          "name": "toValidatorId",
          "type": "uint256"
        },
        {
          "internalType": "uint256",
          "name": "amount",
          "type": "uint256"
        }
      ],
      "name": "migrateDelegation",
      "outputs": [],
      "payable": false,
      "stateMutability": "nonpayable",
      "type": "function"
    },
    {
      "constant": false,
      "inputs": [
        {
          "internalType": "uint256",
          "name": "validatorIdFrom",
          "type": "uint256"
        },
        {
          "internalType": "uint256",
          "name": "validatorIdTo",
          "type": "uint256"
        }
      ],
      "name": "migrateValidatorsData",
      "outputs": [],
      "payable": false,
      "stateMutability": "nonpayable",
      "type": "function"
    },
    {
      "constant": true,
      "inputs": [],
      "name": "minDeposit",
      "outputs": [
        {
          "internalType": "uint256",
          "name": "",
          "type": "uint256"
        }
      ],
      "payable": false,
      "stateMutability": "view",
      "type": "function"
    },
    {
      "constant": true,
      "inputs": [],
      "name": "minHeimdallFee",
      "outputs": [
        {
          "internalType": "uint256",
          "name": "",
          "type": "uint256"
        }
      ],
      "payable": false,
      "stateMutability": "view",
      "type": "function"
    },
    {
      "constant": true,
      "inputs": [],
      "name": "owner",
      "outputs": [
        {
          "internalType": "address",
          "name": "",
          "type": "address"
        }
      ],
      "payable": false,
      "stateMutability": "view",
      "type": "function"
    },
    {
      "constant": true,
      "inputs": [
        {
          "internalType": "uint256",
          "name": "tokenId",
          "type": "uint256"
        }
      ],
      "name": "ownerOf",
      "outputs": [
        {
          "internalType": "address",
          "name": "",
          "type": "address"
        }
      ],
      "payable": false,
      "stateMutability": "view",
      "type": "function"
    },
    {
      "constant": true,
      "inputs": [],
      "name": "prevBlockInterval",
      "outputs": [
        {
          "internalType": "uint256",
          "name": "",
          "type": "uint256"
        }
      ],
      "payable": false,
      "stateMutability": "view",
      "type": "function"
    },
    {
      "constant": true,
      "inputs": [],
      "name": "proposerBonus",
      "outputs": [
        {
          "internalType": "uint256",
          "name": "",
          "type": "uint256"
        }
      ],
      "payable": false,
      "stateMutability": "view",
      "type": "function"
    },
    {
      "constant": true,
      "inputs": [],
      "name": "registry",
      "outputs": [
        {
          "internalType": "address",
          "name": "",
          "type": "address"
        }
      ],
      "payable": false,
      "stateMutability": "view",
      "type": "function"
    },
    {
      "constant": false,
      "inputs": [
        {
          "internalType": "address",
          "name": "_NFTContract",
          "type": "address"
        },
        {
          "internalType": "address",
          "name": "_stakingLogger",
          "type": "address"
        },
        {
          "internalType": "address",
          "name": "_validatorShareFactory",
          "type": "address"
        },
        {
          "internalType": "address",
          "name": "_extensionCode",
          "type": "address"
        }
      ],
      "name": "reinitialize",
      "outputs": [],
      "payable": false,
      "stateMutability": "nonpayable",
      "type": "function"
    },
    {
      "constant": false,
      "inputs": [],
      "name": "renounceOwnership",
      "outputs": [],
      "payable": false,
      "stateMutability": "nonpayable",
      "type": "function"
    },
    {
      "constant": true,
      "inputs": [],
      "name": "replacementCoolDown",
      "outputs": [
        {
          "internalType": "uint256",
          "name": "",
          "type": "uint256"
        }
      ],
      "payable": false,
      "stateMutability": "view",
      "type": "function"
    },
    {
      "constant": false,
      "inputs": [
        {
          "internalType": "uint256",
          "name": "validatorId",
          "type": "uint256"
        },
        {
          "internalType": "uint256",
          "name": "amount",
          "type": "uint256"
        },
        {
          "internalType": "bool",
          "name": "stakeRewards",
          "type": "bool"
        }
      ],
      "name": "restake",
      "outputs": [],
      "payable": false,
      "stateMutability": "nonpayable",
      "type": "function"
    },
    {
      "constant": true,
      "inputs": [],
      "name": "rewardDecreasePerCheckpoint",
      "outputs": [
        {
          "internalType": "uint256",
          "name": "",
          "type": "uint256"
        }
      ],
      "payable": false,
      "stateMutability": "view",
      "type": "function"
    },
    {
      "constant": true,
      "inputs": [],
      "name": "rewardPerStake",
      "outputs": [
        {
          "internalType": "uint256",
          "name": "",
          "type": "uint256"
        }
      ],
      "payable": false,
      "stateMutability": "view",
      "type": "function"
    },
    {
      "constant": true,
      "inputs": [],
      "name": "rootChain",
      "outputs": [
        {
          "internalType": "address",
          "name": "",
          "type": "address"
        }
      ],
      "payable": false,
      "stateMutability": "view",
      "type": "function"
    },
    {
      "constant": false,
      "inputs": [
        {
          "internalType": "uint256",
          "name": "_currentEpoch",
          "type": "uint256"
        }
      ],
      "name": "setCurrentEpoch",
      "outputs": [],
      "payable": false,
      "stateMutability": "nonpayable",
      "type": "function"
    },
    {
      "constant": false,
      "inputs": [
        {
          "internalType": "bool",
          "name": "enabled",
          "type": "bool"
        }
      ],
      "name": "setDelegationEnabled",
      "outputs": [],
      "payable": false,
      "stateMutability": "nonpayable",
      "type": "function"
    },
    {
      "constant": false,
      "inputs": [
        {
          "internalType": "address",
          "name": "_token",
          "type": "address"
        }
      ],
      "name": "setStakingToken",
      "outputs": [],
      "payable": false,
      "stateMutability": "nonpayable",
      "type": "function"
    },
    {
      "constant": true,
      "inputs": [
        {
          "internalType": "address",
          "name": "",
          "type": "address"
        }
      ],
      "name": "signerToValidator",
      "outputs": [
        {
          "internalType": "uint256",
          "name": "",
          "type": "uint256"
        }
      ],
      "payable": false,
      "stateMutability": "view",
      "type": "function"
    },
    {
      "constant": true,
      "inputs": [],
      "name": "signerUpdateLimit",
      "outputs": [
        {
          "internalType": "uint256",
          "name": "",
          "type": "uint256"
        }
      ],
      "payable": false,
      "stateMutability": "view",
      "type": "function"
    },
    {
      "constant": true,
      "inputs": [
        {
          "internalType": "uint256",
          "name": "",
          "type": "uint256"
        }
      ],
      "name": "signers",
      "outputs": [
        {
          "internalType": "address",
          "name": "",
          "type": "address"
        }
      ],
      "payable": false,
      "stateMutability": "view",
      "type": "function"
    },
    {
      "constant": false,
      "inputs": [
        {
          "internalType": "bytes",
          "name": "_slashingInfoList",
          "type": "bytes"
        }
      ],
      "name": "slash",
      "outputs": [
        {
          "internalType": "uint256",
          "name": "",
          "type": "uint256"
        }
      ],
      "payable": false,
      "stateMutability": "nonpayable",
      "type": "function"
    },
    {
      "constant": false,
      "inputs": [
        {
          "internalType": "address",
          "name": "user",
          "type": "address"
        },
        {
          "internalType": "uint256",
          "name": "amount",
          "type": "uint256"
        },
        {
          "internalType": "uint256",
          "name": "heimdallFee",
          "type": "uint256"
        },
        {
          "internalType": "bool",
          "name": "acceptDelegation",
          "type": "bool"
        },
        {
          "internalType": "bytes",
          "name": "signerPubkey",
          "type": "bytes"
        }
      ],
      "name": "stakeFor",
      "outputs": [],
      "payable": false,
      "stateMutability": "nonpayable",
      "type": "function"
    },
    {
      "constant": false,
      "inputs": [
        {
          "internalType": "uint256",
          "name": "validatorId",
          "type": "uint256"
        },
        {
          "internalType": "uint256",
          "name": "amount",
          "type": "uint256"
        },
        {
          "internalType": "bool",
          "name": "_acceptDelegation",
          "type": "bool"
        },
        {
          "internalType": "bytes",
          "name": "_signerPubkey",
          "type": "bytes"
        }
      ],
      "name": "startAuction",
      "outputs": [],
      "payable": false,
      "stateMutability": "nonpayable",
      "type": "function"
    },
    {
      "constant": false,
      "inputs": [
        {
          "internalType": "uint256",
          "name": "forNCheckpoints",
          "type": "uint256"
        }
      ],
      "name": "stopAuctions",
      "outputs": [],
      "payable": false,
      "stateMutability": "nonpayable",
      "type": "function"
    },
    {
      "constant": true,
      "inputs": [],
      "name": "token",
      "outputs": [
        {
          "internalType": "contract IERC20",
          "name": "",
          "type": "address"
        }
      ],
      "payable": false,
      "stateMutability": "view",
      "type": "function"
    },
    {
      "constant": false,
      "inputs": [
        {
          "internalType": "address",
          "name": "user",
          "type": "address"
        },
        {
          "internalType": "uint256",
          "name": "heimdallFee",
          "type": "uint256"
        }
      ],
      "name": "topUpForFee",
      "outputs": [],
      "payable": false,
      "stateMutability": "nonpayable",
      "type": "function"
    },
    {
      "constant": true,
      "inputs": [],
      "name": "totalHeimdallFee",
      "outputs": [
        {
          "internalType": "uint256",
          "name": "",
          "type": "uint256"
        }
      ],
      "payable": false,
      "stateMutability": "view",
      "type": "function"
    },
    {
      "constant": true,
      "inputs": [],
      "name": "totalRewards",
      "outputs": [
        {
          "internalType": "uint256",
          "name": "",
          "type": "uint256"
        }
      ],
      "payable": false,
      "stateMutability": "view",
      "type": "function"
    },
    {
      "constant": true,
      "inputs": [],
      "name": "totalRewardsLiquidated",
      "outputs": [
        {
          "internalType": "uint256",
          "name": "",
          "type": "uint256"
        }
      ],
      "payable": false,
      "stateMutability": "view",
      "type": "function"
    },
    {
      "constant": true,
      "inputs": [],
      "name": "totalStaked",
      "outputs": [
        {
          "internalType": "uint256",
          "name": "",
          "type": "uint256"
        }
      ],
      "payable": false,
      "stateMutability": "view",
      "type": "function"
    },
    {
      "constant": true,
      "inputs": [
        {
          "internalType": "address",
          "name": "user",
          "type": "address"
        }
      ],
      "name": "totalStakedFor",
      "outputs": [
        {
          "internalType": "uint256",
          "name": "",
          "type": "uint256"
        }
      ],
      "payable": false,
      "stateMutability": "view",
      "type": "function"
    },
    {
      "constant": false,
      "inputs": [
        {
          "internalType": "uint256",
          "name": "validatorId",
          "type": "uint256"
        },
        {
          "internalType": "uint256",
          "name": "amount",
          "type": "uint256"
        },
        {
          "internalType": "address",
          "name": "delegator",
          "type": "address"
        }
      ],
      "name": "transferFunds",
      "outputs": [
        {
          "internalType": "bool",
          "name": "",
          "type": "bool"
        }
      ],
      "payable": false,
      "stateMutability": "nonpayable",
      "type": "function"
    },
    {
      "constant": false,
      "inputs": [
        {
          "internalType": "address",
          "name": "newOwner",
          "type": "address"
        }
      ],
      "name": "transferOwnership",
      "outputs": [],
      "payable": false,
      "stateMutability": "nonpayable",
      "type": "function"
    },
    {
      "constant": false,
      "inputs": [
        {
          "internalType": "uint256",
          "name": "validatorId",
          "type": "uint256"
        }
      ],
      "name": "unjail",
      "outputs": [],
      "payable": false,
      "stateMutability": "nonpayable",
      "type": "function"
    },
    {
      "constant": false,
      "inputs": [],
      "name": "unlock",
      "outputs": [],
      "payable": false,
      "stateMutability": "nonpayable",
      "type": "function"
    },
    {
      "constant": false,
      "inputs": [
        {
          "internalType": "uint256",
          "name": "validatorId",
          "type": "uint256"
        }
      ],
      "name": "unstake",
      "outputs": [],
      "payable": false,
      "stateMutability": "nonpayable",
      "type": "function"
    },
    {
      "constant": false,
      "inputs": [
        {
          "internalType": "uint256",
          "name": "validatorId",
          "type": "uint256"
        }
      ],
      "name": "unstakeClaim",
      "outputs": [],
      "payable": false,
      "stateMutability": "nonpayable",
      "type": "function"
    },
    {
      "constant": false,
      "inputs": [
        {
          "internalType": "uint256",
          "name": "_blocks",
          "type": "uint256"
        }
      ],
      "name": "updateCheckPointBlockInterval",
      "outputs": [],
      "payable": false,
      "stateMutability": "nonpayable",
      "type": "function"
    },
    {
      "constant": false,
      "inputs": [
        {
          "internalType": "uint256",
          "name": "newReward",
          "type": "uint256"
        }
      ],
      "name": "updateCheckpointReward",
      "outputs": [],
      "payable": false,
      "stateMutability": "nonpayable",
      "type": "function"
    },
    {
      "constant": false,
      "inputs": [
        {
          "internalType": "uint256",
          "name": "_rewardDecreasePerCheckpoint",
          "type": "uint256"
        },
        {
          "internalType": "uint256",
          "name": "_maxRewardedCheckpoints",
          "type": "uint256"
        },
        {
          "internalType": "uint256",
          "name": "_checkpointRewardDelta",
          "type": "uint256"
        }
      ],
      "name": "updateCheckpointRewardParams",
      "outputs": [],
      "payable": false,
      "stateMutability": "nonpayable",
      "type": "function"
    },
    {
      "constant": false,
      "inputs": [
        {
          "internalType": "uint256",
          "name": "validatorId",
          "type": "uint256"
        },
        {
          "internalType": "uint256",
          "name": "newCommissionRate",
          "type": "uint256"
        }
      ],
      "name": "updateCommissionRate",
      "outputs": [],
      "payable": false,
      "stateMutability": "nonpayable",
      "type": "function"
    },
    {
      "constant": false,
      "inputs": [
        {
          "internalType": "uint256",
          "name": "newDynasty",
          "type": "uint256"
        }
      ],
      "name": "updateDynastyValue",
      "outputs": [],
      "payable": false,
      "stateMutability": "nonpayable",
      "type": "function"
    },
    {
      "constant": false,
      "inputs": [
        {
          "internalType": "uint256",
          "name": "_minDeposit",
          "type": "uint256"
        },
        {
          "internalType": "uint256",
          "name": "_minHeimdallFee",
          "type": "uint256"
        }
      ],
      "name": "updateMinAmounts",
      "outputs": [],
      "payable": false,
      "stateMutability": "nonpayable",
      "type": "function"
    },
    {
      "constant": false,
      "inputs": [
        {
          "internalType": "uint256",
          "name": "newProposerBonus",
          "type": "uint256"
        }
      ],
      "name": "updateProposerBonus",
      "outputs": [],
      "payable": false,
      "stateMutability": "nonpayable",
      "type": "function"
    },
    {
      "constant": false,
      "inputs": [
        {
          "internalType": "uint256",
          "name": "validatorId",
          "type": "uint256"
        },
        {
          "internalType": "bytes",
          "name": "signerPubkey",
          "type": "bytes"
        }
      ],
      "name": "updateSigner",
      "outputs": [],
      "payable": false,
      "stateMutability": "nonpayable",
      "type": "function"
    },
    {
      "constant": false,
      "inputs": [
        {
          "internalType": "uint256",
          "name": "_limit",
          "type": "uint256"
        }
      ],
      "name": "updateSignerUpdateLimit",
      "outputs": [],
      "payable": false,
      "stateMutability": "nonpayable",
      "type": "function"
    },
    {
      "constant": false,
      "inputs": [
        {
          "internalType": "uint256",
          "name": "validatorId",
          "type": "uint256"
        },
        {
          "internalType": "address",
          "name": "newContractAddress",
          "type": "address"
        }
      ],
      "name": "updateValidatorContractAddress",
      "outputs": [],
      "payable": false,
      "stateMutability": "nonpayable",
      "type": "function"
    },
    {
      "constant": false,
      "inputs": [
        {
          "internalType": "bool",
          "name": "delegation",
          "type": "bool"
        }
      ],
      "name": "updateValidatorDelegation",
      "outputs": [],
      "payable": false,
      "stateMutability": "nonpayable",
      "type": "function"
    },
    {
      "constant": false,
      "inputs": [
        {
          "internalType": "uint256",
          "name": "validatorId",
          "type": "uint256"
        },
        {
          "internalType": "int256",
          "name": "amount",
          "type": "int256"
        }
      ],
      "name": "updateValidatorState",
      "outputs": [],
      "payable": false,
      "stateMutability": "nonpayable",
      "type": "function"
    },
    {
      "constant": false,
      "inputs": [
        {
          "internalType": "uint256",
          "name": "newThreshold",
          "type": "uint256"
        }
      ],
      "name": "updateValidatorThreshold",
      "outputs": [],
      "payable": false,
      "stateMutability": "nonpayable",
      "type": "function"
    },
    {
      "constant": true,
      "inputs": [
        {
          "internalType": "address",
          "name": "",
          "type": "address"
        }
      ],
      "name": "userFeeExit",
      "outputs": [
        {
          "internalType": "uint256",
          "name": "",
          "type": "uint256"
        }
      ],
      "payable": false,
      "stateMutability": "view",
      "type": "function"
    },
    {
      "constant": true,
      "inputs": [
        {
          "internalType": "uint256",
          "name": "",
          "type": "uint256"
        }
      ],
      "name": "validatorAuction",
      "outputs": [
        {
          "internalType": "uint256",
          "name": "amount",
          "type": "uint256"
        },
        {
          "internalType": "uint256",
          "name": "startEpoch",
          "type": "uint256"
        },
        {
          "internalType": "address",
          "name": "user",
          "type": "address"
        },
        {
          "internalType": "bool",
          "name": "acceptDelegation",
          "type": "bool"
        },
        {
          "internalType": "bytes",
          "name": "signerPubkey",
          "type": "bytes"
        }
      ],
      "payable": false,
      "stateMutability": "view",
      "type": "function"
    },
    {
      "constant": true,
      "inputs": [
        {
          "internalType": "uint256",
          "name": "validatorId",
          "type": "uint256"
        }
      ],
      "name": "validatorReward",
      "outputs": [
        {
          "internalType": "uint256",
          "name": "",
          "type": "uint256"
        }
      ],
      "payable": false,
      "stateMutability": "view",
      "type": "function"
    },
    {
      "constant": true,
      "inputs": [],
      "name": "validatorShareFactory",
      "outputs": [
        {
          "internalType": "contract ValidatorShareFactory",
          "name": "",
          "type": "address"
        }
      ],
      "payable": false,
      "stateMutability": "view",
      "type": "function"
    },
    {
      "constant": true,
      "inputs": [
        {
          "internalType": "uint256",
          "name": "validatorId",
          "type": "uint256"
        }
      ],
      "name": "validatorStake",
      "outputs": [
        {
          "internalType": "uint256",
          "name": "",
          "type": "uint256"
        }
      ],
      "payable": false,
      "stateMutability": "view",
      "type": "function"
    },
    {
      "constant": true,
      "inputs": [],
      "name": "validatorState",
      "outputs": [
        {
          "internalType": "uint256",
          "name": "amount",
          "type": "uint256"
        },
        {
          "internalType": "uint256",
          "name": "stakerCount",
          "type": "uint256"
        }
      ],
      "payable": false,
      "stateMutability": "view",
      "type": "function"
    },
    {
      "constant": true,
      "inputs": [
        {
          "internalType": "uint256",
          "name": "",
          "type": "uint256"
        }
      ],
      "name": "validatorStateChanges",
      "outputs": [
        {
          "internalType": "int256",
          "name": "amount",
          "type": "int256"
        },
        {
          "internalType": "int256",
          "name": "stakerCount",
          "type": "int256"
        }
      ],
      "payable": false,
      "stateMutability": "view",
      "type": "function"
    },
    {
      "constant": true,
      "inputs": [],
      "name": "validatorThreshold",
      "outputs": [
        {
          "internalType": "uint256",
          "name": "",
          "type": "uint256"
        }
      ],
      "payable": false,
      "stateMutability": "view",
      "type": "function"
    },
    {
      "constant": true,
      "inputs": [
        {
          "internalType": "uint256",
          "name": "",
          "type": "uint256"
        }
      ],
      "name": "validators",
      "outputs": [
        {
          "internalType": "uint256",
          "name": "amount",
          "type": "uint256"
        },
        {
          "internalType": "uint256",
          "name": "reward",
          "type": "uint256"
        },
        {
          "internalType": "uint256",
          "name": "activationEpoch",
          "type": "uint256"
        },
        {
          "internalType": "uint256",
          "name": "deactivationEpoch",
          "type": "uint256"
        },
        {
          "internalType": "uint256",
          "name": "jailTime",
          "type": "uint256"
        },
        {
          "internalType": "address",
          "name": "signer",
          "type": "address"
        },
        {
          "internalType": "address",
          "name": "contractAddress",
          "type": "address"
        },
        {
          "internalType": "enum StakeManagerStorage.Status",
          "name": "status",
          "type": "uint8"
        },
        {
          "internalType": "uint256",
          "name": "commissionRate",
          "type": "uint256"
        },
        {
          "internalType": "uint256",
          "name": "lastCommissionUpdate",
          "type": "uint256"
        },
        {
          "internalType": "uint256",
          "name": "delegatorsReward",
          "type": "uint256"
        },
        {
          "internalType": "uint256",
          "name": "delegatedAmount",
          "type": "uint256"
        },
        {
          "internalType": "uint256",
          "name": "initialRewardPerStake",
          "type": "uint256"
        }
      ],
      "payable": false,
      "stateMutability": "view",
      "type": "function"
    },
    {
      "constant": false,
      "inputs": [
        {
          "internalType": "uint256",
          "name": "validatorId",
          "type": "uint256"
        }
      ],
      "name": "withdrawDelegatorsReward",
      "outputs": [
        {
          "internalType": "uint256",
          "name": "",
          "type": "uint256"
        }
      ],
      "payable": false,
      "stateMutability": "nonpayable",
      "type": "function"
    },
    {
      "constant": false,
      "inputs": [
        {
          "internalType": "uint256",
          "name": "validatorId",
          "type": "uint256"
        }
      ],
      "name": "withdrawRewards",
      "outputs": [],
      "payable": false,
      "stateMutability": "nonpayable",
      "type": "function"
    },
    {
      "constant": true,
      "inputs": [],
      "name": "withdrawalDelay",
      "outputs": [
        {
          "internalType": "uint256",
          "name": "",
          "type": "uint256"
        }
      ],
      "payable": false,
      "stateMutability": "view",
      "type": "function"
    },
    {
      "constant": false,
      "inputs": [
        {
          "internalType": "uint256",
          "name": "delta",
          "type": "uint256"
        }
      ],
      "name": "advanceEpoch",
      "outputs": [],
      "payable": false,
      "stateMutability": "nonpayable",
      "type": "function"
    },
    {
      "constant": false,
      "inputs": [
        {
          "internalType": "uint256",
          "name": "validatorId",
          "type": "uint256"
        },
        {
          "internalType": "bool",
          "name": "lock",
          "type": "bool"
        }
      ],
      "name": "testLockShareContract",
      "outputs": [],
      "payable": false,
      "stateMutability": "nonpayable",
      "type": "function"
    },
    {
      "constant": false,
      "inputs": [],
      "name": "forceFinalizeCommit",
      "outputs": [],
      "payable": false,
      "stateMutability": "nonpayable",
      "type": "function"
    },
    {
      "constant": false,
      "inputs": [
        {
          "internalType": "address",
          "name": "signer",
          "type": "address"
        }
      ],
      "name": "resetSignerUsed",
      "outputs": [],
      "payable": false,
      "stateMutability": "nonpayable",
      "type": "function"
    }
  ],
  "bytecode": "0x608060408190526023805460ff1916905560008054610100600160a81b0319168155600180546001600160a01b0319163317908190556001600160a01b0316917f8be0079c531659141344cd1fd0a4f28419497f9722a3daafe3b4186f6b6457e0908290a3615f07806100736000396000f3fe608060405234801561001057600080fd5b506004361061068f5760003560e01c80637f4b43231161036c578063bc8756a9116101de578063eceec1d31161010f578063f771fc87116100ad578063fb1ef52c11610087578063fb1ef52c146115e0578063fba58f3414611609578063fc0c546a14611611578063ff8fdad8146116195761068f565b8063f771fc87146115b3578063f83d08ba146115d0578063f8a3176c146115d85761068f565b8063f2fde38b116100e9578063f2fde38b1461145b578063f3b8777914611481578063f41a96421461149e578063f5e95acb146115495761068f565b8063eceec1d314611417578063f24ccbfe14611434578063f28699fa1461143c5761068f565b8063d86d53e71161017c578063e59ee0c611610156578063e59ee0c6146113a7578063e6692f49146113af578063e6bd8bb8146113cc578063e8afa8e8146113f15761068f565b8063d86d53e71461135f578063dcd962b21461137c578063e568959a1461139f5761068f565b8063cd6b8388116101b8578063cd6b838814611313578063cf3090121461131b578063d6de07d014611323578063d7f5549d146113425761068f565b8063bc8756a914611298578063c710e922146112ca578063cbf383d5146112f65761068f565b80639a8a6243116102b8578063a69df4b511610256578063b184be8111610230578063b184be8114611224578063b1d23f0214611250578063b4cc366714611273578063b65de35e1461127b5761068f565b8063a69df4b51461120c578063a7ab696114611214578063a8dc889b1461121c5761068f565b80639ff11500116102925780639ff1150014611141578063a440ab1e14611164578063a476907114611181578063a6854877146111895761068f565b80639a8a6243146110f95780639b33f434146111015780639ddbbf851461111e5761068f565b80638f32d59b1161032557806391f1a3a5116102ff57806391f1a3a5146110a95780639342c8f4146110b1578063987ab9db146110ce57806399d18f6f146110d65761068f565b80638f32d59b1461107c578063900cf0cf14611084578063914601491461108c5761068f565b80637f4b43231461101c5780637f952d9514611039578063817b1cd214611041578063858a7c0314611049578063883b455f1461106c5780638da5cb5b146110745761068f565b806348ab8b2a1161050557806360c8d1221161045157806376671808116103ef5780637b103999116103c95780637b10399914610fe75780637c7eaf1a14610fef5780637d66975214610ff75780637ed4b27c14610fff5761068f565b80637667180814610fb157806377939d1014610fb957806378f84a4414610fc15761068f565b806368cb812a1161042b57806368cb812a14610ebf5780636901b25314610f6f5780637060054d14610fa1578063715018a614610fa95761068f565b806360c8d12214610e4d5780636352211e14610e765780636365679814610e935761068f565b80635325e144116104be57806356342d8c1161049857806356342d8c14610db25780635aa6e67514610dcf5780635ab1bd5314610dd75780635e47655f14610ddf5761068f565b80635325e14414610cdb57806354b8c60114610da25780635508d8e114610daa5761068f565b806348ab8b2a14610b0a5780634b341aed14610b465780634e3c83f114610b6c5780634fd101d714610b745780634fdd20f114610b7c57806352b8115d14610c435761068f565b806325316411116105df57806331c2273b1161057d5780633862da0b116105575780633862da0b14610ab757806339610f7814610add57806341b3d18514610afa578063451b598514610b025761068f565b806331c2273b146109ee57806334274586146109f657806335aa2e44146109fe5761068f565b806328cc4e41116105b957806328cc4e41146108765780632cf44a43146108a15780632e17de78146109425780632fa9d18b1461095f5761068f565b8063253164111461080757806325726df21461080f5780632649263a146108455761068f565b8063174e68321161064c5780631ae4818f116106265780631ae4818f146107835780631dd6b9b1146107a75780631e9b12ef146107c45780632079fb9a146107ea5761068f565b8063174e683214610738578063178c2c831461075e57806317c2b9101461077b5761068f565b806306cfb10414610694578063078a13b1146106b35780630cccfc58146106f15780630e15561a1461070b5780630ebb172a1461071357806316827b1b1461071b575b600080fd5b6106b1600480360360208110156106aa57600080fd5b503561163f565b005b6106b1600480360360808110156106c957600080fd5b506001600160a01b03813581169160208101358216916040820135811691606001351661164c565b6106f96116c4565b60408051918252519081900360200190f35b6106f96116ca565b6106f96116d0565b6106b16004803603602081101561073157600080fd5b50356116d6565b6106f96004803603602081101561074e57600080fd5b50356001600160a01b031661175f565b6106b16004803603602081101561077457600080fd5b50356117e9565b6106f9611a76565b61078b611a7c565b604080516001600160a01b039092168252519081900360200190f35b6106b1600480360360208110156107bd57600080fd5b5035611a8b565b6106b1600480360360208110156107da57600080fd5b50356001600160a01b0316611a98565b61078b6004803603602081101561080057600080fd5b5035611ad5565b6106f9611afc565b61082c6004803603602081101561082557600080fd5b5035611b02565b6040805192835260208301919091528051918290030190f35b6108626004803603602081101561085b57600080fd5b5035611b1b565b604080519115158252519081900360200190f35b6106b16004803603606081101561088c57600080fd5b50803590602081013590604001351515611b56565b6106b1600480360360208110156108b757600080fd5b810190602081018135600160201b8111156108d157600080fd5b8201836020820111156108e357600080fd5b803590602001918460208302840111600160201b8311171561090457600080fd5b919080806020026020016040519081016040528093929190818152602001838360200280828437600092019190915250929550611d6c945050505050565b6106b16004803603602081101561095857600080fd5b5035611d94565b6106f9600480360360a081101561097557600080fd5b8135916020810135916040820135916001600160a01b036060820135169181019060a081016080820135600160201b8111156109b057600080fd5b8201836020820111156109c257600080fd5b803590602001918460608302840111600160201b831117156109e357600080fd5b509092509050611e56565b61078b612167565b6106f9612176565b610a1b60048036036020811015610a1457600080fd5b503561217c565b604051808e81526020018d81526020018c81526020018b81526020018a8152602001896001600160a01b03166001600160a01b03168152602001886001600160a01b03166001600160a01b03168152602001876003811115610a7957fe5b60ff1681526020018681526020018581526020018481526020018381526020018281526020019d505050505050505050505050505060405180910390f35b6106f960048036036020811015610acd57600080fd5b50356001600160a01b03166121ed565b6106f960048036036020811015610af357600080fd5b50356121ff565b6106f961223f565b6106f9612245565b6106b160048036036080811015610b2057600080fd5b508035906001600160a01b0360208201358116916040810135909116906060013561224b565b6106f960048036036020811015610b5c57600080fd5b50356001600160a01b03166122d2565b6106f9612409565b6106f961240f565b6106b1600480360360a0811015610b9257600080fd5b6001600160a01b0382351691602081013591604082013591606081013515159181019060a081016080820135600160201b811115610bcf57600080fd5b820183602082011115610be157600080fd5b803590602001918460018302840111600160201b83111715610c0257600080fd5b91908080601f016020809104026020016040519081016040528093929190818152602001838380828437600092019190915250929550612415945050505050565b6106b1600480360360c0811015610c5957600080fd5b6001600160a01b038235169160208101359160408201359160608101359160808201351515919081019060c0810160a0820135600160201b811115610c9d57600080fd5b820183602082011115610caf57600080fd5b803590602001918460018302840111600160201b83111715610cd057600080fd5b5090925090506124d6565b610cf860048036036020811015610cf157600080fd5b50356125f5565b60405180868152602001858152602001846001600160a01b03166001600160a01b031681526020018315151515815260200180602001828103825283818151815260200191508051906020019080838360005b83811015610d63578181015183820152602001610d4b565b50505050905090810190601f168015610d905780820380516001836020036101000a031916815260200191505b50965050505050505060405180910390f35b6108626126bb565b6106f96126c4565b61078b60048036036020811015610dc857600080fd5b50356126ca565b61078b6126e8565b61078b6126fc565b6106f960048036036020811015610df557600080fd5b810190602081018135600160201b811115610e0f57600080fd5b820183602082011115610e2157600080fd5b803590602001918460018302840111600160201b83111715610e4257600080fd5b50909250905061270c565b6106b160048036036060811015610e6357600080fd5b5080359060208101359060400135612a2d565b61078b60048036036020811015610e8c57600080fd5b5035612a96565b6106b160048036036040811015610ea957600080fd5b506001600160a01b038135169060200135612ae2565b6106b160048036036060811015610ed557600080fd5b813591602081013591810190606081016040820135600160201b811115610efb57600080fd5b820183602082011115610f0d57600080fd5b803590602001918460018302840111600160201b83111715610f2e57600080fd5b91908080601f016020809104026020016040519081016040528093929190818152602001838380828437600092019190915250929550612af7945050505050565b61086260048036036060811015610f8557600080fd5b50803590602081013590604001356001600160a01b0316612caa565b6106f9612d47565b6106b1612d4d565b6106f9612da8565b6106f9612dae565b6106f960048036036020811015610fd757600080fd5b50356001600160a01b0316612db4565b61078b612dc6565b6106f9612dd5565b6106f9612ddb565b6106f96004803603602081101561101557600080fd5b5035612de1565b6106f96004803603602081101561103257600080fd5b5035612e38565b6106f9612e4d565b6106f9612e53565b6106b16004803603604081101561105f57600080fd5b5080359060200135612e59565b61078b612e9f565b61078b612eb3565b610862612ec2565b6106f9612ed3565b6106b1600480360360208110156110a257600080fd5b5035612ed9565b6106f9612ef0565b6106b1600480360360208110156110c757600080fd5b5035612ef6565b61078b612f13565b6106b1600480360360408110156110ec57600080fd5b5080359060200135612f22565b6106f9612f88565b6106b16004803603602081101561111757600080fd5b5035612f8e565b6106b16004803603604081101561113457600080fd5b508035906020013561304a565b6106b16004803603604081101561115757600080fd5b50803590602001356130b0565b6106b16004803603602081101561117a57600080fd5b5035613144565b6106f961315b565b6106b16004803603608081101561119f57600080fd5b813591602081013591604082013515159190810190608081016060820135600160201b8111156111ce57600080fd5b8201836020820111156111e057600080fd5b803590602001918460018302840111600160201b8311171561120157600080fd5b509092509050613161565b6106b1613219565b6106f961322b565b6106f9613231565b6106b16004803603604081101561123a57600080fd5b506001600160a01b038135169060200135613237565b6106b16004803603604081101561126657600080fd5b5080359060200135613249565b6106b161325c565b6106f96004803603602081101561129157600080fd5b5035613264565b610862600480360360608110156112ae57600080fd5b50803590602081013590604001356001600160a01b03166132b2565b6106b1600480360360408110156112e057600080fd5b50803590602001356001600160a01b031661341a565b6106b16004803603602081101561130c57600080fd5b50356134d5565b6106f961355e565b610862613564565b6106b16004803603602081101561133957600080fd5b5035151561356d565b6106f96004803603602081101561135857600080fd5b50356136bf565b6106b16004803603602081101561137557600080fd5b50356136d1565b6106b16004803603604081101561139257600080fd5b50803590602001356138b7565b6106f961391f565b61082c613925565b6106b1600480360360208110156113c557600080fd5b503561392e565b6106b1600480360360408110156113e257600080fd5b508035906020013515156139ea565b6106b16004803603602081101561140757600080fd5b50356001600160a01b0316613abf565b6106f96004803603602081101561142d57600080fd5b5035613b3f565b61078b613b51565b6106b16004803603602081101561145257600080fd5b50351515613b60565b6106b16004803603602081101561147157600080fd5b50356001600160a01b0316613b7b565b6106b16004803603602081101561149757600080fd5b5035613b95565b6106b1600480360360408110156114b457600080fd5b81359190810190604081016020820135600160201b8111156114d557600080fd5b8201836020820111156114e757600080fd5b803590602001918460018302840111600160201b8311171561150857600080fd5b91908080601f016020809104026020016040519081016040528093929190818152602001838380828437600092019190915250929550613bae945050505050565b6106b1600480360361012081101561156057600080fd5b506001600160a01b038135811691602081013582169160408201358116916060810135821691608082013581169160a081013582169160c082013581169160e08101358216916101009091013516613d9c565b6106b1600480360360208110156115c957600080fd5b5035613f3f565b6106b1613f5a565b61078b613f6a565b6106b1600480360360608110156115f657600080fd5b5080359060208101359060400135613f79565b6106f96140a0565b61078b6140a6565b6106b16004803603602081101561162f57600080fd5b50356001600160a01b03166140b5565b6116476140cf565b600f55565b6116546140cf565b61165d8161411d565b61166657600080fd5b60238054610100600160a81b0319169055602580546001600160a01b03199081166001600160a01b03938416179091556006805482169583169590951790945560058054851693821693909317909255600780549093169116179055565b60155481565b60135481565b60085481565b6116de6140cf565b806116e857600080fd5b60055460105460408051630f1980a560e41b8152600481018590526024810192909252516001600160a01b039092169163f1980a509160448082019260009290919082900301818387803b15801561173f57600080fd5b505af1158015611753573d6000803e3d6000fd5b50505060109190915550565b60065460408051632f745c5960e01b81526001600160a01b038481166004830152600060248301819052925192931691632f745c5991604480820192602092909190829003018186803b1580156117b557600080fd5b505afa1580156117c9573d6000803e3d6000fd5b505050506040513d60208110156117df57600080fd5b505190505b919050565b806117f38161413c565b60026000838152601a6020526040902060060154600160a01b900460ff16600381111561181c57fe5b1461185b576040805162461bcd60e51b815260206004820152600a602482015269139bdd081a985a5b195960b21b604482015290519081900360640190fd5b6000828152601a6020526040902060030154156118b3576040805162461bcd60e51b8152602060048201526011602482015270416c726561647920756e7374616b696e6760781b604482015290519081900360640190fd5b6009546000838152601a6020526040902060040154811015611915576040805162461bcd60e51b8152602060048201526016602482015275125b98dbdb5c1b195d19481a985a5b081c195c9a5bd960521b604482015290519081900360640190fd5b6000838152601a6020526040902054600c5481101561193357600080fd5b6000848152601a60205260409020600601546001600160a01b031680156119a857806001600160a01b031663a69df4b56040518163ffffffff1660e01b8152600401600060405180830381600087803b15801561198f57600080fd5b505af11580156119a3573d6000803e3d6000fd5b505050505b6000858152601a60205260409020600a01546119d8906119cf90849063ffffffff6141c616565b600160006141d8565b6000858152601a602052604080822060068101805460ff60a01b1916600160a01b1790556005908101549054825163f92ec5af60e01b8152600481018a90526001600160a01b039283166024820181905293519394929091169263f92ec5af9260448084019391929182900301818387803b158015611a5657600080fd5b505af1158015611a6a573d6000803e3d6000fd5b50505050505050505050565b60175481565b6007546001600160a01b031681565b611a936140cf565b600955565b611aa06140cf565b6001600160a01b038116611ab357600080fd5b600380546001600160a01b0319166001600160a01b0392909216919091179055565b60268181548110611ae257fe5b6000918252602090912001546001600160a01b0316905081565b600e5481565b601e602052600090815260409020805460019091015482565b6000818152601a6020526040812060068101548154600390920154600954611b5093600160a01b90930460ff16929190614293565b92915050565b611b5e6142cb565b82611b688161413c565b6000848152601a602052604090206003015415611bbb576040805162461bcd60e51b815260206004820152600c60248201526b4e6f2072657374616b696e6760a01b604482015290519081900360640190fd5b8215611bcc57611bcc33308561430c565b611bd5846143de565b8115611c28576000848152601a60205260409020600190810154611c119190611c0590869063ffffffff6141c616565b9063ffffffff6143ed16565b6000858152601a6020526040902060019081015592505b601154600090611c3e908563ffffffff6141c616565b60118190556000868152601a6020526040902054909150611c65908563ffffffff6141c616565b6000868152601a6020526040812091909155611c83908590806141d8565b6005546040805163532e19a960e01b81526004810188905290516001600160a01b039092169163532e19a99160248082019260009290919082900301818387803b158015611cd057600080fd5b505af1158015611ce4573d6000803e3d6000fd5b50506005546000888152601a6020526040808220548151631585a9f360e21b8152600481018c905260248101919091526044810187905290516001600160a01b039093169450635616a7cc93506064808201939182900301818387803b158015611d4d57600080fd5b505af1158015611d61573d6000803e3d6000fd5b505050505050505050565b611d74612ec2565b611d7d57600080fd5b8051611d90906026906020840190615d7b565b5050565b80611d9e8161413c565b600082815260208052604090205415611db657600080fd5b6000828152601a602052604090206006810154600290910154600160a01b90910460ff169015801590611df857506000838152601a6020526040902060030154155b8015611e2457506001816003811115611e0d57fe5b1480611e2457506002816003811115611e2257fe5b145b611e2d57600080fd5b600954600090611e4490600163ffffffff6141c616565b9050611e508482614402565b50505050565b6002546000906001600160a01b03163314611e7057600080fd5b600954601d546000908190611e83615de0565b6026546040805191840180835260208082028401019091528015611eb1578160200160208202803883390190505b5060408083019190915260268054825160208083028201810190945281815292830182828015611f0a57602002820191906000526020600020905b81546001600160a01b03168152600190910190602001808311611eec575b50505050506060820152600060208201526026546080820152611f2b615e0f565b6026546040805191850180835260208082028401019091528015611f59578160200160208202803883390190505b50602082015260005b88811015612128576000611fb08e8c8c85818110611f7c57fe5b9050606002016003806020026040519081016040528092919082600360200280828437600092019190915250614586915050565b9050856001600160a01b0316816001600160a01b03161415611fd25750612120565b856001600160a01b0316816001600160a01b03161015611ff25750612128565b6001600160a01b0381166000908152601b6020908152604080832054808452601a909252909120805460068201546003909201548087529091600160a01b900460ff169061204490829084908e614293565b156120cf576000838152601a60205260409020600a01549398508893612083908390612077908d9063ffffffff6141c616565b9063ffffffff6141c616565b8651909a50156120bd578286602001518760400151815181106120a257fe5b602090810291909101015260408601805160010190526120ca565b6120c78785614689565b96505b61211b565b60028160038111156120dd57fe5b141561211b578287604001518860000151815181106120f857fe5b602090810291909101810191909152875160019081018952908801805190910190525b505050505b600101611f62565b50612134826000614689565b91506121568d8b878e8660400151876000015187602001518860400151614766565b9d9c50505050505050505050505050565b6006546001600160a01b031681565b60165481565b601a60205260009081526040902080546001820154600283015460038401546004850154600586015460068701546007880154600889015460098a0154600a8b0154600b909b0154999a98999798969795966001600160a01b039586169695851695600160a01b90950460ff16948d565b601b6020526000908152604090205481565b60008061220b836148ce565b6000858152601a60205260409020600901549092506122389150600190611c05908463ffffffff6141c616565b9392505050565b600c5481565b60295481565b6122536140cf565b6000848152601a60205260409020600601546001600160a01b03168061227857600080fd5b6040805163abf59fc960e01b81526001600160a01b03868116600483015285811660248301526044820185905291519183169163abf59fc99160648082019260009290919082900301818387803b158015611d4d57600080fd5b60006001600160a01b03821615806123605750600654604080516370a0823160e01b81526001600160a01b038581166004830152915191909216916370a08231916024808301926020929190829003018186803b15801561233257600080fd5b505afa158015612346573d6000803e3d6000fd5b505050506040513d602081101561235c57600080fd5b5051155b1561236d575060006117e4565b60065460408051632f745c5960e01b81526001600160a01b0385811660048301526000602483018190529251601a949190911691632f745c59916044808301926020929190829003018186803b1580156123c657600080fd5b505afa1580156123da573d6000803e3d6000fd5b505050506040513d60208110156123f057600080fd5b5051815260208101919091526040016000205492915050565b600f5481565b60105481565b61241d6142cb565b601054612428612e4d565b1061246a576040805162461bcd60e51b815260206004820152600d60248201526c6e6f206d6f726520736c6f747360981b604482015290519081900360640190fd5b600c548410156124b6576040805162461bcd60e51b81526020600482015260126024820152711b9bdd08195b9bdd59da0819195c1bdcda5d60721b604482015290519081900360640190fd5b6124c28533858761494a565b6124ce85858484614a34565b505050505050565b333014612518576040805162461bcd60e51b815260206004820152600b60248201526a1b9bdd08185b1b1bddd95960aa1b604482015290519081900360640190fd5b612525878888600061494a565b61253185600954614402565b600061257588868686868080601f016020809104026020016040519081016040528093929190818152602001838380828437600092019190915250614a3492505050565b6005546040805163e12ab1af60e01b815260048101849052602481018a90526044810189905290519293506001600160a01b039091169163e12ab1af9160648082019260009290919082900301818387803b1580156125d357600080fd5b505af11580156125e7573d6000803e3d6000fd5b505050505050505050505050565b60208080526000918252604091829020805460018083015460028085015460038601805489516101009682161596909602600019011692909204601f8101889004880285018801909852878452939691956001600160a01b03851695600160a01b90950460ff16949392908301828280156126b15780601f10612686576101008083540402835291602001916126b1565b820191906000526020600020905b81548152906001019060200180831161269457829003601f168201915b5050505050905085565b60195460ff1681565b60125481565b6000908152601a60205260409020600601546001600160a01b031690565b60005461010090046001600160a01b031681565b6004546001600160a01b03165b90565b6004805460408051631ab0168360e31b8152905160009333936001600160a01b03169263d580b4189281830192602092829003018186803b15801561275057600080fd5b505afa158015612764573d6000803e3d6000fd5b505050506040513d602081101561277a57600080fd5b50516001600160a01b0316146127cb576040805162461bcd60e51b81526020600482015260116024820152702737ba1039b630b9b41036b0b730b3b2b960791b604482015290519081900360640190fd5b606061281461280f85858080601f016020809104026020016040519081016040528093929190818152602001838380828437600092019190915250614e4192505050565b614e66565b90506000806000805b8451811015612a0157606061284486838151811061283757fe5b6020026020010151614e66565b905060006128658260008151811061285857fe5b6020026020010151614f37565b9050612870816143de565b60006128828360018151811061285857fe5b9050612894858263ffffffff6141c616565b6000838152601a60205260409020600601549095506001600160a01b03168015612962576000838152601a602090815260408083208054600a9091015482516306cbb60560e41b8152600481019290925260248201526044810186905290516001600160a01b03851692636cbb6050926064808201939182900301818787803b15801561292057600080fd5b505af1158015612934573d6000803e3d6000fd5b505050506040513d602081101561294a57600080fd5b5051905061295e838263ffffffff6143ed16565b9250505b6000838152601a6020526040812054612981908463ffffffff6143ed16565b6000858152601a602052604090208190559050806129aa576129a584600954614402565b6129f0565b6129c7856002815181106129ba57fe5b6020026020010151614f97565b156129f0576129e76129da856001614fcb565b899063ffffffff6141c616565b60019099019897505b50506001909301925061281d915050565b612a22612a14838563ffffffff6141c616565b6000038560000360006141d8565b509695505050505050565b612a356140cf565b60255460408051602481018690526044810185905260648082018590528251808303909101815260849091019091526020810180516001600160e01b0316633064689160e11b179052612a91916001600160a01b031690615115565b505050565b600654604080516331a9108f60e11b81526004810184905290516000926001600160a01b031691636352211e916024808301926020929190829003018186803b1580156117b557600080fd5b612aea6142cb565b611d90823383600061494a565b60408051336020808301919091528183018690528251808303840181526060830193849052805190820120601754631b23d15760e21b909452606483018181526084840187905260a48401859052608060c48501908152865160e4860152865173__Merkle________________________________96636c8f455c9694958a9591948a9490939092610104019185019080838360005b83811015612ba5578181015183820152602001612b8d565b50505050905090810190601f168015612bd25780820380516001836020036101000a031916815260200191505b509550505050505060206040518083038186803b158015612bf257600080fd5b505af4158015612c06573d6000803e3d6000fd5b505050506040513d6020811015612c1c57600080fd5b5051612c61576040805162461bcd60e51b815260206004820152600f60248201526e2bb937b7339030b1b190383937b7b360891b604482015290519081900360640190fd5b336000908152601f6020526040812054612c8290859063ffffffff6143ed16565b9050612c8e338261513d565b336000818152601f60205260409020859055611e5090826151a8565b600083612cb68161526d565b600354604080516323b872dd60e01b81526001600160a01b03868116600483015230602483015260448201889052915191909216916323b872dd9160648083019260209291908290030181600087803b158015612d1257600080fd5b505af1158015612d26573d6000803e3d6000fd5b505050506040513d6020811015612d3c57600080fd5b505195945050505050565b600a5481565b612d55612ec2565b612d5e57600080fd5b6001546040516000916001600160a01b0316907f8be0079c531659141344cd1fd0a4f28419497f9722a3daafe3b4186f6b6457e0908390a3600180546001600160a01b0319169055565b60095481565b60185481565b601f6020526000908152604090205481565b6004546001600160a01b031681565b602a5481565b600b5481565b600081612ded8161526d565b612df6836143de565b6000838152601a6020526040812060090154612e1990600163ffffffff6143ed16565b6000858152601a60205260409020600160099091015592505050919050565b6000908152601a60205260409020600a015490565b601d5490565b60115481565b81612e638161526d565b6000838152601a60205260409020600a0154612e85908363ffffffff6143ed16565b6000938452601a6020526040909320600a01929092555050565b60235461010090046001600160a01b031681565b6001546001600160a01b031690565b6001546001600160a01b0316331490565b60095490565b612ee16140cf565b612eed81600954614402565b50565b60275481565b80612f008161413c565b612f09826143de565b611d9082336152db565b6002546001600160a01b031681565b612f2a6142cb565b602554604080516024810185905260448101849052306064808301919091528251808303909101815260849091019091526020810180516001600160e01b031663561ad5c960e11b179052611d90916001600160a01b031690615115565b60225481565b612f966140cf565b6005546016546040805163a3b1d8cb60e01b8152600481018590526024810192909252516001600160a01b039092169163a3b1d8cb9160448082019260009290919082900301818387803b158015612fed57600080fd5b505af1158015613001573d6000803e3d6000fd5b505050506064811115613045576040805162461bcd60e51b8152602060048201526007602482015266746f6f2062696760c81b604482015290519081900360640190fd5b601655565b613052612ec2565b61305b57600080fd5b602554604080516024810185905260448082018590528251808303909101815260649091019091526020810180516001600160e01b0316639ddbbf8560e01b179052611d90916001600160a01b031690615115565b816130ba8161526d565b60008213156131135760195460ff16613113576040805162461bcd60e51b815260206004820152601660248201527511195b1959d85d1a5bdb881a5cc8191a5cd8589b195960521b604482015290519081900360640190fd5b61311f826000806141d8565b6000821261313657613131838361539c565b612a91565b612a91838360001902612e59565b61314c6140cf565b8061315657600080fd5b600e55565b601c5490565b6131696142cb565b6025546040516024810187815260448201879052851515606483015260806084830190815260a48301859052613212936001600160a01b03169263a685487760e01b928a928a928a928a928a9260c40184848082843760008184015260408051601f19601f9093018316909401848103909201845252506020810180516001600160e01b03199a909a166001600160e01b03909a16999099179098525061511595505050505050565b5050505050565b6132216140cf565b6132296153d7565b565b60085490565b60245481565b61323f6140cf565b611d9082826151a8565b6132516140cf565b600c91909155600d55565b6132296153e3565b6000818152601a6020526040812060030154819061328957613285836148ce565b5090505b6000838152601a602052604090206001908101546122389190611c05908463ffffffff6141c616565b6000838152601a60205260408120600601546001600160a01b031633148061335157506004805460408051631ab0168360e31b8152905133936001600160a01b039093169263d580b41892808201926020929091829003018186803b15801561331a57600080fd5b505afa15801561332e573d6000803e3d6000fd5b505050506040513d602081101561334457600080fd5b50516001600160a01b0316145b613390576040805162461bcd60e51b815260206004820152600b60248201526a1b9bdd08185b1b1bddd95960aa1b604482015290519081900360640190fd5b6003546040805163a9059cbb60e01b81526001600160a01b038581166004830152602482018790529151919092169163a9059cbb9160448083019260209291908290030181600087803b1580156133e657600080fd5b505af11580156133fa573d6000803e3d6000fd5b505050506040513d602081101561341057600080fd5b5051949350505050565b6134226140cf565b306001600160a01b0316816001600160a01b0316638da5cb5b6040518163ffffffff1660e01b815260040160206040518083038186803b15801561346557600080fd5b505afa158015613479573d6000803e3d6000fd5b505050506040513d602081101561348f57600080fd5b50516001600160a01b0316146134a457600080fd5b6000918252601a602052604090912060060180546001600160a01b0319166001600160a01b03909216919091179055565b6134dd6140cf565b806134e757600080fd5b600554600b5460408051632dbe9d3160e21b8152600481018590526024810192909252516001600160a01b039092169163b6fa74c49160448082019260009290919082900301818387803b15801561353e57600080fd5b505af1158015613552573d6000803e3d6000fd5b505050600b9190915550565b60145481565b60005460ff1681565b336000908152601b6020908152604080832054808452601a909252909120600681015481546003909201546009546135b293600160a01b90930460ff16929190614293565b6135f3576040805162461bcd60e51b815260206004820152600d60248201526c3737ba103b30b634b230ba37b960991b604482015290519081900360640190fd5b6000818152601a60205260409020600601546001600160a01b031680613659576040805162461bcd60e51b815260206004820152601660248201527511195b1959d85d1a5bdb881a5cc8191a5cd8589b195960521b604482015290519081900360640190fd5b604080516303dd464160e51b8152841515600482015290516001600160a01b03831691637ba8c82091602480830192600092919082900301818387803b1580156136a257600080fd5b505af11580156136b6573d6000803e3d6000fd5b50505050505050565b60216020526000908152604090205481565b806136db8161413c565b6000828152601a60205260409020600301548015801590613711575060095460085461370e90839063ffffffff6141c616565b11155b8015613744575060036000848152601a6020526040902060060154600160a01b900460ff16600381111561374157fe5b14155b61374d57600080fd5b6000838152601a6020526040812054601154909190613772908363ffffffff6143ed16565b6011819055905061378385336152db565b60065460408051630852cd8d60e31b81526004810188905290516001600160a01b03909216916342966c689160248082019260009290919082900301818387803b1580156137d057600080fd5b505af11580156137e4573d6000803e3d6000fd5b5050506000868152601a6020526040812081815560048101919091556005810180546001600160a01b03191690556000197f584f46c60af19681376031579adb04a2416e54ee5505351c2a8435e3766026ea55600601805460ff60a01b1916600360a01b1790555061385633836151a8565b6005546040805163ae2e26b160e01b815233600482015260248101889052604481018590526064810184905290516001600160a01b039092169163ae2e26b19160848082019260009290919082900301818387803b158015611d4d57600080fd5b816138c18161413c565b6138ca836143de565b602554604080516024810186905260448082018690528251808303909101815260649091019091526020810180516001600160e01b0316636e6cb15960e11b179052612a91916001600160a01b031690615115565b60285481565b601c54601d5482565b6139366140cf565b6000811161394357600080fd5b600554600a5460408051635071805360e11b8152600481018590526024810192909252516001600160a01b039092169163a0e300a69160448082019260009290919082900301818387803b15801561399a57600080fd5b505af11580156139ae573d6000803e3d6000fd5b505050600a8290555060088190556139cd81600463ffffffff61545816565b60158190556009546139e49163ffffffff6141c616565b60185550565b8015613a5c576000828152601a6020526040808220600601548151637c1e845d60e11b815291516001600160a01b039091169263f83d08ba926004808201939182900301818387803b158015613a3f57600080fd5b505af1158015613a53573d6000803e3d6000fd5b50505050611d90565b6000828152601a602052604080822060060154815163a69df4b560e01b815291516001600160a01b039091169263a69df4b5926004808201939182900301818387803b158015613aab57600080fd5b505af11580156124ce573d6000803e3d6000fd5b613ac7612ec2565b613ad057600080fd5b6001600160a01b038116613ae357600080fd5b6002546040516001600160a01b038084169216907f211c9015fc81c0dbd45bd99f0f29fc1c143bfd53442d5ffd722bbbef7a887fe990600090a3600280546001600160a01b0319166001600160a01b0392909216919091179055565b6000908152601a602052604090205490565b6005546001600160a01b031681565b613b686140cf565b6019805460ff1916911515919091179055565b613b83612ec2565b613b8c57600080fd5b612eed8161547a565b600954613ba8908263ffffffff6141c616565b60095550565b81613bb88161413c565b6000613bc3836154e9565b600954600f546000878152602160205260409020549293509091613bec9163ffffffff6141c616565b811015613c2e576040805162461bcd60e51b815260206004820152600b60248201526a139bdd08185b1b1bddd95960aa1b604482015290519081900360640190fd5b6000858152601a602090815260408083206005908101549054915163b80fbce560e01b8152600481018a81526001600160a01b039283166024830181905288841660448401526080606484019081528b5160848501528b519197949095169563b80fbce5958d9589958c958f95909460a490920192918601918190849084905b83811015613cc6578181015183820152602001613cae565b50505050905090810190601f168015613cf35780820380516001836020036101000a031916815260200191505b5095505050505050600060405180830381600087803b158015613d1557600080fd5b505af1158015613d29573d6000803e3d6000fd5b5050506001600160a01b038083166000908152601b6020908152604080832060001990559287168083528383208b90558a8352601a90915291902060050180546001600160a01b031916909117905550613d8381846155a2565b5060009485526021602052604090942093909355505050565b60235460ff1615613de5576040805162461bcd60e51b815260206004820152600e60248201526d185b1c9958591e481a5b9a5d195960921b604482015290519081900360640190fd5b6023805460ff19166001179055613dfb8161411d565b613e45576040805162461bcd60e51b8152602060048201526016602482015275185d58dd1a5bdb881a5b5c1b081a5b98dbdc9c9958dd60521b604482015290519081900360640190fd5b602580546001600160a01b03199081166001600160a01b038481169190911790925560008054610100600160a81b031916610100878516021790556004805482168c84161790556002805482168b84161790556003805482168a841617905560068054821689841617905560058054821688841617905560078054909116918616919091179055613ed58261547a565b5050612000600855505060016009819055610376600a90815569044664c7bf6451f00000600b55670de0b6b3a7640000600c819055600d55610400600e556064600f55600760105560128290556108006015556016556019805460ff191690911790555050505050565b613f476140cf565b6009546139e4908263ffffffff6141c616565b613f626140cf565b6132296155b4565b6025546001600160a01b031681565b600883108015613f895750600782115b613fce576040805162461bcd60e51b815260206004820152601160248201527024b73b30b634b21036b4b3b930ba34b7b760791b604482015290519081900360640190fd5b6000838152601a6020526040808220600601548151636e7ce59160e01b81523360048201526024810185905291516001600160a01b0390911692636e7ce591926044808201939182900301818387803b15801561402a57600080fd5b505af115801561403e573d6000803e3d6000fd5b5050506000838152601a6020526040808220600601548151632830728d60e21b81523360048201526024810186905291516001600160a01b03909116935063a0c1ca349260448084019391929182900301818387803b1580156136a257600080fd5b600d5481565b6003546001600160a01b031681565b6001600160a01b03166000908152601b6020526040812055565b60005461010090046001600160a01b031633146132295760405162461bcd60e51b8152600401808060200182810382526026815260200180615ead6026913960400191505060405180910390fd5b60006001600160a01b038216614135575060006117e4565b503b151590565b600654604080516331a9108f60e11b815260048101849052905133926001600160a01b031691636352211e916024808301926020929190829003018186803b15801561418757600080fd5b505afa15801561419b573d6000803e3d6000fd5b505050506040513d60208110156141b157600080fd5b50516001600160a01b031614612eed57600080fd5b60008282018381101561223857600080fd5b8061427157600083131561420157601c546141f9908463ffffffff6141c616565b601c55614225565b600083121561422557601c5461422190600085900363ffffffff6143ed16565b601c555b600082131561424957601d54614241908363ffffffff6141c616565b601d55613131565b600082121561313157601d5461426990600084900363ffffffff6143ed16565b601d55612a91565b6000818152601e60205260409020805484018155600101805483019055505050565b600080841180156142ab57508215806142ab57508183115b80156142c2575060018560038111156142c057fe5b145b95945050505050565b60005460ff1615613229576040805162461bcd60e51b81526020600482015260066024820152651b1bd8dad95960d21b604482015290519081900360640190fd5b600354604080516323b872dd60e01b81526001600160a01b038681166004830152858116602483015260448201859052915191909216916323b872dd9160648083019260209291908290030181600087803b15801561436a57600080fd5b505af115801561437e573d6000803e3d6000fd5b505050506040513d602081101561439457600080fd5b5051612a91576040805162461bcd60e51b81526020600482015260146024820152731d1c985b9cd9995c88199c9bdb4819985a5b195960621b604482015290519081900360640190fd5b612eed816024546024546155c3565b6000828211156143fc57600080fd5b50900390565b61440b826143de565b6000828152601a60205260408120549061442484612a96565b6000858152601a6020526040902060038101859055600a810154600690910154919250906001600160a01b031680156144ab57806001600160a01b031663f83d08ba6040518163ffffffff1660e01b8152600401600060405180830381600087803b15801561449257600080fd5b505af11580156144a6573d6000803e3d6000fd5b505050505b6000868152601a60205260409020600501546144cf906001600160a01b0316615664565b6144d986846152db565b60006009548611156144eb57856144ee565b60005b9050614502838601600003600019836141d8565b60055460408051635e04d48360e01b81526001600160a01b038781166004830152602482018b9052604482018a90526064820189905291519190921691635e04d48391608480830192600092919082900301818387803b15801561456557600080fd5b505af1158015614579573d6000803e3d6000fd5b5050505050505050505050565b805160208201516040830151600092919060ff167f7fffffffffffffffffffffffffffffff5d576e7357a4501ddfe92f46681b20a08211156145ce5760009350505050611b50565b601b8160ff1610156145de57601b015b8060ff16601b141580156145f657508060ff16601c14155b156146075760009350505050611b50565b60408051600080825260208083018085528a905260ff85168385015260608301879052608083018690529251909260019260a080820193601f1981019281900390910190855afa15801561465f573d6000803e3d6000fd5b5050604051601f1901519150506001600160a01b03811661467f57600080fd5b9695505050505050565b614691615de0565b826080015183602001511080156146d55750816001600160a01b031683606001518460200151815181106146c157fe5b60200260200101516001600160a01b031614155b1561475657601b600084606001518560200151815181106146f257fe5b60200260200101516001600160a01b03166001600160a01b0316815260200190815260200160002054836040015184600001518151811061472f57fe5b60209081029190910181019190915283516001908101855290840180519091019052614691565b5050602081018051600101905290565b601c546000906147936001612077600361478785600263ffffffff61576e16565b9063ffffffff61545816565b8810156147dd576040805162461bcd60e51b8152602060048201526013602482015272322f332b31206e6f6e2d6d616a6f726974792160681b604482015290519081900360640190fd5b60006147ea8b8a84615795565b9050600061480860646147876016548561576e90919063ffffffff16565b6001600160a01b038c166000908152601b6020908152604080832054808452601a90925290912060018101549293509091614849908463ffffffff6141c616565b600182015560178b905560006148966148878e6147876a084595161401484a00000061487b8a8a63ffffffff6143ed16565b9063ffffffff61576e16565b6024549063ffffffff6141c616565b90506148a38b8b836158e9565b60248190556148b38989836158e9565b6148bb6153e3565b50929d9c50505050505050505050505050565b6000818152601a602052604081208054600a9091015482919082906148fa90839063ffffffff6141c616565b6000868152601a60205260409020600b0154602454919250900361493e86846149386a084595161401484a000000614787868863ffffffff61576e16565b8561591d565b94509450505050915091565b600d54821015614991576040805162461bcd60e51b815260206004820152600d60248201526c199959481d1bdbc81cdb585b1b609a1b604482015290519081900360640190fd5b6149ab83306149a6858563ffffffff6141c616565b61430c565b6022546149be908363ffffffff6141c616565b6022556005546040805163a449d79560e01b81526001600160a01b038781166004830152602482018690529151919092169163a449d79591604480830192600092919082900301818387803b158015614a1657600080fd5b505af1158015614a2a573d6000803e3d6000fd5b5050505050505050565b600080614a40836154e9565b600954601254600554601154939450919290916001600160a01b031690600090614a70908a63ffffffff6141c616565b905080601181905550604051806101a001604052808a8152602001600181526020018581526020016000815260200160008152602001866001600160a01b0316815260200189614ac1576000614b4d565b600754600480546040805163d4ad267360e01b81529283018990526001600160a01b03888116602485015291821660448401525192169163d4ad2673916064808201926020929091908290030181600087803b158015614b2057600080fd5b505af1158015614b34573d6000803e3d6000fd5b505050506040513d6020811015614b4a57600080fd5b50515b6001600160a01b031681526020016001815260006020808301829052604080840183905260016060808601829052608080870186905260245460a0978801528a8652601a855294839020875181559387015191840191909155908501516002830155840151600380830191909155918401516004820155918301516005830180546001600160a01b039283166001600160a01b03199182161790915560c08501516006850180549190931691161780825560e08501519260ff60a01b1990911690600160a01b908490811115614c1f57fe5b0217905550610100820151600782015561012082015160088201556101408201516009820155610160820151600a82015561018090910151600b9091015560008381526021602052604080822086905560065481516340c10f1960e01b81526001600160a01b038e8116600483015260248201889052925192909116926340c10f199260448084019382900301818387803b158015614cbd57600080fd5b505af1158015614cd1573d6000803e3d6000fd5b5050506001600160a01b0386166000908152601b60205260408120859055614cfe91508a906001906141d8565b836020600085815260200190815260200160002060010181905550816001600160a01b03166333a8383c868986888e876040518763ffffffff1660e01b815260040180876001600160a01b03166001600160a01b0316815260200180602001868152602001858152602001848152602001838152602001828103825287818151815260200191508051906020019080838360005b83811015614daa578181015183820152602001614d92565b50505050905090810190601f168015614dd75780820380516001836020036101000a031916815260200191505b50975050505050505050600060405180830381600087803b158015614dfb57600080fd5b505af1158015614e0f573d6000803e3d6000fd5b50505050614e276001846141c690919063ffffffff16565b601255614e33856159b1565b509098975050505050505050565b614e49615e30565b506040805180820190915281518152602082810190820152919050565b6060614e7182615acb565b614e7a57600080fd5b6000614e8583615b05565b9050606081604051908082528060200260200182016040528015614ec357816020015b614eb0615e30565b815260200190600190039081614ea85790505b5090506000614ed58560200151615b61565b60208601510190506000805b84811015614f2c57614ef283615bc4565b9150604051806040016040528083815260200184815250848281518110614f1557fe5b602090810291909101015291810191600101614ee1565b509195945050505050565b805160009015801590614f4c57508151602110155b614f5557600080fd5b6000614f648360200151615b61565b83516020808601518301805193945091849003929190831015614f8e57826020036101000a820491505b50949350505050565b8051600090600114614fa857600080fd5b6020820151805160001a908115614fc0576001614fc3565b60005b949350505050565b6000828152601a60205260408120600601546001600160a01b0316801561504057806001600160a01b031663f83d08ba6040518163ffffffff1660e01b8152600401600060405180830381600087803b15801561502757600080fd5b505af115801561503b573d6000803e3d6000fd5b505050505b600954615053818563ffffffff6141c616565b6000868152601a602052604080822060048082019490945560068101805460ff60a01b1916600160a11b1790556005805491015482516381dc101b60e01b81529485018a9052602485018690526001600160a01b03908116604486015291519116926381dc101b92606480830193919282900301818387803b1580156150d857600080fd5b505af11580156150ec573d6000803e3d6000fd5b5050506000868152601a60205260409020600a81015490546142c292509063ffffffff6141c616565b600080825160208401856127105a03f43d604051816000823e828015615139578282f35b8282fd5b602254615150908263ffffffff6143ed16565b6022556005546040805163122b648160e01b81526001600160a01b038581166004830152602482018590529151919092169163122b648191604480830192600092919082900301818387803b158015613aab57600080fd5b6003546040805163a9059cbb60e01b81526001600160a01b038581166004830152602482018590529151919092169163a9059cbb9160448083019260209291908290030181600087803b1580156151fe57600080fd5b505af1158015615212573d6000803e3d6000fd5b505050506040513d602081101561522857600080fd5b5051611d90576040805162461bcd60e51b815260206004820152600f60248201526e1d1c985b9cd9995c8819985a5b1959608a1b604482015290519081900360640190fd5b6000818152601a60205260409020600601546001600160a01b03163314612eed576040805162461bcd60e51b815260206004820152601860248201527f496e76616c696420636f6e747261637420616464726573730000000000000000604482015290519081900360640190fd5b6000828152601a602052604081206001908101546152fe9163ffffffff6143ed16565b601454909150615314908263ffffffff6141c616565b6014556000838152601a60205260409020600181810155602454600b9091015561533e82826151a8565b60055460145460408051635b42d93560e11b815260048101879052602481018590526044810192909252516001600160a01b039092169163b685b26a9160648082019260009290919082900301818387803b1580156136a257600080fd5b6000828152601a60205260409020600a01546153be908263ffffffff6141c616565b6000928352601a6020526040909220600a019190915550565b6000805460ff19169055565b60095460006153f982600163ffffffff6141c616565b9050615403615e30565b506000818152601e6020908152604080832081518083019092528054808352600190910154928201839052909261543a92906141d8565b506000918252601e6020526040822082815560010191909155600955565b600080821161546657600080fd5b600082848161547157fe5b04949350505050565b6001600160a01b03811661548d57600080fd5b6001546040516001600160a01b038084169216907f8be0079c531659141344cd1fd0a4f28419497f9722a3daafe3b4186f6b6457e090600090a3600180546001600160a01b0319166001600160a01b0392909216919091179055565b6000815160401461552b576040805162461bcd60e51b81526020600482015260076024820152663737ba10383ab160c91b604482015290519081900360640190fd5b815160208301206001600160a01b0381161580159061556057506001600160a01b0381166000908152601b6020526040902054155b611b50576040805162461bcd60e51b815260206004820152600e60248201526d24b73b30b634b21039b4b3b732b960911b604482015290519081900360640190fd5b6155ab82615664565b611d90816159b1565b6000805460ff19166001179055565b6000838152601a60205260409020600b015482811015615642576000848152601a602052604090208054600a90910154801561562a57600061560b838363ffffffff6141c616565b905061562487848461561f8b868c8b615c5d565b615c81565b5061563f565b61563f8661563a88858988615c5d565b615d27565b50505b80821115611e50576000848152601a60205260409020600b0182905550505050565b6026805490600090600019830183811061567a57fe5b600091825260209091200154602680546001600160a01b0390921692509060001984019081106156a657fe5b600091825260209091200180546001600160a01b031916905560001982015b801561575d57836001600160a01b0316826001600160a01b031614156156ea5761575d565b602660018203815481106156fa57fe5b9060005260206000200160009054906101000a90046001600160a01b0316826026600184038154811061572957fe5b600091825260209091200180546001600160a01b0319166001600160a01b03929092169190911790559150600019016156c5565b506000198201611e50602682615e4a565b60008261577d57506000611b50565b8282028284828161578a57fe5b041461223857600080fd5b600e54600b5460009190826157b58388816157ac57fe5b04602954615d65565b90506000811180156157c957506027548114155b1561580a57602754156158045760006064602a548402816157e657fe5b0490508160275411156157fc5791820191615802565b80830392505b505b60278190555b6000838811156158a3576028546158526158426064614787615835600260001989018902048661576e565b889063ffffffff61576e16565b611c05868663ffffffff61576e16565b9150615874615867848763ffffffff61576e16565b8a9063ffffffff6143ed16565b985061589f61589260646147878461487b898963ffffffff61576e16565b859063ffffffff6143ed16565b9350505b6158c76158ba856147878b8763ffffffff61576e16565b829063ffffffff6141c616565b90506158dd86614787838a63ffffffff61576e16565b98975050505050505050565b60245460005b838110156132125761591585828151811061590657fe5b602002602001015183856155c3565b6001016158ef565b60008082615930575060009050806159a8565b600061594684614787888863ffffffff61576e16565b6000888152601a6020526040902060070154909150801561598d5761598a61597d60646147878461487b8b8863ffffffff6143ed16565b839063ffffffff6141c616565b91505b600061599f878463ffffffff6143ed16565b92945091925050505b94509492505050565b6026805460018101825560008290527f744a2cf8fd7008e3d53b67916e73460df9fa5214e3ef23dd4259ca09493a35940180546001600160a01b0319166001600160a01b0384161790555460001901805b8015615a8357600060266001830381548110615a1a57fe5b6000918252602090912001546001600160a01b0390811691508416811015615a425750615a83565b8060268381548110615a5057fe5b600091825260209091200180546001600160a01b0319166001600160a01b03929092169190911790555060001901615a02565b818114612a91578260268281548110615a9857fe5b9060005260206000200160006101000a8154816001600160a01b0302191690836001600160a01b03160217905550505050565b8051600090615adc575060006117e4565b6020820151805160001a9060c0821015615afb576000925050506117e4565b5060019392505050565b8051600090615b16575060006117e4565b60008090506000615b2a8460200151615b61565b602085015185519181019250015b80821015615b5857615b4982615bc4565b60019093019290910190615b38565b50909392505050565b8051600090811a6080811015615b7b5760009150506117e4565b60b8811080615b96575060c08110801590615b96575060f881105b15615ba55760019150506117e4565b60c0811015615bb95760b5190190506117e4565b60f5190190506117e4565b80516000908190811a6080811015615bdf5760019150615c56565b60b8811015615bf457607e1981019150615c56565b60c0811015615c215760b78103600185019450806020036101000a85510460018201810193505050615c56565b60f8811015615c365760be1981019150615c56565b60f78103600185019450806020036101000a855104600182018101935050505b5092915050565b600081830361467f6a084595161401484a000000614787838863ffffffff61576e16565b6000615c93838563ffffffff6141c616565b9050600080615ca48787868661591d565b90925090508015615ce4576000878152601a6020526040902060090154615cd1908263ffffffff6141c616565b6000888152601a60205260409020600901555b81156136b6576000878152601a6020526040902060010154615d0c908363ffffffff6141c616565b6000888152601a602052604090206001015550505050505050565b8015611d90576000828152601a6020526040902060010154615d4f908263ffffffff6141c616565b6000838152601a60205260409020600101555050565b6000818310615d745781612238565b5090919050565b828054828255906000526020600020908101928215615dd0579160200282015b82811115615dd057825182546001600160a01b0319166001600160a01b03909116178255602090920191600190910190615d9b565b50615ddc929150615e6e565b5090565b6040518060a0016040528060008152602001600081526020016060815260200160608152602001600081525090565b60405180606001604052806000815260200160608152602001600081525090565b604051806040016040528060008152602001600081525090565b815481835581811115612a9157600083815260209020612a91918101908301615e92565b61270991905b80821115615ddc5780546001600160a01b0319168155600101615e74565b61270991905b80821115615ddc5760008155600101615e9856fe4f6e6c7920676f7665726e616e636520636f6e747261637420697320617574686f72697a6564a265627a7a723158209ddbc1055e0004638eaf1ee39fa6335bac008177bd120a1abd4adc57b8aaac5e64736f6c63430005110032",
  "source": "pragma solidity ^0.5.2;\n\nimport { StakeManager } from \"../staking/stakeManager/StakeManager.sol\";\nimport { IValidatorShare } from \"../staking/validatorShare/IValidatorShare.sol\";\n\ncontract StakeManagerTestable is StakeManager {\n    function advanceEpoch(uint256 delta) public {\n        currentEpoch = currentEpoch.add(delta);\n    }\n\n    function testLockShareContract(uint256 validatorId, bool lock) public {\n        if (lock) {\n            IValidatorShare(validators[validatorId].contractAddress).lock();\n        } else {\n            IValidatorShare(validators[validatorId].contractAddress).unlock();\n        }\n    }\n\n    function forceFinalizeCommit() public {\n        _finalizeCommit();\n    }\n\n    function resetSignerUsed(address signer) public {\n        signerToValidator[signer] = 0;\n    }\n}\n",
  "sourcePath": "/home/manjain/Documents/contracts/contracts/test/StakeManagerTestable.sol",
  "compiler": {
    "name": "solc",
    "version": "0.5.17+commit.d19bba13.Linux.g++"
  },
  "schemaVersion": "3.3.4",
  "updatedAt": "2021-03-21T20:14:31.265Z",
  "devdoc": {
    "methods": {
      "changeRootChain(address)": {
        "details": "Allows the current owner to change root chain address.",
        "params": {
          "newRootChain": "The address to new rootchain."
        }
      },
      "isOwner()": {
        "return": "true if `msg.sender` is the owner of the contract."
      },
      "owner()": {
        "return": "the address of the owner."
      },
      "ownerOf(uint256)": {
        "details": "Owner of validator slot NFT"
      },
      "renounceOwnership()": {
        "details": "Allows the current owner to relinquish control of the contract. It will not be possible to call the functions with the `onlyOwner` modifier anymore."
      },
      "transferOwnership(address)": {
        "details": "Allows the current owner to transfer control of the contract to a newOwner.",
        "params": {
          "newOwner": "The address to transfer ownership to."
        }
      },
      "updateValidatorContractAddress(uint256,address)": {
        "details": "Users must exit before this update or all funds may get lost"
      },
      "updateValidatorThreshold(uint256)": {
        "details": "Change the number of validators required to allow a passed header root"
      }
    }
  },
  "userdoc": {
    "methods": {
      "getRegistry()": {
        "notice": "Public View Methods"
      },
      "renounceOwnership()": {
        "notice": "Renouncing ownership will leave the contract without an owner, thereby removing any functionality that is only available to the owner."
      },
      "setDelegationEnabled(bool)": {
        "notice": "Governance Methods"
      },
      "topUpForFee(address,uint256)": {
        "notice": "Public Methods"
      }
    }
  }
}