{
  "contractName": "StakeManager",
  "abi": [
    {
      "inputs": [],
      "payable": false,
      "stateMutability": "nonpayable",
      "type": "constructor"
    },
    {
      "anonymous": false,
      "inputs": [
        {
          "indexed": true,
          "internalType": "address",
          "name": "previousOwner",
          "type": "address"
        },
        {
          "indexed": true,
          "internalType": "address",
          "name": "newOwner",
          "type": "address"
        }
      ],
      "name": "OwnershipTransferred",
      "type": "event"
    },
    {
      "anonymous": false,
      "inputs": [
        {
          "indexed": true,
          "internalType": "address",
          "name": "previousRootChain",
          "type": "address"
        },
        {
          "indexed": true,
          "internalType": "address",
          "name": "newRootChain",
          "type": "address"
        }
      ],
      "name": "RootChainChanged",
      "type": "event"
    },
    {
      "constant": true,
      "inputs": [],
      "name": "CHECKPOINT_REWARD",
      "outputs": [
        {
          "internalType": "uint256",
          "name": "",
          "type": "uint256"
        }
      ],
      "payable": false,
      "stateMutability": "view",
      "type": "function"
    },
    {
      "constant": true,
      "inputs": [],
      "name": "NFTContract",
      "outputs": [
        {
          "internalType": "contract StakingNFT",
          "name": "",
          "type": "address"
        }
      ],
      "payable": false,
      "stateMutability": "view",
      "type": "function"
    },
    {
      "constant": true,
      "inputs": [],
      "name": "NFTCounter",
      "outputs": [
        {
          "internalType": "uint256",
          "name": "",
          "type": "uint256"
        }
      ],
      "payable": false,
      "stateMutability": "view",
      "type": "function"
    },
    {
      "constant": true,
      "inputs": [],
      "name": "WITHDRAWAL_DELAY",
      "outputs": [
        {
          "internalType": "uint256",
          "name": "",
          "type": "uint256"
        }
      ],
      "payable": false,
      "stateMutability": "view",
      "type": "function"
    },
    {
      "constant": true,
      "inputs": [],
      "name": "accountStateRoot",
      "outputs": [
        {
          "internalType": "bytes32",
          "name": "",
          "type": "bytes32"
        }
      ],
      "payable": false,
      "stateMutability": "view",
      "type": "function"
    },
    {
      "constant": true,
      "inputs": [],
      "name": "auctionPeriod",
      "outputs": [
        {
          "internalType": "uint256",
          "name": "",
          "type": "uint256"
        }
      ],
      "payable": false,
      "stateMutability": "view",
      "type": "function"
    },
    {
      "constant": false,
      "inputs": [
        {
          "internalType": "address",
          "name": "newRootChain",
          "type": "address"
        }
      ],
      "name": "changeRootChain",
      "outputs": [],
      "payable": false,
      "stateMutability": "nonpayable",
      "type": "function"
    },
    {
      "constant": true,
      "inputs": [],
      "name": "checkPointBlockInterval",
      "outputs": [
        {
          "internalType": "uint256",
          "name": "",
          "type": "uint256"
        }
      ],
      "payable": false,
      "stateMutability": "view",
      "type": "function"
    },
    {
      "constant": true,
      "inputs": [],
      "name": "currentEpoch",
      "outputs": [
        {
          "internalType": "uint256",
          "name": "",
          "type": "uint256"
        }
      ],
      "payable": false,
      "stateMutability": "view",
      "type": "function"
    },
    {
      "constant": true,
      "inputs": [],
      "name": "delegationEnabled",
      "outputs": [
        {
          "internalType": "bool",
          "name": "",
          "type": "bool"
        }
      ],
      "payable": false,
      "stateMutability": "view",
      "type": "function"
    },
    {
      "constant": true,
      "inputs": [],
      "name": "dynasty",
      "outputs": [
        {
          "internalType": "uint256",
          "name": "",
          "type": "uint256"
        }
      ],
      "payable": false,
      "stateMutability": "view",
      "type": "function"
    },
    {
      "constant": true,
      "inputs": [],
      "name": "factory",
      "outputs": [
        {
          "internalType": "contract ValidatorShareFactory",
          "name": "",
          "type": "address"
        }
      ],
      "payable": false,
      "stateMutability": "view",
      "type": "function"
    },
    {
      "constant": true,
      "inputs": [],
      "name": "governance",
      "outputs": [
        {
          "internalType": "contract IGovernance",
          "name": "",
          "type": "address"
        }
      ],
      "payable": false,
      "stateMutability": "view",
      "type": "function"
    },
    {
      "constant": true,
      "inputs": [],
      "name": "isOwner",
      "outputs": [
        {
          "internalType": "bool",
          "name": "",
          "type": "bool"
        }
      ],
      "payable": false,
      "stateMutability": "view",
      "type": "function"
    },
    {
      "constant": true,
      "inputs": [
        {
          "internalType": "uint256",
          "name": "",
          "type": "uint256"
        }
      ],
      "name": "latestSignerUpdateEpoch",
      "outputs": [
        {
          "internalType": "uint256",
          "name": "",
          "type": "uint256"
        }
      ],
      "payable": false,
      "stateMutability": "view",
      "type": "function"
    },
    {
      "constant": false,
      "inputs": [],
      "name": "lock",
      "outputs": [],
      "payable": false,
      "stateMutability": "nonpayable",
      "type": "function"
    },
    {
      "constant": true,
      "inputs": [],
      "name": "locked",
      "outputs": [
        {
          "internalType": "bool",
          "name": "",
          "type": "bool"
        }
      ],
      "payable": false,
      "stateMutability": "view",
      "type": "function"
    },
    {
      "constant": true,
      "inputs": [],
      "name": "logger",
      "outputs": [
        {
          "internalType": "contract StakingInfo",
          "name": "",
          "type": "address"
        }
      ],
      "payable": false,
      "stateMutability": "view",
      "type": "function"
    },
    {
      "constant": true,
      "inputs": [],
      "name": "minDeposit",
      "outputs": [
        {
          "internalType": "uint256",
          "name": "",
          "type": "uint256"
        }
      ],
      "payable": false,
      "stateMutability": "view",
      "type": "function"
    },
    {
      "constant": true,
      "inputs": [],
      "name": "minHeimdallFee",
      "outputs": [
        {
          "internalType": "uint256",
          "name": "",
          "type": "uint256"
        }
      ],
      "payable": false,
      "stateMutability": "view",
      "type": "function"
    },
    {
      "constant": true,
      "inputs": [],
      "name": "owner",
      "outputs": [
        {
          "internalType": "address",
          "name": "",
          "type": "address"
        }
      ],
      "payable": false,
      "stateMutability": "view",
      "type": "function"
    },
    {
      "constant": true,
      "inputs": [],
      "name": "proposerBonus",
      "outputs": [
        {
          "internalType": "uint256",
          "name": "",
          "type": "uint256"
        }
      ],
      "payable": false,
      "stateMutability": "view",
      "type": "function"
    },
    {
      "constant": true,
      "inputs": [],
      "name": "registry",
      "outputs": [
        {
          "internalType": "address",
          "name": "",
          "type": "address"
        }
      ],
      "payable": false,
      "stateMutability": "view",
      "type": "function"
    },
    {
      "constant": false,
      "inputs": [],
      "name": "renounceOwnership",
      "outputs": [],
      "payable": false,
      "stateMutability": "nonpayable",
      "type": "function"
    },
    {
      "constant": true,
      "inputs": [],
      "name": "replacementCoolDown",
      "outputs": [
        {
          "internalType": "uint256",
          "name": "",
          "type": "uint256"
        }
      ],
      "payable": false,
      "stateMutability": "view",
      "type": "function"
    },
    {
      "constant": true,
      "inputs": [],
      "name": "rootChain",
      "outputs": [
        {
          "internalType": "address",
          "name": "",
          "type": "address"
        }
      ],
      "payable": false,
      "stateMutability": "view",
      "type": "function"
    },
    {
      "constant": true,
      "inputs": [
        {
          "internalType": "address",
          "name": "",
          "type": "address"
        }
      ],
      "name": "signerToValidator",
      "outputs": [
        {
          "internalType": "uint256",
          "name": "",
          "type": "uint256"
        }
      ],
      "payable": false,
      "stateMutability": "view",
      "type": "function"
    },
    {
      "constant": true,
      "inputs": [],
      "name": "signerUpdateLimit",
      "outputs": [
        {
          "internalType": "uint256",
          "name": "",
          "type": "uint256"
        }
      ],
      "payable": false,
      "stateMutability": "view",
      "type": "function"
    },
    {
      "constant": true,
      "inputs": [],
      "name": "token",
      "outputs": [
        {
          "internalType": "contract IERC20",
          "name": "",
          "type": "address"
        }
      ],
      "payable": false,
      "stateMutability": "view",
      "type": "function"
    },
    {
      "constant": true,
      "inputs": [],
      "name": "totalHeimdallFee",
      "outputs": [
        {
          "internalType": "uint256",
          "name": "",
          "type": "uint256"
        }
      ],
      "payable": false,
      "stateMutability": "view",
      "type": "function"
    },
    {
      "constant": true,
      "inputs": [],
      "name": "totalRewards",
      "outputs": [
        {
          "internalType": "uint256",
          "name": "",
          "type": "uint256"
        }
      ],
      "payable": false,
      "stateMutability": "view",
      "type": "function"
    },
    {
      "constant": true,
      "inputs": [],
      "name": "totalRewardsLiquidated",
      "outputs": [
        {
          "internalType": "uint256",
          "name": "",
          "type": "uint256"
        }
      ],
      "payable": false,
      "stateMutability": "view",
      "type": "function"
    },
    {
      "constant": true,
      "inputs": [],
      "name": "totalStaked",
      "outputs": [
        {
          "internalType": "uint256",
          "name": "",
          "type": "uint256"
        }
      ],
      "payable": false,
      "stateMutability": "view",
      "type": "function"
    },
    {
      "constant": false,
      "inputs": [
        {
          "internalType": "address",
          "name": "newOwner",
          "type": "address"
        }
      ],
      "name": "transferOwnership",
      "outputs": [],
      "payable": false,
      "stateMutability": "nonpayable",
      "type": "function"
    },
    {
      "constant": false,
      "inputs": [],
      "name": "unlock",
      "outputs": [],
      "payable": false,
      "stateMutability": "nonpayable",
      "type": "function"
    },
    {
      "constant": true,
      "inputs": [
        {
          "internalType": "address",
          "name": "",
          "type": "address"
        }
      ],
      "name": "userFeeExit",
      "outputs": [
        {
          "internalType": "uint256",
          "name": "",
          "type": "uint256"
        }
      ],
      "payable": false,
      "stateMutability": "view",
      "type": "function"
    },
    {
      "constant": true,
      "inputs": [
        {
          "internalType": "uint256",
          "name": "",
          "type": "uint256"
        }
      ],
      "name": "validatorAuction",
      "outputs": [
        {
          "internalType": "uint256",
          "name": "amount",
          "type": "uint256"
        },
        {
          "internalType": "uint256",
          "name": "startEpoch",
          "type": "uint256"
        },
        {
          "internalType": "address",
          "name": "user",
          "type": "address"
        },
        {
          "internalType": "bool",
          "name": "acceptDelegation",
          "type": "bool"
        },
        {
          "internalType": "bytes",
          "name": "signerPubkey",
          "type": "bytes"
        }
      ],
      "payable": false,
      "stateMutability": "view",
      "type": "function"
    },
    {
      "constant": true,
      "inputs": [],
      "name": "validatorState",
      "outputs": [
        {
          "internalType": "uint256",
          "name": "amount",
          "type": "uint256"
        },
        {
          "internalType": "uint256",
          "name": "stakerCount",
          "type": "uint256"
        }
      ],
      "payable": false,
      "stateMutability": "view",
      "type": "function"
    },
    {
      "constant": true,
      "inputs": [
        {
          "internalType": "uint256",
          "name": "",
          "type": "uint256"
        }
      ],
      "name": "validatorStateChanges",
      "outputs": [
        {
          "internalType": "int256",
          "name": "amount",
          "type": "int256"
        },
        {
          "internalType": "int256",
          "name": "stakerCount",
          "type": "int256"
        }
      ],
      "payable": false,
      "stateMutability": "view",
      "type": "function"
    },
    {
      "constant": true,
      "inputs": [],
      "name": "validatorThreshold",
      "outputs": [
        {
          "internalType": "uint256",
          "name": "",
          "type": "uint256"
        }
      ],
      "payable": false,
      "stateMutability": "view",
      "type": "function"
    },
    {
      "constant": true,
      "inputs": [
        {
          "internalType": "uint256",
          "name": "",
          "type": "uint256"
        }
      ],
      "name": "validators",
      "outputs": [
        {
          "internalType": "uint256",
          "name": "amount",
          "type": "uint256"
        },
        {
          "internalType": "uint256",
          "name": "reward",
          "type": "uint256"
        },
        {
          "internalType": "uint256",
          "name": "activationEpoch",
          "type": "uint256"
        },
        {
          "internalType": "uint256",
          "name": "deactivationEpoch",
          "type": "uint256"
        },
        {
          "internalType": "uint256",
          "name": "jailTime",
          "type": "uint256"
        },
        {
          "internalType": "address",
          "name": "signer",
          "type": "address"
        },
        {
          "internalType": "address",
          "name": "contractAddress",
          "type": "address"
        },
        {
          "internalType": "enum StakeManagerStorage.Status",
          "name": "status",
          "type": "uint8"
        }
      ],
      "payable": false,
      "stateMutability": "view",
      "type": "function"
    },
    {
      "constant": false,
      "inputs": [
        {
          "internalType": "address",
          "name": "_registry",
          "type": "address"
        },
        {
          "internalType": "address",
          "name": "_rootchain",
          "type": "address"
        },
        {
          "internalType": "address",
          "name": "_token",
          "type": "address"
        },
        {
          "internalType": "address",
          "name": "_NFTContract",
          "type": "address"
        },
        {
          "internalType": "address",
          "name": "_stakingLogger",
          "type": "address"
        },
        {
          "internalType": "address",
          "name": "_validatorShareFactory",
          "type": "address"
        },
        {
          "internalType": "address",
          "name": "_governance",
          "type": "address"
        },
        {
          "internalType": "address",
          "name": "_owner",
          "type": "address"
        }
      ],
      "name": "initialize",
      "outputs": [],
      "payable": false,
      "stateMutability": "nonpayable",
      "type": "function"
    },
    {
      "constant": false,
      "inputs": [
        {
          "internalType": "bool",
          "name": "enabled",
          "type": "bool"
        }
      ],
      "name": "setDelegationEnabled",
      "outputs": [],
      "payable": false,
      "stateMutability": "nonpayable",
      "type": "function"
    },
    {
      "constant": false,
      "inputs": [
        {
          "internalType": "address",
          "name": "user",
          "type": "address"
        },
        {
          "internalType": "uint256",
          "name": "heimdallFee",
          "type": "uint256"
        }
      ],
      "name": "topUpForFee",
      "outputs": [],
      "payable": false,
      "stateMutability": "nonpayable",
      "type": "function"
    },
    {
      "constant": true,
      "inputs": [
        {
          "internalType": "uint256",
          "name": "tokenId",
          "type": "uint256"
        }
      ],
      "name": "ownerOf",
      "outputs": [
        {
          "internalType": "address",
          "name": "",
          "type": "address"
        }
      ],
      "payable": false,
      "stateMutability": "view",
      "type": "function"
    },
    {
      "constant": true,
      "inputs": [],
      "name": "epoch",
      "outputs": [
        {
          "internalType": "uint256",
          "name": "",
          "type": "uint256"
        }
      ],
      "payable": false,
      "stateMutability": "view",
      "type": "function"
    },
    {
      "constant": true,
      "inputs": [],
      "name": "withdrawalDelay",
      "outputs": [
        {
          "internalType": "uint256",
          "name": "",
          "type": "uint256"
        }
      ],
      "payable": false,
      "stateMutability": "view",
      "type": "function"
    },
    {
      "constant": true,
      "inputs": [
        {
          "internalType": "uint256",
          "name": "validatorId",
          "type": "uint256"
        }
      ],
      "name": "validatorStake",
      "outputs": [
        {
          "internalType": "uint256",
          "name": "",
          "type": "uint256"
        }
      ],
      "payable": false,
      "stateMutability": "view",
      "type": "function"
    },
    {
      "constant": false,
      "inputs": [
        {
          "internalType": "uint256",
          "name": "accumFeeAmount",
          "type": "uint256"
        },
        {
          "internalType": "uint256",
          "name": "index",
          "type": "uint256"
        },
        {
          "internalType": "bytes",
          "name": "proof",
          "type": "bytes"
        }
      ],
      "name": "claimFee",
      "outputs": [],
      "payable": false,
      "stateMutability": "nonpayable",
      "type": "function"
    },
    {
      "constant": false,
      "inputs": [
        {
          "internalType": "uint256",
          "name": "amount",
          "type": "uint256"
        },
        {
          "internalType": "uint256",
          "name": "heimdallFee",
          "type": "uint256"
        },
        {
          "internalType": "bool",
          "name": "acceptDelegation",
          "type": "bool"
        },
        {
          "internalType": "bytes",
          "name": "signerPubkey",
          "type": "bytes"
        }
      ],
      "name": "stake",
      "outputs": [],
      "payable": false,
      "stateMutability": "nonpayable",
      "type": "function"
    },
    {
      "constant": true,
      "inputs": [
        {
          "internalType": "address",
          "name": "user",
          "type": "address"
        }
      ],
      "name": "totalStakedFor",
      "outputs": [
        {
          "internalType": "uint256",
          "name": "",
          "type": "uint256"
        }
      ],
      "payable": false,
      "stateMutability": "view",
      "type": "function"
    },
    {
      "constant": false,
      "inputs": [
        {
          "internalType": "uint256",
          "name": "validatorId",
          "type": "uint256"
        },
        {
          "internalType": "uint256",
          "name": "amount",
          "type": "uint256"
        },
        {
          "internalType": "bool",
          "name": "_acceptDelegation",
          "type": "bool"
        },
        {
          "internalType": "bytes",
          "name": "_signerPubkey",
          "type": "bytes"
        }
      ],
      "name": "startAuction",
      "outputs": [],
      "payable": false,
      "stateMutability": "nonpayable",
      "type": "function"
    },
    {
      "constant": false,
      "inputs": [
        {
          "internalType": "uint256",
          "name": "validatorId",
          "type": "uint256"
        },
        {
          "internalType": "uint256",
          "name": "heimdallFee",
          "type": "uint256"
        }
      ],
      "name": "confirmAuctionBid",
      "outputs": [],
      "payable": false,
      "stateMutability": "nonpayable",
      "type": "function"
    },
    {
      "constant": false,
      "inputs": [
        {
          "internalType": "uint256",
          "name": "validatorId",
          "type": "uint256"
        }
      ],
      "name": "unstake",
      "outputs": [],
      "payable": false,
      "stateMutability": "nonpayable",
      "type": "function"
    },
    {
      "constant": false,
      "inputs": [
        {
          "internalType": "uint256",
          "name": "validatorId",
          "type": "uint256"
        }
      ],
      "name": "forceUnstake",
      "outputs": [],
      "payable": false,
      "stateMutability": "nonpayable",
      "type": "function"
    },
    {
      "constant": false,
      "inputs": [
        {
          "internalType": "uint256",
          "name": "_currentEpoch",
          "type": "uint256"
        }
      ],
      "name": "setCurrentEpoch",
      "outputs": [],
      "payable": false,
      "stateMutability": "nonpayable",
      "type": "function"
    },
    {
      "constant": false,
      "inputs": [
        {
          "internalType": "uint256",
          "name": "validatorId",
          "type": "uint256"
        },
        {
          "internalType": "uint256",
          "name": "amount",
          "type": "uint256"
        },
        {
          "internalType": "address",
          "name": "delegator",
          "type": "address"
        }
      ],
      "name": "transferFunds",
      "outputs": [
        {
          "internalType": "bool",
          "name": "",
          "type": "bool"
        }
      ],
      "payable": false,
      "stateMutability": "nonpayable",
      "type": "function"
    },
    {
      "constant": false,
      "inputs": [
        {
          "internalType": "uint256",
          "name": "validatorId",
          "type": "uint256"
        },
        {
          "internalType": "uint256",
          "name": "amount",
          "type": "uint256"
        },
        {
          "internalType": "address",
          "name": "delegator",
          "type": "address"
        }
      ],
      "name": "delegationDeposit",
      "outputs": [
        {
          "internalType": "bool",
          "name": "",
          "type": "bool"
        }
      ],
      "payable": false,
      "stateMutability": "nonpayable",
      "type": "function"
    },
    {
      "constant": false,
      "inputs": [
        {
          "internalType": "address",
          "name": "user",
          "type": "address"
        },
        {
          "internalType": "uint256",
          "name": "amount",
          "type": "uint256"
        },
        {
          "internalType": "uint256",
          "name": "heimdallFee",
          "type": "uint256"
        },
        {
          "internalType": "bool",
          "name": "acceptDelegation",
          "type": "bool"
        },
        {
          "internalType": "bytes",
          "name": "signerPubkey",
          "type": "bytes"
        }
      ],
      "name": "stakeFor",
      "outputs": [],
      "payable": false,
      "stateMutability": "nonpayable",
      "type": "function"
    },
    {
      "constant": false,
      "inputs": [
        {
          "internalType": "uint256",
          "name": "validatorId",
          "type": "uint256"
        }
      ],
      "name": "unstakeClaim",
      "outputs": [],
      "payable": false,
      "stateMutability": "nonpayable",
      "type": "function"
    },
    {
      "constant": false,
      "inputs": [
        {
          "internalType": "uint256",
          "name": "validatorId",
          "type": "uint256"
        },
        {
          "internalType": "uint256",
          "name": "amount",
          "type": "uint256"
        },
        {
          "internalType": "bool",
          "name": "stakeRewards",
          "type": "bool"
        }
      ],
      "name": "restake",
      "outputs": [],
      "payable": false,
      "stateMutability": "nonpayable",
      "type": "function"
    },
    {
      "constant": false,
      "inputs": [
        {
          "internalType": "uint256",
          "name": "validatorId",
          "type": "uint256"
        }
      ],
      "name": "withdrawRewards",
      "outputs": [],
      "payable": false,
      "stateMutability": "nonpayable",
      "type": "function"
    },
    {
      "constant": true,
      "inputs": [
        {
          "internalType": "address",
          "name": "user",
          "type": "address"
        }
      ],
      "name": "getValidatorId",
      "outputs": [
        {
          "internalType": "uint256",
          "name": "",
          "type": "uint256"
        }
      ],
      "payable": false,
      "stateMutability": "view",
      "type": "function"
    },
    {
      "constant": false,
      "inputs": [
        {
          "internalType": "address",
          "name": "_token",
          "type": "address"
        }
      ],
      "name": "setToken",
      "outputs": [],
      "payable": false,
      "stateMutability": "nonpayable",
      "type": "function"
    },
    {
      "constant": false,
      "inputs": [
        {
          "internalType": "uint256",
          "name": "newThreshold",
          "type": "uint256"
        }
      ],
      "name": "updateValidatorThreshold",
      "outputs": [],
      "payable": false,
      "stateMutability": "nonpayable",
      "type": "function"
    },
    {
      "constant": false,
      "inputs": [
        {
          "internalType": "uint256",
          "name": "_blocks",
          "type": "uint256"
        }
      ],
      "name": "updateCheckPointBlockInterval",
      "outputs": [],
      "payable": false,
      "stateMutability": "nonpayable",
      "type": "function"
    },
    {
      "constant": false,
      "inputs": [
        {
          "internalType": "uint256",
          "name": "newReward",
          "type": "uint256"
        }
      ],
      "name": "updateCheckpointReward",
      "outputs": [],
      "payable": false,
      "stateMutability": "nonpayable",
      "type": "function"
    },
    {
      "constant": false,
      "inputs": [
        {
          "internalType": "uint256",
          "name": "validatorId",
          "type": "uint256"
        },
        {
          "internalType": "address",
          "name": "newContractAddress",
          "type": "address"
        }
      ],
      "name": "updateContractAddress",
      "outputs": [],
      "payable": false,
      "stateMutability": "nonpayable",
      "type": "function"
    },
    {
      "constant": false,
      "inputs": [
        {
          "internalType": "uint256",
          "name": "validatorId",
          "type": "uint256"
        },
        {
          "internalType": "int256",
          "name": "amount",
          "type": "int256"
        }
      ],
      "name": "updateValidatorState",
      "outputs": [],
      "payable": false,
      "stateMutability": "nonpayable",
      "type": "function"
    },
    {
      "constant": false,
      "inputs": [
        {
          "internalType": "uint256",
          "name": "newDynasty",
          "type": "uint256"
        }
      ],
      "name": "updateDynastyValue",
      "outputs": [],
      "payable": false,
      "stateMutability": "nonpayable",
      "type": "function"
    },
    {
      "constant": false,
      "inputs": [
        {
          "internalType": "uint256",
          "name": "forNCheckpoints",
          "type": "uint256"
        }
      ],
      "name": "stopAuctions",
      "outputs": [],
      "payable": false,
      "stateMutability": "nonpayable",
      "type": "function"
    },
    {
      "constant": false,
      "inputs": [
        {
          "internalType": "uint256",
          "name": "newProposerBonus",
          "type": "uint256"
        }
      ],
      "name": "updateProposerBonus",
      "outputs": [],
      "payable": false,
      "stateMutability": "nonpayable",
      "type": "function"
    },
    {
      "constant": false,
      "inputs": [
        {
          "internalType": "uint256",
          "name": "_limit",
          "type": "uint256"
        }
      ],
      "name": "updateSignerUpdateLimit",
      "outputs": [],
      "payable": false,
      "stateMutability": "nonpayable",
      "type": "function"
    },
    {
      "constant": false,
      "inputs": [
        {
          "internalType": "uint256",
          "name": "_minDeposit",
          "type": "uint256"
        },
        {
          "internalType": "uint256",
          "name": "_minHeimdallFee",
          "type": "uint256"
        }
      ],
      "name": "updateMinAmounts",
      "outputs": [],
      "payable": false,
      "stateMutability": "nonpayable",
      "type": "function"
    },
    {
      "constant": false,
      "inputs": [
        {
          "internalType": "uint256",
          "name": "validatorId",
          "type": "uint256"
        },
        {
          "internalType": "bytes",
          "name": "signerPubkey",
          "type": "bytes"
        }
      ],
      "name": "updateSigner",
      "outputs": [],
      "payable": false,
      "stateMutability": "nonpayable",
      "type": "function"
    },
    {
      "constant": true,
      "inputs": [],
      "name": "currentValidatorSetSize",
      "outputs": [
        {
          "internalType": "uint256",
          "name": "",
          "type": "uint256"
        }
      ],
      "payable": false,
      "stateMutability": "view",
      "type": "function"
    },
    {
      "constant": true,
      "inputs": [],
      "name": "currentValidatorSetTotalStake",
      "outputs": [
        {
          "internalType": "uint256",
          "name": "",
          "type": "uint256"
        }
      ],
      "payable": false,
      "stateMutability": "view",
      "type": "function"
    },
    {
      "constant": true,
      "inputs": [
        {
          "internalType": "uint256",
          "name": "validatorId",
          "type": "uint256"
        }
      ],
      "name": "getValidatorContract",
      "outputs": [
        {
          "internalType": "address",
          "name": "",
          "type": "address"
        }
      ],
      "payable": false,
      "stateMutability": "view",
      "type": "function"
    },
    {
      "constant": true,
      "inputs": [
        {
          "internalType": "uint256",
          "name": "validatorId",
          "type": "uint256"
        }
      ],
      "name": "isValidator",
      "outputs": [
        {
          "internalType": "bool",
          "name": "",
          "type": "bool"
        }
      ],
      "payable": false,
      "stateMutability": "view",
      "type": "function"
    },
    {
      "constant": false,
      "inputs": [
        {
          "internalType": "uint256",
          "name": "blockInterval",
          "type": "uint256"
        },
        {
          "internalType": "bytes32",
          "name": "voteHash",
          "type": "bytes32"
        },
        {
          "internalType": "bytes32",
          "name": "stateRoot",
          "type": "bytes32"
        },
        {
          "internalType": "address",
          "name": "proposer",
          "type": "address"
        },
        {
          "internalType": "bytes",
          "name": "sigs",
          "type": "bytes"
        }
      ],
      "name": "checkSignatures",
      "outputs": [
        {
          "internalType": "uint256",
          "name": "",
          "type": "uint256"
        }
      ],
      "payable": false,
      "stateMutability": "nonpayable",
      "type": "function"
    },
    {
      "constant": false,
      "inputs": [
        {
          "internalType": "bytes",
          "name": "_slashingInfoList",
          "type": "bytes"
        }
      ],
      "name": "slash",
      "outputs": [
        {
          "internalType": "uint256",
          "name": "",
          "type": "uint256"
        }
      ],
      "payable": false,
      "stateMutability": "nonpayable",
      "type": "function"
    },
    {
      "constant": false,
      "inputs": [
        {
          "internalType": "uint256",
          "name": "validatorId",
          "type": "uint256"
        }
      ],
      "name": "unjail",
      "outputs": [],
      "payable": false,
      "stateMutability": "nonpayable",
      "type": "function"
    },
    {
      "constant": false,
      "inputs": [
        {
          "internalType": "address",
          "name": "_NFTContract",
          "type": "address"
        },
        {
          "internalType": "address",
          "name": "_stakingLogger",
          "type": "address"
        },
        {
          "internalType": "address",
          "name": "_validatorShareFactory",
          "type": "address"
        }
      ],
      "name": "reinitialize",
      "outputs": [],
      "payable": false,
      "stateMutability": "nonpayable",
      "type": "function"
    },
    {
      "constant": false,
      "inputs": [
        {
          "internalType": "bool",
          "name": "delegation",
          "type": "bool"
        }
      ],
      "name": "updateValidatorDelegation",
      "outputs": [],
      "payable": false,
      "stateMutability": "nonpayable",
      "type": "function"
    }
  ],
  "bytecode": "0x60806040526023805460ff1916905534801561001a57600080fd5b5060008054610100600160a81b0319168155600180546001600160a01b0319163317908190556040516001600160a01b039190911691907f8be0079c531659141344cd1fd0a4f28419497f9722a3daafe3b4186f6b6457e0908290a3615c3980620000866000396000f3fe608060405234801561001057600080fd5b50600436106104ac5760003560e01c80637b1039991161026d578063bc8756a911610151578063e8afa8e8116100ce578063f41a964211610092578063f41a96421461106e578063f4547a4d14611119578063f771fc8714611145578063f83d08ba14611162578063fba58f341461116a578063fc0c546a14611172576104ac565b8063e8afa8e814610fde578063eceec1d314611004578063f24ccbfe14611021578063f28699fa14611029578063f2fde38b14611048576104ac565b8063d6de07d011610115578063d6de07d014610f60578063d7f5549d14610f7f578063d86d53e714610f9c578063e59ee0c614610fb9578063e6692f4914610fc1576104ac565b8063bc8756a914610ef9578063c45a015514610f2b578063cbf383d514610f33578063cd6b838814610f50578063cf30901214610f58576104ac565b8063987ab9db116101ea578063a440ab1e116101ae578063a440ab1e14610e1e578063a476907114610e3b578063a685487714610e43578063a69df4b514610ec6578063a7ab696114610ece578063b1d23f0214610ed6576104ac565b8063987ab9db14610dab57806399d18f6f14610db35780639a8a624314610dd65780639b33f43414610dde5780639ff1150014610dfb576104ac565b80638da5cb5b116102315780638da5cb5b14610d595780638f32d59b14610d61578063900cf0cf14610d695780639146014914610d715780639342c8f414610d8e576104ac565b80637b10399914610cda5780637d66975214610ce25780637f952d9514610cea578063817b1cd214610cf25780638a29e2de14610cfa576104ac565b806341b3d185116103945780635e47655f116103115780636901b253116102d55780636901b25314610c625780637060054d14610c94578063715018a614610c9c5780637667180814610ca457806377939d1014610cac57806378f84a4414610cb4576104ac565b80635e47655f14610a8d5780636352211e14610b315780636365679814610b4e5780636400e38514610b7a57806368cb812a14610bb2576104ac565b80635325e144116103585780635325e1441461099157806354b8c60114610a585780635508d8e114610a6057806356342d8c14610a685780635aa6e67514610a85576104ac565b806341b3d1851461088c5780634b341aed146108945780634e3c83f1146108ba5780634fd101d7146108c25780634fdd20f1146108ca576104ac565b806317c2b9101161042d57806328cc4e41116103f157806328cc4e411461075c5780632e17de781461078757806331c2273b146107a457806334274586146107c857806335aa2e44146107d05780633862da0b14610866576104ac565b806317c2b910146106c85780631dd6b9b1146106d057806325316411146106ed57806325726df2146106f55780632649263a1461072b576104ac565b80630ebb172a116104745780630ebb172a1461063a578063144fa6d71461064257806316827b1b14610668578063174e683214610685578063178c2c83146106ab576104ac565b8063028c4c67146104b1578063066647a01461053657806306cfb1041461060d5780630cccfc581461062a5780630e15561a14610632575b600080fd5b610534600480360360808110156104c757600080fd5b813591602081013591604082013515159190810190608081016060820135600160201b8111156104f657600080fd5b82018360208201111561050857600080fd5b803590602001918460018302840111600160201b8311171561052957600080fd5b50909250905061117a565b005b6105fb600480360360a081101561054c57600080fd5b8135916020810135916040820135916001600160a01b036060820135169181019060a081016080820135600160201b81111561058757600080fd5b82018360208201111561059957600080fd5b803590602001918460018302840111600160201b831117156105ba57600080fd5b91908080601f0160208091040260200160405190810160405280939291908181526020018383808284376000920191909152509295506111c4945050505050565b60408051918252519081900360200190f35b6105346004803603602081101561062357600080fd5b503561133d565b6105fb611390565b6105fb611396565b6105fb61139c565b6105346004803603602081101561065857600080fd5b50356001600160a01b03166113a2565b6105346004803603602081101561067e57600080fd5b5035611425565b6105fb6004803603602081101561069b57600080fd5b50356001600160a01b03166114f7565b610534600480360360208110156106c157600080fd5b5035611581565b6105fb61183e565b610534600480360360208110156106e657600080fd5b5035611844565b6105fb611897565b6107126004803603602081101561070b57600080fd5b503561189d565b6040805192835260208301919091528051918290030190f35b6107486004803603602081101561074157600080fd5b50356118b6565b604080519115158252519081900360200190f35b6105346004803603606081101561077257600080fd5b50803590602081013590604001351515611937565b6105346004803603602081101561079d57600080fd5b5035611c78565b6107ac611da4565b604080516001600160a01b039092168252519081900360200190f35b6105fb611db3565b6107ed600480360360208110156107e657600080fd5b5035611db9565b60405180898152602001888152602001878152602001868152602001858152602001846001600160a01b03166001600160a01b03168152602001836001600160a01b03166001600160a01b0316815260200182600381111561084b57fe5b60ff1681526020019850505050505050505060405180910390f35b6105fb6004803603602081101561087c57600080fd5b50356001600160a01b0316611e0f565b6105fb611e21565b6105fb600480360360208110156108aa57600080fd5b50356001600160a01b0316611e27565b6105fb611f5e565b6105fb611f64565b610534600480360360a08110156108e057600080fd5b6001600160a01b0382351691602081013591604082013591606081013515159181019060a081016080820135600160201b81111561091d57600080fd5b82018360208201111561092f57600080fd5b803590602001918460018302840111600160201b8311171561095057600080fd5b91908080601f016020809104026020016040519081016040528093929190818152602001838380828437600092019190915250929550611f6a945050505050565b6109ae600480360360208110156109a757600080fd5b503561202e565b60405180868152602001858152602001846001600160a01b03166001600160a01b031681526020018315151515815260200180602001828103825283818151815260200191508051906020019080838360005b83811015610a19578181015183820152602001610a01565b50505050905090810190601f168015610a465780820380516001836020036101000a031916815260200191505b50965050505050505060405180910390f35b6107486120f4565b6105fb6120fd565b6107ac60048036036020811015610a7e57600080fd5b5035612103565b6107ac612121565b6105fb60048036036020811015610aa357600080fd5b810190602081018135600160201b811115610abd57600080fd5b820183602082011115610acf57600080fd5b803590602001918460018302840111600160201b83111715610af057600080fd5b91908080601f016020809104026020016040519081016040528093929190818152602001838380828437600092019190915250929550612135945050505050565b6107ac60048036036020811015610b4757600080fd5b50356123fe565b61053460048036036040811015610b6457600080fd5b506001600160a01b03813516906020013561244a565b61053460048036036060811015610b9057600080fd5b506001600160a01b038135811691602081013582169160409091013516612462565b61053460048036036060811015610bc857600080fd5b813591602081013591810190606081016040820135600160201b811115610bee57600080fd5b820183602082011115610c0057600080fd5b803590602001918460018302840111600160201b83111715610c2157600080fd5b91908080601f0160208091040260200160405190810160405280939291908181526020018383808284376000920191909152509295506124ef945050505050565b61074860048036036060811015610c7857600080fd5b50803590602081013590604001356001600160a01b0316612726565b6105fb61281f565b610534612825565b6105fb612880565b6105fb612886565b6105fb60048036036020811015610cca57600080fd5b50356001600160a01b031661288c565b6107ac61289e565b6105fb6128ad565b6105fb6128b3565b6105fb6128ba565b6105346004803603610100811015610d1157600080fd5b506001600160a01b038135811691602081013582169160408201358116916060810135821691608082013581169160a081013582169160c082013581169160e00135166128c0565b6107ac612a09565b610748612a18565b6105fb612a29565b61053460048036036020811015610d8757600080fd5b5035612a2f565b61053460048036036020811015610da457600080fd5b5035612a8c565b6107ac612b43565b61053460048036036040811015610dc957600080fd5b5080359060200135612b52565b6105fb613048565b61053460048036036020811015610df457600080fd5b503561304e565b61053460048036036040811015610e1157600080fd5b5080359060200135613150565b61053460048036036020811015610e3457600080fd5b503561321e565b6105fb6132c6565b61053460048036036080811015610e5957600080fd5b813591602081013591604082013515159190810190608081016060820135600160201b811115610e8857600080fd5b820183602082011115610e9a57600080fd5b803590602001918460018302840111600160201b83111715610ebb57600080fd5b5090925090506132cc565b61053461384d565b6105fb6138a5565b61053460048036036040811015610eec57600080fd5b50803590602001356138ab565b61074860048036036060811015610f0f57600080fd5b50803590602081013590604001356001600160a01b0316613904565b6107ac613a44565b61053460048036036020811015610f4957600080fd5b5035613a53565b6105fb613b25565b610748613b2b565b61053460048036036020811015610f7657600080fd5b50351515613b34565b6105fb60048036036020811015610f9557600080fd5b5035613c5c565b61053460048036036020811015610fb257600080fd5b5035613c6e565b610712613edf565b61053460048036036020811015610fd757600080fd5b5035613ee8565b61053460048036036020811015610ff457600080fd5b50356001600160a01b0316613fea565b6105fb6004803603602081101561101a57600080fd5b503561406a565b6107ac61407c565b6105346004803603602081101561103f57600080fd5b5035151561408b565b6105346004803603602081101561105e57600080fd5b50356001600160a01b03166140ec565b6105346004803603604081101561108457600080fd5b81359190810190604081016020820135600160201b8111156110a557600080fd5b8201836020820111156110b757600080fd5b803590602001918460018302840111600160201b831117156110d857600080fd5b91908080601f016020809104026020016040519081016040528093929190818152602001838380828437600092019190915250929550614106945050505050565b6105346004803603604081101561112f57600080fd5b50803590602001356001600160a01b031661435f565b6105346004803603602081101561115b57600080fd5b5035614492565b6105346144f3565b6105fb614549565b6107ac61454f565b6111bd3386868686868080601f016020809104026020016040519081016040528093929190818152602001838380828437600092019190915250611f6a92505050565b5050505050565b6002546000906001600160a01b031633146111de57600080fd5b6000611207600e546111fb600b548a61455e90919063ffffffff16565b9063ffffffff61458e16565b9050611215600b54826145b0565b9050600061123360646111fb6016548561455e90919063ffffffff16565b6001600160a01b038087166000908152601b60209081526040808320548352601a909152902060068101549293509116156112dd5760068101548154604080516301a6632160e31b8152600481018690526024810192909252516001600160a01b0390921691630d3319089160448082019260009290919082900301818387803b1580156112c057600080fd5b505af11580156112d4573d6000803e3d6000fd5b505050506112f8565b60018101546112f2908363ffffffff6145c616565b60018201555b611308838363ffffffff6145d816565b925060006113146132c6565b601789905590506113236145ed565b61132f81858b89614662565b9a9950505050505050505050565b60005461010090046001600160a01b0316331461138b5760405162461bcd60e51b8152600401808060200182810382526026815260200180615bb96026913960400191505060405180910390fd5b600f55565b60155481565b60135481565b60085481565b60005461010090046001600160a01b031633146113f05760405162461bcd60e51b8152600401808060200182810382526026815260200180615bb96026913960400191505060405180910390fd5b6001600160a01b03811661140357600080fd5b600380546001600160a01b0319166001600160a01b0392909216919091179055565b60005461010090046001600160a01b031633146114735760405162461bcd60e51b8152600401808060200182810382526026815260200180615bb96026913960400191505060405180910390fd5b6000811161148057600080fd5b60055460105460408051630f1980a560e41b8152600481018590526024810192909252516001600160a01b039092169163f1980a509160448082019260009290919082900301818387803b1580156114d757600080fd5b505af11580156114eb573d6000803e3d6000fd5b50505060109190915550565b60065460408051632f745c5960e01b81526001600160a01b038481166004830152600060248301819052925192931691632f745c5991604480820192602092909190829003018186803b15801561154d57600080fd5b505afa158015611561573d6000803e3d6000fd5b505050506040513d602081101561157757600080fd5b505190505b919050565b8061158b8161499e565b60026000838152601a6020526040902060060154600160a01b900460ff1660038111156115b457fe5b14611606576040805162461bcd60e51b815260206004820152601760248201527f56616c696461746f72206973206e6f74206a61696c6564000000000000000000604482015290519081900360640190fd5b6000828152601a60205260409020600301541561166a576040805162461bcd60e51b815260206004820152601b60248201527f56616c696461746f7220616c726561647920756e7374616b696e670000000000604482015290519081900360640190fd5b6009546000838152601a60205260409020600401548110156116cc576040805162461bcd60e51b8152602060048201526016602482015275125b98dbdb5c1b195d19481a985a5b081c195c9a5bd960521b604482015290519081900360640190fd5b6000838152601a6020526040902054600c548110156116ea57600080fd5b6000848152601a60205260408120600601546001600160a01b03161561178e576000858152601a602090815260408083206006015481516322f0f2f960e01b815291516001600160a01b03909116936322f0f2f993600480850194919392918390030190829087803b15801561175f57600080fd5b505af1158015611773573d6000803e3d6000fd5b505050506040513d602081101561178957600080fd5b505190505b6117aa6117a1838363ffffffff6145c616565b60016000614a28565b6000858152601a602052604080822060068101805460ff60a01b1916600160a01b17905560058054910154825163f92ec5af60e01b8152600481018a90526001600160a01b039182166024820152925191169263f92ec5af926044808201939182900301818387803b15801561181f57600080fd5b505af1158015611833573d6000803e3d6000fd5b505050505050505050565b60175481565b60005461010090046001600160a01b031633146118925760405162461bcd60e51b8152600401808060200182810382526026815260200180615bb96026913960400191505060405180910390fd5b600955565b600e5481565b601e602052600090815260409020805460019091015482565b6000818152601a6020526040812060028101546003820154825460069093015460095492939192600160a01b90910460ff16908215801590611902575084158015906119025750808511155b8015611915575083158061191557508084115b801561192c5750600182600381111561192a57fe5b145b979650505050505050565b61193f614ae4565b826119498161499e565b6000848152601a6020526040902060030154156119a3576040805162461bcd60e51b81526020600482015260136024820152724e6f20757365206f662072657374616b696e6760681b604482015290519081900360640190fd5b8215611a7857600354604080516323b872dd60e01b81523360048201523060248201526044810186905290516001600160a01b03909216916323b872dd916064808201926020929091908290030181600087803b158015611a0357600080fd5b505af1158015611a17573d6000803e3d6000fd5b505050506040513d6020811015611a2d57600080fd5b5051611a78576040805162461bcd60e51b8152602060048201526015602482015274151c985b9cd9995c881cdd185ad94819985a5b1959605a1b604482015290519081900360640190fd5b8115611b53576000848152601a6020526040902060010154611aa190849063ffffffff6145c616565b6000858152601a60205260409020600601549093506001600160a01b03168015611b3f57611b3c816001600160a01b03166332ba2e536040518163ffffffff1660e01b8152600401602060405180830381600087803b158015611b0357600080fd5b505af1158015611b17573d6000803e3d6000fd5b505050506040513d6020811015611b2d57600080fd5b5051859063ffffffff6145c616565b93505b506000848152601a60205260408120600101555b601154600090611b69908563ffffffff6145c616565b60118190556000868152601a6020526040902054909150611b90908563ffffffff6145c616565b6000868152601a6020526040812091909155611bae90859080614a28565b6005546040805163532e19a960e01b81526004810188905290516001600160a01b039092169163532e19a99160248082019260009290919082900301818387803b158015611bfb57600080fd5b505af1158015611c0f573d6000803e3d6000fd5b50506005546000888152601a6020526040808220548151631585a9f360e21b8152600481018c905260248101919091526044810187905290516001600160a01b039093169450635616a7cc93506064808201939182900301818387803b15801561181f57600080fd5b80611c828161499e565b600082815260208052604090205415611ce2576040805162461bcd60e51b815260206004820152601b60248201527f5761697420666f722061756374696f6e20636f6d706c6574696f6e0000000000604482015290519081900360640190fd5b6000828152601a602052604090206002015415801590611d1157506000828152601a6020526040902060030154155b8015611d73575060016000838152601a6020526040902060060154600160a01b900460ff166003811115611d4157fe5b1480611d73575060026000838152601a6020526040902060060154600160a01b900460ff166003811115611d7157fe5b145b611d7c57600080fd5b600954600090611d9390600163ffffffff6145c616565b9050611d9f8382614b25565b505050565b6006546001600160a01b031681565b60165481565b601a602052600090815260409020805460018201546002830154600384015460048501546005860154600690960154949593949293919290916001600160a01b039081169190811690600160a01b900460ff1688565b601b6020526000908152604090205481565b600c5481565b60006001600160a01b0382161580611eb55750600654604080516370a0823160e01b81526001600160a01b038581166004830152915191909216916370a08231916024808301926020929190829003018186803b158015611e8757600080fd5b505afa158015611e9b573d6000803e3d6000fd5b505050506040513d6020811015611eb157600080fd5b5051155b15611ec25750600061157c565b60065460408051632f745c5960e01b81526001600160a01b0385811660048301526000602483018190529251601a949190911691632f745c59916044808301926020929190829003018186803b158015611f1b57600080fd5b505afa158015611f2f573d6000803e3d6000fd5b505050506040513d6020811015611f4557600080fd5b5051815260208101919091526040016000205492915050565b600f5481565b60105481565b611f72614ae4565b601054611f7d6128b3565b10611fb95760405162461bcd60e51b8152600401808060200182810382526021815260200180615b746021913960400191505060405180910390fd5b600c54841161200f576040805162461bcd60e51b815260206004820152601960248201527f6d696e206465706f736974206c696d6974206661696c65642100000000000000604482015290519081900360640190fd5b61201a858486614cd7565b61202685858484614e97565b505050505050565b60208080526000918252604091829020805460018083015460028085015460038601805489516101009682161596909602600019011692909204601f8101889004880285018801909852878452939691956001600160a01b03851695600160a01b90950460ff16949392908301828280156120ea5780601f106120bf576101008083540402835291602001916120ea565b820191906000526020600020905b8154815290600101906020018083116120cd57829003601f168201915b5050505050905085565b60195460ff1681565b60125481565b6000908152601a60205260409020600601546001600160a01b031690565b60005461010090046001600160a01b031681565b6004805460408051631ab0168360e31b8152905160009333936001600160a01b03169263d580b4189281830192602092829003018186803b15801561217957600080fd5b505afa15801561218d573d6000803e3d6000fd5b505050506040513d60208110156121a357600080fd5b50516001600160a01b031614612200576040805162461bcd60e51b815260206004820181905260248201527f53656e646572206d75737420626520736c617368696e67206d616e6167657221604482015290519081900360640190fd5b606061221361220e846152ad565b6152d2565b905060008080805b84518110156123d357606061224286838151811061223557fe5b60200260200101516152d2565b905060006122638260008151811061225657fe5b60200260200101516153a3565b905060006122778360018151811061225657fe5b9050612289858263ffffffff6145c616565b6000838152601a60205260409020600601549095506001600160a01b031615612351576000828152601a602090815260408083206006810154905482516314454c8560e31b815260048101919091526024810186905291516001600160a01b039091169263a22a6428926044808201939182900301818787803b15801561230f57600080fd5b505af1158015612323573d6000803e3d6000fd5b505050506040513d602081101561233957600080fd5b5051905061234d828263ffffffff6145d816565b9150505b6000828152601a6020526040902054612370908263ffffffff6145d816565b6000838152601a6020526040902055825161239f908490600290811061239257fe5b6020026020010151615403565b156123c8576123bf6123b2836001615437565b879063ffffffff6145c616565b60019097019695505b50505060010161221b565b506123f56123e7828463ffffffff6145c616565b600003846000036000614a28565b95945050505050565b600654604080516331a9108f60e11b81526004810184905290516000926001600160a01b031691636352211e916024808301926020929190829003018186803b15801561154d57600080fd5b612452614ae4565b61245e82826000614cd7565b5050565b60005461010090046001600160a01b031633146124b05760405162461bcd60e51b8152600401808060200182810382526026815260200180615bb96026913960400191505060405180910390fd5b600680546001600160a01b039485166001600160a01b031991821617909155600580549385169382169390931790925560078054919093169116179055565b60408051336020808301919091528183018690528251808303840181526060830193849052805190820120601754631b23d15760e21b909452606483018181526084840187905260a48401859052608060c48501908152865160e4860152865173__Merkle________________________________96636c8f455c9694958a9591948a9490939092610104019185019080838360005b8381101561259d578181015183820152602001612585565b50505050905090810190601f1680156125ca5780820380516001836020036101000a031916815260200191505b509550505050505060206040518083038186803b1580156125ea57600080fd5b505af41580156125fe573d6000803e3d6000fd5b505050506040513d602081101561261457600080fd5b5051612659576040805162461bcd60e51b815260206004820152600f60248201526e2bb937b7339030b1b190383937b7b360891b604482015290519081900360640190fd5b336000908152601f602052604081205461267a90859063ffffffff6145d816565b905061268633826155ac565b336000818152601f60209081526040808320889055600354815163a9059cbb60e01b815260048101959095526024850186905290516001600160a01b039091169363a9059cbb9360448083019493928390030190829087803b1580156126eb57600080fd5b505af11580156126ff573d6000803e3d6000fd5b505050506040513d602081101561271557600080fd5b505161272057600080fd5b50505050565b6000838152601a60205260408120600601546001600160a01b0316331461278f576040805162461bcd60e51b8152602060048201526018602482015277496e76616c696420636f6e7472616374206164647265737360401b604482015290519081900360640190fd5b600354604080516323b872dd60e01b81526001600160a01b03858116600483015230602483015260448201879052915191909216916323b872dd9160648083019260209291908290030181600087803b1580156127eb57600080fd5b505af11580156127ff573d6000803e3d6000fd5b505050506040513d602081101561281557600080fd5b5051949350505050565b600a5481565b61282d612a18565b61283657600080fd5b6001546040516000916001600160a01b0316907f8be0079c531659141344cd1fd0a4f28419497f9722a3daafe3b4186f6b6457e0908390a3600180546001600160a01b0319169055565b60095481565b60185481565b601f6020526000908152604090205481565b6004546001600160a01b031681565b600b5481565b601d545b90565b60115481565b60235460ff1615612909576040805162461bcd60e51b815260206004820152600e60248201526d185b1c9958591e481a5b9a5d195960921b604482015290519081900360640190fd5b60238054600160ff1990911617905560008054610100600160a81b0319166101006001600160a01b038581169190910291909117909155600480546001600160a01b03199081168b8416179091556002805482168a8416179055600380548216898416179055600680548216888416179055600580548216878416179055600780549091169185169190911790556129a08161562b565b5050612000600855505060016009819055610376600a90815569044664c7bf6451f00000600b55670de0b6b3a7640000600c819055600d55610400600e556064600f55600760105560128290556108006015556016556019805460ff1916909117905550505050565b6001546001600160a01b031690565b6001546001600160a01b0316331490565b60095490565b60005461010090046001600160a01b03163314612a7d5760405162461bcd60e51b8152600401808060200182810382526026815260200180615bb96026913960400191505060405180910390fd5b612a8981600954614b25565b50565b80612a968161499e565b6000828152601a6020526040902060018101546006909101546001600160a01b03168015612b3857612b35816001600160a01b03166332ba2e536040518163ffffffff1660e01b8152600401602060405180830381600087803b158015612afc57600080fd5b505af1158015612b10573d6000803e3d6000fd5b505050506040513d6020811015612b2657600080fd5b5051839063ffffffff6145c616565b91505b61272084338461569a565b6002546001600160a01b031681565b612b5a614ae4565b6000828152602080526040902060028101546001600160a01b031633811480612b8a575083612b88336114f7565b145b612bc55760405162461bcd60e51b8152600401808060200182810382526024815260200180615b956024913960400191505060405180910390fd5b600954601554600a54612bdf90829063ffffffff6145c616565b6001850154612bf590849063ffffffff6145d816565b81612bfc57fe5b061015612c50576040805162461bcd60e51b815260206004820181905260248201527f4e6f7420616c6c6f776564206265666f72652061756374696f6e506572696f64604482015290519081900360640190fd5b60028301546001600160a01b0316612ca1576040805162461bcd60e51b815260206004820152600f60248201526e24b73b30b634b21030bab1ba34b7b760891b604482015290519081900360640190fd5b6000858152601a6020526040902080548454600690920154909182916001600160a01b03168015612d4457612d41816001600160a01b031663a446c2db6040518163ffffffff1660e01b815260040160206040518083038186803b158015612d0857600080fd5b505afa158015612d1c573d6000803e3d6000fd5b505050506040513d6020811015612d3257600080fd5b5051849063ffffffff6145c616565b92505b818310158015612d6357506000898152601a6020526040902060030154155b15612eae576003546040805163a9059cbb60e01b81526001600160a01b038981166004830152602482018690529151919092169163a9059cbb9160448083019260209291908290030181600087803b158015612dbe57600080fd5b505af1158015612dd2573d6000803e3d6000fd5b505050506040513d6020811015612de857600080fd5b5051612e2f576040805162461bcd60e51b8152602060048201526011602482015270109a59081c995d1d5c9b8819985a5b1959607a1b604482015290519081900360640190fd5b600187018590556005546040805163e12ab1af60e01b8152600481018c9052602481018c90526044810187905290516001600160a01b039092169163e12ab1af9160648082019260009290919082900301818387803b158015612e9157600080fd5b505af1158015612ea5573d6000803e3d6000fd5b50505050612fe9565b612eba86896000614cd7565b612ec48986614b25565b6002878101546003890180546040805160206101006001851615026000190190931695909504601f8101839004830286018301909152808552600094612f71948c948994600160a01b90920460ff16939091830182828015612f675780601f10612f3c57610100808354040283529160200191612f67565b820191906000526020600020905b815481529060010190602001808311612f4a57829003601f168201915b5050505050614e97565b6005546040805163e12ab1af60e01b815260048101849052602481018e90526044810187905290519293506001600160a01b039091169163e12ab1af9160648082019260009290919082900301818387803b158015612fcf57600080fd5b505af1158015612fe3573d6000803e3d6000fd5b50505050505b60018088015460008b815260208052604081208181559283018190556002830180546001600160a81b03191690559091906130276003830182615a7d565b50506000998a52602080526040909920600101989098555050505050505050565b60225481565b60005461010090046001600160a01b0316331461309c5760405162461bcd60e51b8152600401808060200182810382526026815260200180615bb96026913960400191505060405180910390fd5b6005546016546040805163a3b1d8cb60e01b8152600481018590526024810192909252516001600160a01b039092169163a3b1d8cb9160448082019260009290919082900301818387803b1580156130f357600080fd5b505af1158015613107573d6000803e3d6000fd5b50505050606481111561314b576040805162461bcd60e51b8152602060048201526007602482015266746f6f2062696760c81b604482015290519081900360640190fd5b601655565b60008113156131a95760195460ff166131a9576040805162461bcd60e51b815260206004820152601660248201527511195b1959d85d1a5bdb881a5cc8191a5cd8589b195960521b604482015290519081900360640190fd5b6000828152601a60205260409020600601546001600160a01b03163314613212576040805162461bcd60e51b8152602060048201526018602482015277496e76616c696420636f6e7472616374206164647265737360401b604482015290519081900360640190fd5b61245e81600080614a28565b60005461010090046001600160a01b0316331461326c5760405162461bcd60e51b8152600401808060200182810382526026815260200180615bb96026913960400191505060405180910390fd5b600081116132c1576040805162461bcd60e51b815260206004820181905260248201527f426c6f636b7320696e74657276616c206d757374206265206e6f6e2d7a65726f604482015290519081900360640190fd5b600e55565b601c5490565b6132d4614ae4565b6000858152601a6020526040902080546003909101541580156132f657508015155b613347576040805162461bcd60e51b815260206004820181905260248201527f496e76616c69642076616c696461746f7220666f7220616e2061756374696f6e604482015290519081900360640190fd5b336000818152601b60209081526040918290205460065483516370a0823160e01b81526004810195909552925190936001600160a01b03909316926370a08231926024808301939192829003018186803b1580156133a457600080fd5b505afa1580156133b8573d6000803e3d6000fd5b505050506040513d60208110156133ce57600080fd5b50511580156133df57506000198114155b613427576040805162461bcd60e51b8152602060048201526014602482015273416c72656164792075736564206164647265737360601b604482015290519081900360640190fd5b60095460185480158061343a5750818111155b61347d576040805162461bcd60e51b815260206004820152600f60248201526e10dbdbdb191bdddb881c195c9a5bd9608a1b604482015290519081900360640190fd5b601554600a54613493908263ffffffff6145c616565b60008b8152601a60205260409020600201546134b690859063ffffffff6145d816565b816134bd57fe5b0610613509576040805162461bcd60e51b8152602060048201526016602482015275125b9d985b1a5908185d58dd1a5bdb881c195c9a5bd960521b604482015290519081900360640190fd5b6000898152601a602052604090206006015484906001600160a01b0316801561357f5761357c816001600160a01b031663a446c2db6040518163ffffffff1660e01b815260040160206040518083038186803b15801561356857600080fd5b505afa158015612b10573d6000803e3d6000fd5b91505b60008b81526020805260409020805461359884826157ec565b93508b84106135e0576040805162461bcd60e51b815260206004820152600f60248201526e26bab9ba103134b2103434b3b432b960891b604482015290519081900360640190fd5b600354604080516323b872dd60e01b8152336004820152306024820152604481018f905290516001600160a01b03909216916323b872dd916064808201926020929091908290030181600087803b15801561363a57600080fd5b505af115801561364e573d6000803e3d6000fd5b505050506040513d602081101561366457600080fd5b50516136b0576040805162461bcd60e51b8152602060048201526016602482015275151c985b9cd9995c88185b5bdd5b9d0819985a5b195960521b604482015290519081900360640190fd5b80156137825760035460028301546040805163a9059cbb60e01b81526001600160a01b039283166004820152602481018590529051919092169163a9059cbb9160448083019260209291908290030181600087803b15801561371157600080fd5b505af1158015613725573d6000803e3d6000fd5b505050506040513d602081101561373b57600080fd5b5051613782576040805162461bcd60e51b8152602060048201526011602482015270109a59081c995d1d5c9b8819985a5b1959607a1b604482015290519081900360640190fd5b8b8255600282018054336001600160a01b03199091161760ff60a01b1916600160a01b8d1515021790556137ba600383018b8b615ac1565b50600560009054906101000a90046001600160a01b03166001600160a01b0316630934a6df8e8a8f6040518463ffffffff1660e01b8152600401808481526020018381526020018281526020019350505050600060405180830381600087803b15801561382657600080fd5b505af115801561383a573d6000803e3d6000fd5b5050505050505050505050505050505050565b60005461010090046001600160a01b0316331461389b5760405162461bcd60e51b8152600401808060200182810382526026815260200180615bb96026913960400191505060405180910390fd5b6138a36157fc565b565b60085490565b60005461010090046001600160a01b031633146138f95760405162461bcd60e51b8152600401808060200182810382526026815260200180615bb96026913960400191505060405180910390fd5b600c91909155600d55565b6004805460408051631ab0168360e31b8152905160009333936001600160a01b03169263d580b4189281830192602092829003018186803b15801561394857600080fd5b505afa15801561395c573d6000803e3d6000fd5b505050506040513d602081101561397257600080fd5b50516001600160a01b031614806139a257506000848152601a60205260409020600601546001600160a01b031633145b6139ee576040805162461bcd60e51b8152602060048201526018602482015277496e76616c696420636f6e7472616374206164647265737360401b604482015290519081900360640190fd5b6003546040805163a9059cbb60e01b81526001600160a01b038581166004830152602482018790529151919092169163a9059cbb9160448083019260209291908290030181600087803b1580156127eb57600080fd5b6007546001600160a01b031681565b60005461010090046001600160a01b03163314613aa15760405162461bcd60e51b8152600401808060200182810382526026815260200180615bb96026913960400191505060405180910390fd5b60008111613aae57600080fd5b600554600b5460408051632dbe9d3160e21b8152600481018590526024810192909252516001600160a01b039092169163b6fa74c49160448082019260009290919082900301818387803b158015613b0557600080fd5b505af1158015613b19573d6000803e3d6000fd5b505050600b9190915550565b60145481565b60005460ff1681565b336000908152601b6020526040902054613b4d816118b6565b613b90576040805162461bcd60e51b815260206004820152600f60248201526e3737ba1030903b30b634b230ba37b960891b604482015290519081900360640190fd5b6000818152601a60205260409020600601546001600160a01b031680613bf6576040805162461bcd60e51b815260206004820152601660248201527519195b1959d85d1a5bdb881b9bdd08195b98589b195960521b604482015290519081900360640190fd5b604080516303dd464160e51b8152841515600482015290516001600160a01b03831691637ba8c82091602480830192600092919082900301818387803b158015613c3f57600080fd5b505af1158015613c53573d6000803e3d6000fd5b50505050505050565b60216020526000908152604090205481565b80613c788161499e565b6000828152601a60205260409020600301548015801590613cae5750600954600854613cab90839063ffffffff6145c616565b11155b8015613ce1575060036000848152601a6020526040902060060154600160a01b900460ff166003811115613cde57fe5b14155b613cea57600080fd5b6000838152601a6020526040812054601154909190613d0f908363ffffffff6145d816565b601181905560065460408051630852cd8d60e31b81526004810189905290519293506001600160a01b03909116916342966c689160248082019260009290919082900301818387803b158015613d6457600080fd5b505af1158015613d78573d6000803e3d6000fd5b5050506000868152601a6020818152604080842060058101546001600160a01b039081168652601b845282862060001990558b8652938352600601805460ff60a01b1916600360a01b179055600354815163a9059cbb60e01b81523360048201526024810189905291519316945063a9059cbb93604480830194928390030190829087803b158015613e0957600080fd5b505af1158015613e1d573d6000803e3d6000fd5b505050506040513d6020811015613e3357600080fd5b5051613e7e576040805162461bcd60e51b8152602060048201526015602482015274151c985b9cd9995c881cdd185ad94819985a5b1959605a1b604482015290519081900360640190fd5b6005546040805163ae2e26b160e01b815233600482015260248101889052604481018590526064810184905290516001600160a01b039092169163ae2e26b19160848082019260009290919082900301818387803b15801561181f57600080fd5b601c54601d5482565b60005461010090046001600160a01b03163314613f365760405162461bcd60e51b8152600401808060200182810382526026815260200180615bb96026913960400191505060405180910390fd5b60008111613f4357600080fd5b600554600a5460408051635071805360e11b8152600481018590526024810192909252516001600160a01b039092169163a0e300a69160448082019260009290919082900301818387803b158015613f9a57600080fd5b505af1158015613fae573d6000803e3d6000fd5b505050600a829055506008819055613fcd81600463ffffffff61458e16565b6015819055600954613fe49163ffffffff6145c616565b60185550565b613ff2612a18565b613ffb57600080fd5b6001600160a01b03811661400e57600080fd5b6002546040516001600160a01b038084169216907f211c9015fc81c0dbd45bd99f0f29fc1c143bfd53442d5ffd722bbbef7a887fe990600090a3600280546001600160a01b0319166001600160a01b0392909216919091179055565b6000908152601a602052604090205490565b6005546001600160a01b031681565b60005461010090046001600160a01b031633146140d95760405162461bcd60e51b8152600401808060200182810382526026815260200180615bb96026913960400191505060405180910390fd5b6019805460ff1916911515919091179055565b6140f4612a18565b6140fd57600080fd5b612a898161562b565b816141108161499e565b600061411b83615808565b90506001600160a01b0381161580159061414b57506001600160a01b0381166000908152601b6020526040902054155b61418d576040805162461bcd60e51b815260206004820152600e60248201526d24b73b30b634b21039b4b3b732b960911b604482015290519081900360640190fd5b600954600f546000868152602160205260409020546141b19163ffffffff6145c616565b811015614205576040805162461bcd60e51b815260206004820152601a60248201527f496e76616c696420636865636b706f696e74206e756d62657221000000000000604482015290519081900360640190fd5b6000858152601a602090815260408083206005908101549054915163b80fbce560e01b8152600481018a81526001600160a01b039283166024830181905288841660448401526080606484019081528b5160848501528b519197949095169563b80fbce5958d9589958c958f95909460a490920192918601918190849084905b8381101561429d578181015183820152602001614285565b50505050905090810190601f1680156142ca5780820380516001836020036101000a031916815260200191505b5095505050505050600060405180830381600087803b1580156142ec57600080fd5b505af1158015614300573d6000803e3d6000fd5b5050506001600160a01b039182166000908152601b60209081526040808320600019905595909316808252858220899055978152601a835284812060050180546001600160a01b03191690981790975550602190529320929092555050565b60005461010090046001600160a01b031633146143ad5760405162461bcd60e51b8152600401808060200182810382526026815260200180615bb96026913960400191505060405180910390fd5b306001600160a01b0316816001600160a01b0316638da5cb5b6040518163ffffffff1660e01b815260040160206040518083038186803b1580156143f057600080fd5b505afa158015614404573d6000803e3d6000fd5b505050506040513d602081101561441a57600080fd5b50516001600160a01b0316146144615760405162461bcd60e51b8152600401808060200182810382526026815260200180615bdf6026913960400191505060405180910390fd5b6000918252601a602052604090912060060180546001600160a01b0319166001600160a01b03909216919091179055565b60005461010090046001600160a01b031633146144e05760405162461bcd60e51b8152600401808060200182810382526026815260200180615bb96026913960400191505060405180910390fd5b600954613fe4908263ffffffff6145c616565b60005461010090046001600160a01b031633146145415760405162461bcd60e51b8152600401808060200182810382526026815260200180615bb96026913960400191505060405180910390fd5b6138a361585d565b600d5481565b6003546001600160a01b031681565b60008261456d57506000614588565b8282028284828161457a57fe5b041461458557600080fd5b90505b92915050565b600080821161459c57600080fd5b60008284816145a757fe5b04949350505050565b60008183106145bf5781614585565b5090919050565b60008282018381101561458557600080fd5b6000828211156145e757600080fd5b50900390565b600954600061460382600163ffffffff6145c616565b905061460d615b3f565b506000818152601e602090815260408083208151808301909252805480835260019091015492820183905290926146449290614a28565b506000918252601e6020526040822082815560010191909155600955565b60008080805b84518167ffffffffffffffff1610156148e257600073__ECVerify______________________________6377d32e94886146ae8967ffffffffffffffff8716604161586c565b6040518363ffffffff1660e01b81526004018083815260200180602001828103825283818151815260200191508051906020019080838360005b838110156147005781810151838201526020016146e8565b50505050905090810190601f16801561472d5780820380516001836020036101000a031916815260200191505b50935050505060206040518083038186803b15801561474b57600080fd5b505af415801561475f573d6000803e3d6000fd5b505050506040513d602081101561477557600080fd5b50516001600160a01b038082166000818152601b602052604090205492935090851614156147a45750506148e2565b6147ad816118b6565b80156147ca5750836001600160a01b0316826001600160a01b0316115b156148d8576000818152601a60205260408120600681015493955085939091906001600160a01b0316801561488a57806001600160a01b031663b37f25908d8f6148138861406a565b6040518463ffffffff1660e01b8152600401808481526020018381526020018281526020019350505050602060405180830381600087803b15801561485757600080fd5b505af115801561486b573d6000803e3d6000fd5b505050506040513d602081101561488157600080fd5b505191506148c2565b826000015491506148bc6148ab8e6111fb8f8661455e90919063ffffffff16565b60018501549063ffffffff6145c616565b60018401555b6148d2888363ffffffff6145c616565b97505050505b5050604101614668565b506149016148ee6132c6565b600b546111fb908563ffffffff61455e16565b601354909650614917908763ffffffff6145c616565b601355614949600161493d60036111fb60026149316132c6565b9063ffffffff61455e16565b9063ffffffff6145c616565b821015614993576040805162461bcd60e51b8152602060048201526013602482015272322f332b31206e6f6e2d6d616a6f726974792160681b604482015290519081900360640190fd5b509395945050505050565b600654604080516331a9108f60e11b815260048101849052905133926001600160a01b031691636352211e916024808301926020929190829003018186803b1580156149e957600080fd5b505afa1580156149fd573d6000803e3d6000fd5b505050506040513d6020811015614a1357600080fd5b50516001600160a01b031614612a8957600080fd5b80614ac2576000831315614a5157601c54614a49908463ffffffff6145c616565b601c55614a75565b6000831215614a7557601c54614a7190600085900363ffffffff6145d816565b601c555b6000821315614a9957601d54614a91908363ffffffff6145c616565b601d55614abd565b6000821215614abd57601d54614ab990600084900363ffffffff6145d816565b601d555b611d9f565b6000818152601e60205260409020805484018155600101805483019055505050565b60005460ff16156138a3576040805162461bcd60e51b81526020600482015260066024820152651b1bd8dad95960d21b604482015290519081900360640190fd5b6000828152601a602052604081205490614b3e846123fe565b6000858152601a6020526040812060038101869055600181015460069091015492935090916001600160a01b03168015614c36576000819050614bc9816001600160a01b03166332ba2e536040518163ffffffff1660e01b8152600401602060405180830381600087803b158015614bb557600080fd5b505af1158015612d1c573d6000803e3d6000fd5b9250806001600160a01b031663753868e36040518163ffffffff1660e01b8152600401602060405180830381600087803b158015614c0657600080fd5b505af1158015614c1a573d6000803e3d6000fd5b505050506040513d6020811015614c3057600080fd5b50519350505b614c4187858461569a565b614c5383860160000360001988614a28565b60055460408051635e04d48360e01b81526001600160a01b038781166004830152602482018b9052604482018a90526064820189905291519190921691635e04d48391608480830192600092919082900301818387803b158015614cb657600080fd5b505af1158015614cca573d6000803e3d6000fd5b5050505050505050505050565b600d54821015614d2e576040805162461bcd60e51b815260206004820152601760248201527f4e6f7420656e6f756768206865696d64616c6c20666565000000000000000000604482015290519081900360640190fd5b6003546001600160a01b03166323b872dd3330614d51868663ffffffff6145c616565b6040518463ffffffff1660e01b815260040180846001600160a01b03166001600160a01b03168152602001836001600160a01b03166001600160a01b031681526020018281526020019350505050602060405180830381600087803b158015614db957600080fd5b505af1158015614dcd573d6000803e3d6000fd5b505050506040513d6020811015614de357600080fd5b5051614e2c576040805162461bcd60e51b8152602060048201526013602482015272119959481d1c985b9cd9995c8819985a5b1959606a1b604482015290519081900360640190fd5b602254614e3f908363ffffffff6145c616565b6022556005546040805163a449d79560e01b81526001600160a01b038681166004830152602482018690529151919092169163a449d79591604480830192600092919082900301818387803b158015613c3f57600080fd5b600080614ea383615808565b90506001600160a01b03811615801590614ed357506001600160a01b0381166000908152601b6020526040902054155b614f15576040805162461bcd60e51b815260206004820152600e60248201526d24b73b30b634b21039b4b3b732b960911b604482015290519081900360640190fd5b6009546012546005546011546001600160a01b0390911690600090614f40908a63ffffffff6145c616565b9050806011819055506040518061010001604052808a8152602001600081526020018581526020016000815260200160008152602001866001600160a01b0316815260200189614f9157600061501d565b600754600480546040805163d4ad267360e01b81529283018990526001600160a01b03888116602485015291821660448401525192169163d4ad2673916064808201926020929091908290030181600087803b158015614ff057600080fd5b505af1158015615004573d6000803e3d6000fd5b505050506040513d602081101561501a57600080fd5b50515b6001600160a01b03168152602001600190526000848152601a60209081526040918290208351815590830151600182015590820151600282015560608201516003808301919091556080830151600483015560a08301516005830180546001600160a01b039283166001600160a01b03199182161790915560c08501516006850180549190931691161780825560e08501519260ff60a01b1990911690600160a01b9084908111156150cb57fe5b0217905550505060008381526021602052604080822086905560065481516340c10f1960e01b81526001600160a01b038e8116600483015260248201889052925192909116926340c10f199260448084019382900301818387803b15801561513257600080fd5b505af1158015615146573d6000803e3d6000fd5b5050506001600160a01b0386166000908152601b6020526040812085905561517391508a90600190614a28565b836020600085815260200190815260200160002060010181905550816001600160a01b03166333a8383c868986888e876040518763ffffffff1660e01b815260040180876001600160a01b03166001600160a01b0316815260200180602001868152602001858152602001848152602001838152602001828103825287818151815260200191508051906020019080838360005b8381101561521f578181015183820152602001615207565b50505050905090810190601f16801561524c5780820380516001836020036101000a031916815260200191505b50975050505050505050600060405180830381600087803b15801561527057600080fd5b505af1158015615284573d6000803e3d6000fd5b5050505061529c6001846145c690919063ffffffff16565b601255509098975050505050505050565b6152b5615b3f565b506040805180820190915281518152602082810190820152919050565b60606152dd826158eb565b6152e657600080fd5b60006152f183615925565b905060608160405190808252806020026020018201604052801561532f57816020015b61531c615b3f565b8152602001906001900390816153145790505b50905060006153418560200151615981565b60208601510190506000805b848110156153985761535e836159e4565b915060405180604001604052808381526020018481525084828151811061538157fe5b60209081029190910101529181019160010161534d565b509195945050505050565b8051600090158015906153b857508151602110155b6153c157600080fd5b60006153d08360200151615981565b835160208086015183018051939450918490039291908310156153fa57826020036101000a820491505b50949350505050565b805160009060011461541457600080fd5b6020820151805160001a90811561542c57600161542f565b60005b949350505050565b6000828152601a602052604081206006015481906001600160a01b0316156154dd576000848152601a6020908152604080832060060154815163753868e360e01b815291516001600160a01b039091169363753868e393600480850194919392918390030190829087803b1580156154ae57600080fd5b505af11580156154c2573d6000803e3d6000fd5b505050506040513d60208110156154d857600080fd5b505190505b6009546154f0818563ffffffff6145c616565b6000868152601a602052604080822060048082019490945560068101805460ff60a01b1916600160a11b1790556005805491015482516381dc101b60e01b81529485018a9052602485018690526001600160a01b03908116604486015291519116926381dc101b92606480830193919282900301818387803b15801561557557600080fd5b505af1158015615589573d6000803e3d6000fd5b5050506000868152601a60205260409020546123f591508363ffffffff6145c616565b6022546155bf908263ffffffff6145d816565b6022556005546040805163122b648160e01b81526001600160a01b038581166004830152602482018590529151919092169163122b648191604480830192600092919082900301818387803b15801561561757600080fd5b505af1158015612026573d6000803e3d6000fd5b6001600160a01b03811661563e57600080fd5b6001546040516001600160a01b038084169216907f8be0079c531659141344cd1fd0a4f28419497f9722a3daafe3b4186f6b6457e090600090a3600180546001600160a01b0319166001600160a01b0392909216919091179055565b6014546156ad908263ffffffff6145c616565b6014556000838152601a60209081526040808320600101839055600354815163a9059cbb60e01b81526001600160a01b038781166004830152602482018790529251929091169363a9059cbb9360448084019491939192918390030190829087803b15801561571b57600080fd5b505af115801561572f573d6000803e3d6000fd5b505050506040513d602081101561574557600080fd5b505161578e576040805162461bcd60e51b8152602060048201526013602482015272496e737566666963656e74207265776172647360681b604482015290519081900360640190fd5b60055460145460408051635b42d93560e11b815260048101879052602481018590526044810192909252516001600160a01b039092169163b685b26a9160648082019260009290919082900301818387803b158015613c3f57600080fd5b6000818310156145bf5781614585565b6000805460ff19169055565b60008151604014615851576040805162461bcd60e51b815260206004820152600e60248201526d496e76616c6964207075626b657960901b604482015290519081900360640190fd5b50805160209091012090565b6000805460ff19166001179055565b60608183018451101561587e57600080fd5b606082158015615899576040519150602082016040526153fa565b6040519150601f8416801560200281840101858101878315602002848b0101015b818310156158d25780518352602092830192016158ba565b5050858452601f01601f19166040525050949350505050565b80516000906158fc5750600061157c565b6020820151805160001a9060c082101561591b5760009250505061157c565b5060019392505050565b80516000906159365750600061157c565b6000809050600061594a8460200151615981565b602085015185519181019250015b8082101561597857615969826159e4565b60019093019290910190615958565b50909392505050565b8051600090811a608081101561599b57600091505061157c565b60b88110806159b6575060c081108015906159b6575060f881105b156159c557600191505061157c565b60c08110156159d95760b51901905061157c565b60f51901905061157c565b80516000908190811a60808110156159ff5760019150615a76565b60b8811015615a1457607e1981019150615a76565b60c0811015615a415760b78103600185019450806020036101000a85510460018201810193505050615a76565b60f8811015615a565760be1981019150615a76565b60f78103600185019450806020036101000a855104600182018101935050505b5092915050565b50805460018160011615610100020316600290046000825580601f10615aa35750612a89565b601f016020900490600052602060002090810190612a899190615b59565b828054600181600116156101000203166002900490600052602060002090601f016020900481019282601f10615b025782800160ff19823516178555615b2f565b82800160010185558215615b2f579182015b82811115615b2f578235825591602001919060010190615b14565b50615b3b929150615b59565b5090565b604051806040016040528060008152602001600081525090565b6128b791905b80821115615b3b5760008155600101615b5f56fe56616c696461746f7220736574205468726573686f6c64206578636565646564214f6e6c7920626964646572206f722076616c696461746f722063616e20636f6e6669726d4f6e6c7920676f7665726e616e636520636f6e747261637420697320617574686f72697a65644f776e6572206f6620636f6e7472616374206d757374206265207374616b654d616e61676572a265627a7a72315820a7a80d6a457a1f7c4bf16de718af76a14e3957fb02ddfe7c23898cb5357db44264736f6c63430005110032",
  "source": "pragma solidity ^0.5.2;\n\nimport {IERC20} from \"openzeppelin-solidity/contracts/token/ERC20/IERC20.sol\";\nimport {Math} from \"openzeppelin-solidity/contracts/math/Math.sol\";\nimport {SafeMath} from \"openzeppelin-solidity/contracts/math/SafeMath.sol\";\nimport {Ownable} from \"openzeppelin-solidity/contracts/ownership/Ownable.sol\";\nimport {RLPReader} from \"solidity-rlp/contracts/RLPReader.sol\";\n\nimport {BytesLib} from \"../../common/lib/BytesLib.sol\";\nimport {ECVerify} from \"../../common/lib/ECVerify.sol\";\nimport {Merkle} from \"../../common/lib/Merkle.sol\";\nimport {GovernanceLockable} from \"../../common/mixin/GovernanceLockable.sol\";\nimport {RootChainable} from \"../../common/mixin/RootChainable.sol\";\nimport {Registry} from \"../../common/Registry.sol\";\nimport {IStakeManager} from \"./IStakeManager.sol\";\nimport {IValidatorShare} from \"../validatorShare/IValidatorShare.sol\";\nimport {StakingInfo} from \"../StakingInfo.sol\";\nimport {StakingNFT} from \"./StakingNFT.sol\";\nimport {ValidatorShareFactory} from \"../validatorShare/ValidatorShareFactory.sol\";\nimport {ISlashingManager} from \"../slashing/ISlashingManager.sol\";\nimport {StakeManagerStorage} from \"./StakeManagerStorage.sol\";\nimport {Governable} from \"../../common/governance/Governable.sol\";\nimport {IGovernance} from \"../../common/governance/IGovernance.sol\";\nimport {Initializable} from \"../../common/mixin/Initializable.sol\";\n\ncontract StakeManager is IStakeManager, StakeManagerStorage, Initializable {\n    using SafeMath for uint256;\n    using ECVerify for bytes32;\n    using Merkle for bytes32;\n    using RLPReader for bytes;\n    using RLPReader for RLPReader.RLPItem;\n\n    uint256 private constant INCORRECT_VALIDATOR_ID = 2**256 - 1;\n\n    modifier onlyStaker(uint256 validatorId) {\n        _assertOnlyStaker(validatorId);\n        _;\n    }\n\n    function _assertOnlyStaker(uint256 validatorId) private view {\n        require(NFTContract.ownerOf(validatorId) == msg.sender);\n    }\n\n    constructor() public GovernanceLockable(address(0x0)) {}\n\n    function initialize(\n        address _registry,\n        address _rootchain,\n        address _token,\n        address _NFTContract,\n        address _stakingLogger,\n        address _validatorShareFactory,\n        address _governance,\n        address _owner\n    ) external initializer {\n        governance = IGovernance(_governance);\n        registry = _registry;\n        rootChain = _rootchain;\n        token = IERC20(_token);\n        NFTContract = StakingNFT(_NFTContract);\n        logger = StakingInfo(_stakingLogger);\n        factory = ValidatorShareFactory(_validatorShareFactory);\n        _transferOwnership(_owner);\n\n        WITHDRAWAL_DELAY = (2**13); // unit: epoch\n        currentEpoch = 1;\n        dynasty = 886; // unit: epoch 50 days\n        CHECKPOINT_REWARD = 20188 * (10**18); // update via governance\n        minDeposit = (10**18); // in ERC20 token\n        minHeimdallFee = (10**18); // in ERC20 token\n        checkPointBlockInterval = 1024;\n        signerUpdateLimit = 100;\n\n        validatorThreshold = 7; //128\n        NFTCounter = 1;\n        auctionPeriod = (2**13) / 4; // 1 week in epochs\n        proposerBonus = 10; // 10 % of total rewards\n        delegationEnabled = true;\n    }\n\n    function setDelegationEnabled(bool enabled) public onlyGovernance {\n        delegationEnabled = enabled;\n    }\n\n    // TopUp heimdall fee\n    function topUpForFee(address user, uint256 heimdallFee) public onlyWhenUnlocked {\n        _transferAndTopUp(user, heimdallFee, 0);\n    }\n\n    function ownerOf(uint256 tokenId) public view returns (address) {\n        return NFTContract.ownerOf(tokenId);\n    }\n\n    function epoch() public view returns (uint256) {\n        return currentEpoch;\n    }\n\n    function withdrawalDelay() public view returns (uint256) {\n        return WITHDRAWAL_DELAY;\n    }\n\n    function validatorStake(uint256 validatorId) public view returns (uint256) {\n        return validators[validatorId].amount;\n    }\n\n    function _transferAndTopUp(\n        address user,\n        uint256 fee,\n        uint256 additionalAmount\n    ) private {\n        require(fee >= minHeimdallFee, \"Not enough heimdall fee\");\n        require(token.transferFrom(msg.sender, address(this), fee.add(additionalAmount)), \"Fee transfer failed\");\n        totalHeimdallFee = totalHeimdallFee.add(fee);\n        logger.logTopUpFee(user, fee);\n    }\n\n    function _claimFee(address user, uint256 amount) private {\n        totalHeimdallFee = totalHeimdallFee.sub(amount);\n        logger.logClaimFee(user, amount);\n    }\n\n    function claimFee(\n        uint256 accumFeeAmount,\n        uint256 index,\n        bytes memory proof\n    ) public {\n        //Ignoring other params becuase rewards distribution is on chain\n        require(\n            keccak256(abi.encode(msg.sender, accumFeeAmount)).checkMembership(index, accountStateRoot, proof),\n            \"Wrong acc proof\"\n        );\n        uint256 withdrawAmount = accumFeeAmount.sub(userFeeExit[msg.sender]);\n        _claimFee(msg.sender, withdrawAmount);\n        userFeeExit[msg.sender] = accumFeeAmount;\n        require(token.transfer(msg.sender, withdrawAmount));\n    }\n\n    function stake(\n        uint256 amount,\n        uint256 heimdallFee,\n        bool acceptDelegation,\n        bytes calldata signerPubkey\n    ) external {\n        stakeFor(msg.sender, amount, heimdallFee, acceptDelegation, signerPubkey);\n    }\n\n    function totalStakedFor(address user) external view returns (uint256) {\n        if (user == address(0x0) || NFTContract.balanceOf(user) == 0) {\n            return 0;\n        }\n        return validators[NFTContract.tokenOfOwnerByIndex(user, 0)].amount;\n    }\n\n    function startAuction(\n        uint256 validatorId,\n        uint256 amount,\n        bool _acceptDelegation,\n        bytes calldata _signerPubkey\n    ) external onlyWhenUnlocked {\n        uint256 currentValidatorAmount = validators[validatorId].amount;\n\n        require(\n            validators[validatorId].deactivationEpoch == 0 && currentValidatorAmount != 0,\n            \"Invalid validator for an auction\"\n        );\n        uint256 senderValidatorId = signerToValidator[msg.sender];\n        // make sure that signer wasn't used already\n        require(\n            NFTContract.balanceOf(msg.sender) == 0 && // existing validators can't bid\n                senderValidatorId != INCORRECT_VALIDATOR_ID,\n            \"Already used address\"\n        );\n\n        uint256 _currentEpoch = currentEpoch;\n        uint256 _replacementCoolDown = replacementCoolDown;\n        // when dynasty period is updated validators are in cooldown period\n        require(_replacementCoolDown == 0 || _replacementCoolDown <= _currentEpoch, \"Cooldown period\");\n        // (auctionPeriod--dynasty)--(auctionPeriod--dynasty)--(auctionPeriod--dynasty)\n        // if it's auctionPeriod then will get residue smaller then auctionPeriod\n        // from (CurrentPeriod of validator )%(auctionPeriod--dynasty)\n        // make sure that its `auctionPeriod` window\n        // dynasty = 30, auctionPeriod = 7, activationEpoch = 1, currentEpoch = 39\n        // residue 1 = (39-1)% (7+30), if residue <= auctionPeriod it's `auctionPeriod`\n\n        require(\n            (_currentEpoch.sub(validators[validatorId].activationEpoch) % dynasty.add(auctionPeriod)) < auctionPeriod,\n            \"Invalid auction period\"\n        );\n\n        uint256 perceivedStake = currentValidatorAmount;\n        address _contract = validators[validatorId].contractAddress;\n\n        if (_contract != address(0x0)) {\n            perceivedStake = perceivedStake.add(IValidatorShare(_contract).getActiveAmount());\n        }\n\n        Auction storage auction = validatorAuction[validatorId];\n        uint256 currentAuctionAmount = auction.amount;\n\n        perceivedStake = Math.max(perceivedStake, currentAuctionAmount);\n\n        require(perceivedStake < amount, \"Must bid higher\");\n        require(token.transferFrom(msg.sender, address(this), amount), \"Transfer amount failed\");\n\n        //replace prev auction\n        if (currentAuctionAmount != 0) {\n            require(token.transfer(auction.user, currentAuctionAmount), \"Bid return failed\");\n        }\n\n        // create new auction\n        auction.amount = amount;\n        auction.user = msg.sender;\n        auction.acceptDelegation = _acceptDelegation;\n        auction.signerPubkey = _signerPubkey;\n\n        logger.logStartAuction(validatorId, currentValidatorAmount, amount);\n    }\n\n    function confirmAuctionBid(\n        uint256 validatorId,\n        uint256 heimdallFee /** for new validator */\n    ) external onlyWhenUnlocked {\n        Auction storage auction = validatorAuction[validatorId];\n        address auctionUser = auction.user;\n\n        require(\n            msg.sender == auctionUser || getValidatorId(msg.sender) == validatorId,\n            \"Only bidder or validator can confirm\"\n        );\n\n        uint256 _currentEpoch = currentEpoch;\n        require(\n            _currentEpoch.sub(auction.startEpoch) % auctionPeriod.add(dynasty) >= auctionPeriod,\n            \"Not allowed before auctionPeriod\"\n        );\n        require(auction.user != address(0x0), \"Invalid auction\");\n\n        uint256 validatorAmount = validators[validatorId].amount;\n        uint256 perceivedStake = validatorAmount;\n        uint256 auctionAmount = auction.amount;\n        address contractAddr = validators[validatorId].contractAddress;\n\n        if (contractAddr != address(0x0)) {\n            perceivedStake = perceivedStake.add(IValidatorShare(contractAddr).getActiveAmount());\n        }\n\n        // validator is last auctioner\n        if (perceivedStake >= auctionAmount && validators[validatorId].deactivationEpoch == 0) {\n            require(token.transfer(auctionUser, auctionAmount), \"Bid return failed\");\n            //cleanup auction data\n            auction.startEpoch = _currentEpoch;\n            logger.logConfirmAuction(validatorId, validatorId, validatorAmount);\n        } else {\n            // dethrone\n            _transferAndTopUp(auctionUser, heimdallFee, 0);\n            _unstake(validatorId, _currentEpoch);\n\n            uint256 newValidatorId = _stakeFor(\n                auctionUser,\n                auctionAmount,\n                auction.acceptDelegation,\n                auction.signerPubkey\n            );\n            logger.logConfirmAuction(newValidatorId, validatorId, auctionAmount);\n        }\n        uint256 startEpoch = auction.startEpoch;\n        delete validatorAuction[validatorId];\n        validatorAuction[validatorId].startEpoch = startEpoch;\n    }\n\n    function unstake(uint256 validatorId) external onlyStaker(validatorId) {\n        require(validatorAuction[validatorId].amount == 0, \"Wait for auction completion\");\n        require(\n            validators[validatorId].activationEpoch > 0 &&\n                validators[validatorId].deactivationEpoch == 0 &&\n                (validators[validatorId].status == Status.Active || validators[validatorId].status == Status.Locked)\n        );\n\n        uint256 exitEpoch = currentEpoch.add(1); // notice period\n        _unstake(validatorId, exitEpoch);\n    }\n\n    // Housekeeping function. @todo remove later\n    function forceUnstake(uint256 validatorId) external onlyGovernance {\n        _unstake(validatorId, currentEpoch);\n    }\n\n    function setCurrentEpoch(uint256 _currentEpoch) external onlyGovernance {\n        currentEpoch = _currentEpoch;\n    }\n\n    function transferFunds(\n        uint256 validatorId,\n        uint256 amount,\n        address delegator\n    ) external returns (bool) {\n        require(\n            Registry(registry).getSlashingManagerAddress() == msg.sender ||\n                validators[validatorId].contractAddress == msg.sender,\n            \"Invalid contract address\"\n        );\n        return token.transfer(delegator, amount);\n    }\n\n    function delegationDeposit(\n        uint256 validatorId,\n        uint256 amount,\n        address delegator\n    ) external returns (bool) {\n        require(validators[validatorId].contractAddress == msg.sender, \"Invalid contract address\");\n        return token.transferFrom(delegator, address(this), amount);\n    }\n\n    function stakeFor(\n        address user,\n        uint256 amount,\n        uint256 heimdallFee,\n        bool acceptDelegation,\n        bytes memory signerPubkey\n    ) public onlyWhenUnlocked {\n        require(currentValidatorSetSize() < validatorThreshold, \"Validator set Threshold exceeded!\");\n        require(amount > minDeposit, \"min deposit limit failed!\");\n        _transferAndTopUp(user, heimdallFee, amount);\n        _stakeFor(user, amount, acceptDelegation, signerPubkey);\n    }\n\n    function unstakeClaim(uint256 validatorId) public onlyStaker(validatorId) {\n        uint256 deactivationEpoch = validators[validatorId].deactivationEpoch;\n        // can only claim stake back after WITHDRAWAL_DELAY\n        require(\n            deactivationEpoch > 0 &&\n                deactivationEpoch.add(WITHDRAWAL_DELAY) <= currentEpoch &&\n                validators[validatorId].status != Status.Unstaked\n        );\n\n        uint256 amount = validators[validatorId].amount;\n        uint256 newTotalStaked = totalStaked.sub(amount);\n        totalStaked = newTotalStaked;\n\n        NFTContract.burn(validatorId);\n\n        signerToValidator[validators[validatorId].signer] = INCORRECT_VALIDATOR_ID;\n        validators[validatorId].status = Status.Unstaked;\n        require(token.transfer(msg.sender, amount), \"Transfer stake failed\");\n        logger.logUnstaked(msg.sender, validatorId, amount, newTotalStaked);\n    }\n\n    // slashing and jail interface\n    function restake(\n        uint256 validatorId,\n        uint256 amount,\n        bool stakeRewards\n    ) public onlyWhenUnlocked onlyStaker(validatorId) {\n        require(validators[validatorId].deactivationEpoch == 0, \"No use of restaking\");\n\n        if (amount > 0) {\n            require(token.transferFrom(msg.sender, address(this), amount), \"Transfer stake failed\");\n        }\n\n        if (stakeRewards) {\n            amount = amount.add(validators[validatorId].reward);\n            address contractAddr = validators[validatorId].contractAddress;\n            if (contractAddr != address(0x0)) {\n                amount = amount.add(IValidatorShare(contractAddr).withdrawRewardsValidator());\n            }\n            validators[validatorId].reward = 0;\n        }\n\n        uint256 newTotalStaked = totalStaked.add(amount);\n        totalStaked = newTotalStaked;\n        validators[validatorId].amount = validators[validatorId].amount.add(amount);\n\n        updateTimeline(int256(amount), 0, 0);\n\n        logger.logStakeUpdate(validatorId);\n        logger.logRestaked(validatorId, validators[validatorId].amount, newTotalStaked);\n    }\n\n    function _liquidateRewards(uint256 validatorId, address validatorUser, uint256 reward) private {\n        totalRewardsLiquidated = totalRewardsLiquidated.add(reward);\n        validators[validatorId].reward = 0;\n        require(token.transfer(validatorUser, reward), \"Insufficent rewards\");\n        logger.logClaimRewards(validatorId, reward, totalRewardsLiquidated);\n    }\n\n    function withdrawRewards(uint256 validatorId) public onlyStaker(validatorId) {\n        uint256 reward = validators[validatorId].reward;\n        address contractAddr = validators[validatorId].contractAddress;\n        if (contractAddr != address(0x0)) {\n            reward = reward.add(IValidatorShare(contractAddr).withdrawRewardsValidator());\n        }\n\n        _liquidateRewards(validatorId, msg.sender, reward);\n    }\n\n    function getValidatorId(address user) public view returns (uint256) {\n        return NFTContract.tokenOfOwnerByIndex(user, 0);\n    }\n\n    // set staking Token\n    function setToken(address _token) public onlyGovernance {\n        require(_token != address(0x0));\n        token = IERC20(_token);\n    }\n\n    // Change the number of validators required to allow a passed header root\n    function updateValidatorThreshold(uint256 newThreshold) public onlyGovernance {\n        require(newThreshold > 0);\n        logger.logThresholdChange(newThreshold, validatorThreshold);\n        validatorThreshold = newThreshold;\n    }\n\n    function updateCheckPointBlockInterval(uint256 _blocks) public onlyGovernance {\n        require(_blocks > 0, \"Blocks interval must be non-zero\");\n        checkPointBlockInterval = _blocks;\n    }\n\n    // Change reward for each checkpoint\n    function updateCheckpointReward(uint256 newReward) public onlyGovernance {\n        require(newReward > 0);\n        logger.logRewardUpdate(newReward, CHECKPOINT_REWARD);\n        CHECKPOINT_REWARD = newReward;\n    }\n\n    // Change delegation contract for a validator\n    // @note: Users must exit before this update or all funds may get lost\n    function updateContractAddress(uint256 validatorId, address newContractAddress) public onlyGovernance {\n        require(IValidatorShare(newContractAddress).owner() == address(this), \"Owner of contract must be stakeManager\");\n        validators[validatorId].contractAddress = newContractAddress;\n    }\n\n    function updateValidatorState(uint256 validatorId, int256 amount) public {\n        if (amount > 0) {\n            // deposit during shares purchase\n            require(delegationEnabled, \"Delegation is disabled\");\n        }\n\n        require(validators[validatorId].contractAddress == msg.sender, \"Invalid contract address\");\n        updateTimeline(amount, 0, 0);\n    }\n\n    function updateDynastyValue(uint256 newDynasty) public onlyGovernance {\n        require(newDynasty > 0);\n        logger.logDynastyValueChange(newDynasty, dynasty);\n        dynasty = newDynasty;\n        WITHDRAWAL_DELAY = newDynasty;\n        auctionPeriod = newDynasty.div(4);\n        // set cooldown period\n        replacementCoolDown = currentEpoch.add(auctionPeriod);\n    }\n\n    // Housekeeping function. @todo remove later\n    function stopAuctions(uint256 forNCheckpoints) public onlyGovernance {\n        replacementCoolDown = currentEpoch.add(forNCheckpoints);\n    }\n\n    function updateProposerBonus(uint256 newProposerBonus) public onlyGovernance {\n        logger.logProposerBonusChange(newProposerBonus, proposerBonus);\n        require(newProposerBonus <= 100, \"too big\");\n        proposerBonus = newProposerBonus;\n    }\n\n    function updateSignerUpdateLimit(uint256 _limit) public onlyGovernance {\n        signerUpdateLimit = _limit;\n    }\n\n    function updateMinAmounts(uint256 _minDeposit, uint256 _minHeimdallFee) public onlyGovernance {\n        minDeposit = _minDeposit;\n        minHeimdallFee = _minHeimdallFee;\n    }\n\n    function updateSigner(uint256 validatorId, bytes memory signerPubkey) public onlyStaker(validatorId) {\n        address signer = pubToAddress(signerPubkey);\n        require(signer != address(0x0) && signerToValidator[signer] == 0, \"Invalid signer\");\n\n        uint256 _currentEpoch = currentEpoch;\n        require(\n            _currentEpoch >= latestSignerUpdateEpoch[validatorId].add(signerUpdateLimit),\n            \"Invalid checkpoint number!\"\n        );\n\n        address currentSigner = validators[validatorId].signer;\n        // update signer event\n        logger.logSignerChange(validatorId, currentSigner, signer, signerPubkey);\n\n        signerToValidator[currentSigner] = INCORRECT_VALIDATOR_ID;\n        signerToValidator[signer] = validatorId;\n        validators[validatorId].signer = signer;\n        // reset update time to current time\n        latestSignerUpdateEpoch[validatorId] = _currentEpoch;\n    }\n\n    function currentValidatorSetSize() public view returns (uint256) {\n        return validatorState.stakerCount;\n    }\n\n    function currentValidatorSetTotalStake() public view returns (uint256) {\n        return validatorState.amount;\n    }\n\n    function getValidatorContract(uint256 validatorId) public view returns (address) {\n        return validators[validatorId].contractAddress;\n    }\n\n    function isValidator(uint256 validatorId) public view returns (bool) {\n        uint256 activationEpoch = validators[validatorId].activationEpoch;\n        uint256 deactivationEpoch = validators[validatorId].deactivationEpoch;\n        uint256 amount = validators[validatorId].amount;\n        Status status = validators[validatorId].status;\n        uint256 _currentEpoch = currentEpoch;\n\n        return (amount > 0 &&\n            (activationEpoch != 0 && activationEpoch <= _currentEpoch) &&\n            (deactivationEpoch == 0 || deactivationEpoch > _currentEpoch) &&\n            status == Status.Active);\n    }\n\n    function checkSignatures(\n        uint256 blockInterval,\n        bytes32 voteHash,\n        bytes32 stateRoot,\n        address proposer,\n        bytes memory sigs\n    ) public onlyRootChain returns (uint256) {\n        // checkpoint rewards are based on BlockInterval multiplied on `CHECKPOINT_REWARD`\n        // for bigger checkpoints reward is capped at `CHECKPOINT_REWARD`\n        // if interval is 50% of checkPointBlockInterval then reward R is half of `CHECKPOINT_REWARD`\n        // and then stakePower is 90% of currentValidatorSetTotalStake then final reward is 90% of R\n        uint256 reward = blockInterval.mul(CHECKPOINT_REWARD).div(checkPointBlockInterval);\n        reward = Math.min(CHECKPOINT_REWARD, reward);\n\n        uint256 _proposerBonus = reward.mul(proposerBonus).div(100);\n        Validator storage _proposer = validators[signerToValidator[proposer]];\n        if (_proposer.contractAddress != address(0x0)) {\n            IValidatorShare(_proposer.contractAddress).addProposerBonus(_proposerBonus, _proposer.amount);\n        } else {\n            _proposer.reward = _proposer.reward.add(_proposerBonus);\n        }\n\n        reward = reward.sub(_proposerBonus);\n        uint256 stakePower = currentValidatorSetTotalStake();\n        // update stateMerkleTree root for accounts balance on heimdall chain\n        accountStateRoot = stateRoot;\n        _finalizeCommit();\n        return checkSignature(stakePower, reward, voteHash, sigs);\n    }\n\n    function checkSignature(\n        uint256 checkpointStakePower,\n        uint256 reward,\n        bytes32 voteHash,\n        bytes memory sigs\n    ) internal returns (uint256) {\n        // total voting power\n        uint256 totalStakePower;\n        address lastAdd; // cannot have address(0x0) as an owner\n        for (uint64 i = 0; i < sigs.length; i += 65) {\n            address signer = voteHash.ecrecovery(BytesLib.slice(sigs, i, 65));\n            uint256 validatorId = signerToValidator[signer];\n            // check if signer is staker and not proposer\n            if (signer == lastAdd) {\n                break;\n            } else if (isValidator(validatorId) && signer > lastAdd) {\n                lastAdd = signer;\n\n                Validator storage validator = validators[validatorId];\n                uint256 valPow;\n                // add delegation power\n                address contractAddr = validator.contractAddress;\n                if (contractAddr != address(0x0)) {\n                    valPow = IValidatorShare(contractAddr).updateRewards(\n                        reward,\n                        checkpointStakePower,\n                        validatorStake(validatorId)\n                    );\n                } else {\n                    valPow = validator.amount;\n                    validator.reward = validator.reward.add(valPow.mul(reward).div(checkpointStakePower));\n                }\n                totalStakePower = totalStakePower.add(valPow);\n            }\n        }\n\n        reward = CHECKPOINT_REWARD.mul(totalStakePower).div(currentValidatorSetTotalStake());\n        totalRewards = totalRewards.add(reward);\n        require(totalStakePower >= currentValidatorSetTotalStake().mul(2).div(3).add(1), \"2/3+1 non-majority!\");\n\n        return reward;\n    }\n\n    function slash(bytes memory _slashingInfoList) public returns (uint256) {\n        require(Registry(registry).getSlashingManagerAddress() == msg.sender, \"Sender must be slashing manager!\");\n        RLPReader.RLPItem[] memory slashingInfoList = _slashingInfoList.toRlpItem().toList();\n        int256 valJailed = 0;\n        uint256 jailedAmount = 0;\n        uint256 totalAmount;\n        for (uint256 i = 0; i < slashingInfoList.length; i++) {\n            RLPReader.RLPItem[] memory slashData = slashingInfoList[i].toList();\n            uint256 validatorId = slashData[0].toUint();\n            uint256 _amount = slashData[1].toUint();\n            totalAmount = totalAmount.add(_amount);\n\n            if (validators[validatorId].contractAddress != address(0x0)) {\n                uint256 delSlashedAmount = IValidatorShare(validators[validatorId].contractAddress).slash(\n                    validators[validatorId].amount,\n                    _amount\n                );\n                _amount = _amount.sub(delSlashedAmount);\n            }\n\n            validators[validatorId].amount = validators[validatorId].amount.sub(_amount);\n            if (slashData[2].toBoolean()) {\n                jailedAmount = jailedAmount.add(_jail(validatorId, 1));\n                valJailed++;\n            }\n        }\n\n        //update timeline\n        updateTimeline(-int256(totalAmount.add(jailedAmount)), -valJailed, 0);\n\n        return totalAmount;\n    }\n\n    function unjail(uint256 validatorId) public onlyStaker(validatorId) {\n        require(validators[validatorId].status == Status.Locked, \"Validator is not jailed\");\n        require(validators[validatorId].deactivationEpoch == 0, \"Validator already unstaking\");\n\n        uint256 _currentEpoch = currentEpoch;\n        require(validators[validatorId].jailTime <= _currentEpoch, \"Incomplete jail period\");\n\n        uint256 amount = validators[validatorId].amount;\n        require(amount >= minDeposit);\n\n        uint256 delegationAmount = 0;\n        if (validators[validatorId].contractAddress != address(0x0)) {\n            delegationAmount = IValidatorShare(validators[validatorId].contractAddress).unlockContract();\n        }\n\n        // undo timline so that validator is normal validator\n        updateTimeline(int256(amount.add(delegationAmount)), 1, 0);\n\n        validators[validatorId].status = Status.Active;\n        logger.logUnjailed(validatorId, validators[validatorId].signer);\n    }\n\n    function _jail(uint256 validatorId, uint256 jailCheckpoints) internal returns (uint256) {\n        uint256 delegationAmount = 0;\n        if (validators[validatorId].contractAddress != address(0x0)) {\n            delegationAmount = IValidatorShare(validators[validatorId].contractAddress).lockContract();\n        }\n\n        uint256 _currentEpoch = currentEpoch;\n        validators[validatorId].jailTime = _currentEpoch.add(jailCheckpoints);\n        validators[validatorId].status = Status.Locked;\n        logger.logJailed(validatorId, _currentEpoch, validators[validatorId].signer);\n        return validators[validatorId].amount.add(delegationAmount);\n    }\n\n    function _stakeFor(\n        address user,\n        uint256 amount,\n        bool acceptDelegation,\n        bytes memory signerPubkey\n    ) internal returns (uint256) {\n        address signer = pubToAddress(signerPubkey);\n        require(signer != address(0x0) && signerToValidator[signer] == 0, \"Invalid signer\");\n\n        uint256 _currentEpoch = currentEpoch;\n        uint256 validatorId = NFTCounter;\n        StakingInfo _logger = logger;\n        uint256 newTotalStaked = totalStaked.add(amount);\n        totalStaked = newTotalStaked;\n\n        validators[validatorId] = Validator({\n            reward: 0,\n            amount: amount,\n            activationEpoch: _currentEpoch,\n            deactivationEpoch: 0,\n            jailTime: 0,\n            signer: signer,\n            contractAddress: acceptDelegation ? factory.create(validatorId, address(_logger), registry) : address(0x0),\n            status: Status.Active\n        });\n\n        latestSignerUpdateEpoch[validatorId] = _currentEpoch;\n        NFTContract.mint(user, validatorId);\n\n        signerToValidator[signer] = validatorId;\n        updateTimeline(int256(amount), 1, 0);\n        // no Auctions for 1 dynasty\n        validatorAuction[validatorId].startEpoch = _currentEpoch;\n        _logger.logStaked(signer, signerPubkey, validatorId, _currentEpoch, amount, newTotalStaked);\n        NFTCounter = validatorId.add(1);\n\n        return validatorId;\n    }\n\n    function _unstake(uint256 validatorId, uint256 exitEpoch) internal {\n        uint256 amount = validators[validatorId].amount;\n        address validator = ownerOf(validatorId);\n\n        validators[validatorId].deactivationEpoch = exitEpoch;\n\n        // unbond all delegators in future\n        int256 delegationAmount = 0;\n        uint256 rewards = validators[validatorId].reward;\n        address contractAddr = validators[validatorId].contractAddress;\n        if (contractAddr != address(0x0)) {\n            IValidatorShare validatorShare = IValidatorShare(contractAddr);\n            rewards = rewards.add(validatorShare.withdrawRewardsValidator());\n            delegationAmount = int256(validatorShare.lockContract());\n        }\n\n        _liquidateRewards(validatorId, validator, rewards);\n\n        //  update future\n        updateTimeline(-(int256(amount) + delegationAmount), -1, exitEpoch);\n\n        logger.logUnstakeInit(validator, validatorId, exitEpoch, amount);\n    }\n\n    function _finalizeCommit() internal {\n        uint256 _currentEpoch = currentEpoch;\n        uint256 nextEpoch = _currentEpoch.add(1);\n\n        StateChange memory changes = validatorStateChanges[nextEpoch];\n        updateTimeline(changes.amount, changes.stakerCount, 0);\n\n        delete validatorStateChanges[_currentEpoch];\n\n        currentEpoch = nextEpoch;\n    }\n\n    function updateTimeline(\n        int256 amount,\n        int256 stakerCount,\n        uint256 targetEpoch\n    ) private {\n        if (targetEpoch == 0) {\n            // update totalstake and validator count\n            if (amount > 0) {\n                validatorState.amount = validatorState.amount.add(uint256(amount));\n            } else if (amount < 0) {\n                validatorState.amount = validatorState.amount.sub(uint256(amount * -1));\n            }\n\n            if (stakerCount > 0) {\n                validatorState.stakerCount = validatorState.stakerCount.add(uint256(stakerCount));\n            } else if (stakerCount < 0) {\n                validatorState.stakerCount = validatorState.stakerCount.sub(uint256(stakerCount * -1));\n            }\n        } else {\n            validatorStateChanges[targetEpoch].amount += amount;\n            validatorStateChanges[targetEpoch].stakerCount += stakerCount;\n        }\n    }\n\n    function pubToAddress(bytes memory pub) private pure returns (address) {\n        require(pub.length == 64, \"Invalid pubkey\");\n        return address(uint160(uint256(keccak256(pub))));\n    }\n\n    function reinitialize(\n        address _NFTContract,\n        address _stakingLogger,\n        address _validatorShareFactory\n    ) external onlyGovernance {\n        NFTContract = StakingNFT(_NFTContract);\n        logger = StakingInfo(_stakingLogger);\n        factory = ValidatorShareFactory(_validatorShareFactory);\n    }\n\n    function updateValidatorDelegation(bool delegation) external {\n        uint256 validatorId = signerToValidator[msg.sender];\n        require(isValidator(validatorId), \"not a validator\");\n\n        address contractAddr = validators[validatorId].contractAddress;\n        require(contractAddr != address(0x0), \"delegation not enabled\");\n\n        IValidatorShare(contractAddr).updateDelegation(delegation);\n    }\n}\n",
  "sourcePath": "/home/manjain/Documents/contracts/contracts/staking/stakeManager/StakeManager.sol",
  "compiler": {
    "name": "solc",
    "version": "0.5.17+commit.d19bba13.Linux.g++"
  },
  "schemaVersion": "3.0.14",
  "updatedAt": "2021-02-21T12:11:06.907Z",
  "devdoc": {
    "methods": {
      "changeRootChain(address)": {
        "details": "Allows the current owner to change root chain address.",
        "params": {
          "newRootChain": "The address to new rootchain."
        }
      },
      "isOwner()": {
        "return": "true if `msg.sender` is the owner of the contract."
      },
      "owner()": {
        "return": "the address of the owner."
      },
      "renounceOwnership()": {
        "details": "Allows the current owner to relinquish control of the contract. It will not be possible to call the functions with the `onlyOwner` modifier anymore."
      },
      "transferOwnership(address)": {
        "details": "Allows the current owner to transfer control of the contract to a newOwner.",
        "params": {
          "newOwner": "The address to transfer ownership to."
        }
      }
    }
  },
  "userdoc": {
    "methods": {
      "renounceOwnership()": {
        "notice": "Renouncing ownership will leave the contract without an owner, thereby removing any functionality that is only available to the owner."
      }
    }
  }
}