{
  "contractName": "StakeManagerTestable",
  "abi": [
    {
      "anonymous": false,
      "inputs": [
        {
          "indexed": true,
          "internalType": "address",
          "name": "previousOwner",
          "type": "address"
        },
        {
          "indexed": true,
          "internalType": "address",
          "name": "newOwner",
          "type": "address"
        }
      ],
      "name": "OwnershipTransferred",
      "type": "event"
    },
    {
      "anonymous": false,
      "inputs": [
        {
          "indexed": true,
          "internalType": "address",
          "name": "previousRootChain",
          "type": "address"
        },
        {
          "indexed": true,
          "internalType": "address",
          "name": "newRootChain",
          "type": "address"
        }
      ],
      "name": "RootChainChanged",
      "type": "event"
    },
    {
      "constant": true,
      "inputs": [],
      "name": "CHECKPOINT_REWARD",
      "outputs": [
        {
          "internalType": "uint256",
          "name": "",
          "type": "uint256"
        }
      ],
      "payable": false,
      "stateMutability": "view",
      "type": "function"
    },
    {
      "constant": true,
      "inputs": [],
      "name": "NFTContract",
      "outputs": [
        {
          "internalType": "contract StakingNFT",
          "name": "",
          "type": "address"
        }
      ],
      "payable": false,
      "stateMutability": "view",
      "type": "function"
    },
    {
      "constant": true,
      "inputs": [],
      "name": "NFTCounter",
      "outputs": [
        {
          "internalType": "uint256",
          "name": "",
          "type": "uint256"
        }
      ],
      "payable": false,
      "stateMutability": "view",
      "type": "function"
    },
    {
      "constant": true,
      "inputs": [],
      "name": "WITHDRAWAL_DELAY",
      "outputs": [
        {
          "internalType": "uint256",
          "name": "",
          "type": "uint256"
        }
      ],
      "payable": false,
      "stateMutability": "view",
      "type": "function"
    },
    {
      "constant": true,
      "inputs": [],
      "name": "accountStateRoot",
      "outputs": [
        {
          "internalType": "bytes32",
          "name": "",
          "type": "bytes32"
        }
      ],
      "payable": false,
      "stateMutability": "view",
      "type": "function"
    },
    {
      "constant": true,
      "inputs": [],
      "name": "auctionPeriod",
      "outputs": [
        {
          "internalType": "uint256",
          "name": "",
          "type": "uint256"
        }
      ],
      "payable": false,
      "stateMutability": "view",
      "type": "function"
    },
    {
      "constant": false,
      "inputs": [
        {
          "internalType": "address",
          "name": "newRootChain",
          "type": "address"
        }
      ],
      "name": "changeRootChain",
      "outputs": [],
      "payable": false,
      "stateMutability": "nonpayable",
      "type": "function"
    },
    {
      "constant": true,
      "inputs": [],
      "name": "checkPointBlockInterval",
      "outputs": [
        {
          "internalType": "uint256",
          "name": "",
          "type": "uint256"
        }
      ],
      "payable": false,
      "stateMutability": "view",
      "type": "function"
    },
    {
      "constant": false,
      "inputs": [
        {
          "internalType": "uint256",
          "name": "blockInterval",
          "type": "uint256"
        },
        {
          "internalType": "bytes32",
          "name": "voteHash",
          "type": "bytes32"
        },
        {
          "internalType": "bytes32",
          "name": "stateRoot",
          "type": "bytes32"
        },
        {
          "internalType": "address",
          "name": "proposer",
          "type": "address"
        },
        {
          "internalType": "bytes",
          "name": "sigs",
          "type": "bytes"
        }
      ],
      "name": "checkSignatures",
      "outputs": [
        {
          "internalType": "uint256",
          "name": "",
          "type": "uint256"
        }
      ],
      "payable": false,
      "stateMutability": "nonpayable",
      "type": "function"
    },
    {
      "constant": false,
      "inputs": [
        {
          "internalType": "uint256",
          "name": "accumFeeAmount",
          "type": "uint256"
        },
        {
          "internalType": "uint256",
          "name": "index",
          "type": "uint256"
        },
        {
          "internalType": "bytes",
          "name": "proof",
          "type": "bytes"
        }
      ],
      "name": "claimFee",
      "outputs": [],
      "payable": false,
      "stateMutability": "nonpayable",
      "type": "function"
    },
    {
      "constant": false,
      "inputs": [
        {
          "internalType": "uint256",
          "name": "validatorId",
          "type": "uint256"
        },
        {
          "internalType": "uint256",
          "name": "heimdallFee",
          "type": "uint256"
        }
      ],
      "name": "confirmAuctionBid",
      "outputs": [],
      "payable": false,
      "stateMutability": "nonpayable",
      "type": "function"
    },
    {
      "constant": true,
      "inputs": [],
      "name": "currentEpoch",
      "outputs": [
        {
          "internalType": "uint256",
          "name": "",
          "type": "uint256"
        }
      ],
      "payable": false,
      "stateMutability": "view",
      "type": "function"
    },
    {
      "constant": true,
      "inputs": [],
      "name": "currentValidatorSetSize",
      "outputs": [
        {
          "internalType": "uint256",
          "name": "",
          "type": "uint256"
        }
      ],
      "payable": false,
      "stateMutability": "view",
      "type": "function"
    },
    {
      "constant": true,
      "inputs": [],
      "name": "currentValidatorSetTotalStake",
      "outputs": [
        {
          "internalType": "uint256",
          "name": "",
          "type": "uint256"
        }
      ],
      "payable": false,
      "stateMutability": "view",
      "type": "function"
    },
    {
      "constant": false,
      "inputs": [
        {
          "internalType": "uint256",
          "name": "validatorId",
          "type": "uint256"
        },
        {
          "internalType": "uint256",
          "name": "amount",
          "type": "uint256"
        },
        {
          "internalType": "address",
          "name": "delegator",
          "type": "address"
        }
      ],
      "name": "delegationDeposit",
      "outputs": [
        {
          "internalType": "bool",
          "name": "",
          "type": "bool"
        }
      ],
      "payable": false,
      "stateMutability": "nonpayable",
      "type": "function"
    },
    {
      "constant": true,
      "inputs": [],
      "name": "delegationEnabled",
      "outputs": [
        {
          "internalType": "bool",
          "name": "",
          "type": "bool"
        }
      ],
      "payable": false,
      "stateMutability": "view",
      "type": "function"
    },
    {
      "constant": true,
      "inputs": [],
      "name": "dynasty",
      "outputs": [
        {
          "internalType": "uint256",
          "name": "",
          "type": "uint256"
        }
      ],
      "payable": false,
      "stateMutability": "view",
      "type": "function"
    },
    {
      "constant": true,
      "inputs": [],
      "name": "epoch",
      "outputs": [
        {
          "internalType": "uint256",
          "name": "",
          "type": "uint256"
        }
      ],
      "payable": false,
      "stateMutability": "view",
      "type": "function"
    },
    {
      "constant": true,
      "inputs": [],
      "name": "factory",
      "outputs": [
        {
          "internalType": "contract ValidatorShareFactory",
          "name": "",
          "type": "address"
        }
      ],
      "payable": false,
      "stateMutability": "view",
      "type": "function"
    },
    {
      "constant": false,
      "inputs": [
        {
          "internalType": "uint256",
          "name": "validatorId",
          "type": "uint256"
        }
      ],
      "name": "forceUnstake",
      "outputs": [],
      "payable": false,
      "stateMutability": "nonpayable",
      "type": "function"
    },
    {
      "constant": true,
      "inputs": [
        {
          "internalType": "uint256",
          "name": "validatorId",
          "type": "uint256"
        }
      ],
      "name": "getValidatorContract",
      "outputs": [
        {
          "internalType": "address",
          "name": "",
          "type": "address"
        }
      ],
      "payable": false,
      "stateMutability": "view",
      "type": "function"
    },
    {
      "constant": true,
      "inputs": [
        {
          "internalType": "address",
          "name": "user",
          "type": "address"
        }
      ],
      "name": "getValidatorId",
      "outputs": [
        {
          "internalType": "uint256",
          "name": "",
          "type": "uint256"
        }
      ],
      "payable": false,
      "stateMutability": "view",
      "type": "function"
    },
    {
      "constant": true,
      "inputs": [],
      "name": "governance",
      "outputs": [
        {
          "internalType": "contract IGovernance",
          "name": "",
          "type": "address"
        }
      ],
      "payable": false,
      "stateMutability": "view",
      "type": "function"
    },
    {
      "constant": false,
      "inputs": [
        {
          "internalType": "address",
          "name": "_registry",
          "type": "address"
        },
        {
          "internalType": "address",
          "name": "_rootchain",
          "type": "address"
        },
        {
          "internalType": "address",
          "name": "_token",
          "type": "address"
        },
        {
          "internalType": "address",
          "name": "_NFTContract",
          "type": "address"
        },
        {
          "internalType": "address",
          "name": "_stakingLogger",
          "type": "address"
        },
        {
          "internalType": "address",
          "name": "_validatorShareFactory",
          "type": "address"
        },
        {
          "internalType": "address",
          "name": "_governance",
          "type": "address"
        },
        {
          "internalType": "address",
          "name": "_owner",
          "type": "address"
        }
      ],
      "name": "initialize",
      "outputs": [],
      "payable": false,
      "stateMutability": "nonpayable",
      "type": "function"
    },
    {
      "constant": true,
      "inputs": [],
      "name": "isOwner",
      "outputs": [
        {
          "internalType": "bool",
          "name": "",
          "type": "bool"
        }
      ],
      "payable": false,
      "stateMutability": "view",
      "type": "function"
    },
    {
      "constant": true,
      "inputs": [
        {
          "internalType": "uint256",
          "name": "validatorId",
          "type": "uint256"
        }
      ],
      "name": "isValidator",
      "outputs": [
        {
          "internalType": "bool",
          "name": "",
          "type": "bool"
        }
      ],
      "payable": false,
      "stateMutability": "view",
      "type": "function"
    },
    {
      "constant": true,
      "inputs": [
        {
          "internalType": "uint256",
          "name": "",
          "type": "uint256"
        }
      ],
      "name": "latestSignerUpdateEpoch",
      "outputs": [
        {
          "internalType": "uint256",
          "name": "",
          "type": "uint256"
        }
      ],
      "payable": false,
      "stateMutability": "view",
      "type": "function"
    },
    {
      "constant": false,
      "inputs": [],
      "name": "lock",
      "outputs": [],
      "payable": false,
      "stateMutability": "nonpayable",
      "type": "function"
    },
    {
      "constant": true,
      "inputs": [],
      "name": "locked",
      "outputs": [
        {
          "internalType": "bool",
          "name": "",
          "type": "bool"
        }
      ],
      "payable": false,
      "stateMutability": "view",
      "type": "function"
    },
    {
      "constant": true,
      "inputs": [],
      "name": "logger",
      "outputs": [
        {
          "internalType": "contract StakingInfo",
          "name": "",
          "type": "address"
        }
      ],
      "payable": false,
      "stateMutability": "view",
      "type": "function"
    },
    {
      "constant": true,
      "inputs": [],
      "name": "minDeposit",
      "outputs": [
        {
          "internalType": "uint256",
          "name": "",
          "type": "uint256"
        }
      ],
      "payable": false,
      "stateMutability": "view",
      "type": "function"
    },
    {
      "constant": true,
      "inputs": [],
      "name": "minHeimdallFee",
      "outputs": [
        {
          "internalType": "uint256",
          "name": "",
          "type": "uint256"
        }
      ],
      "payable": false,
      "stateMutability": "view",
      "type": "function"
    },
    {
      "constant": true,
      "inputs": [],
      "name": "owner",
      "outputs": [
        {
          "internalType": "address",
          "name": "",
          "type": "address"
        }
      ],
      "payable": false,
      "stateMutability": "view",
      "type": "function"
    },
    {
      "constant": true,
      "inputs": [
        {
          "internalType": "uint256",
          "name": "tokenId",
          "type": "uint256"
        }
      ],
      "name": "ownerOf",
      "outputs": [
        {
          "internalType": "address",
          "name": "",
          "type": "address"
        }
      ],
      "payable": false,
      "stateMutability": "view",
      "type": "function"
    },
    {
      "constant": true,
      "inputs": [],
      "name": "proposerBonus",
      "outputs": [
        {
          "internalType": "uint256",
          "name": "",
          "type": "uint256"
        }
      ],
      "payable": false,
      "stateMutability": "view",
      "type": "function"
    },
    {
      "constant": true,
      "inputs": [],
      "name": "registry",
      "outputs": [
        {
          "internalType": "address",
          "name": "",
          "type": "address"
        }
      ],
      "payable": false,
      "stateMutability": "view",
      "type": "function"
    },
    {
      "constant": false,
      "inputs": [
        {
          "internalType": "address",
          "name": "_NFTContract",
          "type": "address"
        },
        {
          "internalType": "address",
          "name": "_stakingLogger",
          "type": "address"
        },
        {
          "internalType": "address",
          "name": "_validatorShareFactory",
          "type": "address"
        }
      ],
      "name": "reinitialize",
      "outputs": [],
      "payable": false,
      "stateMutability": "nonpayable",
      "type": "function"
    },
    {
      "constant": false,
      "inputs": [],
      "name": "renounceOwnership",
      "outputs": [],
      "payable": false,
      "stateMutability": "nonpayable",
      "type": "function"
    },
    {
      "constant": true,
      "inputs": [],
      "name": "replacementCoolDown",
      "outputs": [
        {
          "internalType": "uint256",
          "name": "",
          "type": "uint256"
        }
      ],
      "payable": false,
      "stateMutability": "view",
      "type": "function"
    },
    {
      "constant": false,
      "inputs": [
        {
          "internalType": "uint256",
          "name": "validatorId",
          "type": "uint256"
        },
        {
          "internalType": "uint256",
          "name": "amount",
          "type": "uint256"
        },
        {
          "internalType": "bool",
          "name": "stakeRewards",
          "type": "bool"
        }
      ],
      "name": "restake",
      "outputs": [],
      "payable": false,
      "stateMutability": "nonpayable",
      "type": "function"
    },
    {
      "constant": true,
      "inputs": [],
      "name": "rootChain",
      "outputs": [
        {
          "internalType": "address",
          "name": "",
          "type": "address"
        }
      ],
      "payable": false,
      "stateMutability": "view",
      "type": "function"
    },
    {
      "constant": false,
      "inputs": [
        {
          "internalType": "uint256",
          "name": "_currentEpoch",
          "type": "uint256"
        }
      ],
      "name": "setCurrentEpoch",
      "outputs": [],
      "payable": false,
      "stateMutability": "nonpayable",
      "type": "function"
    },
    {
      "constant": false,
      "inputs": [
        {
          "internalType": "bool",
          "name": "enabled",
          "type": "bool"
        }
      ],
      "name": "setDelegationEnabled",
      "outputs": [],
      "payable": false,
      "stateMutability": "nonpayable",
      "type": "function"
    },
    {
      "constant": false,
      "inputs": [
        {
          "internalType": "address",
          "name": "_token",
          "type": "address"
        }
      ],
      "name": "setToken",
      "outputs": [],
      "payable": false,
      "stateMutability": "nonpayable",
      "type": "function"
    },
    {
      "constant": true,
      "inputs": [
        {
          "internalType": "address",
          "name": "",
          "type": "address"
        }
      ],
      "name": "signerToValidator",
      "outputs": [
        {
          "internalType": "uint256",
          "name": "",
          "type": "uint256"
        }
      ],
      "payable": false,
      "stateMutability": "view",
      "type": "function"
    },
    {
      "constant": true,
      "inputs": [],
      "name": "signerUpdateLimit",
      "outputs": [
        {
          "internalType": "uint256",
          "name": "",
          "type": "uint256"
        }
      ],
      "payable": false,
      "stateMutability": "view",
      "type": "function"
    },
    {
      "constant": false,
      "inputs": [
        {
          "internalType": "bytes",
          "name": "_slashingInfoList",
          "type": "bytes"
        }
      ],
      "name": "slash",
      "outputs": [
        {
          "internalType": "uint256",
          "name": "",
          "type": "uint256"
        }
      ],
      "payable": false,
      "stateMutability": "nonpayable",
      "type": "function"
    },
    {
      "constant": false,
      "inputs": [
        {
          "internalType": "uint256",
          "name": "amount",
          "type": "uint256"
        },
        {
          "internalType": "uint256",
          "name": "heimdallFee",
          "type": "uint256"
        },
        {
          "internalType": "bool",
          "name": "acceptDelegation",
          "type": "bool"
        },
        {
          "internalType": "bytes",
          "name": "signerPubkey",
          "type": "bytes"
        }
      ],
      "name": "stake",
      "outputs": [],
      "payable": false,
      "stateMutability": "nonpayable",
      "type": "function"
    },
    {
      "constant": false,
      "inputs": [
        {
          "internalType": "address",
          "name": "user",
          "type": "address"
        },
        {
          "internalType": "uint256",
          "name": "amount",
          "type": "uint256"
        },
        {
          "internalType": "uint256",
          "name": "heimdallFee",
          "type": "uint256"
        },
        {
          "internalType": "bool",
          "name": "acceptDelegation",
          "type": "bool"
        },
        {
          "internalType": "bytes",
          "name": "signerPubkey",
          "type": "bytes"
        }
      ],
      "name": "stakeFor",
      "outputs": [],
      "payable": false,
      "stateMutability": "nonpayable",
      "type": "function"
    },
    {
      "constant": false,
      "inputs": [
        {
          "internalType": "uint256",
          "name": "validatorId",
          "type": "uint256"
        },
        {
          "internalType": "uint256",
          "name": "amount",
          "type": "uint256"
        },
        {
          "internalType": "bool",
          "name": "_acceptDelegation",
          "type": "bool"
        },
        {
          "internalType": "bytes",
          "name": "_signerPubkey",
          "type": "bytes"
        }
      ],
      "name": "startAuction",
      "outputs": [],
      "payable": false,
      "stateMutability": "nonpayable",
      "type": "function"
    },
    {
      "constant": false,
      "inputs": [
        {
          "internalType": "uint256",
          "name": "forNCheckpoints",
          "type": "uint256"
        }
      ],
      "name": "stopAuctions",
      "outputs": [],
      "payable": false,
      "stateMutability": "nonpayable",
      "type": "function"
    },
    {
      "constant": true,
      "inputs": [],
      "name": "token",
      "outputs": [
        {
          "internalType": "contract IERC20",
          "name": "",
          "type": "address"
        }
      ],
      "payable": false,
      "stateMutability": "view",
      "type": "function"
    },
    {
      "constant": false,
      "inputs": [
        {
          "internalType": "address",
          "name": "user",
          "type": "address"
        },
        {
          "internalType": "uint256",
          "name": "heimdallFee",
          "type": "uint256"
        }
      ],
      "name": "topUpForFee",
      "outputs": [],
      "payable": false,
      "stateMutability": "nonpayable",
      "type": "function"
    },
    {
      "constant": true,
      "inputs": [],
      "name": "totalHeimdallFee",
      "outputs": [
        {
          "internalType": "uint256",
          "name": "",
          "type": "uint256"
        }
      ],
      "payable": false,
      "stateMutability": "view",
      "type": "function"
    },
    {
      "constant": true,
      "inputs": [],
      "name": "totalRewards",
      "outputs": [
        {
          "internalType": "uint256",
          "name": "",
          "type": "uint256"
        }
      ],
      "payable": false,
      "stateMutability": "view",
      "type": "function"
    },
    {
      "constant": true,
      "inputs": [],
      "name": "totalRewardsLiquidated",
      "outputs": [
        {
          "internalType": "uint256",
          "name": "",
          "type": "uint256"
        }
      ],
      "payable": false,
      "stateMutability": "view",
      "type": "function"
    },
    {
      "constant": true,
      "inputs": [],
      "name": "totalStaked",
      "outputs": [
        {
          "internalType": "uint256",
          "name": "",
          "type": "uint256"
        }
      ],
      "payable": false,
      "stateMutability": "view",
      "type": "function"
    },
    {
      "constant": true,
      "inputs": [
        {
          "internalType": "address",
          "name": "user",
          "type": "address"
        }
      ],
      "name": "totalStakedFor",
      "outputs": [
        {
          "internalType": "uint256",
          "name": "",
          "type": "uint256"
        }
      ],
      "payable": false,
      "stateMutability": "view",
      "type": "function"
    },
    {
      "constant": false,
      "inputs": [
        {
          "internalType": "uint256",
          "name": "validatorId",
          "type": "uint256"
        },
        {
          "internalType": "uint256",
          "name": "amount",
          "type": "uint256"
        },
        {
          "internalType": "address",
          "name": "delegator",
          "type": "address"
        }
      ],
      "name": "transferFunds",
      "outputs": [
        {
          "internalType": "bool",
          "name": "",
          "type": "bool"
        }
      ],
      "payable": false,
      "stateMutability": "nonpayable",
      "type": "function"
    },
    {
      "constant": false,
      "inputs": [
        {
          "internalType": "address",
          "name": "newOwner",
          "type": "address"
        }
      ],
      "name": "transferOwnership",
      "outputs": [],
      "payable": false,
      "stateMutability": "nonpayable",
      "type": "function"
    },
    {
      "constant": false,
      "inputs": [
        {
          "internalType": "uint256",
          "name": "validatorId",
          "type": "uint256"
        }
      ],
      "name": "unjail",
      "outputs": [],
      "payable": false,
      "stateMutability": "nonpayable",
      "type": "function"
    },
    {
      "constant": false,
      "inputs": [],
      "name": "unlock",
      "outputs": [],
      "payable": false,
      "stateMutability": "nonpayable",
      "type": "function"
    },
    {
      "constant": false,
      "inputs": [
        {
          "internalType": "uint256",
          "name": "validatorId",
          "type": "uint256"
        }
      ],
      "name": "unstake",
      "outputs": [],
      "payable": false,
      "stateMutability": "nonpayable",
      "type": "function"
    },
    {
      "constant": false,
      "inputs": [
        {
          "internalType": "uint256",
          "name": "validatorId",
          "type": "uint256"
        }
      ],
      "name": "unstakeClaim",
      "outputs": [],
      "payable": false,
      "stateMutability": "nonpayable",
      "type": "function"
    },
    {
      "constant": false,
      "inputs": [
        {
          "internalType": "uint256",
          "name": "_blocks",
          "type": "uint256"
        }
      ],
      "name": "updateCheckPointBlockInterval",
      "outputs": [],
      "payable": false,
      "stateMutability": "nonpayable",
      "type": "function"
    },
    {
      "constant": false,
      "inputs": [
        {
          "internalType": "uint256",
          "name": "newReward",
          "type": "uint256"
        }
      ],
      "name": "updateCheckpointReward",
      "outputs": [],
      "payable": false,
      "stateMutability": "nonpayable",
      "type": "function"
    },
    {
      "constant": false,
      "inputs": [
        {
          "internalType": "uint256",
          "name": "validatorId",
          "type": "uint256"
        },
        {
          "internalType": "address",
          "name": "newContractAddress",
          "type": "address"
        }
      ],
      "name": "updateContractAddress",
      "outputs": [],
      "payable": false,
      "stateMutability": "nonpayable",
      "type": "function"
    },
    {
      "constant": false,
      "inputs": [
        {
          "internalType": "uint256",
          "name": "newDynasty",
          "type": "uint256"
        }
      ],
      "name": "updateDynastyValue",
      "outputs": [],
      "payable": false,
      "stateMutability": "nonpayable",
      "type": "function"
    },
    {
      "constant": false,
      "inputs": [
        {
          "internalType": "uint256",
          "name": "_minDeposit",
          "type": "uint256"
        },
        {
          "internalType": "uint256",
          "name": "_minHeimdallFee",
          "type": "uint256"
        }
      ],
      "name": "updateMinAmounts",
      "outputs": [],
      "payable": false,
      "stateMutability": "nonpayable",
      "type": "function"
    },
    {
      "constant": false,
      "inputs": [
        {
          "internalType": "uint256",
          "name": "newProposerBonus",
          "type": "uint256"
        }
      ],
      "name": "updateProposerBonus",
      "outputs": [],
      "payable": false,
      "stateMutability": "nonpayable",
      "type": "function"
    },
    {
      "constant": false,
      "inputs": [
        {
          "internalType": "uint256",
          "name": "validatorId",
          "type": "uint256"
        },
        {
          "internalType": "bytes",
          "name": "signerPubkey",
          "type": "bytes"
        }
      ],
      "name": "updateSigner",
      "outputs": [],
      "payable": false,
      "stateMutability": "nonpayable",
      "type": "function"
    },
    {
      "constant": false,
      "inputs": [
        {
          "internalType": "uint256",
          "name": "_limit",
          "type": "uint256"
        }
      ],
      "name": "updateSignerUpdateLimit",
      "outputs": [],
      "payable": false,
      "stateMutability": "nonpayable",
      "type": "function"
    },
    {
      "constant": false,
      "inputs": [
        {
          "internalType": "bool",
          "name": "delegation",
          "type": "bool"
        }
      ],
      "name": "updateValidatorDelegation",
      "outputs": [],
      "payable": false,
      "stateMutability": "nonpayable",
      "type": "function"
    },
    {
      "constant": false,
      "inputs": [
        {
          "internalType": "uint256",
          "name": "validatorId",
          "type": "uint256"
        },
        {
          "internalType": "int256",
          "name": "amount",
          "type": "int256"
        }
      ],
      "name": "updateValidatorState",
      "outputs": [],
      "payable": false,
      "stateMutability": "nonpayable",
      "type": "function"
    },
    {
      "constant": false,
      "inputs": [
        {
          "internalType": "uint256",
          "name": "newThreshold",
          "type": "uint256"
        }
      ],
      "name": "updateValidatorThreshold",
      "outputs": [],
      "payable": false,
      "stateMutability": "nonpayable",
      "type": "function"
    },
    {
      "constant": true,
      "inputs": [
        {
          "internalType": "address",
          "name": "",
          "type": "address"
        }
      ],
      "name": "userFeeExit",
      "outputs": [
        {
          "internalType": "uint256",
          "name": "",
          "type": "uint256"
        }
      ],
      "payable": false,
      "stateMutability": "view",
      "type": "function"
    },
    {
      "constant": true,
      "inputs": [
        {
          "internalType": "uint256",
          "name": "",
          "type": "uint256"
        }
      ],
      "name": "validatorAuction",
      "outputs": [
        {
          "internalType": "uint256",
          "name": "amount",
          "type": "uint256"
        },
        {
          "internalType": "uint256",
          "name": "startEpoch",
          "type": "uint256"
        },
        {
          "internalType": "address",
          "name": "user",
          "type": "address"
        },
        {
          "internalType": "bool",
          "name": "acceptDelegation",
          "type": "bool"
        },
        {
          "internalType": "bytes",
          "name": "signerPubkey",
          "type": "bytes"
        }
      ],
      "payable": false,
      "stateMutability": "view",
      "type": "function"
    },
    {
      "constant": true,
      "inputs": [
        {
          "internalType": "uint256",
          "name": "validatorId",
          "type": "uint256"
        }
      ],
      "name": "validatorStake",
      "outputs": [
        {
          "internalType": "uint256",
          "name": "",
          "type": "uint256"
        }
      ],
      "payable": false,
      "stateMutability": "view",
      "type": "function"
    },
    {
      "constant": true,
      "inputs": [],
      "name": "validatorState",
      "outputs": [
        {
          "internalType": "uint256",
          "name": "amount",
          "type": "uint256"
        },
        {
          "internalType": "uint256",
          "name": "stakerCount",
          "type": "uint256"
        }
      ],
      "payable": false,
      "stateMutability": "view",
      "type": "function"
    },
    {
      "constant": true,
      "inputs": [
        {
          "internalType": "uint256",
          "name": "",
          "type": "uint256"
        }
      ],
      "name": "validatorStateChanges",
      "outputs": [
        {
          "internalType": "int256",
          "name": "amount",
          "type": "int256"
        },
        {
          "internalType": "int256",
          "name": "stakerCount",
          "type": "int256"
        }
      ],
      "payable": false,
      "stateMutability": "view",
      "type": "function"
    },
    {
      "constant": true,
      "inputs": [],
      "name": "validatorThreshold",
      "outputs": [
        {
          "internalType": "uint256",
          "name": "",
          "type": "uint256"
        }
      ],
      "payable": false,
      "stateMutability": "view",
      "type": "function"
    },
    {
      "constant": true,
      "inputs": [
        {
          "internalType": "uint256",
          "name": "",
          "type": "uint256"
        }
      ],
      "name": "validators",
      "outputs": [
        {
          "internalType": "uint256",
          "name": "amount",
          "type": "uint256"
        },
        {
          "internalType": "uint256",
          "name": "reward",
          "type": "uint256"
        },
        {
          "internalType": "uint256",
          "name": "activationEpoch",
          "type": "uint256"
        },
        {
          "internalType": "uint256",
          "name": "deactivationEpoch",
          "type": "uint256"
        },
        {
          "internalType": "uint256",
          "name": "jailTime",
          "type": "uint256"
        },
        {
          "internalType": "address",
          "name": "signer",
          "type": "address"
        },
        {
          "internalType": "address",
          "name": "contractAddress",
          "type": "address"
        },
        {
          "internalType": "enum StakeManagerStorage.Status",
          "name": "status",
          "type": "uint8"
        }
      ],
      "payable": false,
      "stateMutability": "view",
      "type": "function"
    },
    {
      "constant": false,
      "inputs": [
        {
          "internalType": "uint256",
          "name": "validatorId",
          "type": "uint256"
        }
      ],
      "name": "withdrawRewards",
      "outputs": [],
      "payable": false,
      "stateMutability": "nonpayable",
      "type": "function"
    },
    {
      "constant": true,
      "inputs": [],
      "name": "withdrawalDelay",
      "outputs": [
        {
          "internalType": "uint256",
          "name": "",
          "type": "uint256"
        }
      ],
      "payable": false,
      "stateMutability": "view",
      "type": "function"
    },
    {
      "constant": false,
      "inputs": [
        {
          "internalType": "uint256",
          "name": "delta",
          "type": "uint256"
        }
      ],
      "name": "advanceEpoch",
      "outputs": [],
      "payable": false,
      "stateMutability": "nonpayable",
      "type": "function"
    },
    {
      "constant": false,
      "inputs": [
        {
          "internalType": "uint256",
          "name": "validatorId",
          "type": "uint256"
        },
        {
          "internalType": "bool",
          "name": "lock",
          "type": "bool"
        }
      ],
      "name": "testLockShareContract",
      "outputs": [],
      "payable": false,
      "stateMutability": "nonpayable",
      "type": "function"
    }
  ],
  "bytecode": "0x608060408190526023805460ff1916905560008054610100600160a81b0319168155600180546001600160a01b0319163317908190556001600160a01b0316917f8be0079c531659141344cd1fd0a4f28419497f9722a3daafe3b4186f6b6457e0908290a3615db6806100736000396000f3fe608060405234801561001057600080fd5b50600436106104c25760003560e01c80637d66975211610278578063c45a01551161015c578063eceec1d3116100ce578063f41a964211610092578063f41a9642146110c6578063f4547a4d14611171578063f771fc871461119d578063f83d08ba146111ba578063fba58f34146111c2578063fc0c546a146111ca576104c2565b8063eceec1d31461103f578063f24ccbfe1461105c578063f28699fa14611064578063f2fde38b14611083578063f3b87779146110a9576104c2565b8063d7f5549d11610120578063d7f5549d14610f95578063d86d53e714610fb2578063e59ee0c614610fcf578063e6692f4914610fd7578063e6bd8bb814610ff4578063e8afa8e814611019576104c2565b8063c45a015514610f41578063cbf383d514610f49578063cd6b838814610f66578063cf30901214610f6e578063d6de07d014610f76576104c2565b806399d18f6f116101f5578063a4769071116101b9578063a476907114610e51578063a685487714610e59578063a69df4b514610edc578063a7ab696114610ee4578063b1d23f0214610eec578063bc8756a914610f0f576104c2565b806399d18f6f14610dc95780639a8a624314610dec5780639b33f43414610df45780639ff1150014610e11578063a440ab1e14610e34576104c2565b80638f32d59b1161023c5780638f32d59b14610d77578063900cf0cf14610d7f5780639146014914610d875780639342c8f414610da4578063987ab9db14610dc1576104c2565b80637d66975214610cf85780637f952d9514610d00578063817b1cd214610d085780638a29e2de14610d105780638da5cb5b14610d6f576104c2565b806341b3d185116103aa5780636352211e1161031c5780637060054d116102e05780637060054d14610caa578063715018a614610cb25780637667180814610cba57806377939d1014610cc257806378f84a4414610cca5780637b10399914610cf0576104c2565b80636352211e14610b475780636365679814610b645780636400e38514610b9057806368cb812a14610bc85780636901b25314610c78576104c2565b80635325e1441161036e5780635325e144146109a757806354b8c60114610a6e5780635508d8e114610a7657806356342d8c14610a7e5780635aa6e67514610a9b5780635e47655f14610aa3576104c2565b806341b3d185146108a25780634b341aed146108aa5780634e3c83f1146108d05780634fd101d7146108d85780634fdd20f1146108e0576104c2565b806317c2b9101161044357806328cc4e411161040757806328cc4e41146107725780632e17de781461079d57806331c2273b146107ba57806334274586146107de57806335aa2e44146107e65780633862da0b1461087c576104c2565b806317c2b910146106de5780631dd6b9b1146106e6578063253164111461070357806325726df21461070b5780632649263a14610741576104c2565b80630ebb172a1161048a5780630ebb172a14610650578063144fa6d71461065857806316827b1b1461067e578063174e68321461069b578063178c2c83146106c1576104c2565b8063028c4c67146104c7578063066647a01461054c57806306cfb104146106235780630cccfc58146106405780630e15561a14610648575b600080fd5b61054a600480360360808110156104dd57600080fd5b813591602081013591604082013515159190810190608081016060820135600160201b81111561050c57600080fd5b82018360208201111561051e57600080fd5b803590602001918460018302840111600160201b8311171561053f57600080fd5b5090925090506111d2565b005b610611600480360360a081101561056257600080fd5b8135916020810135916040820135916001600160a01b036060820135169181019060a081016080820135600160201b81111561059d57600080fd5b8201836020820111156105af57600080fd5b803590602001918460018302840111600160201b831117156105d057600080fd5b91908080601f01602080910402602001604051908101604052809392919081815260200183838082843760009201919091525092955061121c945050505050565b60408051918252519081900360200190f35b61054a6004803603602081101561063957600080fd5b5035611395565b6106116113e8565b6106116113ee565b6106116113f4565b61054a6004803603602081101561066e57600080fd5b50356001600160a01b03166113fa565b61054a6004803603602081101561069457600080fd5b503561147d565b610611600480360360208110156106b157600080fd5b50356001600160a01b031661154f565b61054a600480360360208110156106d757600080fd5b50356115d9565b610611611896565b61054a600480360360208110156106fc57600080fd5b503561189c565b6106116118ef565b6107286004803603602081101561072157600080fd5b50356118f5565b6040805192835260208301919091528051918290030190f35b61075e6004803603602081101561075757600080fd5b503561190e565b604080519115158252519081900360200190f35b61054a6004803603606081101561078857600080fd5b5080359060208101359060400135151561198f565b61054a600480360360208110156107b357600080fd5b5035611cd0565b6107c2611dfc565b604080516001600160a01b039092168252519081900360200190f35b610611611e0b565b610803600480360360208110156107fc57600080fd5b5035611e11565b60405180898152602001888152602001878152602001868152602001858152602001846001600160a01b03166001600160a01b03168152602001836001600160a01b03166001600160a01b0316815260200182600381111561086157fe5b60ff1681526020019850505050505050505060405180910390f35b6106116004803603602081101561089257600080fd5b50356001600160a01b0316611e67565b610611611e79565b610611600480360360208110156108c057600080fd5b50356001600160a01b0316611e7f565b610611611fb6565b610611611fbc565b61054a600480360360a08110156108f657600080fd5b6001600160a01b0382351691602081013591604082013591606081013515159181019060a081016080820135600160201b81111561093357600080fd5b82018360208201111561094557600080fd5b803590602001918460018302840111600160201b8311171561096657600080fd5b91908080601f016020809104026020016040519081016040528093929190818152602001838380828437600092019190915250929550611fc2945050505050565b6109c4600480360360208110156109bd57600080fd5b5035612086565b60405180868152602001858152602001846001600160a01b03166001600160a01b031681526020018315151515815260200180602001828103825283818151815260200191508051906020019080838360005b83811015610a2f578181015183820152602001610a17565b50505050905090810190601f168015610a5c5780820380516001836020036101000a031916815260200191505b50965050505050505060405180910390f35b61075e61214c565b610611612155565b6107c260048036036020811015610a9457600080fd5b503561215b565b6107c2612179565b61061160048036036020811015610ab957600080fd5b810190602081018135600160201b811115610ad357600080fd5b820183602082011115610ae557600080fd5b803590602001918460018302840111600160201b83111715610b0657600080fd5b91908080601f01602080910402602001604051908101604052809392919081815260200183838082843760009201919091525092955061218d945050505050565b6107c260048036036020811015610b5d57600080fd5b5035612456565b61054a60048036036040811015610b7a57600080fd5b506001600160a01b0381351690602001356124a2565b61054a60048036036060811015610ba657600080fd5b506001600160a01b0381358116916020810135821691604090910135166124ba565b61054a60048036036060811015610bde57600080fd5b813591602081013591810190606081016040820135600160201b811115610c0457600080fd5b820183602082011115610c1657600080fd5b803590602001918460018302840111600160201b83111715610c3757600080fd5b91908080601f016020809104026020016040519081016040528093929190818152602001838380828437600092019190915250929550612547945050505050565b61075e60048036036060811015610c8e57600080fd5b50803590602081013590604001356001600160a01b031661277e565b610611612877565b61054a61287d565b6106116128d8565b6106116128de565b61061160048036036020811015610ce057600080fd5b50356001600160a01b03166128e4565b6107c26128f6565b610611612905565b61061161290b565b610611612912565b61054a6004803603610100811015610d2757600080fd5b506001600160a01b038135811691602081013582169160408201358116916060810135821691608082013581169160a081013582169160c082013581169160e0013516612918565b6107c2612a61565b61075e612a70565b610611612a81565b61054a60048036036020811015610d9d57600080fd5b5035612a87565b61054a60048036036020811015610dba57600080fd5b5035612ae4565b6107c2612b9b565b61054a60048036036040811015610ddf57600080fd5b5080359060200135612baa565b6106116130a0565b61054a60048036036020811015610e0a57600080fd5b50356130a6565b61054a60048036036040811015610e2757600080fd5b50803590602001356131a8565b61054a60048036036020811015610e4a57600080fd5b5035613276565b61061161331e565b61054a60048036036080811015610e6f57600080fd5b813591602081013591604082013515159190810190608081016060820135600160201b811115610e9e57600080fd5b820183602082011115610eb057600080fd5b803590602001918460018302840111600160201b83111715610ed157600080fd5b509092509050613324565b61054a6138a5565b6106116138fd565b61054a60048036036040811015610f0257600080fd5b5080359060200135613903565b61075e60048036036060811015610f2557600080fd5b50803590602081013590604001356001600160a01b031661395c565b6107c2613a9c565b61054a60048036036020811015610f5f57600080fd5b5035613aab565b610611613b7d565b61075e613b83565b61054a60048036036020811015610f8c57600080fd5b50351515613b8c565b61061160048036036020811015610fab57600080fd5b5035613cb4565b61054a60048036036020811015610fc857600080fd5b5035613cc6565b610728613f37565b61054a60048036036020811015610fed57600080fd5b5035613f40565b61054a6004803603604081101561100a57600080fd5b50803590602001351515614042565b61054a6004803603602081101561102f57600080fd5b50356001600160a01b031661414e565b6106116004803603602081101561105557600080fd5b50356141ce565b6107c26141e0565b61054a6004803603602081101561107a57600080fd5b503515156141ef565b61054a6004803603602081101561109957600080fd5b50356001600160a01b0316614250565b61054a600480360360208110156110bf57600080fd5b503561426a565b61054a600480360360408110156110dc57600080fd5b81359190810190604081016020820135600160201b8111156110fd57600080fd5b82018360208201111561110f57600080fd5b803590602001918460018302840111600160201b8311171561113057600080fd5b91908080601f016020809104026020016040519081016040528093929190818152602001838380828437600092019190915250929550614283945050505050565b61054a6004803603604081101561118757600080fd5b50803590602001356001600160a01b03166144dc565b61054a600480360360208110156111b357600080fd5b503561460f565b61054a614670565b6106116146c6565b6107c26146cc565b6112153386868686868080601f016020809104026020016040519081016040528093929190818152602001838380828437600092019190915250611fc292505050565b5050505050565b6002546000906001600160a01b0316331461123657600080fd5b600061125f600e54611253600b548a6146db90919063ffffffff16565b9063ffffffff61470b16565b905061126d600b548261472d565b9050600061128b6064611253601654856146db90919063ffffffff16565b6001600160a01b038087166000908152601b60209081526040808320548352601a909152902060068101549293509116156113355760068101548154604080516301a6632160e31b8152600481018690526024810192909252516001600160a01b0390921691630d3319089160448082019260009290919082900301818387803b15801561131857600080fd5b505af115801561132c573d6000803e3d6000fd5b50505050611350565b600181015461134a908363ffffffff61474316565b60018201555b611360838363ffffffff61475516565b9250600061136c61331e565b6017899055905061137b61476a565b61138781858b896147df565b9a9950505050505050505050565b60005461010090046001600160a01b031633146113e35760405162461bcd60e51b8152600401808060200182810382526026815260200180615d366026913960400191505060405180910390fd5b600f55565b60155481565b60135481565b60085481565b60005461010090046001600160a01b031633146114485760405162461bcd60e51b8152600401808060200182810382526026815260200180615d366026913960400191505060405180910390fd5b6001600160a01b03811661145b57600080fd5b600380546001600160a01b0319166001600160a01b0392909216919091179055565b60005461010090046001600160a01b031633146114cb5760405162461bcd60e51b8152600401808060200182810382526026815260200180615d366026913960400191505060405180910390fd5b600081116114d857600080fd5b60055460105460408051630f1980a560e41b8152600481018590526024810192909252516001600160a01b039092169163f1980a509160448082019260009290919082900301818387803b15801561152f57600080fd5b505af1158015611543573d6000803e3d6000fd5b50505060109190915550565b60065460408051632f745c5960e01b81526001600160a01b038481166004830152600060248301819052925192931691632f745c5991604480820192602092909190829003018186803b1580156115a557600080fd5b505afa1580156115b9573d6000803e3d6000fd5b505050506040513d60208110156115cf57600080fd5b505190505b919050565b806115e381614b1b565b60026000838152601a6020526040902060060154600160a01b900460ff16600381111561160c57fe5b1461165e576040805162461bcd60e51b815260206004820152601760248201527f56616c696461746f72206973206e6f74206a61696c6564000000000000000000604482015290519081900360640190fd5b6000828152601a6020526040902060030154156116c2576040805162461bcd60e51b815260206004820152601b60248201527f56616c696461746f7220616c726561647920756e7374616b696e670000000000604482015290519081900360640190fd5b6009546000838152601a6020526040902060040154811015611724576040805162461bcd60e51b8152602060048201526016602482015275125b98dbdb5c1b195d19481a985a5b081c195c9a5bd960521b604482015290519081900360640190fd5b6000838152601a6020526040902054600c5481101561174257600080fd5b6000848152601a60205260408120600601546001600160a01b0316156117e6576000858152601a602090815260408083206006015481516322f0f2f960e01b815291516001600160a01b03909116936322f0f2f993600480850194919392918390030190829087803b1580156117b757600080fd5b505af11580156117cb573d6000803e3d6000fd5b505050506040513d60208110156117e157600080fd5b505190505b6118026117f9838363ffffffff61474316565b60016000614ba5565b6000858152601a602052604080822060068101805460ff60a01b1916600160a01b17905560058054910154825163f92ec5af60e01b8152600481018a90526001600160a01b039182166024820152925191169263f92ec5af926044808201939182900301818387803b15801561187757600080fd5b505af115801561188b573d6000803e3d6000fd5b505050505050505050565b60175481565b60005461010090046001600160a01b031633146118ea5760405162461bcd60e51b8152600401808060200182810382526026815260200180615d366026913960400191505060405180910390fd5b600955565b600e5481565b601e602052600090815260409020805460019091015482565b6000818152601a6020526040812060028101546003820154825460069093015460095492939192600160a01b90910460ff1690821580159061195a5750841580159061195a5750808511155b801561196d575083158061196d57508084115b80156119845750600182600381111561198257fe5b145b979650505050505050565b611997614c61565b826119a181614b1b565b6000848152601a6020526040902060030154156119fb576040805162461bcd60e51b81526020600482015260136024820152724e6f20757365206f662072657374616b696e6760681b604482015290519081900360640190fd5b8215611ad057600354604080516323b872dd60e01b81523360048201523060248201526044810186905290516001600160a01b03909216916323b872dd916064808201926020929091908290030181600087803b158015611a5b57600080fd5b505af1158015611a6f573d6000803e3d6000fd5b505050506040513d6020811015611a8557600080fd5b5051611ad0576040805162461bcd60e51b8152602060048201526015602482015274151c985b9cd9995c881cdd185ad94819985a5b1959605a1b604482015290519081900360640190fd5b8115611bab576000848152601a6020526040902060010154611af990849063ffffffff61474316565b6000858152601a60205260409020600601549093506001600160a01b03168015611b9757611b94816001600160a01b03166332ba2e536040518163ffffffff1660e01b8152600401602060405180830381600087803b158015611b5b57600080fd5b505af1158015611b6f573d6000803e3d6000fd5b505050506040513d6020811015611b8557600080fd5b5051859063ffffffff61474316565b93505b506000848152601a60205260408120600101555b601154600090611bc1908563ffffffff61474316565b60118190556000868152601a6020526040902054909150611be8908563ffffffff61474316565b6000868152601a6020526040812091909155611c0690859080614ba5565b6005546040805163532e19a960e01b81526004810188905290516001600160a01b039092169163532e19a99160248082019260009290919082900301818387803b158015611c5357600080fd5b505af1158015611c67573d6000803e3d6000fd5b50506005546000888152601a6020526040808220548151631585a9f360e21b8152600481018c905260248101919091526044810187905290516001600160a01b039093169450635616a7cc93506064808201939182900301818387803b15801561187757600080fd5b80611cda81614b1b565b600082815260208052604090205415611d3a576040805162461bcd60e51b815260206004820152601b60248201527f5761697420666f722061756374696f6e20636f6d706c6574696f6e0000000000604482015290519081900360640190fd5b6000828152601a602052604090206002015415801590611d6957506000828152601a6020526040902060030154155b8015611dcb575060016000838152601a6020526040902060060154600160a01b900460ff166003811115611d9957fe5b1480611dcb575060026000838152601a6020526040902060060154600160a01b900460ff166003811115611dc957fe5b145b611dd457600080fd5b600954600090611deb90600163ffffffff61474316565b9050611df78382614ca2565b505050565b6006546001600160a01b031681565b60165481565b601a602052600090815260409020805460018201546002830154600384015460048501546005860154600690960154949593949293919290916001600160a01b039081169190811690600160a01b900460ff1688565b601b6020526000908152604090205481565b600c5481565b60006001600160a01b0382161580611f0d5750600654604080516370a0823160e01b81526001600160a01b038581166004830152915191909216916370a08231916024808301926020929190829003018186803b158015611edf57600080fd5b505afa158015611ef3573d6000803e3d6000fd5b505050506040513d6020811015611f0957600080fd5b5051155b15611f1a575060006115d4565b60065460408051632f745c5960e01b81526001600160a01b0385811660048301526000602483018190529251601a949190911691632f745c59916044808301926020929190829003018186803b158015611f7357600080fd5b505afa158015611f87573d6000803e3d6000fd5b505050506040513d6020811015611f9d57600080fd5b5051815260208101919091526040016000205492915050565b600f5481565b60105481565b611fca614c61565b601054611fd561290b565b106120115760405162461bcd60e51b8152600401808060200182810382526021815260200180615cf16021913960400191505060405180910390fd5b600c548411612067576040805162461bcd60e51b815260206004820152601960248201527f6d696e206465706f736974206c696d6974206661696c65642100000000000000604482015290519081900360640190fd5b612072858486614e54565b61207e85858484615014565b505050505050565b60208080526000918252604091829020805460018083015460028085015460038601805489516101009682161596909602600019011692909204601f8101889004880285018801909852878452939691956001600160a01b03851695600160a01b90950460ff16949392908301828280156121425780601f1061211757610100808354040283529160200191612142565b820191906000526020600020905b81548152906001019060200180831161212557829003601f168201915b5050505050905085565b60195460ff1681565b60125481565b6000908152601a60205260409020600601546001600160a01b031690565b60005461010090046001600160a01b031681565b6004805460408051631ab0168360e31b8152905160009333936001600160a01b03169263d580b4189281830192602092829003018186803b1580156121d157600080fd5b505afa1580156121e5573d6000803e3d6000fd5b505050506040513d60208110156121fb57600080fd5b50516001600160a01b031614612258576040805162461bcd60e51b815260206004820181905260248201527f53656e646572206d75737420626520736c617368696e67206d616e6167657221604482015290519081900360640190fd5b606061226b6122668461542a565b61544f565b905060008080805b845181101561242b57606061229a86838151811061228d57fe5b602002602001015161544f565b905060006122bb826000815181106122ae57fe5b6020026020010151615520565b905060006122cf836001815181106122ae57fe5b90506122e1858263ffffffff61474316565b6000838152601a60205260409020600601549095506001600160a01b0316156123a9576000828152601a602090815260408083206006810154905482516314454c8560e31b815260048101919091526024810186905291516001600160a01b039091169263a22a6428926044808201939182900301818787803b15801561236757600080fd5b505af115801561237b573d6000803e3d6000fd5b505050506040513d602081101561239157600080fd5b505190506123a5828263ffffffff61475516565b9150505b6000828152601a60205260409020546123c8908263ffffffff61475516565b6000838152601a602052604090205582516123f790849060029081106123ea57fe5b6020026020010151615580565b156124205761241761240a8360016155b4565b879063ffffffff61474316565b60019097019695505b505050600101612273565b5061244d61243f828463ffffffff61474316565b600003846000036000614ba5565b95945050505050565b600654604080516331a9108f60e11b81526004810184905290516000926001600160a01b031691636352211e916024808301926020929190829003018186803b1580156115a557600080fd5b6124aa614c61565b6124b682826000614e54565b5050565b60005461010090046001600160a01b031633146125085760405162461bcd60e51b8152600401808060200182810382526026815260200180615d366026913960400191505060405180910390fd5b600680546001600160a01b039485166001600160a01b031991821617909155600580549385169382169390931790925560078054919093169116179055565b60408051336020808301919091528183018690528251808303840181526060830193849052805190820120601754631b23d15760e21b909452606483018181526084840187905260a48401859052608060c48501908152865160e4860152865173__Merkle________________________________96636c8f455c9694958a9591948a9490939092610104019185019080838360005b838110156125f55781810151838201526020016125dd565b50505050905090810190601f1680156126225780820380516001836020036101000a031916815260200191505b509550505050505060206040518083038186803b15801561264257600080fd5b505af4158015612656573d6000803e3d6000fd5b505050506040513d602081101561266c57600080fd5b50516126b1576040805162461bcd60e51b815260206004820152600f60248201526e2bb937b7339030b1b190383937b7b360891b604482015290519081900360640190fd5b336000908152601f60205260408120546126d290859063ffffffff61475516565b90506126de3382615729565b336000818152601f60209081526040808320889055600354815163a9059cbb60e01b815260048101959095526024850186905290516001600160a01b039091169363a9059cbb9360448083019493928390030190829087803b15801561274357600080fd5b505af1158015612757573d6000803e3d6000fd5b505050506040513d602081101561276d57600080fd5b505161277857600080fd5b50505050565b6000838152601a60205260408120600601546001600160a01b031633146127e7576040805162461bcd60e51b8152602060048201526018602482015277496e76616c696420636f6e7472616374206164647265737360401b604482015290519081900360640190fd5b600354604080516323b872dd60e01b81526001600160a01b03858116600483015230602483015260448201879052915191909216916323b872dd9160648083019260209291908290030181600087803b15801561284357600080fd5b505af1158015612857573d6000803e3d6000fd5b505050506040513d602081101561286d57600080fd5b5051949350505050565b600a5481565b612885612a70565b61288e57600080fd5b6001546040516000916001600160a01b0316907f8be0079c531659141344cd1fd0a4f28419497f9722a3daafe3b4186f6b6457e0908390a3600180546001600160a01b0319169055565b60095481565b60185481565b601f6020526000908152604090205481565b6004546001600160a01b031681565b600b5481565b601d545b90565b60115481565b60235460ff1615612961576040805162461bcd60e51b815260206004820152600e60248201526d185b1c9958591e481a5b9a5d195960921b604482015290519081900360640190fd5b60238054600160ff1990911617905560008054610100600160a81b0319166101006001600160a01b038581169190910291909117909155600480546001600160a01b03199081168b8416179091556002805482168a8416179055600380548216898416179055600680548216888416179055600580548216878416179055600780549091169185169190911790556129f8816157a8565b5050612000600855505060016009819055610376600a90815569044664c7bf6451f00000600b55670de0b6b3a7640000600c819055600d55610400600e556064600f55600760105560128290556108006015556016556019805460ff1916909117905550505050565b6001546001600160a01b031690565b6001546001600160a01b0316331490565b60095490565b60005461010090046001600160a01b03163314612ad55760405162461bcd60e51b8152600401808060200182810382526026815260200180615d366026913960400191505060405180910390fd5b612ae181600954614ca2565b50565b80612aee81614b1b565b6000828152601a6020526040902060018101546006909101546001600160a01b03168015612b9057612b8d816001600160a01b03166332ba2e536040518163ffffffff1660e01b8152600401602060405180830381600087803b158015612b5457600080fd5b505af1158015612b68573d6000803e3d6000fd5b505050506040513d6020811015612b7e57600080fd5b5051839063ffffffff61474316565b91505b612778843384615817565b6002546001600160a01b031681565b612bb2614c61565b6000828152602080526040902060028101546001600160a01b031633811480612be2575083612be03361154f565b145b612c1d5760405162461bcd60e51b8152600401808060200182810382526024815260200180615d126024913960400191505060405180910390fd5b600954601554600a54612c3790829063ffffffff61474316565b6001850154612c4d90849063ffffffff61475516565b81612c5457fe5b061015612ca8576040805162461bcd60e51b815260206004820181905260248201527f4e6f7420616c6c6f776564206265666f72652061756374696f6e506572696f64604482015290519081900360640190fd5b60028301546001600160a01b0316612cf9576040805162461bcd60e51b815260206004820152600f60248201526e24b73b30b634b21030bab1ba34b7b760891b604482015290519081900360640190fd5b6000858152601a6020526040902080548454600690920154909182916001600160a01b03168015612d9c57612d99816001600160a01b031663a446c2db6040518163ffffffff1660e01b815260040160206040518083038186803b158015612d6057600080fd5b505afa158015612d74573d6000803e3d6000fd5b505050506040513d6020811015612d8a57600080fd5b5051849063ffffffff61474316565b92505b818310158015612dbb57506000898152601a6020526040902060030154155b15612f06576003546040805163a9059cbb60e01b81526001600160a01b038981166004830152602482018690529151919092169163a9059cbb9160448083019260209291908290030181600087803b158015612e1657600080fd5b505af1158015612e2a573d6000803e3d6000fd5b505050506040513d6020811015612e4057600080fd5b5051612e87576040805162461bcd60e51b8152602060048201526011602482015270109a59081c995d1d5c9b8819985a5b1959607a1b604482015290519081900360640190fd5b600187018590556005546040805163e12ab1af60e01b8152600481018c9052602481018c90526044810187905290516001600160a01b039092169163e12ab1af9160648082019260009290919082900301818387803b158015612ee957600080fd5b505af1158015612efd573d6000803e3d6000fd5b50505050613041565b612f1286896000614e54565b612f1c8986614ca2565b6002878101546003890180546040805160206101006001851615026000190190931695909504601f8101839004830286018301909152808552600094612fc9948c948994600160a01b90920460ff16939091830182828015612fbf5780601f10612f9457610100808354040283529160200191612fbf565b820191906000526020600020905b815481529060010190602001808311612fa257829003601f168201915b5050505050615014565b6005546040805163e12ab1af60e01b815260048101849052602481018e90526044810187905290519293506001600160a01b039091169163e12ab1af9160648082019260009290919082900301818387803b15801561302757600080fd5b505af115801561303b573d6000803e3d6000fd5b50505050505b60018088015460008b815260208052604081208181559283018190556002830180546001600160a81b031916905590919061307f6003830182615bfa565b50506000998a52602080526040909920600101989098555050505050505050565b60225481565b60005461010090046001600160a01b031633146130f45760405162461bcd60e51b8152600401808060200182810382526026815260200180615d366026913960400191505060405180910390fd5b6005546016546040805163a3b1d8cb60e01b8152600481018590526024810192909252516001600160a01b039092169163a3b1d8cb9160448082019260009290919082900301818387803b15801561314b57600080fd5b505af115801561315f573d6000803e3d6000fd5b5050505060648111156131a3576040805162461bcd60e51b8152602060048201526007602482015266746f6f2062696760c81b604482015290519081900360640190fd5b601655565b60008113156132015760195460ff16613201576040805162461bcd60e51b815260206004820152601660248201527511195b1959d85d1a5bdb881a5cc8191a5cd8589b195960521b604482015290519081900360640190fd5b6000828152601a60205260409020600601546001600160a01b0316331461326a576040805162461bcd60e51b8152602060048201526018602482015277496e76616c696420636f6e7472616374206164647265737360401b604482015290519081900360640190fd5b6124b681600080614ba5565b60005461010090046001600160a01b031633146132c45760405162461bcd60e51b8152600401808060200182810382526026815260200180615d366026913960400191505060405180910390fd5b60008111613319576040805162461bcd60e51b815260206004820181905260248201527f426c6f636b7320696e74657276616c206d757374206265206e6f6e2d7a65726f604482015290519081900360640190fd5b600e55565b601c5490565b61332c614c61565b6000858152601a60205260409020805460039091015415801561334e57508015155b61339f576040805162461bcd60e51b815260206004820181905260248201527f496e76616c69642076616c696461746f7220666f7220616e2061756374696f6e604482015290519081900360640190fd5b336000818152601b60209081526040918290205460065483516370a0823160e01b81526004810195909552925190936001600160a01b03909316926370a08231926024808301939192829003018186803b1580156133fc57600080fd5b505afa158015613410573d6000803e3d6000fd5b505050506040513d602081101561342657600080fd5b505115801561343757506000198114155b61347f576040805162461bcd60e51b8152602060048201526014602482015273416c72656164792075736564206164647265737360601b604482015290519081900360640190fd5b6009546018548015806134925750818111155b6134d5576040805162461bcd60e51b815260206004820152600f60248201526e10dbdbdb191bdddb881c195c9a5bd9608a1b604482015290519081900360640190fd5b601554600a546134eb908263ffffffff61474316565b60008b8152601a602052604090206002015461350e90859063ffffffff61475516565b8161351557fe5b0610613561576040805162461bcd60e51b8152602060048201526016602482015275125b9d985b1a5908185d58dd1a5bdb881c195c9a5bd960521b604482015290519081900360640190fd5b6000898152601a602052604090206006015484906001600160a01b031680156135d7576135d4816001600160a01b031663a446c2db6040518163ffffffff1660e01b815260040160206040518083038186803b1580156135c057600080fd5b505afa158015612b68573d6000803e3d6000fd5b91505b60008b8152602080526040902080546135f08482615969565b93508b8410613638576040805162461bcd60e51b815260206004820152600f60248201526e26bab9ba103134b2103434b3b432b960891b604482015290519081900360640190fd5b600354604080516323b872dd60e01b8152336004820152306024820152604481018f905290516001600160a01b03909216916323b872dd916064808201926020929091908290030181600087803b15801561369257600080fd5b505af11580156136a6573d6000803e3d6000fd5b505050506040513d60208110156136bc57600080fd5b5051613708576040805162461bcd60e51b8152602060048201526016602482015275151c985b9cd9995c88185b5bdd5b9d0819985a5b195960521b604482015290519081900360640190fd5b80156137da5760035460028301546040805163a9059cbb60e01b81526001600160a01b039283166004820152602481018590529051919092169163a9059cbb9160448083019260209291908290030181600087803b15801561376957600080fd5b505af115801561377d573d6000803e3d6000fd5b505050506040513d602081101561379357600080fd5b50516137da576040805162461bcd60e51b8152602060048201526011602482015270109a59081c995d1d5c9b8819985a5b1959607a1b604482015290519081900360640190fd5b8b8255600282018054336001600160a01b03199091161760ff60a01b1916600160a01b8d151502179055613812600383018b8b615c3e565b50600560009054906101000a90046001600160a01b03166001600160a01b0316630934a6df8e8a8f6040518463ffffffff1660e01b8152600401808481526020018381526020018281526020019350505050600060405180830381600087803b15801561387e57600080fd5b505af1158015613892573d6000803e3d6000fd5b5050505050505050505050505050505050565b60005461010090046001600160a01b031633146138f35760405162461bcd60e51b8152600401808060200182810382526026815260200180615d366026913960400191505060405180910390fd5b6138fb615979565b565b60085490565b60005461010090046001600160a01b031633146139515760405162461bcd60e51b8152600401808060200182810382526026815260200180615d366026913960400191505060405180910390fd5b600c91909155600d55565b6004805460408051631ab0168360e31b8152905160009333936001600160a01b03169263d580b4189281830192602092829003018186803b1580156139a057600080fd5b505afa1580156139b4573d6000803e3d6000fd5b505050506040513d60208110156139ca57600080fd5b50516001600160a01b031614806139fa57506000848152601a60205260409020600601546001600160a01b031633145b613a46576040805162461bcd60e51b8152602060048201526018602482015277496e76616c696420636f6e7472616374206164647265737360401b604482015290519081900360640190fd5b6003546040805163a9059cbb60e01b81526001600160a01b038581166004830152602482018790529151919092169163a9059cbb9160448083019260209291908290030181600087803b15801561284357600080fd5b6007546001600160a01b031681565b60005461010090046001600160a01b03163314613af95760405162461bcd60e51b8152600401808060200182810382526026815260200180615d366026913960400191505060405180910390fd5b60008111613b0657600080fd5b600554600b5460408051632dbe9d3160e21b8152600481018590526024810192909252516001600160a01b039092169163b6fa74c49160448082019260009290919082900301818387803b158015613b5d57600080fd5b505af1158015613b71573d6000803e3d6000fd5b505050600b9190915550565b60145481565b60005460ff1681565b336000908152601b6020526040902054613ba58161190e565b613be8576040805162461bcd60e51b815260206004820152600f60248201526e3737ba1030903b30b634b230ba37b960891b604482015290519081900360640190fd5b6000818152601a60205260409020600601546001600160a01b031680613c4e576040805162461bcd60e51b815260206004820152601660248201527519195b1959d85d1a5bdb881b9bdd08195b98589b195960521b604482015290519081900360640190fd5b604080516303dd464160e51b8152841515600482015290516001600160a01b03831691637ba8c82091602480830192600092919082900301818387803b158015613c9757600080fd5b505af1158015613cab573d6000803e3d6000fd5b50505050505050565b60216020526000908152604090205481565b80613cd081614b1b565b6000828152601a60205260409020600301548015801590613d065750600954600854613d0390839063ffffffff61474316565b11155b8015613d39575060036000848152601a6020526040902060060154600160a01b900460ff166003811115613d3657fe5b14155b613d4257600080fd5b6000838152601a6020526040812054601154909190613d67908363ffffffff61475516565b601181905560065460408051630852cd8d60e31b81526004810189905290519293506001600160a01b03909116916342966c689160248082019260009290919082900301818387803b158015613dbc57600080fd5b505af1158015613dd0573d6000803e3d6000fd5b5050506000868152601a6020818152604080842060058101546001600160a01b039081168652601b845282862060001990558b8652938352600601805460ff60a01b1916600360a01b179055600354815163a9059cbb60e01b81523360048201526024810189905291519316945063a9059cbb93604480830194928390030190829087803b158015613e6157600080fd5b505af1158015613e75573d6000803e3d6000fd5b505050506040513d6020811015613e8b57600080fd5b5051613ed6576040805162461bcd60e51b8152602060048201526015602482015274151c985b9cd9995c881cdd185ad94819985a5b1959605a1b604482015290519081900360640190fd5b6005546040805163ae2e26b160e01b815233600482015260248101889052604481018590526064810184905290516001600160a01b039092169163ae2e26b19160848082019260009290919082900301818387803b15801561187757600080fd5b601c54601d5482565b60005461010090046001600160a01b03163314613f8e5760405162461bcd60e51b8152600401808060200182810382526026815260200180615d366026913960400191505060405180910390fd5b60008111613f9b57600080fd5b600554600a5460408051635071805360e11b8152600481018590526024810192909252516001600160a01b039092169163a0e300a69160448082019260009290919082900301818387803b158015613ff257600080fd5b505af1158015614006573d6000803e3d6000fd5b505050600a82905550600881905561402581600463ffffffff61470b16565b601581905560095461403c9163ffffffff61474316565b60185550565b80156140cf576000828152601a6020908152604080832060060154815163753868e360e01b815291516001600160a01b039091169363753868e393600480850194919392918390030190829087803b15801561409d57600080fd5b505af11580156140b1573d6000803e3d6000fd5b505050506040513d60208110156140c757600080fd5b506124b69050565b6000828152601a602090815260408083206006015481516322f0f2f960e01b815291516001600160a01b03909116936322f0f2f993600480850194919392918390030190829087803b15801561412457600080fd5b505af1158015614138573d6000803e3d6000fd5b505050506040513d602081101561277857600080fd5b614156612a70565b61415f57600080fd5b6001600160a01b03811661417257600080fd5b6002546040516001600160a01b038084169216907f211c9015fc81c0dbd45bd99f0f29fc1c143bfd53442d5ffd722bbbef7a887fe990600090a3600280546001600160a01b0319166001600160a01b0392909216919091179055565b6000908152601a602052604090205490565b6005546001600160a01b031681565b60005461010090046001600160a01b0316331461423d5760405162461bcd60e51b8152600401808060200182810382526026815260200180615d366026913960400191505060405180910390fd5b6019805460ff1916911515919091179055565b614258612a70565b61426157600080fd5b612ae1816157a8565b60095461427d908263ffffffff61474316565b60095550565b8161428d81614b1b565b600061429883615985565b90506001600160a01b038116158015906142c857506001600160a01b0381166000908152601b6020526040902054155b61430a576040805162461bcd60e51b815260206004820152600e60248201526d24b73b30b634b21039b4b3b732b960911b604482015290519081900360640190fd5b600954600f5460008681526021602052604090205461432e9163ffffffff61474316565b811015614382576040805162461bcd60e51b815260206004820152601a60248201527f496e76616c696420636865636b706f696e74206e756d62657221000000000000604482015290519081900360640190fd5b6000858152601a602090815260408083206005908101549054915163b80fbce560e01b8152600481018a81526001600160a01b039283166024830181905288841660448401526080606484019081528b5160848501528b519197949095169563b80fbce5958d9589958c958f95909460a490920192918601918190849084905b8381101561441a578181015183820152602001614402565b50505050905090810190601f1680156144475780820380516001836020036101000a031916815260200191505b5095505050505050600060405180830381600087803b15801561446957600080fd5b505af115801561447d573d6000803e3d6000fd5b5050506001600160a01b039182166000908152601b60209081526040808320600019905595909316808252858220899055978152601a835284812060050180546001600160a01b03191690981790975550602190529320929092555050565b60005461010090046001600160a01b0316331461452a5760405162461bcd60e51b8152600401808060200182810382526026815260200180615d366026913960400191505060405180910390fd5b306001600160a01b0316816001600160a01b0316638da5cb5b6040518163ffffffff1660e01b815260040160206040518083038186803b15801561456d57600080fd5b505afa158015614581573d6000803e3d6000fd5b505050506040513d602081101561459757600080fd5b50516001600160a01b0316146145de5760405162461bcd60e51b8152600401808060200182810382526026815260200180615d5c6026913960400191505060405180910390fd5b6000918252601a602052604090912060060180546001600160a01b0319166001600160a01b03909216919091179055565b60005461010090046001600160a01b0316331461465d5760405162461bcd60e51b8152600401808060200182810382526026815260200180615d366026913960400191505060405180910390fd5b60095461403c908263ffffffff61474316565b60005461010090046001600160a01b031633146146be5760405162461bcd60e51b8152600401808060200182810382526026815260200180615d366026913960400191505060405180910390fd5b6138fb6159da565b600d5481565b6003546001600160a01b031681565b6000826146ea57506000614705565b828202828482816146f757fe5b041461470257600080fd5b90505b92915050565b600080821161471957600080fd5b600082848161472457fe5b04949350505050565b600081831061473c5781614702565b5090919050565b60008282018381101561470257600080fd5b60008282111561476457600080fd5b50900390565b600954600061478082600163ffffffff61474316565b905061478a615cbc565b506000818152601e602090815260408083208151808301909252805480835260019091015492820183905290926147c19290614ba5565b506000918252601e6020526040822082815560010191909155600955565b60008080805b84518167ffffffffffffffff161015614a5f57600073__ECVerify______________________________6377d32e948861482b8967ffffffffffffffff871660416159e9565b6040518363ffffffff1660e01b81526004018083815260200180602001828103825283818151815260200191508051906020019080838360005b8381101561487d578181015183820152602001614865565b50505050905090810190601f1680156148aa5780820380516001836020036101000a031916815260200191505b50935050505060206040518083038186803b1580156148c857600080fd5b505af41580156148dc573d6000803e3d6000fd5b505050506040513d60208110156148f257600080fd5b50516001600160a01b038082166000818152601b60205260409020549293509085161415614921575050614a5f565b61492a8161190e565b80156149475750836001600160a01b0316826001600160a01b0316115b15614a55576000818152601a60205260408120600681015493955085939091906001600160a01b03168015614a0757806001600160a01b031663b37f25908d8f614990886141ce565b6040518463ffffffff1660e01b8152600401808481526020018381526020018281526020019350505050602060405180830381600087803b1580156149d457600080fd5b505af11580156149e8573d6000803e3d6000fd5b505050506040513d60208110156149fe57600080fd5b50519150614a3f565b82600001549150614a39614a288e6112538f866146db90919063ffffffff16565b60018501549063ffffffff61474316565b60018401555b614a4f888363ffffffff61474316565b97505050505b50506041016147e5565b50614a7e614a6b61331e565b600b54611253908563ffffffff6146db16565b601354909650614a94908763ffffffff61474316565b601355614ac66001614aba60036112536002614aae61331e565b9063ffffffff6146db16565b9063ffffffff61474316565b821015614b10576040805162461bcd60e51b8152602060048201526013602482015272322f332b31206e6f6e2d6d616a6f726974792160681b604482015290519081900360640190fd5b509395945050505050565b600654604080516331a9108f60e11b815260048101849052905133926001600160a01b031691636352211e916024808301926020929190829003018186803b158015614b6657600080fd5b505afa158015614b7a573d6000803e3d6000fd5b505050506040513d6020811015614b9057600080fd5b50516001600160a01b031614612ae157600080fd5b80614c3f576000831315614bce57601c54614bc6908463ffffffff61474316565b601c55614bf2565b6000831215614bf257601c54614bee90600085900363ffffffff61475516565b601c555b6000821315614c1657601d54614c0e908363ffffffff61474316565b601d55614c3a565b6000821215614c3a57601d54614c3690600084900363ffffffff61475516565b601d555b611df7565b6000818152601e60205260409020805484018155600101805483019055505050565b60005460ff16156138fb576040805162461bcd60e51b81526020600482015260066024820152651b1bd8dad95960d21b604482015290519081900360640190fd5b6000828152601a602052604081205490614cbb84612456565b6000858152601a6020526040812060038101869055600181015460069091015492935090916001600160a01b03168015614db3576000819050614d46816001600160a01b03166332ba2e536040518163ffffffff1660e01b8152600401602060405180830381600087803b158015614d3257600080fd5b505af1158015612d74573d6000803e3d6000fd5b9250806001600160a01b031663753868e36040518163ffffffff1660e01b8152600401602060405180830381600087803b158015614d8357600080fd5b505af1158015614d97573d6000803e3d6000fd5b505050506040513d6020811015614dad57600080fd5b50519350505b614dbe878584615817565b614dd083860160000360001988614ba5565b60055460408051635e04d48360e01b81526001600160a01b038781166004830152602482018b9052604482018a90526064820189905291519190921691635e04d48391608480830192600092919082900301818387803b158015614e3357600080fd5b505af1158015614e47573d6000803e3d6000fd5b5050505050505050505050565b600d54821015614eab576040805162461bcd60e51b815260206004820152601760248201527f4e6f7420656e6f756768206865696d64616c6c20666565000000000000000000604482015290519081900360640190fd5b6003546001600160a01b03166323b872dd3330614ece868663ffffffff61474316565b6040518463ffffffff1660e01b815260040180846001600160a01b03166001600160a01b03168152602001836001600160a01b03166001600160a01b031681526020018281526020019350505050602060405180830381600087803b158015614f3657600080fd5b505af1158015614f4a573d6000803e3d6000fd5b505050506040513d6020811015614f6057600080fd5b5051614fa9576040805162461bcd60e51b8152602060048201526013602482015272119959481d1c985b9cd9995c8819985a5b1959606a1b604482015290519081900360640190fd5b602254614fbc908363ffffffff61474316565b6022556005546040805163a449d79560e01b81526001600160a01b038681166004830152602482018690529151919092169163a449d79591604480830192600092919082900301818387803b158015613c9757600080fd5b60008061502083615985565b90506001600160a01b0381161580159061505057506001600160a01b0381166000908152601b6020526040902054155b615092576040805162461bcd60e51b815260206004820152600e60248201526d24b73b30b634b21039b4b3b732b960911b604482015290519081900360640190fd5b6009546012546005546011546001600160a01b03909116906000906150bd908a63ffffffff61474316565b9050806011819055506040518061010001604052808a8152602001600081526020018581526020016000815260200160008152602001866001600160a01b031681526020018961510e57600061519a565b600754600480546040805163d4ad267360e01b81529283018990526001600160a01b03888116602485015291821660448401525192169163d4ad2673916064808201926020929091908290030181600087803b15801561516d57600080fd5b505af1158015615181573d6000803e3d6000fd5b505050506040513d602081101561519757600080fd5b50515b6001600160a01b03168152602001600190526000848152601a60209081526040918290208351815590830151600182015590820151600282015560608201516003808301919091556080830151600483015560a08301516005830180546001600160a01b039283166001600160a01b03199182161790915560c08501516006850180549190931691161780825560e08501519260ff60a01b1990911690600160a01b90849081111561524857fe5b0217905550505060008381526021602052604080822086905560065481516340c10f1960e01b81526001600160a01b038e8116600483015260248201889052925192909116926340c10f199260448084019382900301818387803b1580156152af57600080fd5b505af11580156152c3573d6000803e3d6000fd5b5050506001600160a01b0386166000908152601b602052604081208590556152f091508a90600190614ba5565b836020600085815260200190815260200160002060010181905550816001600160a01b03166333a8383c868986888e876040518763ffffffff1660e01b815260040180876001600160a01b03166001600160a01b0316815260200180602001868152602001858152602001848152602001838152602001828103825287818151815260200191508051906020019080838360005b8381101561539c578181015183820152602001615384565b50505050905090810190601f1680156153c95780820380516001836020036101000a031916815260200191505b50975050505050505050600060405180830381600087803b1580156153ed57600080fd5b505af1158015615401573d6000803e3d6000fd5b5050505061541960018461474390919063ffffffff16565b601255509098975050505050505050565b615432615cbc565b506040805180820190915281518152602082810190820152919050565b606061545a82615a68565b61546357600080fd5b600061546e83615aa2565b90506060816040519080825280602002602001820160405280156154ac57816020015b615499615cbc565b8152602001906001900390816154915790505b50905060006154be8560200151615afe565b60208601510190506000805b84811015615515576154db83615b61565b91506040518060400160405280838152602001848152508482815181106154fe57fe5b6020908102919091010152918101916001016154ca565b509195945050505050565b80516000901580159061553557508151602110155b61553e57600080fd5b600061554d8360200151615afe565b8351602080860151830180519394509184900392919083101561557757826020036101000a820491505b50949350505050565b805160009060011461559157600080fd5b6020820151805160001a9081156155a95760016155ac565b60005b949350505050565b6000828152601a602052604081206006015481906001600160a01b03161561565a576000848152601a6020908152604080832060060154815163753868e360e01b815291516001600160a01b039091169363753868e393600480850194919392918390030190829087803b15801561562b57600080fd5b505af115801561563f573d6000803e3d6000fd5b505050506040513d602081101561565557600080fd5b505190505b60095461566d818563ffffffff61474316565b6000868152601a602052604080822060048082019490945560068101805460ff60a01b1916600160a11b1790556005805491015482516381dc101b60e01b81529485018a9052602485018690526001600160a01b03908116604486015291519116926381dc101b92606480830193919282900301818387803b1580156156f257600080fd5b505af1158015615706573d6000803e3d6000fd5b5050506000868152601a602052604090205461244d91508363ffffffff61474316565b60225461573c908263ffffffff61475516565b6022556005546040805163122b648160e01b81526001600160a01b038581166004830152602482018590529151919092169163122b648191604480830192600092919082900301818387803b15801561579457600080fd5b505af115801561207e573d6000803e3d6000fd5b6001600160a01b0381166157bb57600080fd5b6001546040516001600160a01b038084169216907f8be0079c531659141344cd1fd0a4f28419497f9722a3daafe3b4186f6b6457e090600090a3600180546001600160a01b0319166001600160a01b0392909216919091179055565b60145461582a908263ffffffff61474316565b6014556000838152601a60209081526040808320600101839055600354815163a9059cbb60e01b81526001600160a01b038781166004830152602482018790529251929091169363a9059cbb9360448084019491939192918390030190829087803b15801561589857600080fd5b505af11580156158ac573d6000803e3d6000fd5b505050506040513d60208110156158c257600080fd5b505161590b576040805162461bcd60e51b8152602060048201526013602482015272496e737566666963656e74207265776172647360681b604482015290519081900360640190fd5b60055460145460408051635b42d93560e11b815260048101879052602481018590526044810192909252516001600160a01b039092169163b685b26a9160648082019260009290919082900301818387803b158015613c9757600080fd5b60008183101561473c5781614702565b6000805460ff19169055565b600081516040146159ce576040805162461bcd60e51b815260206004820152600e60248201526d496e76616c6964207075626b657960901b604482015290519081900360640190fd5b50805160209091012090565b6000805460ff19166001179055565b6060818301845110156159fb57600080fd5b606082158015615a1657604051915060208201604052615577565b6040519150601f8416801560200281840101858101878315602002848b0101015b81831015615a4f578051835260209283019201615a37565b5050858452601f01601f19166040525050949350505050565b8051600090615a79575060006115d4565b6020820151805160001a9060c0821015615a98576000925050506115d4565b5060019392505050565b8051600090615ab3575060006115d4565b60008090506000615ac78460200151615afe565b602085015185519181019250015b80821015615af557615ae682615b61565b60019093019290910190615ad5565b50909392505050565b8051600090811a6080811015615b185760009150506115d4565b60b8811080615b33575060c08110801590615b33575060f881105b15615b425760019150506115d4565b60c0811015615b565760b5190190506115d4565b60f5190190506115d4565b80516000908190811a6080811015615b7c5760019150615bf3565b60b8811015615b9157607e1981019150615bf3565b60c0811015615bbe5760b78103600185019450806020036101000a85510460018201810193505050615bf3565b60f8811015615bd35760be1981019150615bf3565b60f78103600185019450806020036101000a855104600182018101935050505b5092915050565b50805460018160011615610100020316600290046000825580601f10615c205750612ae1565b601f016020900490600052602060002090810190612ae19190615cd6565b828054600181600116156101000203166002900490600052602060002090601f016020900481019282601f10615c7f5782800160ff19823516178555615cac565b82800160010185558215615cac579182015b82811115615cac578235825591602001919060010190615c91565b50615cb8929150615cd6565b5090565b604051806040016040528060008152602001600081525090565b61290f91905b80821115615cb85760008155600101615cdc56fe56616c696461746f7220736574205468726573686f6c64206578636565646564214f6e6c7920626964646572206f722076616c696461746f722063616e20636f6e6669726d4f6e6c7920676f7665726e616e636520636f6e747261637420697320617574686f72697a65644f776e6572206f6620636f6e7472616374206d757374206265207374616b654d616e61676572a265627a7a72315820290f81f771c51bb2141abb26208626ca3266ba09e8fa5d8b5ec12dae6cb6085a64736f6c63430005110032",
  "source": "pragma solidity ^0.5.2;\n\nimport { StakeManager } from \"../staking/stakeManager/StakeManager.sol\";\nimport { IValidatorShare } from \"../staking/validatorShare/IValidatorShare.sol\";\n\ncontract StakeManagerTestable is StakeManager {\n    function advanceEpoch(uint256 delta) public {\n        currentEpoch = currentEpoch.add(delta);\n    }\n\n    function testLockShareContract(uint256 validatorId, bool lock) public {\n        if (lock) {\n            IValidatorShare(validators[validatorId].contractAddress).lockContract();\n        } else {\n            IValidatorShare(validators[validatorId].contractAddress).unlockContract();\n        }\n    }\n}\n",
  "sourcePath": "/home/manjain/Documents/contracts/contracts/test/StakeManagerTestable.sol",
  "compiler": {
    "name": "solc",
    "version": "0.5.17+commit.d19bba13.Linux.g++"
  },
  "schemaVersion": "3.0.14",
  "updatedAt": "2021-02-21T12:11:07.015Z",
  "devdoc": {
    "methods": {
      "changeRootChain(address)": {
        "details": "Allows the current owner to change root chain address.",
        "params": {
          "newRootChain": "The address to new rootchain."
        }
      },
      "isOwner()": {
        "return": "true if `msg.sender` is the owner of the contract."
      },
      "owner()": {
        "return": "the address of the owner."
      },
      "renounceOwnership()": {
        "details": "Allows the current owner to relinquish control of the contract. It will not be possible to call the functions with the `onlyOwner` modifier anymore."
      },
      "transferOwnership(address)": {
        "details": "Allows the current owner to transfer control of the contract to a newOwner.",
        "params": {
          "newOwner": "The address to transfer ownership to."
        }
      }
    }
  },
  "userdoc": {
    "methods": {
      "renounceOwnership()": {
        "notice": "Renouncing ownership will leave the contract without an owner, thereby removing any functionality that is only available to the owner."
      }
    }
  }
}