{
  "contractName": "StakeManagerTest",
  "abi": [
    {
      "anonymous": false,
      "inputs": [
        {
          "indexed": true,
          "internalType": "address",
          "name": "previousOwner",
          "type": "address"
        },
        {
          "indexed": true,
          "internalType": "address",
          "name": "newOwner",
          "type": "address"
        }
      ],
      "name": "OwnershipTransferred",
      "type": "event"
    },
    {
      "anonymous": false,
      "inputs": [
        {
          "indexed": true,
          "internalType": "address",
          "name": "previousRootChain",
          "type": "address"
        },
        {
          "indexed": true,
          "internalType": "address",
          "name": "newRootChain",
          "type": "address"
        }
      ],
      "name": "RootChainChanged",
      "type": "event"
    },
    {
      "constant": true,
      "inputs": [],
      "name": "CHECKPOINT_REWARD",
      "outputs": [
        {
          "internalType": "uint256",
          "name": "",
          "type": "uint256"
        }
      ],
      "payable": false,
      "stateMutability": "view",
      "type": "function"
    },
    {
      "constant": true,
      "inputs": [],
      "name": "NFTContract",
      "outputs": [
        {
          "internalType": "contract StakingNFT",
          "name": "",
          "type": "address"
        }
      ],
      "payable": false,
      "stateMutability": "view",
      "type": "function"
    },
    {
      "constant": true,
      "inputs": [],
      "name": "NFTCounter",
      "outputs": [
        {
          "internalType": "uint256",
          "name": "",
          "type": "uint256"
        }
      ],
      "payable": false,
      "stateMutability": "view",
      "type": "function"
    },
    {
      "constant": true,
      "inputs": [],
      "name": "WITHDRAWAL_DELAY",
      "outputs": [
        {
          "internalType": "uint256",
          "name": "",
          "type": "uint256"
        }
      ],
      "payable": false,
      "stateMutability": "view",
      "type": "function"
    },
    {
      "constant": true,
      "inputs": [],
      "name": "accountStateRoot",
      "outputs": [
        {
          "internalType": "bytes32",
          "name": "",
          "type": "bytes32"
        }
      ],
      "payable": false,
      "stateMutability": "view",
      "type": "function"
    },
    {
      "constant": true,
      "inputs": [],
      "name": "auctionPeriod",
      "outputs": [
        {
          "internalType": "uint256",
          "name": "",
          "type": "uint256"
        }
      ],
      "payable": false,
      "stateMutability": "view",
      "type": "function"
    },
    {
      "constant": false,
      "inputs": [
        {
          "internalType": "address",
          "name": "newRootChain",
          "type": "address"
        }
      ],
      "name": "changeRootChain",
      "outputs": [],
      "payable": false,
      "stateMutability": "nonpayable",
      "type": "function"
    },
    {
      "constant": true,
      "inputs": [],
      "name": "checkPointBlockInterval",
      "outputs": [
        {
          "internalType": "uint256",
          "name": "",
          "type": "uint256"
        }
      ],
      "payable": false,
      "stateMutability": "view",
      "type": "function"
    },
    {
      "constant": false,
      "inputs": [
        {
          "internalType": "uint256",
          "name": "accumFeeAmount",
          "type": "uint256"
        },
        {
          "internalType": "uint256",
          "name": "index",
          "type": "uint256"
        },
        {
          "internalType": "bytes",
          "name": "proof",
          "type": "bytes"
        }
      ],
      "name": "claimFee",
      "outputs": [],
      "payable": false,
      "stateMutability": "nonpayable",
      "type": "function"
    },
    {
      "constant": false,
      "inputs": [
        {
          "internalType": "uint256",
          "name": "validatorId",
          "type": "uint256"
        },
        {
          "internalType": "uint256",
          "name": "heimdallFee",
          "type": "uint256"
        }
      ],
      "name": "confirmAuctionBid",
      "outputs": [],
      "payable": false,
      "stateMutability": "nonpayable",
      "type": "function"
    },
    {
      "constant": true,
      "inputs": [],
      "name": "currentEpoch",
      "outputs": [
        {
          "internalType": "uint256",
          "name": "",
          "type": "uint256"
        }
      ],
      "payable": false,
      "stateMutability": "view",
      "type": "function"
    },
    {
      "constant": true,
      "inputs": [],
      "name": "currentValidatorSetSize",
      "outputs": [
        {
          "internalType": "uint256",
          "name": "",
          "type": "uint256"
        }
      ],
      "payable": false,
      "stateMutability": "view",
      "type": "function"
    },
    {
      "constant": true,
      "inputs": [],
      "name": "currentValidatorSetTotalStake",
      "outputs": [
        {
          "internalType": "uint256",
          "name": "",
          "type": "uint256"
        }
      ],
      "payable": false,
      "stateMutability": "view",
      "type": "function"
    },
    {
      "constant": false,
      "inputs": [
        {
          "internalType": "uint256",
          "name": "validatorId",
          "type": "uint256"
        },
        {
          "internalType": "uint256",
          "name": "amount",
          "type": "uint256"
        },
        {
          "internalType": "address",
          "name": "delegator",
          "type": "address"
        }
      ],
      "name": "delegationDeposit",
      "outputs": [
        {
          "internalType": "bool",
          "name": "",
          "type": "bool"
        }
      ],
      "payable": false,
      "stateMutability": "nonpayable",
      "type": "function"
    },
    {
      "constant": true,
      "inputs": [],
      "name": "delegationEnabled",
      "outputs": [
        {
          "internalType": "bool",
          "name": "",
          "type": "bool"
        }
      ],
      "payable": false,
      "stateMutability": "view",
      "type": "function"
    },
    {
      "constant": true,
      "inputs": [],
      "name": "dynasty",
      "outputs": [
        {
          "internalType": "uint256",
          "name": "",
          "type": "uint256"
        }
      ],
      "payable": false,
      "stateMutability": "view",
      "type": "function"
    },
    {
      "constant": true,
      "inputs": [],
      "name": "epoch",
      "outputs": [
        {
          "internalType": "uint256",
          "name": "",
          "type": "uint256"
        }
      ],
      "payable": false,
      "stateMutability": "view",
      "type": "function"
    },
    {
      "constant": true,
      "inputs": [],
      "name": "factory",
      "outputs": [
        {
          "internalType": "contract ValidatorShareFactory",
          "name": "",
          "type": "address"
        }
      ],
      "payable": false,
      "stateMutability": "view",
      "type": "function"
    },
    {
      "constant": false,
      "inputs": [
        {
          "internalType": "uint256",
          "name": "validatorId",
          "type": "uint256"
        }
      ],
      "name": "forceUnstake",
      "outputs": [],
      "payable": false,
      "stateMutability": "nonpayable",
      "type": "function"
    },
    {
      "constant": true,
      "inputs": [
        {
          "internalType": "uint256",
          "name": "validatorId",
          "type": "uint256"
        }
      ],
      "name": "getValidatorContract",
      "outputs": [
        {
          "internalType": "address",
          "name": "",
          "type": "address"
        }
      ],
      "payable": false,
      "stateMutability": "view",
      "type": "function"
    },
    {
      "constant": true,
      "inputs": [
        {
          "internalType": "address",
          "name": "user",
          "type": "address"
        }
      ],
      "name": "getValidatorId",
      "outputs": [
        {
          "internalType": "uint256",
          "name": "",
          "type": "uint256"
        }
      ],
      "payable": false,
      "stateMutability": "view",
      "type": "function"
    },
    {
      "constant": true,
      "inputs": [],
      "name": "governance",
      "outputs": [
        {
          "internalType": "contract IGovernance",
          "name": "",
          "type": "address"
        }
      ],
      "payable": false,
      "stateMutability": "view",
      "type": "function"
    },
    {
      "constant": false,
      "inputs": [
        {
          "internalType": "address",
          "name": "_registry",
          "type": "address"
        },
        {
          "internalType": "address",
          "name": "_rootchain",
          "type": "address"
        },
        {
          "internalType": "address",
          "name": "_token",
          "type": "address"
        },
        {
          "internalType": "address",
          "name": "_NFTContract",
          "type": "address"
        },
        {
          "internalType": "address",
          "name": "_stakingLogger",
          "type": "address"
        },
        {
          "internalType": "address",
          "name": "_validatorShareFactory",
          "type": "address"
        },
        {
          "internalType": "address",
          "name": "_governance",
          "type": "address"
        },
        {
          "internalType": "address",
          "name": "_owner",
          "type": "address"
        }
      ],
      "name": "initialize",
      "outputs": [],
      "payable": false,
      "stateMutability": "nonpayable",
      "type": "function"
    },
    {
      "constant": true,
      "inputs": [],
      "name": "isOwner",
      "outputs": [
        {
          "internalType": "bool",
          "name": "",
          "type": "bool"
        }
      ],
      "payable": false,
      "stateMutability": "view",
      "type": "function"
    },
    {
      "constant": true,
      "inputs": [
        {
          "internalType": "uint256",
          "name": "validatorId",
          "type": "uint256"
        }
      ],
      "name": "isValidator",
      "outputs": [
        {
          "internalType": "bool",
          "name": "",
          "type": "bool"
        }
      ],
      "payable": false,
      "stateMutability": "view",
      "type": "function"
    },
    {
      "constant": true,
      "inputs": [
        {
          "internalType": "uint256",
          "name": "",
          "type": "uint256"
        }
      ],
      "name": "latestSignerUpdateEpoch",
      "outputs": [
        {
          "internalType": "uint256",
          "name": "",
          "type": "uint256"
        }
      ],
      "payable": false,
      "stateMutability": "view",
      "type": "function"
    },
    {
      "constant": false,
      "inputs": [],
      "name": "lock",
      "outputs": [],
      "payable": false,
      "stateMutability": "nonpayable",
      "type": "function"
    },
    {
      "constant": true,
      "inputs": [],
      "name": "locked",
      "outputs": [
        {
          "internalType": "bool",
          "name": "",
          "type": "bool"
        }
      ],
      "payable": false,
      "stateMutability": "view",
      "type": "function"
    },
    {
      "constant": true,
      "inputs": [],
      "name": "logger",
      "outputs": [
        {
          "internalType": "contract StakingInfo",
          "name": "",
          "type": "address"
        }
      ],
      "payable": false,
      "stateMutability": "view",
      "type": "function"
    },
    {
      "constant": true,
      "inputs": [],
      "name": "minDeposit",
      "outputs": [
        {
          "internalType": "uint256",
          "name": "",
          "type": "uint256"
        }
      ],
      "payable": false,
      "stateMutability": "view",
      "type": "function"
    },
    {
      "constant": true,
      "inputs": [],
      "name": "minHeimdallFee",
      "outputs": [
        {
          "internalType": "uint256",
          "name": "",
          "type": "uint256"
        }
      ],
      "payable": false,
      "stateMutability": "view",
      "type": "function"
    },
    {
      "constant": true,
      "inputs": [],
      "name": "owner",
      "outputs": [
        {
          "internalType": "address",
          "name": "",
          "type": "address"
        }
      ],
      "payable": false,
      "stateMutability": "view",
      "type": "function"
    },
    {
      "constant": true,
      "inputs": [
        {
          "internalType": "uint256",
          "name": "tokenId",
          "type": "uint256"
        }
      ],
      "name": "ownerOf",
      "outputs": [
        {
          "internalType": "address",
          "name": "",
          "type": "address"
        }
      ],
      "payable": false,
      "stateMutability": "view",
      "type": "function"
    },
    {
      "constant": true,
      "inputs": [],
      "name": "proposerBonus",
      "outputs": [
        {
          "internalType": "uint256",
          "name": "",
          "type": "uint256"
        }
      ],
      "payable": false,
      "stateMutability": "view",
      "type": "function"
    },
    {
      "constant": true,
      "inputs": [],
      "name": "registry",
      "outputs": [
        {
          "internalType": "address",
          "name": "",
          "type": "address"
        }
      ],
      "payable": false,
      "stateMutability": "view",
      "type": "function"
    },
    {
      "constant": false,
      "inputs": [
        {
          "internalType": "address",
          "name": "_NFTContract",
          "type": "address"
        },
        {
          "internalType": "address",
          "name": "_stakingLogger",
          "type": "address"
        },
        {
          "internalType": "address",
          "name": "_validatorShareFactory",
          "type": "address"
        }
      ],
      "name": "reinitialize",
      "outputs": [],
      "payable": false,
      "stateMutability": "nonpayable",
      "type": "function"
    },
    {
      "constant": false,
      "inputs": [],
      "name": "renounceOwnership",
      "outputs": [],
      "payable": false,
      "stateMutability": "nonpayable",
      "type": "function"
    },
    {
      "constant": true,
      "inputs": [],
      "name": "replacementCoolDown",
      "outputs": [
        {
          "internalType": "uint256",
          "name": "",
          "type": "uint256"
        }
      ],
      "payable": false,
      "stateMutability": "view",
      "type": "function"
    },
    {
      "constant": false,
      "inputs": [
        {
          "internalType": "uint256",
          "name": "validatorId",
          "type": "uint256"
        },
        {
          "internalType": "uint256",
          "name": "amount",
          "type": "uint256"
        },
        {
          "internalType": "bool",
          "name": "stakeRewards",
          "type": "bool"
        }
      ],
      "name": "restake",
      "outputs": [],
      "payable": false,
      "stateMutability": "nonpayable",
      "type": "function"
    },
    {
      "constant": true,
      "inputs": [],
      "name": "rootChain",
      "outputs": [
        {
          "internalType": "address",
          "name": "",
          "type": "address"
        }
      ],
      "payable": false,
      "stateMutability": "view",
      "type": "function"
    },
    {
      "constant": false,
      "inputs": [
        {
          "internalType": "uint256",
          "name": "_currentEpoch",
          "type": "uint256"
        }
      ],
      "name": "setCurrentEpoch",
      "outputs": [],
      "payable": false,
      "stateMutability": "nonpayable",
      "type": "function"
    },
    {
      "constant": false,
      "inputs": [
        {
          "internalType": "bool",
          "name": "enabled",
          "type": "bool"
        }
      ],
      "name": "setDelegationEnabled",
      "outputs": [],
      "payable": false,
      "stateMutability": "nonpayable",
      "type": "function"
    },
    {
      "constant": false,
      "inputs": [
        {
          "internalType": "address",
          "name": "_token",
          "type": "address"
        }
      ],
      "name": "setToken",
      "outputs": [],
      "payable": false,
      "stateMutability": "nonpayable",
      "type": "function"
    },
    {
      "constant": true,
      "inputs": [
        {
          "internalType": "address",
          "name": "",
          "type": "address"
        }
      ],
      "name": "signerToValidator",
      "outputs": [
        {
          "internalType": "uint256",
          "name": "",
          "type": "uint256"
        }
      ],
      "payable": false,
      "stateMutability": "view",
      "type": "function"
    },
    {
      "constant": true,
      "inputs": [],
      "name": "signerUpdateLimit",
      "outputs": [
        {
          "internalType": "uint256",
          "name": "",
          "type": "uint256"
        }
      ],
      "payable": false,
      "stateMutability": "view",
      "type": "function"
    },
    {
      "constant": false,
      "inputs": [
        {
          "internalType": "bytes",
          "name": "_slashingInfoList",
          "type": "bytes"
        }
      ],
      "name": "slash",
      "outputs": [
        {
          "internalType": "uint256",
          "name": "",
          "type": "uint256"
        }
      ],
      "payable": false,
      "stateMutability": "nonpayable",
      "type": "function"
    },
    {
      "constant": false,
      "inputs": [
        {
          "internalType": "uint256",
          "name": "amount",
          "type": "uint256"
        },
        {
          "internalType": "uint256",
          "name": "heimdallFee",
          "type": "uint256"
        },
        {
          "internalType": "bool",
          "name": "acceptDelegation",
          "type": "bool"
        },
        {
          "internalType": "bytes",
          "name": "signerPubkey",
          "type": "bytes"
        }
      ],
      "name": "stake",
      "outputs": [],
      "payable": false,
      "stateMutability": "nonpayable",
      "type": "function"
    },
    {
      "constant": false,
      "inputs": [
        {
          "internalType": "address",
          "name": "user",
          "type": "address"
        },
        {
          "internalType": "uint256",
          "name": "amount",
          "type": "uint256"
        },
        {
          "internalType": "uint256",
          "name": "heimdallFee",
          "type": "uint256"
        },
        {
          "internalType": "bool",
          "name": "acceptDelegation",
          "type": "bool"
        },
        {
          "internalType": "bytes",
          "name": "signerPubkey",
          "type": "bytes"
        }
      ],
      "name": "stakeFor",
      "outputs": [],
      "payable": false,
      "stateMutability": "nonpayable",
      "type": "function"
    },
    {
      "constant": false,
      "inputs": [
        {
          "internalType": "uint256",
          "name": "validatorId",
          "type": "uint256"
        },
        {
          "internalType": "uint256",
          "name": "amount",
          "type": "uint256"
        },
        {
          "internalType": "bool",
          "name": "_acceptDelegation",
          "type": "bool"
        },
        {
          "internalType": "bytes",
          "name": "_signerPubkey",
          "type": "bytes"
        }
      ],
      "name": "startAuction",
      "outputs": [],
      "payable": false,
      "stateMutability": "nonpayable",
      "type": "function"
    },
    {
      "constant": false,
      "inputs": [
        {
          "internalType": "uint256",
          "name": "forNCheckpoints",
          "type": "uint256"
        }
      ],
      "name": "stopAuctions",
      "outputs": [],
      "payable": false,
      "stateMutability": "nonpayable",
      "type": "function"
    },
    {
      "constant": true,
      "inputs": [],
      "name": "token",
      "outputs": [
        {
          "internalType": "contract IERC20",
          "name": "",
          "type": "address"
        }
      ],
      "payable": false,
      "stateMutability": "view",
      "type": "function"
    },
    {
      "constant": false,
      "inputs": [
        {
          "internalType": "address",
          "name": "user",
          "type": "address"
        },
        {
          "internalType": "uint256",
          "name": "heimdallFee",
          "type": "uint256"
        }
      ],
      "name": "topUpForFee",
      "outputs": [],
      "payable": false,
      "stateMutability": "nonpayable",
      "type": "function"
    },
    {
      "constant": true,
      "inputs": [],
      "name": "totalHeimdallFee",
      "outputs": [
        {
          "internalType": "uint256",
          "name": "",
          "type": "uint256"
        }
      ],
      "payable": false,
      "stateMutability": "view",
      "type": "function"
    },
    {
      "constant": true,
      "inputs": [],
      "name": "totalRewards",
      "outputs": [
        {
          "internalType": "uint256",
          "name": "",
          "type": "uint256"
        }
      ],
      "payable": false,
      "stateMutability": "view",
      "type": "function"
    },
    {
      "constant": true,
      "inputs": [],
      "name": "totalRewardsLiquidated",
      "outputs": [
        {
          "internalType": "uint256",
          "name": "",
          "type": "uint256"
        }
      ],
      "payable": false,
      "stateMutability": "view",
      "type": "function"
    },
    {
      "constant": true,
      "inputs": [],
      "name": "totalStaked",
      "outputs": [
        {
          "internalType": "uint256",
          "name": "",
          "type": "uint256"
        }
      ],
      "payable": false,
      "stateMutability": "view",
      "type": "function"
    },
    {
      "constant": true,
      "inputs": [
        {
          "internalType": "address",
          "name": "user",
          "type": "address"
        }
      ],
      "name": "totalStakedFor",
      "outputs": [
        {
          "internalType": "uint256",
          "name": "",
          "type": "uint256"
        }
      ],
      "payable": false,
      "stateMutability": "view",
      "type": "function"
    },
    {
      "constant": false,
      "inputs": [
        {
          "internalType": "uint256",
          "name": "validatorId",
          "type": "uint256"
        },
        {
          "internalType": "uint256",
          "name": "amount",
          "type": "uint256"
        },
        {
          "internalType": "address",
          "name": "delegator",
          "type": "address"
        }
      ],
      "name": "transferFunds",
      "outputs": [
        {
          "internalType": "bool",
          "name": "",
          "type": "bool"
        }
      ],
      "payable": false,
      "stateMutability": "nonpayable",
      "type": "function"
    },
    {
      "constant": false,
      "inputs": [
        {
          "internalType": "address",
          "name": "newOwner",
          "type": "address"
        }
      ],
      "name": "transferOwnership",
      "outputs": [],
      "payable": false,
      "stateMutability": "nonpayable",
      "type": "function"
    },
    {
      "constant": false,
      "inputs": [
        {
          "internalType": "uint256",
          "name": "validatorId",
          "type": "uint256"
        }
      ],
      "name": "unjail",
      "outputs": [],
      "payable": false,
      "stateMutability": "nonpayable",
      "type": "function"
    },
    {
      "constant": false,
      "inputs": [],
      "name": "unlock",
      "outputs": [],
      "payable": false,
      "stateMutability": "nonpayable",
      "type": "function"
    },
    {
      "constant": false,
      "inputs": [
        {
          "internalType": "uint256",
          "name": "validatorId",
          "type": "uint256"
        }
      ],
      "name": "unstake",
      "outputs": [],
      "payable": false,
      "stateMutability": "nonpayable",
      "type": "function"
    },
    {
      "constant": false,
      "inputs": [
        {
          "internalType": "uint256",
          "name": "validatorId",
          "type": "uint256"
        }
      ],
      "name": "unstakeClaim",
      "outputs": [],
      "payable": false,
      "stateMutability": "nonpayable",
      "type": "function"
    },
    {
      "constant": false,
      "inputs": [
        {
          "internalType": "uint256",
          "name": "_blocks",
          "type": "uint256"
        }
      ],
      "name": "updateCheckPointBlockInterval",
      "outputs": [],
      "payable": false,
      "stateMutability": "nonpayable",
      "type": "function"
    },
    {
      "constant": false,
      "inputs": [
        {
          "internalType": "uint256",
          "name": "newReward",
          "type": "uint256"
        }
      ],
      "name": "updateCheckpointReward",
      "outputs": [],
      "payable": false,
      "stateMutability": "nonpayable",
      "type": "function"
    },
    {
      "constant": false,
      "inputs": [
        {
          "internalType": "uint256",
          "name": "validatorId",
          "type": "uint256"
        },
        {
          "internalType": "address",
          "name": "newContractAddress",
          "type": "address"
        }
      ],
      "name": "updateContractAddress",
      "outputs": [],
      "payable": false,
      "stateMutability": "nonpayable",
      "type": "function"
    },
    {
      "constant": false,
      "inputs": [
        {
          "internalType": "uint256",
          "name": "newDynasty",
          "type": "uint256"
        }
      ],
      "name": "updateDynastyValue",
      "outputs": [],
      "payable": false,
      "stateMutability": "nonpayable",
      "type": "function"
    },
    {
      "constant": false,
      "inputs": [
        {
          "internalType": "uint256",
          "name": "_minDeposit",
          "type": "uint256"
        },
        {
          "internalType": "uint256",
          "name": "_minHeimdallFee",
          "type": "uint256"
        }
      ],
      "name": "updateMinAmounts",
      "outputs": [],
      "payable": false,
      "stateMutability": "nonpayable",
      "type": "function"
    },
    {
      "constant": false,
      "inputs": [
        {
          "internalType": "uint256",
          "name": "newProposerBonus",
          "type": "uint256"
        }
      ],
      "name": "updateProposerBonus",
      "outputs": [],
      "payable": false,
      "stateMutability": "nonpayable",
      "type": "function"
    },
    {
      "constant": false,
      "inputs": [
        {
          "internalType": "uint256",
          "name": "validatorId",
          "type": "uint256"
        },
        {
          "internalType": "bytes",
          "name": "signerPubkey",
          "type": "bytes"
        }
      ],
      "name": "updateSigner",
      "outputs": [],
      "payable": false,
      "stateMutability": "nonpayable",
      "type": "function"
    },
    {
      "constant": false,
      "inputs": [
        {
          "internalType": "uint256",
          "name": "_limit",
          "type": "uint256"
        }
      ],
      "name": "updateSignerUpdateLimit",
      "outputs": [],
      "payable": false,
      "stateMutability": "nonpayable",
      "type": "function"
    },
    {
      "constant": false,
      "inputs": [
        {
          "internalType": "bool",
          "name": "delegation",
          "type": "bool"
        }
      ],
      "name": "updateValidatorDelegation",
      "outputs": [],
      "payable": false,
      "stateMutability": "nonpayable",
      "type": "function"
    },
    {
      "constant": false,
      "inputs": [
        {
          "internalType": "uint256",
          "name": "validatorId",
          "type": "uint256"
        },
        {
          "internalType": "int256",
          "name": "amount",
          "type": "int256"
        }
      ],
      "name": "updateValidatorState",
      "outputs": [],
      "payable": false,
      "stateMutability": "nonpayable",
      "type": "function"
    },
    {
      "constant": false,
      "inputs": [
        {
          "internalType": "uint256",
          "name": "newThreshold",
          "type": "uint256"
        }
      ],
      "name": "updateValidatorThreshold",
      "outputs": [],
      "payable": false,
      "stateMutability": "nonpayable",
      "type": "function"
    },
    {
      "constant": true,
      "inputs": [
        {
          "internalType": "address",
          "name": "",
          "type": "address"
        }
      ],
      "name": "userFeeExit",
      "outputs": [
        {
          "internalType": "uint256",
          "name": "",
          "type": "uint256"
        }
      ],
      "payable": false,
      "stateMutability": "view",
      "type": "function"
    },
    {
      "constant": true,
      "inputs": [
        {
          "internalType": "uint256",
          "name": "",
          "type": "uint256"
        }
      ],
      "name": "validatorAuction",
      "outputs": [
        {
          "internalType": "uint256",
          "name": "amount",
          "type": "uint256"
        },
        {
          "internalType": "uint256",
          "name": "startEpoch",
          "type": "uint256"
        },
        {
          "internalType": "address",
          "name": "user",
          "type": "address"
        },
        {
          "internalType": "bool",
          "name": "acceptDelegation",
          "type": "bool"
        },
        {
          "internalType": "bytes",
          "name": "signerPubkey",
          "type": "bytes"
        }
      ],
      "payable": false,
      "stateMutability": "view",
      "type": "function"
    },
    {
      "constant": true,
      "inputs": [
        {
          "internalType": "uint256",
          "name": "validatorId",
          "type": "uint256"
        }
      ],
      "name": "validatorStake",
      "outputs": [
        {
          "internalType": "uint256",
          "name": "",
          "type": "uint256"
        }
      ],
      "payable": false,
      "stateMutability": "view",
      "type": "function"
    },
    {
      "constant": true,
      "inputs": [],
      "name": "validatorState",
      "outputs": [
        {
          "internalType": "uint256",
          "name": "amount",
          "type": "uint256"
        },
        {
          "internalType": "uint256",
          "name": "stakerCount",
          "type": "uint256"
        }
      ],
      "payable": false,
      "stateMutability": "view",
      "type": "function"
    },
    {
      "constant": true,
      "inputs": [
        {
          "internalType": "uint256",
          "name": "",
          "type": "uint256"
        }
      ],
      "name": "validatorStateChanges",
      "outputs": [
        {
          "internalType": "int256",
          "name": "amount",
          "type": "int256"
        },
        {
          "internalType": "int256",
          "name": "stakerCount",
          "type": "int256"
        }
      ],
      "payable": false,
      "stateMutability": "view",
      "type": "function"
    },
    {
      "constant": true,
      "inputs": [],
      "name": "validatorThreshold",
      "outputs": [
        {
          "internalType": "uint256",
          "name": "",
          "type": "uint256"
        }
      ],
      "payable": false,
      "stateMutability": "view",
      "type": "function"
    },
    {
      "constant": true,
      "inputs": [
        {
          "internalType": "uint256",
          "name": "",
          "type": "uint256"
        }
      ],
      "name": "validators",
      "outputs": [
        {
          "internalType": "uint256",
          "name": "amount",
          "type": "uint256"
        },
        {
          "internalType": "uint256",
          "name": "reward",
          "type": "uint256"
        },
        {
          "internalType": "uint256",
          "name": "activationEpoch",
          "type": "uint256"
        },
        {
          "internalType": "uint256",
          "name": "deactivationEpoch",
          "type": "uint256"
        },
        {
          "internalType": "uint256",
          "name": "jailTime",
          "type": "uint256"
        },
        {
          "internalType": "address",
          "name": "signer",
          "type": "address"
        },
        {
          "internalType": "address",
          "name": "contractAddress",
          "type": "address"
        },
        {
          "internalType": "enum StakeManagerStorage.Status",
          "name": "status",
          "type": "uint8"
        }
      ],
      "payable": false,
      "stateMutability": "view",
      "type": "function"
    },
    {
      "constant": false,
      "inputs": [
        {
          "internalType": "uint256",
          "name": "validatorId",
          "type": "uint256"
        }
      ],
      "name": "withdrawRewards",
      "outputs": [],
      "payable": false,
      "stateMutability": "nonpayable",
      "type": "function"
    },
    {
      "constant": true,
      "inputs": [],
      "name": "withdrawalDelay",
      "outputs": [
        {
          "internalType": "uint256",
          "name": "",
          "type": "uint256"
        }
      ],
      "payable": false,
      "stateMutability": "view",
      "type": "function"
    },
    {
      "constant": false,
      "inputs": [
        {
          "internalType": "uint256",
          "name": "blockInterval",
          "type": "uint256"
        },
        {
          "internalType": "bytes32",
          "name": "voteHash",
          "type": "bytes32"
        },
        {
          "internalType": "bytes32",
          "name": "stateRoot",
          "type": "bytes32"
        },
        {
          "internalType": "address",
          "name": "proposer",
          "type": "address"
        },
        {
          "internalType": "bytes",
          "name": "sigs",
          "type": "bytes"
        }
      ],
      "name": "checkSignatures",
      "outputs": [
        {
          "internalType": "uint256",
          "name": "",
          "type": "uint256"
        }
      ],
      "payable": false,
      "stateMutability": "nonpayable",
      "type": "function"
    }
  ],
  "bytecode": "0x608060408190526023805460ff1916905560008054610100600160a81b0319168155600180546001600160a01b0319163317908190556001600160a01b0316917f8be0079c531659141344cd1fd0a4f28419497f9722a3daafe3b4186f6b6457e0908290a361567f806100736000396000f3fe608060405234801561001057600080fd5b50600436106104ac5760003560e01c80637b1039991161026d578063bc8756a911610151578063e8afa8e8116100ce578063f41a964211610092578063f41a96421461106e578063f4547a4d14611119578063f771fc8714611145578063f83d08ba14611162578063fba58f341461116a578063fc0c546a14611172576104ac565b8063e8afa8e814610fde578063eceec1d314611004578063f24ccbfe14611021578063f28699fa14611029578063f2fde38b14611048576104ac565b8063d6de07d011610115578063d6de07d014610f60578063d7f5549d14610f7f578063d86d53e714610f9c578063e59ee0c614610fb9578063e6692f4914610fc1576104ac565b8063bc8756a914610ef9578063c45a015514610f2b578063cbf383d514610f33578063cd6b838814610f50578063cf30901214610f58576104ac565b8063987ab9db116101ea578063a440ab1e116101ae578063a440ab1e14610e1e578063a476907114610e3b578063a685487714610e43578063a69df4b514610ec6578063a7ab696114610ece578063b1d23f0214610ed6576104ac565b8063987ab9db14610dab57806399d18f6f14610db35780639a8a624314610dd65780639b33f43414610dde5780639ff1150014610dfb576104ac565b80638da5cb5b116102315780638da5cb5b14610d595780638f32d59b14610d61578063900cf0cf14610d695780639146014914610d715780639342c8f414610d8e576104ac565b80637b10399914610cda5780637d66975214610ce25780637f952d9514610cea578063817b1cd214610cf25780638a29e2de14610cfa576104ac565b806341b3d185116103945780635e47655f116103115780636901b253116102d55780636901b25314610c625780637060054d14610c94578063715018a614610c9c5780637667180814610ca457806377939d1014610cac57806378f84a4414610cb4576104ac565b80635e47655f14610a8d5780636352211e14610b315780636365679814610b4e5780636400e38514610b7a57806368cb812a14610bb2576104ac565b80635325e144116103585780635325e1441461099157806354b8c60114610a585780635508d8e114610a6057806356342d8c14610a685780635aa6e67514610a85576104ac565b806341b3d1851461088c5780634b341aed146108945780634e3c83f1146108ba5780634fd101d7146108c25780634fdd20f1146108ca576104ac565b806317c2b9101161042d57806328cc4e41116103f157806328cc4e411461075c5780632e17de781461078757806331c2273b146107a457806334274586146107c857806335aa2e44146107d05780633862da0b14610866576104ac565b806317c2b910146106c85780631dd6b9b1146106d057806325316411146106ed57806325726df2146106f55780632649263a1461072b576104ac565b80630ebb172a116104745780630ebb172a1461063a578063144fa6d71461064257806316827b1b14610668578063174e683214610685578063178c2c83146106ab576104ac565b8063028c4c67146104b1578063066647a01461053657806306cfb1041461060d5780630cccfc581461062a5780630e15561a14610632575b600080fd5b610534600480360360808110156104c757600080fd5b813591602081013591604082013515159190810190608081016060820135600160201b8111156104f657600080fd5b82018360208201111561050857600080fd5b803590602001918460018302840111600160201b8311171561052957600080fd5b50909250905061117a565b005b6105fb600480360360a081101561054c57600080fd5b8135916020810135916040820135916001600160a01b036060820135169181019060a081016080820135600160201b81111561058757600080fd5b82018360208201111561059957600080fd5b803590602001918460018302840111600160201b831117156105ba57600080fd5b91908080601f0160208091040260200160405190810160405280939291908181526020018383808284376000920191909152509295506111c4945050505050565b60408051918252519081900360200190f35b6105346004803603602081101561062357600080fd5b50356111eb565b6105fb61123e565b6105fb611244565b6105fb61124a565b6105346004803603602081101561065857600080fd5b50356001600160a01b0316611250565b6105346004803603602081101561067e57600080fd5b50356112d3565b6105fb6004803603602081101561069b57600080fd5b50356001600160a01b03166113a5565b610534600480360360208110156106c157600080fd5b503561142f565b6105fb6116ec565b610534600480360360208110156106e657600080fd5b50356116f2565b6105fb611745565b6107126004803603602081101561070b57600080fd5b503561174b565b6040805192835260208301919091528051918290030190f35b6107486004803603602081101561074157600080fd5b5035611764565b604080519115158252519081900360200190f35b6105346004803603606081101561077257600080fd5b508035906020810135906040013515156117e5565b6105346004803603602081101561079d57600080fd5b5035611b26565b6107ac611c52565b604080516001600160a01b039092168252519081900360200190f35b6105fb611c61565b6107ed600480360360208110156107e657600080fd5b5035611c67565b60405180898152602001888152602001878152602001868152602001858152602001846001600160a01b03166001600160a01b03168152602001836001600160a01b03166001600160a01b0316815260200182600381111561084b57fe5b60ff1681526020019850505050505050505060405180910390f35b6105fb6004803603602081101561087c57600080fd5b50356001600160a01b0316611cbd565b6105fb611ccf565b6105fb600480360360208110156108aa57600080fd5b50356001600160a01b0316611cd5565b6105fb611e0c565b6105fb611e12565b610534600480360360a08110156108e057600080fd5b6001600160a01b0382351691602081013591604082013591606081013515159181019060a081016080820135600160201b81111561091d57600080fd5b82018360208201111561092f57600080fd5b803590602001918460018302840111600160201b8311171561095057600080fd5b91908080601f016020809104026020016040519081016040528093929190818152602001838380828437600092019190915250929550611e18945050505050565b6109ae600480360360208110156109a757600080fd5b5035611edc565b60405180868152602001858152602001846001600160a01b03166001600160a01b031681526020018315151515815260200180602001828103825283818151815260200191508051906020019080838360005b83811015610a19578181015183820152602001610a01565b50505050905090810190601f168015610a465780820380516001836020036101000a031916815260200191505b50965050505050505060405180910390f35b610748611fa2565b6105fb611fab565b6107ac60048036036020811015610a7e57600080fd5b5035611fb1565b6107ac611fcf565b6105fb60048036036020811015610aa357600080fd5b810190602081018135600160201b811115610abd57600080fd5b820183602082011115610acf57600080fd5b803590602001918460018302840111600160201b83111715610af057600080fd5b91908080601f016020809104026020016040519081016040528093929190818152602001838380828437600092019190915250929550611fe3945050505050565b6107ac60048036036020811015610b4757600080fd5b50356122ac565b61053460048036036040811015610b6457600080fd5b506001600160a01b0381351690602001356122f8565b61053460048036036060811015610b9057600080fd5b506001600160a01b038135811691602081013582169160409091013516612310565b61053460048036036060811015610bc857600080fd5b813591602081013591810190606081016040820135600160201b811115610bee57600080fd5b820183602082011115610c0057600080fd5b803590602001918460018302840111600160201b83111715610c2157600080fd5b91908080601f01602080910402602001604051908101604052809392919081815260200183838082843760009201919091525092955061239d945050505050565b61074860048036036060811015610c7857600080fd5b50803590602081013590604001356001600160a01b03166125d4565b6105fb6126cd565b6105346126d3565b6105fb61272e565b6105fb612734565b6105fb60048036036020811015610cca57600080fd5b50356001600160a01b031661273a565b6107ac61274c565b6105fb61275b565b6105fb612761565b6105fb612768565b6105346004803603610100811015610d1157600080fd5b506001600160a01b038135811691602081013582169160408201358116916060810135821691608082013581169160a081013582169160c082013581169160e001351661276e565b6107ac6128b7565b6107486128c6565b6105fb6128d7565b61053460048036036020811015610d8757600080fd5b50356128dd565b61053460048036036020811015610da457600080fd5b503561293a565b6107ac6129f1565b61053460048036036040811015610dc957600080fd5b5080359060200135612a00565b6105fb612ef6565b61053460048036036020811015610df457600080fd5b5035612efc565b61053460048036036040811015610e1157600080fd5b5080359060200135612ffe565b61053460048036036020811015610e3457600080fd5b50356130cc565b6105fb613174565b61053460048036036080811015610e5957600080fd5b813591602081013591604082013515159190810190608081016060820135600160201b811115610e8857600080fd5b820183602082011115610e9a57600080fd5b803590602001918460018302840111600160201b83111715610ebb57600080fd5b50909250905061317a565b6105346136fb565b6105fb613753565b61053460048036036040811015610eec57600080fd5b5080359060200135613759565b61074860048036036060811015610f0f57600080fd5b50803590602081013590604001356001600160a01b03166137b2565b6107ac6138f2565b61053460048036036020811015610f4957600080fd5b5035613901565b6105fb6139d3565b6107486139d9565b61053460048036036020811015610f7657600080fd5b503515156139e2565b6105fb60048036036020811015610f9557600080fd5b5035613b0a565b61053460048036036020811015610fb257600080fd5b5035613b1c565b610712613d8d565b61053460048036036020811015610fd757600080fd5b5035613d96565b61053460048036036020811015610ff457600080fd5b50356001600160a01b0316613e98565b6105fb6004803603602081101561101a57600080fd5b5035613f18565b6107ac613f2a565b6105346004803603602081101561103f57600080fd5b50351515613f39565b6105346004803603602081101561105e57600080fd5b50356001600160a01b0316613f9a565b6105346004803603604081101561108457600080fd5b81359190810190604081016020820135600160201b8111156110a557600080fd5b8201836020820111156110b757600080fd5b803590602001918460018302840111600160201b831117156110d857600080fd5b91908080601f016020809104026020016040519081016040528093929190818152602001838380828437600092019190915250929550613fb4945050505050565b6105346004803603604081101561112f57600080fd5b50803590602001356001600160a01b031661420d565b6105346004803603602081101561115b57600080fd5b5035614340565b6105346143a1565b6105fb6143f7565b6107ac6143fd565b6111bd3386868686868080601f016020809104026020016040519081016040528093929190818152602001838380828437600092019190915250611e1892505050565b5050505050565b6002546000906001600160a01b031633146111de57600080fd5b50600b5495945050505050565b60005461010090046001600160a01b031633146112395760405162461bcd60e51b81526004018080602001828103825260268152602001806155ff6026913960400191505060405180910390fd5b600f55565b60155481565b60135481565b60085481565b60005461010090046001600160a01b0316331461129e5760405162461bcd60e51b81526004018080602001828103825260268152602001806155ff6026913960400191505060405180910390fd5b6001600160a01b0381166112b157600080fd5b600380546001600160a01b0319166001600160a01b0392909216919091179055565b60005461010090046001600160a01b031633146113215760405162461bcd60e51b81526004018080602001828103825260268152602001806155ff6026913960400191505060405180910390fd5b6000811161132e57600080fd5b60055460105460408051630f1980a560e41b8152600481018590526024810192909252516001600160a01b039092169163f1980a509160448082019260009290919082900301818387803b15801561138557600080fd5b505af1158015611399573d6000803e3d6000fd5b50505060109190915550565b60065460408051632f745c5960e01b81526001600160a01b038481166004830152600060248301819052925192931691632f745c5991604480820192602092909190829003018186803b1580156113fb57600080fd5b505afa15801561140f573d6000803e3d6000fd5b505050506040513d602081101561142557600080fd5b505190505b919050565b806114398161440c565b60026000838152601a6020526040902060060154600160a01b900460ff16600381111561146257fe5b146114b4576040805162461bcd60e51b815260206004820152601760248201527f56616c696461746f72206973206e6f74206a61696c6564000000000000000000604482015290519081900360640190fd5b6000828152601a602052604090206003015415611518576040805162461bcd60e51b815260206004820152601b60248201527f56616c696461746f7220616c726561647920756e7374616b696e670000000000604482015290519081900360640190fd5b6009546000838152601a602052604090206004015481101561157a576040805162461bcd60e51b8152602060048201526016602482015275125b98dbdb5c1b195d19481a985a5b081c195c9a5bd960521b604482015290519081900360640190fd5b6000838152601a6020526040902054600c5481101561159857600080fd5b6000848152601a60205260408120600601546001600160a01b03161561163c576000858152601a602090815260408083206006015481516322f0f2f960e01b815291516001600160a01b03909116936322f0f2f993600480850194919392918390030190829087803b15801561160d57600080fd5b505af1158015611621573d6000803e3d6000fd5b505050506040513d602081101561163757600080fd5b505190505b61165861164f838363ffffffff61449616565b600160006144af565b6000858152601a602052604080822060068101805460ff60a01b1916600160a01b17905560058054910154825163f92ec5af60e01b8152600481018a90526001600160a01b039182166024820152925191169263f92ec5af926044808201939182900301818387803b1580156116cd57600080fd5b505af11580156116e1573d6000803e3d6000fd5b505050505050505050565b60175481565b60005461010090046001600160a01b031633146117405760405162461bcd60e51b81526004018080602001828103825260268152602001806155ff6026913960400191505060405180910390fd5b600955565b600e5481565b601e602052600090815260409020805460019091015482565b6000818152601a6020526040812060028101546003820154825460069093015460095492939192600160a01b90910460ff169082158015906117b0575084158015906117b05750808511155b80156117c357508315806117c357508084115b80156117da575060018260038111156117d857fe5b145b979650505050505050565b6117ed61456b565b826117f78161440c565b6000848152601a602052604090206003015415611851576040805162461bcd60e51b81526020600482015260136024820152724e6f20757365206f662072657374616b696e6760681b604482015290519081900360640190fd5b821561192657600354604080516323b872dd60e01b81523360048201523060248201526044810186905290516001600160a01b03909216916323b872dd916064808201926020929091908290030181600087803b1580156118b157600080fd5b505af11580156118c5573d6000803e3d6000fd5b505050506040513d60208110156118db57600080fd5b5051611926576040805162461bcd60e51b8152602060048201526015602482015274151c985b9cd9995c881cdd185ad94819985a5b1959605a1b604482015290519081900360640190fd5b8115611a01576000848152601a602052604090206001015461194f90849063ffffffff61449616565b6000858152601a60205260409020600601549093506001600160a01b031680156119ed576119ea816001600160a01b03166332ba2e536040518163ffffffff1660e01b8152600401602060405180830381600087803b1580156119b157600080fd5b505af11580156119c5573d6000803e3d6000fd5b505050506040513d60208110156119db57600080fd5b5051859063ffffffff61449616565b93505b506000848152601a60205260408120600101555b601154600090611a17908563ffffffff61449616565b60118190556000868152601a6020526040902054909150611a3e908563ffffffff61449616565b6000868152601a6020526040812091909155611a5c908590806144af565b6005546040805163532e19a960e01b81526004810188905290516001600160a01b039092169163532e19a99160248082019260009290919082900301818387803b158015611aa957600080fd5b505af1158015611abd573d6000803e3d6000fd5b50506005546000888152601a6020526040808220548151631585a9f360e21b8152600481018c905260248101919091526044810187905290516001600160a01b039093169450635616a7cc93506064808201939182900301818387803b1580156116cd57600080fd5b80611b308161440c565b600082815260208052604090205415611b90576040805162461bcd60e51b815260206004820152601b60248201527f5761697420666f722061756374696f6e20636f6d706c6574696f6e0000000000604482015290519081900360640190fd5b6000828152601a602052604090206002015415801590611bbf57506000828152601a6020526040902060030154155b8015611c21575060016000838152601a6020526040902060060154600160a01b900460ff166003811115611bef57fe5b1480611c21575060026000838152601a6020526040902060060154600160a01b900460ff166003811115611c1f57fe5b145b611c2a57600080fd5b600954600090611c4190600163ffffffff61449616565b9050611c4d83826145ac565b505050565b6006546001600160a01b031681565b60165481565b601a602052600090815260409020805460018201546002830154600384015460048501546005860154600690960154949593949293919290916001600160a01b039081169190811690600160a01b900460ff1688565b601b6020526000908152604090205481565b600c5481565b60006001600160a01b0382161580611d635750600654604080516370a0823160e01b81526001600160a01b038581166004830152915191909216916370a08231916024808301926020929190829003018186803b158015611d3557600080fd5b505afa158015611d49573d6000803e3d6000fd5b505050506040513d6020811015611d5f57600080fd5b5051155b15611d705750600061142a565b60065460408051632f745c5960e01b81526001600160a01b0385811660048301526000602483018190529251601a949190911691632f745c59916044808301926020929190829003018186803b158015611dc957600080fd5b505afa158015611ddd573d6000803e3d6000fd5b505050506040513d6020811015611df357600080fd5b5051815260208101919091526040016000205492915050565b600f5481565b60105481565b611e2061456b565b601054611e2b612761565b10611e675760405162461bcd60e51b81526004018080602001828103825260218152602001806155ba6021913960400191505060405180910390fd5b600c548411611ebd576040805162461bcd60e51b815260206004820152601960248201527f6d696e206465706f736974206c696d6974206661696c65642100000000000000604482015290519081900360640190fd5b611ec885848661475e565b611ed48585848461491e565b505050505050565b60208080526000918252604091829020805460018083015460028085015460038601805489516101009682161596909602600019011692909204601f8101889004880285018801909852878452939691956001600160a01b03851695600160a01b90950460ff1694939290830182828015611f985780601f10611f6d57610100808354040283529160200191611f98565b820191906000526020600020905b815481529060010190602001808311611f7b57829003601f168201915b5050505050905085565b60195460ff1681565b60125481565b6000908152601a60205260409020600601546001600160a01b031690565b60005461010090046001600160a01b031681565b6004805460408051631ab0168360e31b8152905160009333936001600160a01b03169263d580b4189281830192602092829003018186803b15801561202757600080fd5b505afa15801561203b573d6000803e3d6000fd5b505050506040513d602081101561205157600080fd5b50516001600160a01b0316146120ae576040805162461bcd60e51b815260206004820181905260248201527f53656e646572206d75737420626520736c617368696e67206d616e6167657221604482015290519081900360640190fd5b60606120c16120bc84614d34565b614d59565b905060008080805b84518110156122815760606120f08683815181106120e357fe5b6020026020010151614d59565b905060006121118260008151811061210457fe5b6020026020010151614e2a565b905060006121258360018151811061210457fe5b9050612137858263ffffffff61449616565b6000838152601a60205260409020600601549095506001600160a01b0316156121ff576000828152601a602090815260408083206006810154905482516314454c8560e31b815260048101919091526024810186905291516001600160a01b039091169263a22a6428926044808201939182900301818787803b1580156121bd57600080fd5b505af11580156121d1573d6000803e3d6000fd5b505050506040513d60208110156121e757600080fd5b505190506121fb828263ffffffff614e8a16565b9150505b6000828152601a602052604090205461221e908263ffffffff614e8a16565b6000838152601a6020526040902055825161224d908490600290811061224057fe5b6020026020010151614e9f565b156122765761226d612260836001614ed3565b879063ffffffff61449616565b60019097019695505b5050506001016120c9565b506122a3612295828463ffffffff61449616565b6000038460000360006144af565b95945050505050565b600654604080516331a9108f60e11b81526004810184905290516000926001600160a01b031691636352211e916024808301926020929190829003018186803b1580156113fb57600080fd5b61230061456b565b61230c8282600061475e565b5050565b60005461010090046001600160a01b0316331461235e5760405162461bcd60e51b81526004018080602001828103825260268152602001806155ff6026913960400191505060405180910390fd5b600680546001600160a01b039485166001600160a01b031991821617909155600580549385169382169390931790925560078054919093169116179055565b60408051336020808301919091528183018690528251808303840181526060830193849052805190820120601754631b23d15760e21b909452606483018181526084840187905260a48401859052608060c48501908152865160e4860152865173__Merkle________________________________96636c8f455c9694958a9591948a9490939092610104019185019080838360005b8381101561244b578181015183820152602001612433565b50505050905090810190601f1680156124785780820380516001836020036101000a031916815260200191505b509550505050505060206040518083038186803b15801561249857600080fd5b505af41580156124ac573d6000803e3d6000fd5b505050506040513d60208110156124c257600080fd5b5051612507576040805162461bcd60e51b815260206004820152600f60248201526e2bb937b7339030b1b190383937b7b360891b604482015290519081900360640190fd5b336000908152601f602052604081205461252890859063ffffffff614e8a16565b90506125343382615048565b336000818152601f60209081526040808320889055600354815163a9059cbb60e01b815260048101959095526024850186905290516001600160a01b039091169363a9059cbb9360448083019493928390030190829087803b15801561259957600080fd5b505af11580156125ad573d6000803e3d6000fd5b505050506040513d60208110156125c357600080fd5b50516125ce57600080fd5b50505050565b6000838152601a60205260408120600601546001600160a01b0316331461263d576040805162461bcd60e51b8152602060048201526018602482015277496e76616c696420636f6e7472616374206164647265737360401b604482015290519081900360640190fd5b600354604080516323b872dd60e01b81526001600160a01b03858116600483015230602483015260448201879052915191909216916323b872dd9160648083019260209291908290030181600087803b15801561269957600080fd5b505af11580156126ad573d6000803e3d6000fd5b505050506040513d60208110156126c357600080fd5b5051949350505050565b600a5481565b6126db6128c6565b6126e457600080fd5b6001546040516000916001600160a01b0316907f8be0079c531659141344cd1fd0a4f28419497f9722a3daafe3b4186f6b6457e0908390a3600180546001600160a01b0319169055565b60095481565b60185481565b601f6020526000908152604090205481565b6004546001600160a01b031681565b600b5481565b601d545b90565b60115481565b60235460ff16156127b7576040805162461bcd60e51b815260206004820152600e60248201526d185b1c9958591e481a5b9a5d195960921b604482015290519081900360640190fd5b60238054600160ff1990911617905560008054610100600160a81b0319166101006001600160a01b038581169190910291909117909155600480546001600160a01b03199081168b8416179091556002805482168a84161790556003805482168984161790556006805482168884161790556005805482168784161790556007805490911691851691909117905561284e816150c7565b5050612000600855505060016009819055610376600a90815569044664c7bf6451f00000600b55670de0b6b3a7640000600c819055600d55610400600e556064600f55600760105560128290556108006015556016556019805460ff1916909117905550505050565b6001546001600160a01b031690565b6001546001600160a01b0316331490565b60095490565b60005461010090046001600160a01b0316331461292b5760405162461bcd60e51b81526004018080602001828103825260268152602001806155ff6026913960400191505060405180910390fd5b612937816009546145ac565b50565b806129448161440c565b6000828152601a6020526040902060018101546006909101546001600160a01b031680156129e6576129e3816001600160a01b03166332ba2e536040518163ffffffff1660e01b8152600401602060405180830381600087803b1580156129aa57600080fd5b505af11580156129be573d6000803e3d6000fd5b505050506040513d60208110156129d457600080fd5b5051839063ffffffff61449616565b91505b6125ce843384615136565b6002546001600160a01b031681565b612a0861456b565b6000828152602080526040902060028101546001600160a01b031633811480612a38575083612a36336113a5565b145b612a735760405162461bcd60e51b81526004018080602001828103825260248152602001806155db6024913960400191505060405180910390fd5b600954601554600a54612a8d90829063ffffffff61449616565b6001850154612aa390849063ffffffff614e8a16565b81612aaa57fe5b061015612afe576040805162461bcd60e51b815260206004820181905260248201527f4e6f7420616c6c6f776564206265666f72652061756374696f6e506572696f64604482015290519081900360640190fd5b60028301546001600160a01b0316612b4f576040805162461bcd60e51b815260206004820152600f60248201526e24b73b30b634b21030bab1ba34b7b760891b604482015290519081900360640190fd5b6000858152601a6020526040902080548454600690920154909182916001600160a01b03168015612bf257612bef816001600160a01b031663a446c2db6040518163ffffffff1660e01b815260040160206040518083038186803b158015612bb657600080fd5b505afa158015612bca573d6000803e3d6000fd5b505050506040513d6020811015612be057600080fd5b5051849063ffffffff61449616565b92505b818310158015612c1157506000898152601a6020526040902060030154155b15612d5c576003546040805163a9059cbb60e01b81526001600160a01b038981166004830152602482018690529151919092169163a9059cbb9160448083019260209291908290030181600087803b158015612c6c57600080fd5b505af1158015612c80573d6000803e3d6000fd5b505050506040513d6020811015612c9657600080fd5b5051612cdd576040805162461bcd60e51b8152602060048201526011602482015270109a59081c995d1d5c9b8819985a5b1959607a1b604482015290519081900360640190fd5b600187018590556005546040805163e12ab1af60e01b8152600481018c9052602481018c90526044810187905290516001600160a01b039092169163e12ab1af9160648082019260009290919082900301818387803b158015612d3f57600080fd5b505af1158015612d53573d6000803e3d6000fd5b50505050612e97565b612d688689600061475e565b612d7289866145ac565b6002878101546003890180546040805160206101006001851615026000190190931695909504601f8101839004830286018301909152808552600094612e1f948c948994600160a01b90920460ff16939091830182828015612e155780601f10612dea57610100808354040283529160200191612e15565b820191906000526020600020905b815481529060010190602001808311612df857829003601f168201915b505050505061491e565b6005546040805163e12ab1af60e01b815260048101849052602481018e90526044810187905290519293506001600160a01b039091169163e12ab1af9160648082019260009290919082900301818387803b158015612e7d57600080fd5b505af1158015612e91573d6000803e3d6000fd5b50505050505b60018088015460008b815260208052604081208181559283018190556002830180546001600160a81b0319169055909190612ed560038301826154c3565b50506000998a52602080526040909920600101989098555050505050505050565b60225481565b60005461010090046001600160a01b03163314612f4a5760405162461bcd60e51b81526004018080602001828103825260268152602001806155ff6026913960400191505060405180910390fd5b6005546016546040805163a3b1d8cb60e01b8152600481018590526024810192909252516001600160a01b039092169163a3b1d8cb9160448082019260009290919082900301818387803b158015612fa157600080fd5b505af1158015612fb5573d6000803e3d6000fd5b505050506064811115612ff9576040805162461bcd60e51b8152602060048201526007602482015266746f6f2062696760c81b604482015290519081900360640190fd5b601655565b60008113156130575760195460ff16613057576040805162461bcd60e51b815260206004820152601660248201527511195b1959d85d1a5bdb881a5cc8191a5cd8589b195960521b604482015290519081900360640190fd5b6000828152601a60205260409020600601546001600160a01b031633146130c0576040805162461bcd60e51b8152602060048201526018602482015277496e76616c696420636f6e7472616374206164647265737360401b604482015290519081900360640190fd5b61230c816000806144af565b60005461010090046001600160a01b0316331461311a5760405162461bcd60e51b81526004018080602001828103825260268152602001806155ff6026913960400191505060405180910390fd5b6000811161316f576040805162461bcd60e51b815260206004820181905260248201527f426c6f636b7320696e74657276616c206d757374206265206e6f6e2d7a65726f604482015290519081900360640190fd5b600e55565b601c5490565b61318261456b565b6000858152601a6020526040902080546003909101541580156131a457508015155b6131f5576040805162461bcd60e51b815260206004820181905260248201527f496e76616c69642076616c696461746f7220666f7220616e2061756374696f6e604482015290519081900360640190fd5b336000818152601b60209081526040918290205460065483516370a0823160e01b81526004810195909552925190936001600160a01b03909316926370a08231926024808301939192829003018186803b15801561325257600080fd5b505afa158015613266573d6000803e3d6000fd5b505050506040513d602081101561327c57600080fd5b505115801561328d57506000198114155b6132d5576040805162461bcd60e51b8152602060048201526014602482015273416c72656164792075736564206164647265737360601b604482015290519081900360640190fd5b6009546018548015806132e85750818111155b61332b576040805162461bcd60e51b815260206004820152600f60248201526e10dbdbdb191bdddb881c195c9a5bd9608a1b604482015290519081900360640190fd5b601554600a54613341908263ffffffff61449616565b60008b8152601a602052604090206002015461336490859063ffffffff614e8a16565b8161336b57fe5b06106133b7576040805162461bcd60e51b8152602060048201526016602482015275125b9d985b1a5908185d58dd1a5bdb881c195c9a5bd960521b604482015290519081900360640190fd5b6000898152601a602052604090206006015484906001600160a01b0316801561342d5761342a816001600160a01b031663a446c2db6040518163ffffffff1660e01b815260040160206040518083038186803b15801561341657600080fd5b505afa1580156129be573d6000803e3d6000fd5b91505b60008b8152602080526040902080546134468482615288565b93508b841061348e576040805162461bcd60e51b815260206004820152600f60248201526e26bab9ba103134b2103434b3b432b960891b604482015290519081900360640190fd5b600354604080516323b872dd60e01b8152336004820152306024820152604481018f905290516001600160a01b03909216916323b872dd916064808201926020929091908290030181600087803b1580156134e857600080fd5b505af11580156134fc573d6000803e3d6000fd5b505050506040513d602081101561351257600080fd5b505161355e576040805162461bcd60e51b8152602060048201526016602482015275151c985b9cd9995c88185b5bdd5b9d0819985a5b195960521b604482015290519081900360640190fd5b80156136305760035460028301546040805163a9059cbb60e01b81526001600160a01b039283166004820152602481018590529051919092169163a9059cbb9160448083019260209291908290030181600087803b1580156135bf57600080fd5b505af11580156135d3573d6000803e3d6000fd5b505050506040513d60208110156135e957600080fd5b5051613630576040805162461bcd60e51b8152602060048201526011602482015270109a59081c995d1d5c9b8819985a5b1959607a1b604482015290519081900360640190fd5b8b8255600282018054336001600160a01b03199091161760ff60a01b1916600160a01b8d151502179055613668600383018b8b615507565b50600560009054906101000a90046001600160a01b03166001600160a01b0316630934a6df8e8a8f6040518463ffffffff1660e01b8152600401808481526020018381526020018281526020019350505050600060405180830381600087803b1580156136d457600080fd5b505af11580156136e8573d6000803e3d6000fd5b5050505050505050505050505050505050565b60005461010090046001600160a01b031633146137495760405162461bcd60e51b81526004018080602001828103825260268152602001806155ff6026913960400191505060405180910390fd5b61375161529f565b565b60085490565b60005461010090046001600160a01b031633146137a75760405162461bcd60e51b81526004018080602001828103825260268152602001806155ff6026913960400191505060405180910390fd5b600c91909155600d55565b6004805460408051631ab0168360e31b8152905160009333936001600160a01b03169263d580b4189281830192602092829003018186803b1580156137f657600080fd5b505afa15801561380a573d6000803e3d6000fd5b505050506040513d602081101561382057600080fd5b50516001600160a01b0316148061385057506000848152601a60205260409020600601546001600160a01b031633145b61389c576040805162461bcd60e51b8152602060048201526018602482015277496e76616c696420636f6e7472616374206164647265737360401b604482015290519081900360640190fd5b6003546040805163a9059cbb60e01b81526001600160a01b038581166004830152602482018790529151919092169163a9059cbb9160448083019260209291908290030181600087803b15801561269957600080fd5b6007546001600160a01b031681565b60005461010090046001600160a01b0316331461394f5760405162461bcd60e51b81526004018080602001828103825260268152602001806155ff6026913960400191505060405180910390fd5b6000811161395c57600080fd5b600554600b5460408051632dbe9d3160e21b8152600481018590526024810192909252516001600160a01b039092169163b6fa74c49160448082019260009290919082900301818387803b1580156139b357600080fd5b505af11580156139c7573d6000803e3d6000fd5b505050600b9190915550565b60145481565b60005460ff1681565b336000908152601b60205260409020546139fb81611764565b613a3e576040805162461bcd60e51b815260206004820152600f60248201526e3737ba1030903b30b634b230ba37b960891b604482015290519081900360640190fd5b6000818152601a60205260409020600601546001600160a01b031680613aa4576040805162461bcd60e51b815260206004820152601660248201527519195b1959d85d1a5bdb881b9bdd08195b98589b195960521b604482015290519081900360640190fd5b604080516303dd464160e51b8152841515600482015290516001600160a01b03831691637ba8c82091602480830192600092919082900301818387803b158015613aed57600080fd5b505af1158015613b01573d6000803e3d6000fd5b50505050505050565b60216020526000908152604090205481565b80613b268161440c565b6000828152601a60205260409020600301548015801590613b5c5750600954600854613b5990839063ffffffff61449616565b11155b8015613b8f575060036000848152601a6020526040902060060154600160a01b900460ff166003811115613b8c57fe5b14155b613b9857600080fd5b6000838152601a6020526040812054601154909190613bbd908363ffffffff614e8a16565b601181905560065460408051630852cd8d60e31b81526004810189905290519293506001600160a01b03909116916342966c689160248082019260009290919082900301818387803b158015613c1257600080fd5b505af1158015613c26573d6000803e3d6000fd5b5050506000868152601a6020818152604080842060058101546001600160a01b039081168652601b845282862060001990558b8652938352600601805460ff60a01b1916600360a01b179055600354815163a9059cbb60e01b81523360048201526024810189905291519316945063a9059cbb93604480830194928390030190829087803b158015613cb757600080fd5b505af1158015613ccb573d6000803e3d6000fd5b505050506040513d6020811015613ce157600080fd5b5051613d2c576040805162461bcd60e51b8152602060048201526015602482015274151c985b9cd9995c881cdd185ad94819985a5b1959605a1b604482015290519081900360640190fd5b6005546040805163ae2e26b160e01b815233600482015260248101889052604481018590526064810184905290516001600160a01b039092169163ae2e26b19160848082019260009290919082900301818387803b1580156116cd57600080fd5b601c54601d5482565b60005461010090046001600160a01b03163314613de45760405162461bcd60e51b81526004018080602001828103825260268152602001806155ff6026913960400191505060405180910390fd5b60008111613df157600080fd5b600554600a5460408051635071805360e11b8152600481018590526024810192909252516001600160a01b039092169163a0e300a69160448082019260009290919082900301818387803b158015613e4857600080fd5b505af1158015613e5c573d6000803e3d6000fd5b505050600a829055506008819055613e7b81600463ffffffff6152ab16565b6015819055600954613e929163ffffffff61449616565b60185550565b613ea06128c6565b613ea957600080fd5b6001600160a01b038116613ebc57600080fd5b6002546040516001600160a01b038084169216907f211c9015fc81c0dbd45bd99f0f29fc1c143bfd53442d5ffd722bbbef7a887fe990600090a3600280546001600160a01b0319166001600160a01b0392909216919091179055565b6000908152601a602052604090205490565b6005546001600160a01b031681565b60005461010090046001600160a01b03163314613f875760405162461bcd60e51b81526004018080602001828103825260268152602001806155ff6026913960400191505060405180910390fd5b6019805460ff1916911515919091179055565b613fa26128c6565b613fab57600080fd5b612937816150c7565b81613fbe8161440c565b6000613fc9836152cd565b90506001600160a01b03811615801590613ff957506001600160a01b0381166000908152601b6020526040902054155b61403b576040805162461bcd60e51b815260206004820152600e60248201526d24b73b30b634b21039b4b3b732b960911b604482015290519081900360640190fd5b600954600f5460008681526021602052604090205461405f9163ffffffff61449616565b8110156140b3576040805162461bcd60e51b815260206004820152601a60248201527f496e76616c696420636865636b706f696e74206e756d62657221000000000000604482015290519081900360640190fd5b6000858152601a602090815260408083206005908101549054915163b80fbce560e01b8152600481018a81526001600160a01b039283166024830181905288841660448401526080606484019081528b5160848501528b519197949095169563b80fbce5958d9589958c958f95909460a490920192918601918190849084905b8381101561414b578181015183820152602001614133565b50505050905090810190601f1680156141785780820380516001836020036101000a031916815260200191505b5095505050505050600060405180830381600087803b15801561419a57600080fd5b505af11580156141ae573d6000803e3d6000fd5b5050506001600160a01b039182166000908152601b60209081526040808320600019905595909316808252858220899055978152601a835284812060050180546001600160a01b03191690981790975550602190529320929092555050565b60005461010090046001600160a01b0316331461425b5760405162461bcd60e51b81526004018080602001828103825260268152602001806155ff6026913960400191505060405180910390fd5b306001600160a01b0316816001600160a01b0316638da5cb5b6040518163ffffffff1660e01b815260040160206040518083038186803b15801561429e57600080fd5b505afa1580156142b2573d6000803e3d6000fd5b505050506040513d60208110156142c857600080fd5b50516001600160a01b03161461430f5760405162461bcd60e51b81526004018080602001828103825260268152602001806156256026913960400191505060405180910390fd5b6000918252601a602052604090912060060180546001600160a01b0319166001600160a01b03909216919091179055565b60005461010090046001600160a01b0316331461438e5760405162461bcd60e51b81526004018080602001828103825260268152602001806155ff6026913960400191505060405180910390fd5b600954613e92908263ffffffff61449616565b60005461010090046001600160a01b031633146143ef5760405162461bcd60e51b81526004018080602001828103825260268152602001806155ff6026913960400191505060405180910390fd5b613751615322565b600d5481565b6003546001600160a01b031681565b600654604080516331a9108f60e11b815260048101849052905133926001600160a01b031691636352211e916024808301926020929190829003018186803b15801561445757600080fd5b505afa15801561446b573d6000803e3d6000fd5b505050506040513d602081101561448157600080fd5b50516001600160a01b03161461293757600080fd5b6000828201838110156144a857600080fd5b9392505050565b806145495760008313156144d857601c546144d0908463ffffffff61449616565b601c556144fc565b60008312156144fc57601c546144f890600085900363ffffffff614e8a16565b601c555b600082131561452057601d54614518908363ffffffff61449616565b601d55614544565b600082121561454457601d5461454090600084900363ffffffff614e8a16565b601d555b611c4d565b6000818152601e60205260409020805484018155600101805483019055505050565b60005460ff1615613751576040805162461bcd60e51b81526020600482015260066024820152651b1bd8dad95960d21b604482015290519081900360640190fd5b6000828152601a6020526040812054906145c5846122ac565b6000858152601a6020526040812060038101869055600181015460069091015492935090916001600160a01b031680156146bd576000819050614650816001600160a01b03166332ba2e536040518163ffffffff1660e01b8152600401602060405180830381600087803b15801561463c57600080fd5b505af1158015612bca573d6000803e3d6000fd5b9250806001600160a01b031663753868e36040518163ffffffff1660e01b8152600401602060405180830381600087803b15801561468d57600080fd5b505af11580156146a1573d6000803e3d6000fd5b505050506040513d60208110156146b757600080fd5b50519350505b6146c8878584615136565b6146da838601600003600019886144af565b60055460408051635e04d48360e01b81526001600160a01b038781166004830152602482018b9052604482018a90526064820189905291519190921691635e04d48391608480830192600092919082900301818387803b15801561473d57600080fd5b505af1158015614751573d6000803e3d6000fd5b5050505050505050505050565b600d548210156147b5576040805162461bcd60e51b815260206004820152601760248201527f4e6f7420656e6f756768206865696d64616c6c20666565000000000000000000604482015290519081900360640190fd5b6003546001600160a01b03166323b872dd33306147d8868663ffffffff61449616565b6040518463ffffffff1660e01b815260040180846001600160a01b03166001600160a01b03168152602001836001600160a01b03166001600160a01b031681526020018281526020019350505050602060405180830381600087803b15801561484057600080fd5b505af1158015614854573d6000803e3d6000fd5b505050506040513d602081101561486a57600080fd5b50516148b3576040805162461bcd60e51b8152602060048201526013602482015272119959481d1c985b9cd9995c8819985a5b1959606a1b604482015290519081900360640190fd5b6022546148c6908363ffffffff61449616565b6022556005546040805163a449d79560e01b81526001600160a01b038681166004830152602482018690529151919092169163a449d79591604480830192600092919082900301818387803b158015613aed57600080fd5b60008061492a836152cd565b90506001600160a01b0381161580159061495a57506001600160a01b0381166000908152601b6020526040902054155b61499c576040805162461bcd60e51b815260206004820152600e60248201526d24b73b30b634b21039b4b3b732b960911b604482015290519081900360640190fd5b6009546012546005546011546001600160a01b03909116906000906149c7908a63ffffffff61449616565b9050806011819055506040518061010001604052808a8152602001600081526020018581526020016000815260200160008152602001866001600160a01b0316815260200189614a18576000614aa4565b600754600480546040805163d4ad267360e01b81529283018990526001600160a01b03888116602485015291821660448401525192169163d4ad2673916064808201926020929091908290030181600087803b158015614a7757600080fd5b505af1158015614a8b573d6000803e3d6000fd5b505050506040513d6020811015614aa157600080fd5b50515b6001600160a01b03168152602001600190526000848152601a60209081526040918290208351815590830151600182015590820151600282015560608201516003808301919091556080830151600483015560a08301516005830180546001600160a01b039283166001600160a01b03199182161790915560c08501516006850180549190931691161780825560e08501519260ff60a01b1990911690600160a01b908490811115614b5257fe5b0217905550505060008381526021602052604080822086905560065481516340c10f1960e01b81526001600160a01b038e8116600483015260248201889052925192909116926340c10f199260448084019382900301818387803b158015614bb957600080fd5b505af1158015614bcd573d6000803e3d6000fd5b5050506001600160a01b0386166000908152601b60205260408120859055614bfa91508a906001906144af565b836020600085815260200190815260200160002060010181905550816001600160a01b03166333a8383c868986888e876040518763ffffffff1660e01b815260040180876001600160a01b03166001600160a01b0316815260200180602001868152602001858152602001848152602001838152602001828103825287818151815260200191508051906020019080838360005b83811015614ca6578181015183820152602001614c8e565b50505050905090810190601f168015614cd35780820380516001836020036101000a031916815260200191505b50975050505050505050600060405180830381600087803b158015614cf757600080fd5b505af1158015614d0b573d6000803e3d6000fd5b50505050614d2360018461449690919063ffffffff16565b601255509098975050505050505050565b614d3c615585565b506040805180820190915281518152602082810190820152919050565b6060614d6482615331565b614d6d57600080fd5b6000614d788361536b565b9050606081604051908082528060200260200182016040528015614db657816020015b614da3615585565b815260200190600190039081614d9b5790505b5090506000614dc885602001516153c7565b60208601510190506000805b84811015614e1f57614de58361542a565b9150604051806040016040528083815260200184815250848281518110614e0857fe5b602090810291909101015291810191600101614dd4565b509195945050505050565b805160009015801590614e3f57508151602110155b614e4857600080fd5b6000614e5783602001516153c7565b83516020808601518301805193945091849003929190831015614e8157826020036101000a820491505b50949350505050565b600082821115614e9957600080fd5b50900390565b8051600090600114614eb057600080fd5b6020820151805160001a908115614ec8576001614ecb565b60005b949350505050565b6000828152601a602052604081206006015481906001600160a01b031615614f79576000848152601a6020908152604080832060060154815163753868e360e01b815291516001600160a01b039091169363753868e393600480850194919392918390030190829087803b158015614f4a57600080fd5b505af1158015614f5e573d6000803e3d6000fd5b505050506040513d6020811015614f7457600080fd5b505190505b600954614f8c818563ffffffff61449616565b6000868152601a602052604080822060048082019490945560068101805460ff60a01b1916600160a11b1790556005805491015482516381dc101b60e01b81529485018a9052602485018690526001600160a01b03908116604486015291519116926381dc101b92606480830193919282900301818387803b15801561501157600080fd5b505af1158015615025573d6000803e3d6000fd5b5050506000868152601a60205260409020546122a391508363ffffffff61449616565b60225461505b908263ffffffff614e8a16565b6022556005546040805163122b648160e01b81526001600160a01b038581166004830152602482018590529151919092169163122b648191604480830192600092919082900301818387803b1580156150b357600080fd5b505af1158015611ed4573d6000803e3d6000fd5b6001600160a01b0381166150da57600080fd5b6001546040516001600160a01b038084169216907f8be0079c531659141344cd1fd0a4f28419497f9722a3daafe3b4186f6b6457e090600090a3600180546001600160a01b0319166001600160a01b0392909216919091179055565b601454615149908263ffffffff61449616565b6014556000838152601a60209081526040808320600101839055600354815163a9059cbb60e01b81526001600160a01b038781166004830152602482018790529251929091169363a9059cbb9360448084019491939192918390030190829087803b1580156151b757600080fd5b505af11580156151cb573d6000803e3d6000fd5b505050506040513d60208110156151e157600080fd5b505161522a576040805162461bcd60e51b8152602060048201526013602482015272496e737566666963656e74207265776172647360681b604482015290519081900360640190fd5b60055460145460408051635b42d93560e11b815260048101879052602481018590526044810192909252516001600160a01b039092169163b685b26a9160648082019260009290919082900301818387803b158015613aed57600080fd5b60008183101561529857816144a8565b5090919050565b6000805460ff19169055565b60008082116152b957600080fd5b60008284816152c457fe5b04949350505050565b60008151604014615316576040805162461bcd60e51b815260206004820152600e60248201526d496e76616c6964207075626b657960901b604482015290519081900360640190fd5b50805160209091012090565b6000805460ff19166001179055565b80516000906153425750600061142a565b6020820151805160001a9060c08210156153615760009250505061142a565b5060019392505050565b805160009061537c5750600061142a565b6000809050600061539084602001516153c7565b602085015185519181019250015b808210156153be576153af8261542a565b6001909301929091019061539e565b50909392505050565b8051600090811a60808110156153e157600091505061142a565b60b88110806153fc575060c081108015906153fc575060f881105b1561540b57600191505061142a565b60c081101561541f5760b51901905061142a565b60f51901905061142a565b80516000908190811a608081101561544557600191506154bc565b60b881101561545a57607e19810191506154bc565b60c08110156154875760b78103600185019450806020036101000a855104600182018101935050506154bc565b60f881101561549c5760be19810191506154bc565b60f78103600185019450806020036101000a855104600182018101935050505b5092915050565b50805460018160011615610100020316600290046000825580601f106154e95750612937565b601f016020900490600052602060002090810190612937919061559f565b828054600181600116156101000203166002900490600052602060002090601f016020900481019282601f106155485782800160ff19823516178555615575565b82800160010185558215615575579182015b8281111561557557823582559160200191906001019061555a565b5061558192915061559f565b5090565b604051806040016040528060008152602001600081525090565b61276591905b8082111561558157600081556001016155a556fe56616c696461746f7220736574205468726573686f6c64206578636565646564214f6e6c7920626964646572206f722076616c696461746f722063616e20636f6e6669726d4f6e6c7920676f7665726e616e636520636f6e747261637420697320617574686f72697a65644f776e6572206f6620636f6e7472616374206d757374206265207374616b654d616e61676572a265627a7a7231582007ee8eecbcaeffa28985f0654c67d1ab75c91429afe1f4373956eb5d4170e61864736f6c63430005110032",
  "source": "pragma solidity ^0.5.2;\n\nimport {StakeManager} from \"../staking/stakeManager/StakeManager.sol\";\n\n\ncontract StakeManagerTest is StakeManager {\n    function checkSignatures(\n        uint256 blockInterval,\n        bytes32 voteHash,\n        bytes32 stateRoot,\n        address proposer,\n        bytes memory sigs\n    ) public onlyRootChain returns (uint256) {\n        return CHECKPOINT_REWARD; // for dummy tests return full reward\n    }\n}\n",
  "sourcePath": "/home/manjain/Documents/contracts/contracts/test/StakeManagerTest.sol",
  "compiler": {
    "name": "solc",
    "version": "0.5.17+commit.d19bba13.Linux.g++"
  },
  "schemaVersion": "3.0.14",
  "updatedAt": "2021-02-21T12:11:07.011Z",
  "devdoc": {
    "methods": {
      "changeRootChain(address)": {
        "details": "Allows the current owner to change root chain address.",
        "params": {
          "newRootChain": "The address to new rootchain."
        }
      },
      "isOwner()": {
        "return": "true if `msg.sender` is the owner of the contract."
      },
      "owner()": {
        "return": "the address of the owner."
      },
      "renounceOwnership()": {
        "details": "Allows the current owner to relinquish control of the contract. It will not be possible to call the functions with the `onlyOwner` modifier anymore."
      },
      "transferOwnership(address)": {
        "details": "Allows the current owner to transfer control of the contract to a newOwner.",
        "params": {
          "newOwner": "The address to transfer ownership to."
        }
      }
    }
  },
  "userdoc": {
    "methods": {
      "renounceOwnership()": {
        "notice": "Renouncing ownership will leave the contract without an owner, thereby removing any functionality that is only available to the owner."
      }
    }
  }
}