{
  "contractName": "ValidatorShareProxy",
  "abi": [
    {
      "inputs": [
        {
          "internalType": "address",
          "name": "_registry",
          "type": "address"
        }
      ],
      "payable": false,
      "stateMutability": "nonpayable",
      "type": "constructor"
    },
    {
      "anonymous": false,
      "inputs": [
        {
          "indexed": false,
          "internalType": "address",
          "name": "_new",
          "type": "address"
        },
        {
          "indexed": false,
          "internalType": "address",
          "name": "_old",
          "type": "address"
        }
      ],
      "name": "ProxyOwnerUpdate",
      "type": "event"
    },
    {
      "anonymous": false,
      "inputs": [
        {
          "indexed": true,
          "internalType": "address",
          "name": "_new",
          "type": "address"
        },
        {
          "indexed": true,
          "internalType": "address",
          "name": "_old",
          "type": "address"
        }
      ],
      "name": "ProxyUpdated",
      "type": "event"
    },
    {
      "payable": true,
      "stateMutability": "payable",
      "type": "fallback"
    },
    {
      "constant": true,
      "inputs": [],
      "name": "implementation",
      "outputs": [
        {
          "internalType": "address",
          "name": "",
          "type": "address"
        }
      ],
      "payable": false,
      "stateMutability": "view",
      "type": "function"
    },
    {
      "constant": true,
      "inputs": [],
      "name": "proxyOwner",
      "outputs": [
        {
          "internalType": "address",
          "name": "",
          "type": "address"
        }
      ],
      "payable": false,
      "stateMutability": "view",
      "type": "function"
    },
    {
      "constant": true,
      "inputs": [],
      "name": "proxyType",
      "outputs": [
        {
          "internalType": "uint256",
          "name": "proxyTypeId",
          "type": "uint256"
        }
      ],
      "payable": false,
      "stateMutability": "pure",
      "type": "function"
    },
    {
      "constant": false,
      "inputs": [
        {
          "internalType": "address",
          "name": "newOwner",
          "type": "address"
        }
      ],
      "name": "transferProxyOwnership",
      "outputs": [],
      "payable": false,
      "stateMutability": "nonpayable",
      "type": "function"
    },
    {
      "constant": false,
      "inputs": [
        {
          "internalType": "address",
          "name": "_newProxyTo",
          "type": "address"
        },
        {
          "internalType": "bytes",
          "name": "data",
          "type": "bytes"
        }
      ],
      "name": "updateAndCall",
      "outputs": [],
      "payable": true,
      "stateMutability": "payable",
      "type": "function"
    },
    {
      "constant": false,
      "inputs": [
        {
          "internalType": "address",
          "name": "_newProxyTo",
          "type": "address"
        }
      ],
      "name": "updateImplementation",
      "outputs": [],
      "payable": false,
      "stateMutability": "nonpayable",
      "type": "function"
    }
  ],
  "bytecode": "0x608060405234801561001057600080fd5b506040516108d63803806108d68339818101604052602081101561003357600080fd5b505180610048336001600160e01b0361006116565b61005a816001600160e01b0361009616565b50506100b8565b604080517f6d617469632e6e6574776f726b2e70726f78792e6f776e6572000000000000008152905190819003601901902055565b600060405180806108b460229139604051908190036022019020929092555050565b6107ed806100c76000396000f3fe6080604052600436106100555760003560e01c8063025313a21461009f578063025b22bc146100d05780634555d5c9146101035780635c60da1b1461012a578063d88ca2c81461013f578063f1739cae146101f5575b61009d610060610228565b6000368080601f01602080910402602001604051908101604052809392919081815260200183838082843760009201919091525061029b92505050565b005b3480156100ab57600080fd5b506100b46102c3565b604080516001600160a01b039092168252519081900360200190f35b3480156100dc57600080fd5b5061009d600480360360208110156100f357600080fd5b50356001600160a01b03166102d2565b34801561010f57600080fd5b5061011861040c565b60408051918252519081900360200190f35b34801561013657600080fd5b506100b4610411565b61009d6004803603604081101561015557600080fd5b6001600160a01b03823516919081019060408101602082013564010000000081111561018057600080fd5b82018360208201111561019257600080fd5b803590602001918460018302840111640100000000831117156101b457600080fd5b91908080601f01602080910402602001604051908101604052809392919081815260200183838082843760009201919091525092955061041b945050505050565b34801561020157600080fd5b5061009d6004803603602081101561021857600080fd5b50356001600160a01b03166105b1565b60006102326106a3565b6001600160a01b0316631c9486ef6040518163ffffffff1660e01b815260040160206040518083038186803b15801561026a57600080fd5b505afa15801561027e573d6000803e3d6000fd5b505050506040513d602081101561029457600080fd5b5051905090565b600080825160208401856127105a03f43d604051816000823e8280156102bf578282f35b8282fd5b60006102cd6106c9565b905090565b336102db6106c9565b6001600160a01b031614610322576040805162461bcd60e51b81526020600482015260096024820152682727aa2fa7aba722a960b91b604482015290519081900360640190fd5b6001600160a01b038116610375576040805162461bcd60e51b8152602060048201526015602482015274494e56414c49445f50524f58595f4144445245535360581b604482015290519081900360640190fd5b61037e816106fb565b6103b95760405162461bcd60e51b81526004018080602001828103825260258152602001806107726025913960400191505060405180910390fd5b6103c1610228565b6001600160a01b0316816001600160a01b03167fd32d24edea94f55e932d9a008afc425a8561462d1b1f57bc6e508e9a6b9509e160405160405180910390a36104098161071e565b50565b600290565b60006102cd610228565b336104246106c9565b6001600160a01b03161461046b576040805162461bcd60e51b81526020600482015260096024820152682727aa2fa7aba722a960b91b604482015290519081900360640190fd5b610474826102d2565b60006060306001600160a01b031634846040518082805190602001908083835b602083106104b35780518252601f199092019160209182019101610494565b6001836020036101000a03801982511681845116808217855250505050505090500191505060006040518083038185875af1925050503d8060008114610515576040519150601f19603f3d011682016040523d82523d6000602084013e61051a565b606091505b50915091508181906105aa5760405162461bcd60e51b81526004018080602001828103825283818151815260200191508051906020019080838360005b8381101561056f578181015183820152602001610557565b50505050905090810190601f16801561059c5780820380516001836020036101000a031916815260200191505b509250505060405180910390fd5b5050505050565b336105ba6106c9565b6001600160a01b031614610601576040805162461bcd60e51b81526020600482015260096024820152682727aa2fa7aba722a960b91b604482015290519081900360640190fd5b6001600160a01b03811661064b576040805162461bcd60e51b815260206004820152600c60248201526b5a45524f5f4144445245535360a01b604482015290519081900360640190fd5b7fdbe5fd65bcdbae152f24ab660ea68e72b4d4705b57b16e0caae994e214680ee2816106756106c9565b604080516001600160a01b03938416815291909216602082015281519081900390910190a161040981610740565b600080600060405180806107976022913960405190819003602201902054935050505090565b604080517836b0ba34b1973732ba3bb7b93597383937bc3c9737bbb732b960391b815290519081900360190190205490565b60006001600160a01b03821661071357506000610719565b50803b15155b919050565b6000604051808061079760229139604051908190036022019020929092555050565b604080517836b0ba34b1973732ba3bb7b93597383937bc3c9737bbb732b960391b815290519081900360190190205556fe44455354494e4154494f4e5f414444524553535f49535f4e4f545f415f434f4e54524143546d617469632e6e6574776f726b2e70726f78792e696d706c656d656e746174696f6ea265627a7a7231582073c89cd018df6dc7ceece45cbff0128b9b8a61ef928f484dfe8dcb42b9a956d564736f6c634300051100326d617469632e6e6574776f726b2e70726f78792e696d706c656d656e746174696f6e",
  "source": "pragma solidity ^0.5.2;\n\nimport {UpgradableProxy} from \"../../common/misc/UpgradableProxy.sol\";\nimport {Registry} from \"../../common/Registry.sol\";\n\ncontract ValidatorShareProxy is UpgradableProxy {\n    constructor(address _registry) public UpgradableProxy(_registry) {}\n\n    function loadImplementation() internal view returns (address) {\n        return Registry(super.loadImplementation()).getValidatorShareAddress();\n    }\n}\n",
  "sourcePath": "/home/manjain/Documents/contracts/contracts/staking/validatorShare/ValidatorShareProxy.sol",
  "compiler": {
    "name": "solc",
    "version": "0.5.17+commit.d19bba13.Linux.g++"
  },
  "schemaVersion": "3.0.14",
  "updatedAt": "2021-02-21T12:11:06.995Z",
  "devdoc": {
    "methods": {}
  },
  "userdoc": {
    "methods": {}
  }
}