{
  "contractName": "ValidatorShare",
  "abi": [
    {
      "anonymous": false,
      "inputs": [
        {
          "indexed": true,
          "internalType": "address",
          "name": "owner",
          "type": "address"
        },
        {
          "indexed": true,
          "internalType": "address",
          "name": "spender",
          "type": "address"
        },
        {
          "indexed": false,
          "internalType": "uint256",
          "name": "value",
          "type": "uint256"
        }
      ],
      "name": "Approval",
      "type": "event"
    },
    {
      "anonymous": false,
      "inputs": [
        {
          "indexed": true,
          "internalType": "address",
          "name": "previousOwner",
          "type": "address"
        },
        {
          "indexed": true,
          "internalType": "address",
          "name": "newOwner",
          "type": "address"
        }
      ],
      "name": "OwnershipTransferred",
      "type": "event"
    },
    {
      "anonymous": false,
      "inputs": [
        {
          "indexed": true,
          "internalType": "address",
          "name": "from",
          "type": "address"
        },
        {
          "indexed": true,
          "internalType": "address",
          "name": "to",
          "type": "address"
        },
        {
          "indexed": false,
          "internalType": "uint256",
          "name": "value",
          "type": "uint256"
        }
      ],
      "name": "Transfer",
      "type": "event"
    },
    {
      "constant": true,
      "inputs": [],
      "name": "activeAmount",
      "outputs": [
        {
          "internalType": "uint256",
          "name": "",
          "type": "uint256"
        }
      ],
      "payable": false,
      "stateMutability": "view",
      "type": "function"
    },
    {
      "constant": true,
      "inputs": [
        {
          "internalType": "address",
          "name": "owner",
          "type": "address"
        },
        {
          "internalType": "address",
          "name": "spender",
          "type": "address"
        }
      ],
      "name": "allowance",
      "outputs": [
        {
          "internalType": "uint256",
          "name": "",
          "type": "uint256"
        }
      ],
      "payable": false,
      "stateMutability": "view",
      "type": "function"
    },
    {
      "constant": true,
      "inputs": [
        {
          "internalType": "address",
          "name": "",
          "type": "address"
        }
      ],
      "name": "amountStaked",
      "outputs": [
        {
          "internalType": "uint256",
          "name": "",
          "type": "uint256"
        }
      ],
      "payable": false,
      "stateMutability": "view",
      "type": "function"
    },
    {
      "constant": false,
      "inputs": [
        {
          "internalType": "address",
          "name": "spender",
          "type": "address"
        },
        {
          "internalType": "uint256",
          "name": "value",
          "type": "uint256"
        }
      ],
      "name": "approve",
      "outputs": [
        {
          "internalType": "bool",
          "name": "",
          "type": "bool"
        }
      ],
      "payable": false,
      "stateMutability": "nonpayable",
      "type": "function"
    },
    {
      "constant": true,
      "inputs": [
        {
          "internalType": "address",
          "name": "owner",
          "type": "address"
        }
      ],
      "name": "balanceOf",
      "outputs": [
        {
          "internalType": "uint256",
          "name": "",
          "type": "uint256"
        }
      ],
      "payable": false,
      "stateMutability": "view",
      "type": "function"
    },
    {
      "constant": true,
      "inputs": [],
      "name": "commissionRate",
      "outputs": [
        {
          "internalType": "uint256",
          "name": "",
          "type": "uint256"
        }
      ],
      "payable": false,
      "stateMutability": "view",
      "type": "function"
    },
    {
      "constant": false,
      "inputs": [
        {
          "internalType": "address",
          "name": "spender",
          "type": "address"
        },
        {
          "internalType": "uint256",
          "name": "subtractedValue",
          "type": "uint256"
        }
      ],
      "name": "decreaseAllowance",
      "outputs": [
        {
          "internalType": "bool",
          "name": "",
          "type": "bool"
        }
      ],
      "payable": false,
      "stateMutability": "nonpayable",
      "type": "function"
    },
    {
      "constant": true,
      "inputs": [],
      "name": "delegation",
      "outputs": [
        {
          "internalType": "bool",
          "name": "",
          "type": "bool"
        }
      ],
      "payable": false,
      "stateMutability": "view",
      "type": "function"
    },
    {
      "constant": true,
      "inputs": [
        {
          "internalType": "address",
          "name": "",
          "type": "address"
        }
      ],
      "name": "delegators",
      "outputs": [
        {
          "internalType": "uint256",
          "name": "shares",
          "type": "uint256"
        },
        {
          "internalType": "uint256",
          "name": "withdrawEpoch",
          "type": "uint256"
        }
      ],
      "payable": false,
      "stateMutability": "view",
      "type": "function"
    },
    {
      "constant": false,
      "inputs": [
        {
          "internalType": "address",
          "name": "spender",
          "type": "address"
        },
        {
          "internalType": "uint256",
          "name": "addedValue",
          "type": "uint256"
        }
      ],
      "name": "increaseAllowance",
      "outputs": [
        {
          "internalType": "bool",
          "name": "",
          "type": "bool"
        }
      ],
      "payable": false,
      "stateMutability": "nonpayable",
      "type": "function"
    },
    {
      "constant": true,
      "inputs": [
        {
          "internalType": "address",
          "name": "",
          "type": "address"
        }
      ],
      "name": "initalRewardPerShare",
      "outputs": [
        {
          "internalType": "uint256",
          "name": "",
          "type": "uint256"
        }
      ],
      "payable": false,
      "stateMutability": "view",
      "type": "function"
    },
    {
      "constant": true,
      "inputs": [],
      "name": "isOwner",
      "outputs": [
        {
          "internalType": "bool",
          "name": "",
          "type": "bool"
        }
      ],
      "payable": false,
      "stateMutability": "view",
      "type": "function"
    },
    {
      "constant": true,
      "inputs": [],
      "name": "lastCommissionUpdate",
      "outputs": [
        {
          "internalType": "uint256",
          "name": "",
          "type": "uint256"
        }
      ],
      "payable": false,
      "stateMutability": "view",
      "type": "function"
    },
    {
      "constant": false,
      "inputs": [],
      "name": "lock",
      "outputs": [],
      "payable": false,
      "stateMutability": "nonpayable",
      "type": "function"
    },
    {
      "constant": true,
      "inputs": [],
      "name": "locked",
      "outputs": [
        {
          "internalType": "bool",
          "name": "",
          "type": "bool"
        }
      ],
      "payable": false,
      "stateMutability": "view",
      "type": "function"
    },
    {
      "constant": true,
      "inputs": [],
      "name": "minAmount",
      "outputs": [
        {
          "internalType": "uint256",
          "name": "",
          "type": "uint256"
        }
      ],
      "payable": false,
      "stateMutability": "view",
      "type": "function"
    },
    {
      "constant": true,
      "inputs": [],
      "name": "owner",
      "outputs": [
        {
          "internalType": "address",
          "name": "",
          "type": "address"
        }
      ],
      "payable": false,
      "stateMutability": "view",
      "type": "function"
    },
    {
      "constant": false,
      "inputs": [],
      "name": "renounceOwnership",
      "outputs": [],
      "payable": false,
      "stateMutability": "nonpayable",
      "type": "function"
    },
    {
      "constant": true,
      "inputs": [],
      "name": "rewardPerShare",
      "outputs": [
        {
          "internalType": "uint256",
          "name": "",
          "type": "uint256"
        }
      ],
      "payable": false,
      "stateMutability": "view",
      "type": "function"
    },
    {
      "constant": true,
      "inputs": [],
      "name": "stakeManager",
      "outputs": [
        {
          "internalType": "contract IStakeManager",
          "name": "",
          "type": "address"
        }
      ],
      "payable": false,
      "stateMutability": "view",
      "type": "function"
    },
    {
      "constant": true,
      "inputs": [],
      "name": "stakingLogger",
      "outputs": [
        {
          "internalType": "contract StakingInfo",
          "name": "",
          "type": "address"
        }
      ],
      "payable": false,
      "stateMutability": "view",
      "type": "function"
    },
    {
      "constant": true,
      "inputs": [],
      "name": "totalStake",
      "outputs": [
        {
          "internalType": "uint256",
          "name": "",
          "type": "uint256"
        }
      ],
      "payable": false,
      "stateMutability": "view",
      "type": "function"
    },
    {
      "constant": true,
      "inputs": [],
      "name": "totalSupply",
      "outputs": [
        {
          "internalType": "uint256",
          "name": "",
          "type": "uint256"
        }
      ],
      "payable": false,
      "stateMutability": "view",
      "type": "function"
    },
    {
      "constant": false,
      "inputs": [
        {
          "internalType": "address",
          "name": "to",
          "type": "address"
        },
        {
          "internalType": "uint256",
          "name": "value",
          "type": "uint256"
        }
      ],
      "name": "transfer",
      "outputs": [
        {
          "internalType": "bool",
          "name": "",
          "type": "bool"
        }
      ],
      "payable": false,
      "stateMutability": "nonpayable",
      "type": "function"
    },
    {
      "constant": false,
      "inputs": [
        {
          "internalType": "address",
          "name": "from",
          "type": "address"
        },
        {
          "internalType": "address",
          "name": "to",
          "type": "address"
        },
        {
          "internalType": "uint256",
          "name": "value",
          "type": "uint256"
        }
      ],
      "name": "transferFrom",
      "outputs": [
        {
          "internalType": "bool",
          "name": "",
          "type": "bool"
        }
      ],
      "payable": false,
      "stateMutability": "nonpayable",
      "type": "function"
    },
    {
      "constant": false,
      "inputs": [
        {
          "internalType": "address",
          "name": "newOwner",
          "type": "address"
        }
      ],
      "name": "transferOwnership",
      "outputs": [],
      "payable": false,
      "stateMutability": "nonpayable",
      "type": "function"
    },
    {
      "constant": false,
      "inputs": [],
      "name": "unlock",
      "outputs": [],
      "payable": false,
      "stateMutability": "nonpayable",
      "type": "function"
    },
    {
      "constant": true,
      "inputs": [],
      "name": "validatorId",
      "outputs": [
        {
          "internalType": "uint256",
          "name": "",
          "type": "uint256"
        }
      ],
      "payable": false,
      "stateMutability": "view",
      "type": "function"
    },
    {
      "constant": true,
      "inputs": [],
      "name": "validatorRewards",
      "outputs": [
        {
          "internalType": "uint256",
          "name": "",
          "type": "uint256"
        }
      ],
      "payable": false,
      "stateMutability": "view",
      "type": "function"
    },
    {
      "constant": true,
      "inputs": [],
      "name": "withdrawPool",
      "outputs": [
        {
          "internalType": "uint256",
          "name": "",
          "type": "uint256"
        }
      ],
      "payable": false,
      "stateMutability": "view",
      "type": "function"
    },
    {
      "constant": true,
      "inputs": [],
      "name": "withdrawShares",
      "outputs": [
        {
          "internalType": "uint256",
          "name": "",
          "type": "uint256"
        }
      ],
      "payable": false,
      "stateMutability": "view",
      "type": "function"
    },
    {
      "constant": false,
      "inputs": [
        {
          "internalType": "uint256",
          "name": "_validatorId",
          "type": "uint256"
        },
        {
          "internalType": "address",
          "name": "_stakingLogger",
          "type": "address"
        },
        {
          "internalType": "address",
          "name": "_stakeManager",
          "type": "address"
        }
      ],
      "name": "initialize",
      "outputs": [],
      "payable": false,
      "stateMutability": "nonpayable",
      "type": "function"
    },
    {
      "constant": false,
      "inputs": [
        {
          "internalType": "uint256",
          "name": "newCommissionRate",
          "type": "uint256"
        }
      ],
      "name": "updateCommissionRate",
      "outputs": [],
      "payable": false,
      "stateMutability": "nonpayable",
      "type": "function"
    },
    {
      "constant": false,
      "inputs": [
        {
          "internalType": "uint256",
          "name": "reward",
          "type": "uint256"
        },
        {
          "internalType": "uint256",
          "name": "checkpointStakePower",
          "type": "uint256"
        },
        {
          "internalType": "uint256",
          "name": "validatorStake",
          "type": "uint256"
        }
      ],
      "name": "updateRewards",
      "outputs": [
        {
          "internalType": "uint256",
          "name": "",
          "type": "uint256"
        }
      ],
      "payable": false,
      "stateMutability": "nonpayable",
      "type": "function"
    },
    {
      "constant": false,
      "inputs": [
        {
          "internalType": "uint256",
          "name": "rewards",
          "type": "uint256"
        },
        {
          "internalType": "uint256",
          "name": "validatorStake",
          "type": "uint256"
        }
      ],
      "name": "addProposerBonus",
      "outputs": [],
      "payable": false,
      "stateMutability": "nonpayable",
      "type": "function"
    },
    {
      "constant": false,
      "inputs": [],
      "name": "withdrawRewardsValidator",
      "outputs": [
        {
          "internalType": "uint256",
          "name": "",
          "type": "uint256"
        }
      ],
      "payable": false,
      "stateMutability": "nonpayable",
      "type": "function"
    },
    {
      "constant": true,
      "inputs": [],
      "name": "exchangeRate",
      "outputs": [
        {
          "internalType": "uint256",
          "name": "",
          "type": "uint256"
        }
      ],
      "payable": false,
      "stateMutability": "view",
      "type": "function"
    },
    {
      "constant": true,
      "inputs": [],
      "name": "withdrawExchangeRate",
      "outputs": [
        {
          "internalType": "uint256",
          "name": "",
          "type": "uint256"
        }
      ],
      "payable": false,
      "stateMutability": "view",
      "type": "function"
    },
    {
      "constant": false,
      "inputs": [
        {
          "internalType": "uint256",
          "name": "_amount",
          "type": "uint256"
        },
        {
          "internalType": "uint256",
          "name": "_minSharesToMint",
          "type": "uint256"
        }
      ],
      "name": "buyVoucher",
      "outputs": [],
      "payable": false,
      "stateMutability": "nonpayable",
      "type": "function"
    },
    {
      "constant": false,
      "inputs": [],
      "name": "restake",
      "outputs": [],
      "payable": false,
      "stateMutability": "nonpayable",
      "type": "function"
    },
    {
      "constant": false,
      "inputs": [
        {
          "internalType": "uint256",
          "name": "_minClaimAmount",
          "type": "uint256"
        }
      ],
      "name": "sellVoucher",
      "outputs": [],
      "payable": false,
      "stateMutability": "nonpayable",
      "type": "function"
    },
    {
      "constant": false,
      "inputs": [],
      "name": "withdrawRewards",
      "outputs": [],
      "payable": false,
      "stateMutability": "nonpayable",
      "type": "function"
    },
    {
      "constant": true,
      "inputs": [
        {
          "internalType": "address",
          "name": "user",
          "type": "address"
        }
      ],
      "name": "getLiquidRewards",
      "outputs": [
        {
          "internalType": "uint256",
          "name": "",
          "type": "uint256"
        }
      ],
      "payable": false,
      "stateMutability": "view",
      "type": "function"
    },
    {
      "constant": false,
      "inputs": [],
      "name": "unstakeClaimTokens",
      "outputs": [],
      "payable": false,
      "stateMutability": "nonpayable",
      "type": "function"
    },
    {
      "constant": false,
      "inputs": [
        {
          "internalType": "uint256",
          "name": "valPow",
          "type": "uint256"
        },
        {
          "internalType": "uint256",
          "name": "totalAmountToSlash",
          "type": "uint256"
        }
      ],
      "name": "slash",
      "outputs": [
        {
          "internalType": "uint256",
          "name": "",
          "type": "uint256"
        }
      ],
      "payable": false,
      "stateMutability": "nonpayable",
      "type": "function"
    },
    {
      "constant": false,
      "inputs": [
        {
          "internalType": "bool",
          "name": "_delegation",
          "type": "bool"
        }
      ],
      "name": "updateDelegation",
      "outputs": [],
      "payable": false,
      "stateMutability": "nonpayable",
      "type": "function"
    },
    {
      "constant": false,
      "inputs": [
        {
          "internalType": "address",
          "name": "token",
          "type": "address"
        },
        {
          "internalType": "address payable",
          "name": "destination",
          "type": "address"
        },
        {
          "internalType": "uint256",
          "name": "amount",
          "type": "uint256"
        }
      ],
      "name": "drain",
      "outputs": [],
      "payable": false,
      "stateMutability": "nonpayable",
      "type": "function"
    },
    {
      "constant": true,
      "inputs": [],
      "name": "getActiveAmount",
      "outputs": [
        {
          "internalType": "uint256",
          "name": "",
          "type": "uint256"
        }
      ],
      "payable": false,
      "stateMutability": "view",
      "type": "function"
    },
    {
      "constant": false,
      "inputs": [],
      "name": "unlockContract",
      "outputs": [
        {
          "internalType": "uint256",
          "name": "",
          "type": "uint256"
        }
      ],
      "payable": false,
      "stateMutability": "nonpayable",
      "type": "function"
    },
    {
      "constant": false,
      "inputs": [],
      "name": "lockContract",
      "outputs": [
        {
          "internalType": "uint256",
          "name": "",
          "type": "uint256"
        }
      ],
      "payable": false,
      "stateMutability": "nonpayable",
      "type": "function"
    }
  ],
  "bytecode": "0x6080604081905260038054670de0b6b3a7640000600a55600e8054600160ff19909116179055610100600160b01b03191661010033810291909117918290556001600160a01b03910416906000907f8be0079c531659141344cd1fd0a4f28419497f9722a3daafe3b4186f6b6457e0908290a3612367806100816000396000f3fe608060405234801561001057600080fd5b50600436106102d55760003560e01c80637ba8c82011610182578063a9059cbb116100e9578063cf309012116100a2578063e4cd1aec1161007c578063e4cd1aec146106f2578063ef40a67014610718578063f2fde38b1461073e578063f83d08ba14610764576102d5565b8063cf309012146106b4578063dd62ed3e146106bc578063df5cf723146106ea576102d5565b8063a9059cbb146105e5578063abf59fc914610611578063b37f259014610647578063b4988fd014610670578063bfb18f29146106a4578063c7b8981c146106ac576102d5565b80638f32d59b1161013b5780638f32d59b146105765780639b2cb5d81461057e578063a22a642814610586578063a446c2db146105a9578063a457c2d7146105b1578063a69df4b5146105dd576102d5565b80637ba8c820146104f85780638b0e9f3f146105175780638d086da41461051f5780638d16a14a146105275780638d23fc611461052f5780638da5cb5b1461056e576102d5565b8063446a2ec811610241578063676e5550116101fa57806370a08231116101d457806370a08231146104ba578063715018a6146104e0578063753868e3146104e85780637542ff95146104f0576102d5565b8063676e5550146104545780636ab150711461047a5780636c7518971461049d576102d5565b8063446a2ec8146104245780634f91440d1461042c5780635c42c733146104345780635c5f7dae1461043c5780635d1e3616146104445780635ea1d6f81461044c576102d5565b806323b872dd1161029357806323b872dd1461038657806332ba2e53146103bc57806339509351146103c45780633a09bf44146103f05780633ba0b9a9146103f85780633d94eb0514610400576102d5565b8062fa3d50146102da578063095ea7b3146102f95780630d331908146103395780630d58a5f31461035c57806318160ddd1461037657806322f0f2f91461037e575b600080fd5b6102f7600480360360208110156102f057600080fd5b503561076c565b005b6103256004803603604081101561030f57600080fd5b506001600160a01b038135169060200135610a34565b604080519115158252519081900360200190f35b6102f76004803603604081101561034f57600080fd5b5080359060200135610a4b565b610364610a85565b60408051918252519081900360200190f35b610364610a8b565b610364610a91565b6103256004803603606081101561039c57600080fd5b506001600160a01b03813581169160208101359091169060400135610ab3565b610364610b0a565b610325600480360360408110156103da57600080fd5b506001600160a01b038135169060200135610b2a565b610364610b66565b610364610b6c565b610408610bb3565b604080516001600160a01b039092168252519081900360200190f35b610364610bc2565b6102f7610bc8565b610364610cbd565b610364610cc3565b610364610cc9565b610364610ccf565b6103646004803603602081101561046a57600080fd5b50356001600160a01b0316610cd5565b6102f76004803603604081101561049057600080fd5b5080359060200135610d49565b6102f7600480360360208110156104b357600080fd5b5035610e2d565b610364600480360360208110156104d057600080fd5b50356001600160a01b0316611160565b6102f761117b565b6103646111dc565b6104086111f7565b6102f76004803603602081101561050e57600080fd5b50351515611206565b61036461122a565b610364611230565b6102f7611236565b6105556004803603602081101561054557600080fd5b50356001600160a01b0316611554565b6040805192835260208301919091528051918290030190f35b61040861156d565b610325611581565b610364611597565b6103646004803603604081101561059c57600080fd5b508035906020013561159d565b61036461165c565b610325600480360360408110156105c757600080fd5b506001600160a01b038135169060200135611662565b6102f761169e565b610325600480360360408110156105fb57600080fd5b506001600160a01b0381351690602001356116b9565b6102f76004803603606081101561062757600080fd5b506001600160a01b038135811691602081013590911690604001356116c6565b6103646004803603606081101561065d57600080fd5b50803590602081013590604001356117ed565b6102f76004803603606081101561068657600080fd5b508035906001600160a01b0360208201358116916040013516611845565b610364611904565b6102f761192a565b610325611990565b610364600480360360408110156106d257600080fd5b506001600160a01b0381358116916020013516611999565b6103256119c4565b6103646004803603602081101561070857600080fd5b50356001600160a01b03166119cd565b6103646004803603602081101561072e57600080fd5b50356001600160a01b03166119df565b6102f76004803603602081101561075457600080fd5b50356001600160a01b03166119f1565b6102f7611a0b565b600554600654604080516331a9108f60e11b815260048101929092525133926001600160a01b031691636352211e916024808301926020929190829003018186803b1580156107ba57600080fd5b505afa1580156107ce573d6000803e3d6000fd5b505050506040513d60208110156107e457600080fd5b50516001600160a01b031614610831576040805162461bcd60e51b815260206004820152600d60248201526c3737ba103b30b634b230ba37b960991b604482015290519081900360640190fd5b6005546040805163900cf0cf60e01b815290516000926001600160a01b03169163900cf0cf916004808301926020929190829003018186803b15801561087657600080fd5b505afa15801561088a573d6000803e3d6000fd5b505050506040513d60208110156108a057600080fd5b50516009546005546040805163a7ab696160e01b815290519394509192849261092c926001600160a01b03169163a7ab696191600480820192602092909190829003018186803b1580156108f357600080fd5b505afa158015610907573d6000803e3d6000fd5b505050506040513d602081101561091d57600080fd5b5051839063ffffffff611a2416565b111580610937575080155b6109725760405162461bcd60e51b815260040180806020018281038252602681526020018061230d6026913960400191505060405180910390fd5b60648311156109b25760405162461bcd60e51b815260040180806020018281038252602b8152602001806122e2602b913960400191505060405180910390fd5b60048054600654600854604080516364c6600160e11b815294850192909252602484018790526044840152516001600160a01b039091169163c98cc00291606480830192600092919082900301818387803b158015610a1057600080fd5b505af1158015610a24573d6000803e3d6000fd5b5050506008939093555060095550565b6000610a41338484611a3d565b5060015b92915050565b610a53611581565b610a5c57600080fd5b6000610a73600d5483611a2490919063ffffffff16565b9050610a80838383611ac5565b505050565b60095481565b60025490565b6000610a9b611581565b610aa457600080fd5b610aac61169e565b50600d5490565b6000610ac0848484611b90565b6001600160a01b038416600090815260016020908152604080832033808552925290912054610b00918691610afb908663ffffffff611bc816565b611a3d565b5060019392505050565b6000610b14611581565b610b1d57600080fd5b5060078054600090915590565b3360008181526001602090815260408083206001600160a01b03871684529091528120549091610a41918590610afb908663ffffffff611a2416565b600d5481565b600080610b77610a8b565b90508015610baa57610ba581610b996064600d54611bdd90919063ffffffff16565b9063ffffffff611c0416565b610bad565b60645b91505090565b6004546001600160a01b031681565b600c5481565b6000610bd333611c26565b9050600a54811015610c2c576040805162461bcd60e51b815260206004820152601c60248201527f546f6f20736d616c6c207265776172647320746f2072657374616b6500000000604482015290519081900360640190fd5b610c37816000611c56565b506004805460065433600081815260116020526040808220548151637f88a95760e01b81529687019490945260248601929092526044850192909252516001600160a01b0390921692637f88a957926064808301939282900301818387803b158015610ca257600080fd5b505af1158015610cb6573d6000803e3d6000fd5b5050505050565b600f5481565b60065481565b60075481565b60085481565b600080610ce183611160565b905080610cf2576000915050610d44565b6001600160a01b038316600090815260136020526040902054600c54610d40916a084595161401484a00000091610b99918591610d349163ffffffff611bc816565b9063ffffffff611bdd16565b9150505b919050565b610d51611f5d565b506000610d5e8383611c56565b60055460065460408051636901b25360e01b8152600481019290925260248201849052336044830152519293506001600160a01b0390911691636901b253916064808201926020929091908290030181600087803b158015610dbf57600080fd5b505af1158015610dd3573d6000803e3d6000fd5b505050506040513d6020811015610de957600080fd5b5051610a80576040805162461bcd60e51b815260206004820152600e60248201526d19195c1bdcda5d0819985a5b195960921b604482015290519081900360640190fd5b6000610e3833611160565b905060008111610e7e576040805162461bcd60e51b815260206004820152600c60248201526b5a65726f2062616c616e636560a01b604482015290519081900360640190fd5b6000610e88610b6c565b90506000610ea16064610b99848663ffffffff611bdd16565b905083811015610eec576040805162461bcd60e51b8152602060048201526011602482015270546f6f206d75636820736c69707061676560781b604482015290519081900360640190fd5b610ef4611f5d565b50610eff33846120bc565b60055460065460408051629ff11560e81b815260048101929092526000848103602484015290516001600160a01b0390931692639ff1150092604480820193929182900301818387803b158015610f5557600080fd5b505af1158015610f69573d6000803e3d6000fd5b5050600d54610f81925090508263ffffffff611bc816565b600d556000610fa2610f91611904565b610b9984606463ffffffff611bdd16565b600f54909150610fb8908363ffffffff611a2416565b600f55601054610fce908263ffffffff611a2416565b601055604080518082018252828152600554825163900cf0cf60e01b8152925191926020808501936001600160a01b039093169263900cf0cf926004808201939291829003018186803b15801561102457600080fd5b505afa158015611038573d6000803e3d6000fd5b505050506040513d602081101561104e57600080fd5b5051905233600081815260126020908152604080832085518155948201516001909501949094556011905282812081905560048054600654855163f1382b5360e01b8152928301526024820193909352604481018690526064810188905292516001600160a01b0390921692839263f1382b539260848084019391929182900301818387803b1580156110e057600080fd5b505af11580156110f4573d6000803e3d6000fd5b50505050806001600160a01b031663532e19a96006546040518263ffffffff1660e01b815260040180828152602001915050600060405180830381600087803b15801561114057600080fd5b505af1158015611154573d6000803e3d6000fd5b50505050505050505050565b6001600160a01b031660009081526020819052604090205490565b611183611581565b61118c57600080fd5b60035460405160009161010090046001600160a01b0316907f8be0079c531659141344cd1fd0a4f28419497f9722a3daafe3b4186f6b6457e0908390a360038054610100600160a81b0319169055565b60006111e6611581565b6111ef57600080fd5b610aac611a0b565b6005546001600160a01b031681565b61120e611581565b61121757600080fd5b600e805460ff1916911515919091179055565b600b5481565b60105481565b336000908152601260209081526040918290208054600554845163900cf0cf60e01b81529451929491936001600160a01b039091169263900cf0cf926004808201939291829003018186803b15801561128e57600080fd5b505afa1580156112a2573d6000803e3d6000fd5b505050506040513d60208110156112b857600080fd5b50516005546040805163a7ab696160e01b8152905161133d926001600160a01b03169163a7ab6961916004808301926020929190829003018186803b15801561130057600080fd5b505afa158015611314573d6000803e3d6000fd5b505050506040513d602081101561132a57600080fd5b505160018501549063ffffffff611a2416565b1115801561134b5750600081115b61139c576040805162461bcd60e51b815260206004820152601c60248201527f496e636f6d706c657465207769746864726177616c20706572696f6400000000604482015290519081900360640190fd5b60006113af6064610b9984610d34611904565b6010549091506113c5908363ffffffff611bc816565b601055600f546113db908263ffffffff611bc816565b600f55600b546113f1908263ffffffff611bc816565b600b556005546006546040805163bc8756a960e01b8152600481019290925260248201849052336044830152516001600160a01b039092169163bc8756a9916064808201926020929091908290030181600087803b15801561145257600080fd5b505af1158015611466573d6000803e3d6000fd5b505050506040513d602081101561147c57600080fd5b50516114c5576040805162461bcd60e51b8152602060048201526013602482015272496e737566666963656e74207265776172647360681b604482015290519081900360640190fd5b600480546006546040805163302df4df60e11b81529384019190915233602484015260448301849052516001600160a01b039091169163605be9be91606480830192600092919082900301818387803b15801561152157600080fd5b505af1158015611535573d6000803e3d6000fd5b5050336000908152601260205260408120818155600101555050505050565b6012602052600090815260409020805460019091015482565b60035461010090046001600160a01b031690565b60035461010090046001600160a01b0316331490565b600a5481565b60006115a7611581565b6115b057600080fd5b600f54600d546000906115c9908363ffffffff611a2416565b9050806115db57600092505050610a45565b60006116006115f0878463ffffffff611a2416565b610b99848863ffffffff611bdd16565b9050600061161883610b99868563ffffffff611bdd16565b905061162a848263ffffffff611bc816565b600f5561164f611640838363ffffffff611bc816565b600d549063ffffffff611bc816565b600d555095945050505050565b600d5490565b3360008181526001602090815260408083206001600160a01b03871684529091528120549091610a41918590610afb908663ffffffff611bc816565b6116a6611581565b6116af57600080fd5b6116b7612163565b565b6000610a41338484611b90565b6116ce611581565b6116d757600080fd5b6001600160a01b038316611721576040516001600160a01b0383169082156108fc029083906000818181858888f1935050505015801561171b573d6000803e3d6000fd5b50610a80565b826001600160a01b031663a9059cbb83836040518363ffffffff1660e01b815260040180836001600160a01b03166001600160a01b0316815260200182815260200192505050602060405180830381600087803b15801561178157600080fd5b505af1158015611795573d6000803e3d6000fd5b505050506040513d60208110156117ab57600080fd5b5051610a80576040805162461bcd60e51b815260206004820152600c60248201526b111c985a5b8819985a5b195960a21b604482015290519081900360640190fd5b60006117f7611581565b61180057600080fd5b6000611817600d5484611a2490919063ffffffff16565b9050600061182f85610b99848963ffffffff611bdd16565b905061183c818584611ac5565b50949350505050565b600354600160a81b900460ff1615611895576040805162461bcd60e51b815260206004820152600e60248201526d185b1c9958591e481a5b9a5d195960921b604482015290519081900360640190fd5b6003805460ff60a81b1916600160a81b1790556006839055600480546001600160a01b038085166001600160a01b03199283161790925560058054928416929091169190911790556118e68161216f565b5050670de0b6b3a7640000600a5550600e805460ff19166001179055565b6010546000908015610baa57610ba581610b996064600f54611bdd90919063ffffffff16565b6000611934611f5d565b9050600a5481101561198d576040805162461bcd60e51b815260206004820152601860248201527f546f6f20736d616c6c207265776172647320616d6f756e740000000000000000604482015290519081900360640190fd5b50565b60035460ff1681565b6001600160a01b03918216600090815260016020908152604080832093909416825291909152205490565b600e5460ff1681565b60136020526000908152604090205481565b60116020526000908152604090205481565b6119f9611581565b611a0257600080fd5b61198d8161216f565b611a13611581565b611a1c57600080fd5b6116b76121e9565b600082820183811015611a3657600080fd5b9392505050565b6001600160a01b038216611a5057600080fd5b6001600160a01b038316611a6357600080fd5b6001600160a01b03808416600081815260016020908152604080832094871680845294825291829020859055815185815291517f8c5be1e5ebec7d5bd14f71427d1e84f3dd0314c0f7b2291e5b200ac8c7c3b9259281900390910190a3505050565b6000611adb82610b99858763ffffffff611bdd16565b60085490915015611b1757611b14611b076064610b99600854610d34868a611bc890919063ffffffff16565b829063ffffffff611a2416565b90505b600754611b2a908263ffffffff611a2416565b6007556000611b3f858363ffffffff611bc816565b90506000611b4b610a8b565b90508015611b8857611b84611b7582610b99856a084595161401484a00000063ffffffff611bdd16565b600c549063ffffffff611a2416565b600c555b505050505050565b6040805162461bcd60e51b8152602060048201526008602482015267111a5cd8589b195960c21b604482015290519081900360640190fd5b600082821115611bd757600080fd5b50900390565b600082611bec57506000610a45565b82820282848281611bf957fe5b0414611a3657600080fd5b6000808211611c1257600080fd5b6000828481611c1d57fe5b04949350505050565b600080611c3283610cd5565b600c546001600160a01b038516600090815260136020526040902055915050919050565b6000611c606121f8565b600e5460ff16611cb0576040805162461bcd60e51b815260206004820152601660248201527511195b1959d85d1a5bdb881a5cc8191a5cd8589b195960521b604482015290519081900360640190fd5b6000611cba610b6c565b90506000611cd382610b9987606463ffffffff611bdd16565b905083811015611d1e576040805162461bcd60e51b8152602060048201526011602482015270546f6f206d75636820736c69707061676560781b604482015290519081900360640190fd5b3360009081526012602052604090205415611d6f576040805162461bcd60e51b815260206004820152600c60248201526b13db99dbda5b99c8195e1a5d60a21b604482015290519081900360640190fd5b611d793382612239565b611da8611d916064610b99858563ffffffff611bdd16565b8681611d9957fe5b8791900663ffffffff611bc816565b600b54909550611dbe908663ffffffff611a2416565b600b5533600090815260116020526040902054611de1908663ffffffff611a2416565b33600090815260116020526040902055600d54611e04908663ffffffff611a2416565b600d5560055460065460408051629ff11560e81b8152600481019290925260248201889052516001600160a01b0390921691639ff115009160448082019260009290919082900301818387803b158015611e5d57600080fd5b505af1158015611e71573d6000803e3d6000fd5b5050600480546006546040805163c69d057360e01b815293840191909152336024840152604483018a905260648301869052516001600160a01b03909116935083925063c69d05739160848082019260009290919082900301818387803b158015611edb57600080fd5b505af1158015611eef573d6000803e3d6000fd5b50505050806001600160a01b031663532e19a96006546040518263ffffffff1660e01b815260040180828152602001915050600060405180830381600087803b158015611f3b57600080fd5b505af1158015611f4f573d6000803e3d6000fd5b509798975050505050505050565b600080611f6933611c26565b905080156120b7576005546006546040805163bc8756a960e01b8152600481019290925260248201849052336044830152516001600160a01b039092169163bc8756a9916064808201926020929091908290030181600087803b158015611fcf57600080fd5b505af1158015611fe3573d6000803e3d6000fd5b505050506040513d6020811015611ff957600080fd5b5051612042576040805162461bcd60e51b8152602060048201526013602482015272496e737566666963656e74207265776172647360681b604482015290519081900360640190fd5b600480546006546040805163b7721d2d60e01b81529384019190915233602484015260448301849052516001600160a01b039091169163b7721d2d91606480830192600092919082900301818387803b15801561209e57600080fd5b505af11580156120b2573d6000803e3d6000fd5b505050505b905090565b6001600160a01b0382166120cf57600080fd5b6002546120e2908263ffffffff611bc816565b6002556001600160a01b03821660009081526020819052604090205461210e908263ffffffff611bc816565b6001600160a01b038316600081815260208181526040808320949094558351858152935191937fddf252ad1be2c89b69c2b068fc378daa952ba7f163c4a11628f55a4df523b3ef929081900390910190a35050565b6003805460ff19169055565b6001600160a01b03811661218257600080fd5b6003546040516001600160a01b0380841692610100900416907f8be0079c531659141344cd1fd0a4f28419497f9722a3daafe3b4186f6b6457e090600090a3600380546001600160a01b0390921661010002610100600160a81b0319909216919091179055565b6003805460ff19166001179055565b60035460ff16156116b7576040805162461bcd60e51b81526020600482015260066024820152651b1bd8dad95960d21b604482015290519081900360640190fd5b6001600160a01b03821661224c57600080fd5b60025461225f908263ffffffff611a2416565b6002556001600160a01b03821660009081526020819052604090205461228b908263ffffffff611a2416565b6001600160a01b0383166000818152602081815260408083209490945583518581529351929391927fddf252ad1be2c89b69c2b068fc378daa952ba7f163c4a11628f55a4df523b3ef9281900390910190a3505056fe436f6d6d697373696f6e20726174652073686f756c6420626520696e2072616e6765206f6620302d313030436f6d6d697373696f6e20726174652075706461746520636f6f6c646f776e20706572696f64a265627a7a723158207e2fe79ddb99e46d38cc2ceece7c68df51be8b0105a1b56b671c8a0502f8ab0664736f6c63430005110032",
  "source": "pragma solidity ^0.5.2;\n\nimport {ERC20NonTransferable} from \"../../common/tokens/ERC20NonTransferable.sol\";\nimport {ERC20} from \"openzeppelin-solidity/contracts/token/ERC20/ERC20.sol\";\nimport {StakingInfo} from \"./../StakingInfo.sol\";\nimport {OwnableLockable} from \"../../common/mixin/OwnableLockable.sol\";\nimport {IStakeManager} from \"../stakeManager/IStakeManager.sol\";\nimport {IValidatorShare} from \"./IValidatorShare.sol\";\nimport {Initializable} from \"../../common/mixin/Initializable.sol\";\n\ncontract ValidatorShare is IValidatorShare, ERC20NonTransferable, OwnableLockable, Initializable {\n    struct Delegator {\n        uint256 shares;\n        uint256 withdrawEpoch;\n    }\n\n    uint256 constant EXCHANGE_RATE_PRECISION = 100;\n    uint256 constant MAX_COMMISION_RATE = 100;\n    uint256 constant REWARD_PRECISION = 10**25;\n\n    StakingInfo public stakingLogger;\n    IStakeManager public stakeManager;\n    uint256 public validatorId;\n    uint256 public validatorRewards;\n    uint256 public commissionRate;\n    //last checkpoint where validator updated commission rate\n    uint256 public lastCommissionUpdate;\n    uint256 public minAmount = 10**18;\n\n    uint256 public totalStake;\n    uint256 public rewardPerShare;\n    uint256 public activeAmount;\n    bool public delegation = true;\n\n    uint256 public withdrawPool;\n    uint256 public withdrawShares;\n\n    mapping(address => uint256) public amountStaked;\n    mapping(address => Delegator) public delegators;\n    mapping(address => uint256) public initalRewardPerShare;\n\n    modifier onlyValidator() {\n        require(stakeManager.ownerOf(validatorId) == msg.sender, \"not validator\");\n        _;\n    }\n\n    // onlyOwner will prevent this contract from initializing, since it's owner is going to be 0x0 address\n    function initialize(uint256 _validatorId, address _stakingLogger, address _stakeManager) external initializer  {\n        validatorId = _validatorId;\n        stakingLogger = StakingInfo(_stakingLogger);\n        stakeManager = IStakeManager(_stakeManager);\n        _transferOwnership(_stakeManager);\n\n        minAmount = 10**18;\n        delegation = true;\n    }\n\n    function updateCommissionRate(uint256 newCommissionRate) external onlyValidator {\n        uint256 epoch = stakeManager.epoch();\n        uint256 _lastCommissionUpdate = lastCommissionUpdate;\n\n        require( // withdrawalDelay == dynasty\n            (_lastCommissionUpdate.add(stakeManager.withdrawalDelay()) <= epoch) || _lastCommissionUpdate == 0, // For initial setting of commission rate\n            \"Commission rate update cooldown period\"\n        );\n\n        require(newCommissionRate <= MAX_COMMISION_RATE, \"Commission rate should be in range of 0-100\");\n        stakingLogger.logUpdateCommissionRate(validatorId, newCommissionRate, commissionRate);\n        commissionRate = newCommissionRate;\n        lastCommissionUpdate = epoch;\n    }\n\n    function updateRewards(uint256 reward, uint256 checkpointStakePower, uint256 validatorStake)\n        external\n        onlyOwner\n        returns (uint256)\n    {\n        /**\n        restaking is simply buying more shares of pool\n        but those needs to be nonswapable/transferrable(to prevent https://en.wikipedia.org/wiki/Tragedy_of_the_commons)\n\n        - calculate rewards for validator stake + delgation\n        - keep the validator rewards aside\n        - take the commission out\n        - add rewards to pool rewards\n        - returns total active stake for validator\n        */\n        uint256 combinedStakePower = validatorStake.add(activeAmount); // validator + delegation stake power\n        uint256 rewards = combinedStakePower.mul(reward).div(checkpointStakePower);\n\n        _updateRewards(rewards, validatorStake, combinedStakePower);\n        return combinedStakePower;\n    }\n\n    function addProposerBonus(uint256 rewards, uint256 validatorStake) public onlyOwner {\n        uint256 combinedStakePower = validatorStake.add(activeAmount);\n        _updateRewards(rewards, validatorStake, combinedStakePower);\n    }\n\n    function _updateRewards(uint256 rewards, uint256 validatorStake, uint256 combinedStakePower) internal {\n        uint256 _validatorRewards = validatorStake.mul(rewards).div(combinedStakePower);\n\n        // add validator commission from delegation rewards\n        if (commissionRate > 0) {\n            _validatorRewards = _validatorRewards.add(\n                rewards.sub(_validatorRewards).mul(commissionRate).div(MAX_COMMISION_RATE)\n            );\n        }\n\n        validatorRewards = validatorRewards.add(_validatorRewards);\n\n        uint256 delegatorsRewards = rewards.sub(_validatorRewards);\n        uint256 totalShares = totalSupply();\n        if (totalShares > 0) {\n            rewardPerShare = rewardPerShare.add(\n                delegatorsRewards.mul(REWARD_PRECISION).div(totalShares)\n            );\n        }\n    }\n\n    function withdrawRewardsValidator() external onlyOwner returns (uint256) {\n        uint256 _validatorRewards = validatorRewards;\n        validatorRewards = 0;\n        return _validatorRewards;\n    }\n\n    function exchangeRate() public view returns (uint256) {\n        uint256 totalShares = totalSupply();\n        return\n            totalShares == 0\n                ? EXCHANGE_RATE_PRECISION\n                : activeAmount.mul(EXCHANGE_RATE_PRECISION).div(totalShares);\n    }\n\n    function withdrawExchangeRate() public view returns (uint256) {\n        uint256 _withdrawShares = withdrawShares;\n        return\n            _withdrawShares == 0\n                ? EXCHANGE_RATE_PRECISION\n                : withdrawPool.mul(EXCHANGE_RATE_PRECISION).div(_withdrawShares);\n    }\n\n    function buyVoucher(uint256 _amount, uint256 _minSharesToMint) public {\n        _withdrawAndTransferReward();\n        uint256 amountToDeposit = _buyShares(_amount, _minSharesToMint);\n        require(stakeManager.delegationDeposit(validatorId, amountToDeposit, msg.sender), \"deposit failed\");\n    }\n\n    function restake() public {\n        uint256 liquidReward = _withdrawReward(msg.sender);\n        require(liquidReward >= minAmount, \"Too small rewards to restake\");\n\n        _buyShares(liquidReward, 0);\n\n        stakingLogger.logDelegatorRestaked(validatorId, msg.sender, amountStaked[msg.sender]);\n    }\n\n    function _buyShares(uint256 _amount, uint256 _minSharesToMint) private onlyWhenUnlocked returns(uint256) {\n        require(delegation, \"Delegation is disabled\");\n\n        uint256 rate = exchangeRate();\n        uint256 shares = _amount.mul(EXCHANGE_RATE_PRECISION).div(rate);\n        require(shares >= _minSharesToMint, \"Too much slippage\");\n        require(delegators[msg.sender].shares == 0, \"Ongoing exit\");\n\n        _mint(msg.sender, shares);\n\n        _amount = _amount.sub(_amount % rate.mul(shares).div(EXCHANGE_RATE_PRECISION));\n\n        totalStake = totalStake.add(_amount);\n        amountStaked[msg.sender] = amountStaked[msg.sender].add(_amount);\n\n        activeAmount = activeAmount.add(_amount);\n        stakeManager.updateValidatorState(validatorId, int256(_amount));\n\n        StakingInfo logger = stakingLogger;\n        logger.logShareMinted(validatorId, msg.sender, _amount, shares);\n        logger.logStakeUpdate(validatorId);\n\n        return _amount;\n    }\n\n    function sellVoucher(uint256 _minClaimAmount) public {\n        uint256 shares = balanceOf(msg.sender);\n        require(shares > 0, \"Zero balance\");\n\n        uint256 rate = exchangeRate();\n        uint256 _amount = rate.mul(shares).div(EXCHANGE_RATE_PRECISION);\n        require(_amount >= _minClaimAmount, \"Too much slippage\");\n\n        _withdrawAndTransferReward();\n        \n        _burn(msg.sender, shares);\n        stakeManager.updateValidatorState(validatorId, -int256(_amount));\n\n        activeAmount = activeAmount.sub(_amount);\n        uint256 _withdrawPoolShare = _amount.mul(EXCHANGE_RATE_PRECISION).div(withdrawExchangeRate());\n\n        withdrawPool = withdrawPool.add(_amount);\n        withdrawShares = withdrawShares.add(_withdrawPoolShare);\n        delegators[msg.sender] = Delegator({shares: _withdrawPoolShare, withdrawEpoch: stakeManager.epoch()});\n        amountStaked[msg.sender] = 0;\n\n        StakingInfo logger = stakingLogger;\n        logger.logShareBurned(validatorId, msg.sender, _amount, shares);\n        logger.logStakeUpdate(validatorId);\n    }\n\n    function _withdrawReward(address user) private returns(uint256) {\n        uint256 liquidRewards = getLiquidRewards(user);\n        initalRewardPerShare[user] = rewardPerShare;\n        return liquidRewards;\n    }\n\n    function _withdrawAndTransferReward() private returns(uint256) {\n        uint256 liquidRewards = _withdrawReward(msg.sender);\n        \n        if (liquidRewards > 0) {\n            require(stakeManager.transferFunds(validatorId, liquidRewards, msg.sender), \"Insufficent rewards\");\n            stakingLogger.logDelegatorClaimRewards(validatorId, msg.sender, liquidRewards);\n        }\n        \n        return liquidRewards;\n    }\n\n    function withdrawRewards() public {\n        uint256 rewards = _withdrawAndTransferReward();\n        require(rewards >= minAmount, \"Too small rewards amount\");\n    }\n\n    function getLiquidRewards(address user) public view returns (uint256) {\n        uint256 shares = balanceOf(user);\n        if (shares == 0) {\n            return 0;\n        }\n\n        return rewardPerShare.sub(initalRewardPerShare[user]).mul(shares).div(REWARD_PRECISION);\n    }\n\n    function unstakeClaimTokens() public {\n        Delegator storage delegator = delegators[msg.sender];\n\n        uint256 shares = delegator.shares;\n        require(\n            delegator.withdrawEpoch.add(stakeManager.withdrawalDelay()) <= stakeManager.epoch() && shares > 0,\n            \"Incomplete withdrawal period\"\n        );\n\n        uint256 _amount = withdrawExchangeRate().mul(shares).div(EXCHANGE_RATE_PRECISION);\n        withdrawShares = withdrawShares.sub(shares);\n        withdrawPool = withdrawPool.sub(_amount);\n\n        totalStake = totalStake.sub(_amount);\n\n        require(stakeManager.transferFunds(validatorId, _amount, msg.sender), \"Insufficent rewards\");\n        stakingLogger.logDelegatorUnstaked(validatorId, msg.sender, _amount);\n        delete delegators[msg.sender];\n    }\n\n    function slash(uint256 valPow, uint256 totalAmountToSlash) external onlyOwner returns (uint256) {\n        uint256 _withdrawPool = withdrawPool;\n        uint256 delegationAmount = activeAmount.add(_withdrawPool);\n        if (delegationAmount == 0) {\n            return 0;\n        }\n        // total amount to be slashed from delegation pool (active + inactive)\n        uint256 _amountToSlash = delegationAmount.mul(totalAmountToSlash).div(valPow.add(delegationAmount));\n        uint256 _amountToSlashWithdrawalPool = _withdrawPool.mul(_amountToSlash).div(delegationAmount);\n\n        // slash inactive pool\n        withdrawPool = _withdrawPool.sub(_amountToSlashWithdrawalPool);\n        activeAmount = activeAmount.sub(_amountToSlash.sub(_amountToSlashWithdrawalPool));\n        return _amountToSlash;\n    }\n\n    function updateDelegation(bool _delegation) external onlyOwner {\n        delegation = _delegation;\n    }\n\n    function drain(\n        address token,\n        address payable destination,\n        uint256 amount\n    ) external onlyOwner {\n        if (token == address(0x0)) {\n            destination.transfer(amount);\n        } else {\n            require(ERC20(token).transfer(destination, amount), \"Drain failed\");\n        }\n    }\n\n    function getActiveAmount() external view returns(uint256) {\n        return activeAmount;\n    }\n\n    function unlockContract() external onlyOwner returns (uint256) {\n        unlock();\n        return activeAmount;\n    }\n\n    function lockContract() external onlyOwner returns (uint256) {\n        lock();\n        return activeAmount;\n    }\n}\n",
  "sourcePath": "/home/manjain/Documents/contracts/contracts/staking/validatorShare/ValidatorShare.sol",
  "compiler": {
    "name": "solc",
    "version": "0.5.17+commit.d19bba13.Linux.g++"
  },
  "schemaVersion": "3.0.14",
  "updatedAt": "2021-02-21T12:11:06.973Z",
  "devdoc": {
    "methods": {
      "allowance(address,address)": {
        "details": "Function to check the amount of tokens that an owner allowed to a spender.",
        "params": {
          "owner": "address The address which owns the funds.",
          "spender": "address The address which will spend the funds."
        },
        "return": "A uint256 specifying the amount of tokens still available for the spender."
      },
      "approve(address,uint256)": {
        "details": "Approve the passed address to spend the specified amount of tokens on behalf of msg.sender. Beware that changing an allowance with this method brings the risk that someone may use both the old and the new allowance by unfortunate transaction ordering. One possible solution to mitigate this race condition is to first reduce the spender's allowance to 0 and set the desired value afterwards: https://github.com/ethereum/EIPs/issues/20#issuecomment-263524729",
        "params": {
          "spender": "The address which will spend the funds.",
          "value": "The amount of tokens to be spent."
        }
      },
      "balanceOf(address)": {
        "details": "Gets the balance of the specified address.",
        "params": {
          "owner": "The address to query the balance of."
        },
        "return": "A uint256 representing the amount owned by the passed address."
      },
      "decreaseAllowance(address,uint256)": {
        "details": "Decrease the amount of tokens that an owner allowed to a spender. approve should be called when _allowed[msg.sender][spender] == 0. To decrement allowed value is better to use this function to avoid 2 calls (and wait until the first transaction is mined) From MonolithDAO Token.sol Emits an Approval event.",
        "params": {
          "spender": "The address which will spend the funds.",
          "subtractedValue": "The amount of tokens to decrease the allowance by."
        }
      },
      "increaseAllowance(address,uint256)": {
        "details": "Increase the amount of tokens that an owner allowed to a spender. approve should be called when _allowed[msg.sender][spender] == 0. To increment allowed value is better to use this function to avoid 2 calls (and wait until the first transaction is mined) From MonolithDAO Token.sol Emits an Approval event.",
        "params": {
          "addedValue": "The amount of tokens to increase the allowance by.",
          "spender": "The address which will spend the funds."
        }
      },
      "isOwner()": {
        "return": "true if `msg.sender` is the owner of the contract."
      },
      "owner()": {
        "return": "the address of the owner."
      },
      "renounceOwnership()": {
        "details": "Allows the current owner to relinquish control of the contract. It will not be possible to call the functions with the `onlyOwner` modifier anymore."
      },
      "totalSupply()": {
        "details": "Total number of tokens in existence"
      },
      "transfer(address,uint256)": {
        "details": "Transfer token to a specified address",
        "params": {
          "to": "The address to transfer to.",
          "value": "The amount to be transferred."
        }
      },
      "transferFrom(address,address,uint256)": {
        "details": "Transfer tokens from one address to another. Note that while this function emits an Approval event, this is not required as per the specification, and other compliant implementations may not emit the event.",
        "params": {
          "from": "address The address which you want to send tokens from",
          "to": "address The address which you want to transfer to",
          "value": "uint256 the amount of tokens to be transferred"
        }
      },
      "transferOwnership(address)": {
        "details": "Allows the current owner to transfer control of the contract to a newOwner.",
        "params": {
          "newOwner": "The address to transfer ownership to."
        }
      }
    }
  },
  "userdoc": {
    "methods": {
      "renounceOwnership()": {
        "notice": "Renouncing ownership will leave the contract without an owner, thereby removing any functionality that is only available to the owner."
      }
    }
  }
}